{
	"contracts/space.sol": {
		"XEvmosToken": {
			"abi": [
				{
					"anonymous": false,
					"inputs": [
						{
							"indexed": true,
							"internalType": "address",
							"name": "_sender",
							"type": "address"
						},
						{
							"indexed": true,
							"internalType": "address",
							"name": "_recipient",
							"type": "address"
						},
						{
							"indexed": false,
							"internalType": "uint256",
							"name": "_amount",
							"type": "uint256"
						}
					],
					"name": "Approval",
					"type": "event"
				},
				{
					"anonymous": false,
					"inputs": [
						{
							"indexed": true,
							"internalType": "address",
							"name": "_userAddress",
							"type": "address"
						},
						{
							"indexed": false,
							"internalType": "uint256",
							"name": "_xEvmosAmount",
							"type": "uint256"
						}
					],
					"name": "CancelRedeem",
					"type": "event"
				},
				{
					"anonymous": false,
					"inputs": [
						{
							"indexed": true,
							"internalType": "address",
							"name": "_from",
							"type": "address"
						},
						{
							"indexed": false,
							"internalType": "address",
							"name": "_to",
							"type": "address"
						},
						{
							"indexed": false,
							"internalType": "uint256",
							"name": "_amount",
							"type": "uint256"
						}
					],
					"name": "Convert",
					"type": "event"
				},
				{
					"anonymous": false,
					"inputs": [
						{
							"indexed": true,
							"internalType": "address",
							"name": "_userAddress",
							"type": "address"
						},
						{
							"indexed": false,
							"internalType": "uint256",
							"name": "_xEvmosAmount",
							"type": "uint256"
						},
						{
							"indexed": false,
							"internalType": "uint256",
							"name": "_EvmosAmount",
							"type": "uint256"
						}
					],
					"name": "FinalizeRedeem",
					"type": "event"
				},
				{
					"anonymous": false,
					"inputs": [
						{
							"indexed": false,
							"internalType": "uint8",
							"name": "version",
							"type": "uint8"
						}
					],
					"name": "Initialized",
					"type": "event"
				},
				{
					"anonymous": false,
					"inputs": [
						{
							"indexed": true,
							"internalType": "address",
							"name": "previousOwner",
							"type": "address"
						},
						{
							"indexed": true,
							"internalType": "address",
							"name": "newOwner",
							"type": "address"
						}
					],
					"name": "OwnershipTransferred",
					"type": "event"
				},
				{
					"anonymous": false,
					"inputs": [
						{
							"indexed": true,
							"internalType": "address",
							"name": "_userAddress",
							"type": "address"
						},
						{
							"indexed": false,
							"internalType": "uint256",
							"name": "_xEvmosAmount",
							"type": "uint256"
						},
						{
							"indexed": false,
							"internalType": "uint256",
							"name": "_EvmosAmount",
							"type": "uint256"
						},
						{
							"indexed": false,
							"internalType": "uint256",
							"name": "_duration",
							"type": "uint256"
						}
					],
					"name": "Redeem",
					"type": "event"
				},
				{
					"anonymous": false,
					"inputs": [
						{
							"indexed": false,
							"internalType": "address",
							"name": "_account",
							"type": "address"
						},
						{
							"indexed": false,
							"internalType": "bool",
							"name": "_add",
							"type": "bool"
						}
					],
					"name": "SetTransferWhitelist",
					"type": "event"
				},
				{
					"anonymous": false,
					"inputs": [
						{
							"indexed": true,
							"internalType": "address",
							"name": "_sender",
							"type": "address"
						},
						{
							"indexed": true,
							"internalType": "address",
							"name": "_recipient",
							"type": "address"
						},
						{
							"indexed": false,
							"internalType": "uint256",
							"name": "_amount",
							"type": "uint256"
						}
					],
					"name": "Transfer",
					"type": "event"
				},
				{
					"anonymous": false,
					"inputs": [
						{
							"indexed": false,
							"internalType": "uint256",
							"name": "_minRedeemRatio",
							"type": "uint256"
						},
						{
							"indexed": false,
							"internalType": "uint256",
							"name": "_maxRedeemRatio",
							"type": "uint256"
						},
						{
							"indexed": false,
							"internalType": "uint256",
							"name": "_minRedeemDuration",
							"type": "uint256"
						},
						{
							"indexed": false,
							"internalType": "uint256",
							"name": "_maxRedeemDuration",
							"type": "uint256"
						}
					],
					"name": "UpdateRedeemSettings",
					"type": "event"
				},
				{
					"stateMutability": "payable",
					"type": "fallback"
				},
				{
					"inputs": [
						{
							"internalType": "address",
							"name": "",
							"type": "address"
						}
					],
					"name": "_transferWhitelist",
					"outputs": [
						{
							"internalType": "bool",
							"name": "",
							"type": "bool"
						}
					],
					"stateMutability": "view",
					"type": "function"
				},
				{
					"inputs": [
						{
							"internalType": "address",
							"name": "_owner",
							"type": "address"
						},
						{
							"internalType": "address",
							"name": "_spender",
							"type": "address"
						}
					],
					"name": "allowance",
					"outputs": [
						{
							"internalType": "uint256",
							"name": "",
							"type": "uint256"
						}
					],
					"stateMutability": "view",
					"type": "function"
				},
				{
					"inputs": [
						{
							"internalType": "address",
							"name": "_spender",
							"type": "address"
						},
						{
							"internalType": "uint256",
							"name": "_amount",
							"type": "uint256"
						}
					],
					"name": "approve",
					"outputs": [
						{
							"internalType": "bool",
							"name": "",
							"type": "bool"
						}
					],
					"stateMutability": "nonpayable",
					"type": "function"
				},
				{
					"inputs": [
						{
							"internalType": "address",
							"name": "_account",
							"type": "address"
						}
					],
					"name": "balanceOf",
					"outputs": [
						{
							"internalType": "uint256",
							"name": "",
							"type": "uint256"
						}
					],
					"stateMutability": "view",
					"type": "function"
				},
				{
					"inputs": [],
					"name": "burnNumber",
					"outputs": [
						{
							"internalType": "uint256",
							"name": "",
							"type": "uint256"
						}
					],
					"stateMutability": "view",
					"type": "function"
				},
				{
					"inputs": [
						{
							"internalType": "uint256",
							"name": "_redeemIndex",
							"type": "uint256"
						}
					],
					"name": "cancelRedeem",
					"outputs": [],
					"stateMutability": "nonpayable",
					"type": "function"
				},
				{
					"inputs": [
						{
							"internalType": "uint256",
							"name": "_amount",
							"type": "uint256"
						}
					],
					"name": "convert",
					"outputs": [],
					"stateMutability": "nonpayable",
					"type": "function"
				},
				{
					"inputs": [],
					"name": "decimals",
					"outputs": [
						{
							"internalType": "uint8",
							"name": "",
							"type": "uint8"
						}
					],
					"stateMutability": "view",
					"type": "function"
				},
				{
					"inputs": [
						{
							"internalType": "address",
							"name": "_spender",
							"type": "address"
						},
						{
							"internalType": "uint256",
							"name": "_subtractedValue",
							"type": "uint256"
						}
					],
					"name": "decreaseAllowance",
					"outputs": [
						{
							"internalType": "bool",
							"name": "",
							"type": "bool"
						}
					],
					"stateMutability": "nonpayable",
					"type": "function"
				},
				{
					"inputs": [
						{
							"internalType": "uint256",
							"name": "_redeemIndex",
							"type": "uint256"
						}
					],
					"name": "finalizeRedeem",
					"outputs": [],
					"stateMutability": "nonpayable",
					"type": "function"
				},
				{
					"inputs": [
						{
							"internalType": "uint256",
							"name": "_amount",
							"type": "uint256"
						},
						{
							"internalType": "uint256",
							"name": "_Class",
							"type": "uint256"
						}
					],
					"name": "getEvmosByVestingDuration",
					"outputs": [
						{
							"internalType": "uint256",
							"name": "",
							"type": "uint256"
						}
					],
					"stateMutability": "view",
					"type": "function"
				},
				{
					"inputs": [
						{
							"internalType": "address",
							"name": "_userAddress",
							"type": "address"
						}
					],
					"name": "getUserRedeemsLength",
					"outputs": [
						{
							"internalType": "uint256",
							"name": "",
							"type": "uint256"
						}
					],
					"stateMutability": "view",
					"type": "function"
				},
				{
					"inputs": [
						{
							"internalType": "address",
							"name": "_spender",
							"type": "address"
						},
						{
							"internalType": "uint256",
							"name": "_addedValue",
							"type": "uint256"
						}
					],
					"name": "increaseAllowance",
					"outputs": [
						{
							"internalType": "bool",
							"name": "",
							"type": "bool"
						}
					],
					"stateMutability": "nonpayable",
					"type": "function"
				},
				{
					"inputs": [
						{
							"internalType": "string",
							"name": "_name",
							"type": "string"
						},
						{
							"internalType": "string",
							"name": "_symbol",
							"type": "string"
						},
						{
							"internalType": "uint256",
							"name": "_minRedeemRatio",
							"type": "uint256"
						},
						{
							"internalType": "uint256",
							"name": "_maxRedeemRatio",
							"type": "uint256"
						},
						{
							"internalType": "uint256",
							"name": "_minRedeemDuration",
							"type": "uint256"
						},
						{
							"internalType": "uint256",
							"name": "_maxRedeemDuration",
							"type": "uint256"
						}
					],
					"name": "initialize",
					"outputs": [],
					"stateMutability": "nonpayable",
					"type": "function"
				},
				{
					"inputs": [
						{
							"internalType": "address",
							"name": "_account",
							"type": "address"
						}
					],
					"name": "isTransferWhitelisted",
					"outputs": [
						{
							"internalType": "bool",
							"name": "",
							"type": "bool"
						}
					],
					"stateMutability": "view",
					"type": "function"
				},
				{
					"inputs": [],
					"name": "maxRedeemDuration",
					"outputs": [
						{
							"internalType": "uint256",
							"name": "",
							"type": "uint256"
						}
					],
					"stateMutability": "view",
					"type": "function"
				},
				{
					"inputs": [],
					"name": "maxRedeemRatio",
					"outputs": [
						{
							"internalType": "uint256",
							"name": "",
							"type": "uint256"
						}
					],
					"stateMutability": "view",
					"type": "function"
				},
				{
					"inputs": [],
					"name": "minRedeemDuration",
					"outputs": [
						{
							"internalType": "uint256",
							"name": "",
							"type": "uint256"
						}
					],
					"stateMutability": "view",
					"type": "function"
				},
				{
					"inputs": [],
					"name": "minRedeemRatio",
					"outputs": [
						{
							"internalType": "uint256",
							"name": "",
							"type": "uint256"
						}
					],
					"stateMutability": "view",
					"type": "function"
				},
				{
					"inputs": [],
					"name": "name",
					"outputs": [
						{
							"internalType": "string",
							"name": "",
							"type": "string"
						}
					],
					"stateMutability": "view",
					"type": "function"
				},
				{
					"inputs": [],
					"name": "owner",
					"outputs": [
						{
							"internalType": "address",
							"name": "",
							"type": "address"
						}
					],
					"stateMutability": "view",
					"type": "function"
				},
				{
					"inputs": [
						{
							"internalType": "uint256",
							"name": "_xEvmosAmount",
							"type": "uint256"
						},
						{
							"internalType": "uint256",
							"name": "_Class",
							"type": "uint256"
						}
					],
					"name": "redeem",
					"outputs": [],
					"stateMutability": "nonpayable",
					"type": "function"
				},
				{
					"inputs": [],
					"name": "renounceOwnership",
					"outputs": [],
					"stateMutability": "nonpayable",
					"type": "function"
				},
				{
					"inputs": [],
					"name": "symbol",
					"outputs": [
						{
							"internalType": "string",
							"name": "",
							"type": "string"
						}
					],
					"stateMutability": "view",
					"type": "function"
				},
				{
					"inputs": [],
					"name": "totalSupply",
					"outputs": [
						{
							"internalType": "uint256",
							"name": "",
							"type": "uint256"
						}
					],
					"stateMutability": "view",
					"type": "function"
				},
				{
					"inputs": [
						{
							"internalType": "address",
							"name": "_recipient",
							"type": "address"
						},
						{
							"internalType": "uint256",
							"name": "_amount",
							"type": "uint256"
						}
					],
					"name": "transfer",
					"outputs": [
						{
							"internalType": "bool",
							"name": "",
							"type": "bool"
						}
					],
					"stateMutability": "nonpayable",
					"type": "function"
				},
				{
					"inputs": [
						{
							"internalType": "address",
							"name": "_sender",
							"type": "address"
						},
						{
							"internalType": "address",
							"name": "_recipient",
							"type": "address"
						},
						{
							"internalType": "uint256",
							"name": "_amount",
							"type": "uint256"
						}
					],
					"name": "transferFrom",
					"outputs": [
						{
							"internalType": "bool",
							"name": "",
							"type": "bool"
						}
					],
					"stateMutability": "nonpayable",
					"type": "function"
				},
				{
					"inputs": [
						{
							"internalType": "address",
							"name": "newOwner",
							"type": "address"
						}
					],
					"name": "transferOwnership",
					"outputs": [],
					"stateMutability": "nonpayable",
					"type": "function"
				},
				{
					"inputs": [
						{
							"internalType": "address",
							"name": "_account",
							"type": "address"
						}
					],
					"name": "unbondingBalancOf",
					"outputs": [
						{
							"internalType": "uint256",
							"name": "",
							"type": "uint256"
						}
					],
					"stateMutability": "view",
					"type": "function"
				},
				{
					"inputs": [
						{
							"internalType": "uint256",
							"name": "_minRedeemRatio",
							"type": "uint256"
						},
						{
							"internalType": "uint256",
							"name": "_maxRedeemRatio",
							"type": "uint256"
						},
						{
							"internalType": "uint256",
							"name": "_minRedeemDuration",
							"type": "uint256"
						},
						{
							"internalType": "uint256",
							"name": "_maxRedeemDuration",
							"type": "uint256"
						}
					],
					"name": "updateRedeemSettings",
					"outputs": [],
					"stateMutability": "nonpayable",
					"type": "function"
				},
				{
					"inputs": [
						{
							"internalType": "address",
							"name": "_account",
							"type": "address"
						},
						{
							"internalType": "bool",
							"name": "_add",
							"type": "bool"
						}
					],
					"name": "updateTransferWhitelist",
					"outputs": [],
					"stateMutability": "nonpayable",
					"type": "function"
				},
				{
					"inputs": [
						{
							"internalType": "address",
							"name": "",
							"type": "address"
						},
						{
							"internalType": "uint256",
							"name": "",
							"type": "uint256"
						}
					],
					"name": "userRedeems",
					"outputs": [
						{
							"internalType": "uint256",
							"name": "EvmosAmount",
							"type": "uint256"
						},
						{
							"internalType": "uint256",
							"name": "xEvmosAmount",
							"type": "uint256"
						},
						{
							"internalType": "uint256",
							"name": "beginTime",
							"type": "uint256"
						},
						{
							"internalType": "uint256",
							"name": "endTime",
							"type": "uint256"
						}
					],
					"stateMutability": "view",
					"type": "function"
				},
				{
					"stateMutability": "payable",
					"type": "receive"
				}
			],
			"devdoc": {
				"kind": "dev",
				"methods": {
					"balanceOf(address)": {
						"returns": {
							"_0": "XEvmos Balance of this account"
						}
					},
					"cancelRedeem(uint256)": {
						"params": {
							"_redeemIndex": "the Redemption index."
						}
					},
					"finalizeRedeem(uint256)": {
						"params": {
							"_redeemIndex": "the Redemption index."
						}
					},
					"initialize(string,string,uint256,uint256,uint256,uint256)": {
						"details": "Sets the values for {name} and {symbol} and {minRedeemRatio} and {maxRedeemRatio} and {minRedeemDuration} and {maxRedeemDuration}.",
						"params": {
							"_maxRedeemDuration": "the Maximum Exchange Duration of XEvmos to Evmos.",
							"_maxRedeemRatio": "the Maximum redemption ratio of XEvmos to Evmos.",
							"_minRedeemDuration": "the Minimum Exchange Duration of XEvmos to Evmos.",
							"_minRedeemRatio": "the Minimum redemption ratio of XEvmos to Evmos.",
							"_name": "the token Name.",
							"_symbol": "the token symbol."
						}
					},
					"owner()": {
						"details": "Returns the address of the current owner."
					},
					"redeem(uint256,uint256)": {
						"params": {
							"_Class": "the Redeem Duration type.",
							"_xEvmosAmount": "the redeem quantity."
						}
					},
					"renounceOwnership()": {
						"details": "Leaves the contract without owner. It will not be possible to call `onlyOwner` functions anymore. Can only be called by the current owner. NOTE: Renouncing ownership will leave the contract without an owner, thereby removing any functionality that is only available to the owner."
					},
					"transferOwnership(address)": {
						"details": "Transfers ownership of the contract to a new account (`newOwner`). Can only be called by the current owner."
					},
					"unbondingBalancOf(address)": {
						"returns": {
							"_0": "XEvmos Unbonding Balance of this account"
						}
					},
					"updateRedeemSettings(uint256,uint256,uint256,uint256)": {
						"params": {
							"_maxRedeemDuration": "the Maximum Exchange Duration of XEvmos to Evmos.",
							"_maxRedeemRatio": "the Maximum redemption ratio of XEvmos to Evmos.",
							"_minRedeemDuration": "the Minimum Exchange Duration of XEvmos to Evmos.",
							"_minRedeemRatio": "the Minimum redemption ratio of XEvmos to Evmos."
						}
					},
					"updateTransferWhitelist(address,bool)": {
						"params": {
							"_account": "the account.",
							"_add": "This is the status. False is delete, and true is add.."
						}
					}
				},
				"version": 1
			},
			"evm": {
				"assembly": "    /* \"contracts/space.sol\":429:17373  contract XEvmosToken is Initializable, ContextUpgradeable, OwnableUpgradeable, ReentrancyGuard {... */\n  mstore(0x40, 0x80)\n  callvalue\n  dup1\n  iszero\n  tag_1\n  jumpi\n  0x00\n  dup1\n  revert\ntag_1:\n  pop\n    /* \"@openzeppelin/contracts/security/ReentrancyGuard.sol\":1716:1717  1 */\n  0x01\n    /* \"@openzeppelin/contracts/security/ReentrancyGuard.sol\":1821:1828  _status */\n  0x65\n    /* \"@openzeppelin/contracts/security/ReentrancyGuard.sol\":1821:1843  _status = _NOT_ENTERED */\n  dup2\n  swap1\n  sstore\n  pop\n    /* \"contracts/space.sol\":429:17373  contract XEvmosToken is Initializable, ContextUpgradeable, OwnableUpgradeable, ReentrancyGuard {... */\n  dataSize(sub_0)\n  dup1\n  dataOffset(sub_0)\n  0x00\n  codecopy\n  0x00\n  return\nstop\n\nsub_0: assembly {\n        /* \"contracts/space.sol\":429:17373  contract XEvmosToken is Initializable, ContextUpgradeable, OwnableUpgradeable, ReentrancyGuard {... */\n      mstore(0x40, 0x80)\n      jumpi(tag_1, lt(calldatasize, 0x04))\n      shr(0xe0, calldataload(0x00))\n      dup1\n      0x8da5cb5b\n      gt\n      tag_35\n      jumpi\n      dup1\n      0xc4b10766\n      gt\n      tag_36\n      jumpi\n      dup1\n      0xe3a2950b\n      gt\n      tag_37\n      jumpi\n      dup1\n      0xe3a2950b\n      eq\n      tag_31\n      jumpi\n      dup1\n      0xe9ed87f8\n      eq\n      tag_32\n      jumpi\n      dup1\n      0xec8797a1\n      eq\n      tag_33\n      jumpi\n      dup1\n      0xf2fde38b\n      eq\n      tag_34\n      jumpi\n      jump(tag_2)\n    tag_37:\n      dup1\n      0xc4b10766\n      eq\n      tag_27\n      jumpi\n      dup1\n      0xca613292\n      eq\n      tag_28\n      jumpi\n      dup1\n      0xdc7bd4f5\n      eq\n      tag_29\n      jumpi\n      dup1\n      0xdd62ed3e\n      eq\n      tag_30\n      jumpi\n      jump(tag_2)\n    tag_36:\n      dup1\n      0xa7feb356\n      gt\n      tag_38\n      jumpi\n      dup1\n      0xa7feb356\n      eq\n      tag_23\n      jumpi\n      dup1\n      0xa9059cbb\n      eq\n      tag_24\n      jumpi\n      dup1\n      0xaff6cbf1\n      eq\n      tag_25\n      jumpi\n      dup1\n      0xb90c2b52\n      eq\n      tag_26\n      jumpi\n      jump(tag_2)\n    tag_38:\n      dup1\n      0x8da5cb5b\n      eq\n      tag_19\n      jumpi\n      dup1\n      0x95d89b41\n      eq\n      tag_20\n      jumpi\n      dup1\n      0xa3908e1b\n      eq\n      tag_21\n      jumpi\n      dup1\n      0xa457c2d7\n      eq\n      tag_22\n      jumpi\n      jump(tag_2)\n    tag_35:\n      dup1\n      0x313ce567\n      gt\n      tag_39\n      jumpi\n      dup1\n      0x70a08231\n      gt\n      tag_40\n      jumpi\n      dup1\n      0x70a08231\n      eq\n      tag_15\n      jumpi\n      dup1\n      0x715018a6\n      eq\n      tag_16\n      jumpi\n      dup1\n      0x7cbc2373\n      eq\n      tag_17\n      jumpi\n      dup1\n      0x89083654\n      eq\n      tag_18\n      jumpi\n      jump(tag_2)\n    tag_40:\n      dup1\n      0x313ce567\n      eq\n      tag_11\n      jumpi\n      dup1\n      0x39509351\n      eq\n      tag_12\n      jumpi\n      dup1\n      0x4f62b7ec\n      eq\n      tag_13\n      jumpi\n      dup1\n      0x539ffb77\n      eq\n      tag_14\n      jumpi\n      jump(tag_2)\n    tag_39:\n      dup1\n      0x1c352679\n      gt\n      tag_41\n      jumpi\n      dup1\n      0x1c352679\n      eq\n      tag_7\n      jumpi\n      dup1\n      0x1eee7e60\n      eq\n      tag_8\n      jumpi\n      dup1\n      0x1fdbca69\n      eq\n      tag_9\n      jumpi\n      dup1\n      0x23b872dd\n      eq\n      tag_10\n      jumpi\n      jump(tag_2)\n    tag_41:\n      dup1\n      0x06fdde03\n      eq\n      tag_3\n      jumpi\n      dup1\n      0x095ea7b3\n      eq\n      tag_4\n      jumpi\n      dup1\n      0x0ea3a691\n      eq\n      tag_5\n      jumpi\n      dup1\n      0x18160ddd\n      eq\n      tag_6\n      jumpi\n      jump(tag_2)\n    tag_1:\n      jumpi(tag_2, calldatasize)\n      stop\n    tag_2:\n      stop\n        /* \"contracts/space.sol\":4171:4264  function name() public view virtual returns (string memory) {... */\n    tag_3:\n      callvalue\n      dup1\n      iszero\n      tag_46\n      jumpi\n      0x00\n      dup1\n      revert\n    tag_46:\n      pop\n      tag_47\n      tag_48\n      jump\t// in\n    tag_47:\n      mload(0x40)\n      tag_49\n      swap2\n      swap1\n      tag_50\n      jump\t// in\n    tag_49:\n      mload(0x40)\n      dup1\n      swap2\n      sub\n      swap1\n      return\n        /* \"contracts/space.sol\":5786:5947  function approve(address _spender, uint256 _amount) public virtual returns (bool) {... */\n    tag_4:\n      callvalue\n      dup1\n      iszero\n      tag_51\n      jumpi\n      0x00\n      dup1\n      revert\n    tag_51:\n      pop\n      tag_52\n      0x04\n      dup1\n      calldatasize\n      sub\n      dup2\n      add\n      swap1\n      tag_53\n      swap2\n      swap1\n      tag_54\n      jump\t// in\n    tag_53:\n      tag_55\n      jump\t// in\n    tag_52:\n      mload(0x40)\n      tag_56\n      swap2\n      swap1\n      tag_57\n      jump\t// in\n    tag_56:\n      mload(0x40)\n      dup1\n      swap2\n      sub\n      swap1\n      return\n        /* \"contracts/space.sol\":2903:3207  function initialize(string memory _name, string memory _symbol,uint256 _minRedeemRatio,uint256 _maxRedeemRatio,uint256 _minRedeemDuration,uint256 _maxRedeemDuration) public initializer {... */\n    tag_5:\n      callvalue\n      dup1\n      iszero\n      tag_58\n      jumpi\n      0x00\n      dup1\n      revert\n    tag_58:\n      pop\n      tag_59\n      0x04\n      dup1\n      calldatasize\n      sub\n      dup2\n      add\n      swap1\n      tag_60\n      swap2\n      swap1\n      tag_61\n      jump\t// in\n    tag_60:\n      tag_62\n      jump\t// in\n    tag_59:\n      stop\n        /* \"contracts/space.sol\":4720:4817  function totalSupply() public view virtual returns (uint256) {... */\n    tag_6:\n      callvalue\n      dup1\n      iszero\n      tag_63\n      jumpi\n      0x00\n      dup1\n      revert\n    tag_63:\n      pop\n      tag_64\n      tag_65\n      jump\t// in\n    tag_64:\n      mload(0x40)\n      tag_66\n      swap2\n      swap1\n      tag_67\n      jump\t// in\n    tag_66:\n      mload(0x40)\n      dup1\n      swap2\n      sub\n      swap1\n      return\n        /* \"contracts/space.sol\":878:907  uint256 public minRedeemRatio */\n    tag_7:\n      callvalue\n      dup1\n      iszero\n      tag_68\n      jumpi\n      0x00\n      dup1\n      revert\n    tag_68:\n      pop\n      tag_69\n      tag_70\n      jump\t// in\n    tag_69:\n      mload(0x40)\n      tag_71\n      swap2\n      swap1\n      tag_67\n      jump\t// in\n    tag_71:\n      mload(0x40)\n      dup1\n      swap2\n      sub\n      swap1\n      return\n        /* \"contracts/space.sol\":16183:16313  function isTransferWhitelisted(address _account) external view returns (bool) {... */\n    tag_8:\n      callvalue\n      dup1\n      iszero\n      tag_72\n      jumpi\n      0x00\n      dup1\n      revert\n    tag_72:\n      pop\n      tag_73\n      0x04\n      dup1\n      calldatasize\n      sub\n      dup2\n      add\n      swap1\n      tag_74\n      swap2\n      swap1\n      tag_75\n      jump\t// in\n    tag_74:\n      tag_76\n      jump\t// in\n    tag_73:\n      mload(0x40)\n      tag_77\n      swap2\n      swap1\n      tag_57\n      jump\t// in\n    tag_77:\n      mload(0x40)\n      dup1\n      swap2\n      sub\n      swap1\n      return\n        /* \"contracts/space.sol\":1180:1231  mapping (address => bool) public _transferWhitelist */\n    tag_9:\n      callvalue\n      dup1\n      iszero\n      tag_78\n      jumpi\n      0x00\n      dup1\n      revert\n    tag_78:\n      pop\n      tag_79\n      0x04\n      dup1\n      calldatasize\n      sub\n      dup2\n      add\n      swap1\n      tag_80\n      swap2\n      swap1\n      tag_75\n      jump\t// in\n    tag_80:\n      tag_81\n      jump\t// in\n    tag_79:\n      mload(0x40)\n      tag_82\n      swap2\n      swap1\n      tag_57\n      jump\t// in\n    tag_82:\n      mload(0x40)\n      dup1\n      swap2\n      sub\n      swap1\n      return\n        /* \"contracts/space.sol\":6011:6453  function transferFrom(address _sender, address _recipient, uint256 _amount) public virtual returns (bool) {... */\n    tag_10:\n      callvalue\n      dup1\n      iszero\n      tag_83\n      jumpi\n      0x00\n      dup1\n      revert\n    tag_83:\n      pop\n      tag_84\n      0x04\n      dup1\n      calldatasize\n      sub\n      dup2\n      add\n      swap1\n      tag_85\n      swap2\n      swap1\n      tag_86\n      jump\t// in\n    tag_85:\n      tag_87\n      jump\t// in\n    tag_84:\n      mload(0x40)\n      tag_88\n      swap2\n      swap1\n      tag_57\n      jump\t// in\n    tag_88:\n      mload(0x40)\n      dup1\n      swap2\n      sub\n      swap1\n      return\n        /* \"contracts/space.sol\":4575:4657  function decimals() public view virtual returns (uint8) {... */\n    tag_11:\n      callvalue\n      dup1\n      iszero\n      tag_89\n      jumpi\n      0x00\n      dup1\n      revert\n    tag_89:\n      pop\n      tag_90\n      tag_91\n      jump\t// in\n    tag_90:\n      mload(0x40)\n      tag_92\n      swap2\n      swap1\n      tag_93\n      jump\t// in\n    tag_92:\n      mload(0x40)\n      dup1\n      swap2\n      sub\n      swap1\n      return\n        /* \"contracts/space.sol\":6561:6778  function increaseAllowance(address _spender, uint256 _addedValue) public virtual returns (bool) {... */\n    tag_12:\n      callvalue\n      dup1\n      iszero\n      tag_94\n      jumpi\n      0x00\n      dup1\n      revert\n    tag_94:\n      pop\n      tag_95\n      0x04\n      dup1\n      calldatasize\n      sub\n      dup2\n      add\n      swap1\n      tag_96\n      swap2\n      swap1\n      tag_54\n      jump\t// in\n    tag_96:\n      tag_97\n      jump\t// in\n    tag_95:\n      mload(0x40)\n      tag_98\n      swap2\n      swap1\n      tag_57\n      jump\t// in\n    tag_98:\n      mload(0x40)\n      dup1\n      swap2\n      sub\n      swap1\n      return\n        /* \"contracts/space.sol\":1282:1333  mapping(address => RedeemInfo[]) public userRedeems */\n    tag_13:\n      callvalue\n      dup1\n      iszero\n      tag_99\n      jumpi\n      0x00\n      dup1\n      revert\n    tag_99:\n      pop\n      tag_100\n      0x04\n      dup1\n      calldatasize\n      sub\n      dup2\n      add\n      swap1\n      tag_101\n      swap2\n      swap1\n      tag_54\n      jump\t// in\n    tag_101:\n      tag_102\n      jump\t// in\n    tag_100:\n      mload(0x40)\n      tag_103\n      swap5\n      swap4\n      swap3\n      swap2\n      swap1\n      tag_104\n      jump\t// in\n    tag_103:\n      mload(0x40)\n      dup1\n      swap2\n      sub\n      swap1\n      return\n        /* \"contracts/space.sol\":13932:14437  function cancelRedeem(uint256 _redeemIndex) external nonReentrant validateRedeem(msg.sender, _redeemIndex) {... */\n    tag_14:\n      callvalue\n      dup1\n      iszero\n      tag_105\n      jumpi\n      0x00\n      dup1\n      revert\n    tag_105:\n      pop\n      tag_106\n      0x04\n      dup1\n      calldatasize\n      sub\n      dup2\n      add\n      swap1\n      tag_107\n      swap2\n      swap1\n      tag_108\n      jump\t// in\n    tag_107:\n      tag_109\n      jump\t// in\n    tag_106:\n      stop\n        /* \"contracts/space.sol\":4924:5043  function balanceOf(address  _account) public view virtual returns (uint256) {... */\n    tag_15:\n      callvalue\n      dup1\n      iszero\n      tag_110\n      jumpi\n      0x00\n      dup1\n      revert\n    tag_110:\n      pop\n      tag_111\n      0x04\n      dup1\n      calldatasize\n      sub\n      dup2\n      add\n      swap1\n      tag_112\n      swap2\n      swap1\n      tag_75\n      jump\t// in\n    tag_112:\n      tag_113\n      jump\t// in\n    tag_111:\n      mload(0x40)\n      tag_114\n      swap2\n      swap1\n      tag_67\n      jump\t// in\n    tag_114:\n      mload(0x40)\n      dup1\n      swap2\n      sub\n      swap1\n      return\n        /* \"@openzeppelin/contracts-upgradeable/access/OwnableUpgradeable.sol\":2071:2172  function renounceOwnership() public virtual onlyOwner {... */\n    tag_16:\n      callvalue\n      dup1\n      iszero\n      tag_115\n      jumpi\n      0x00\n      dup1\n      revert\n    tag_115:\n      pop\n      tag_116\n      tag_117\n      jump\t// in\n    tag_116:\n      stop\n        /* \"contracts/space.sol\":12204:13113  function redeem(uint256  _xEvmosAmount, uint256 _Class) external nonReentrant {... */\n    tag_17:\n      callvalue\n      dup1\n      iszero\n      tag_118\n      jumpi\n      0x00\n      dup1\n      revert\n    tag_118:\n      pop\n      tag_119\n      0x04\n      dup1\n      calldatasize\n      sub\n      dup2\n      add\n      swap1\n      tag_120\n      swap2\n      swap1\n      tag_121\n      jump\t// in\n    tag_120:\n      tag_122\n      jump\t// in\n    tag_119:\n      stop\n        /* \"contracts/space.sol\":9979:10331  function updateTransferWhitelist(address _account, bool _add) external onlyOwner {... */\n    tag_18:\n      callvalue\n      dup1\n      iszero\n      tag_123\n      jumpi\n      0x00\n      dup1\n      revert\n    tag_123:\n      pop\n      tag_124\n      0x04\n      dup1\n      calldatasize\n      sub\n      dup2\n      add\n      swap1\n      tag_125\n      swap2\n      swap1\n      tag_126\n      jump\t// in\n    tag_125:\n      tag_127\n      jump\t// in\n    tag_124:\n      stop\n        /* \"@openzeppelin/contracts-upgradeable/access/OwnableUpgradeable.sol\":1441:1526  function owner() public view virtual returns (address) {... */\n    tag_19:\n      callvalue\n      dup1\n      iszero\n      tag_128\n      jumpi\n      0x00\n      dup1\n      revert\n    tag_128:\n      pop\n      tag_129\n      tag_130\n      jump\t// in\n    tag_129:\n      mload(0x40)\n      tag_131\n      swap2\n      swap1\n      tag_132\n      jump\t// in\n    tag_131:\n      mload(0x40)\n      dup1\n      swap2\n      sub\n      swap1\n      return\n        /* \"contracts/space.sol\":4373:4470  function symbol() public view virtual returns (string memory) {... */\n    tag_20:\n      callvalue\n      dup1\n      iszero\n      tag_133\n      jumpi\n      0x00\n      dup1\n      revert\n    tag_133:\n      pop\n      tag_134\n      tag_135\n      jump\t// in\n    tag_134:\n      mload(0x40)\n      tag_136\n      swap2\n      swap1\n      tag_50\n      jump\t// in\n    tag_136:\n      mload(0x40)\n      dup1\n      swap2\n      sub\n      swap1\n      return\n        /* \"contracts/space.sol\":11449:11551  function convert(uint256 _amount) external nonReentrant {... */\n    tag_21:\n      callvalue\n      dup1\n      iszero\n      tag_137\n      jumpi\n      0x00\n      dup1\n      revert\n    tag_137:\n      pop\n      tag_138\n      0x04\n      dup1\n      calldatasize\n      sub\n      dup2\n      add\n      swap1\n      tag_139\n      swap2\n      swap1\n      tag_108\n      jump\t// in\n    tag_139:\n      tag_140\n      jump\t// in\n    tag_138:\n      stop\n        /* \"contracts/space.sol\":6886:7291  function decreaseAllowance(address _spender, uint256 _subtractedValue) public virtual returns (bool) {... */\n    tag_22:\n      callvalue\n      dup1\n      iszero\n      tag_141\n      jumpi\n      0x00\n      dup1\n      revert\n    tag_141:\n      pop\n      tag_142\n      0x04\n      dup1\n      calldatasize\n      sub\n      dup2\n      add\n      swap1\n      tag_143\n      swap2\n      swap1\n      tag_54\n      jump\t// in\n    tag_143:\n      tag_144\n      jump\t// in\n    tag_142:\n      mload(0x40)\n      tag_145\n      swap2\n      swap1\n      tag_57\n      jump\t// in\n    tag_145:\n      mload(0x40)\n      dup1\n      swap2\n      sub\n      swap1\n      return\n        /* \"contracts/space.sol\":15527:15868  function getEvmosByVestingDuration(uint256 _amount, uint256 _Class) public view returns (uint256) {... */\n    tag_23:\n      callvalue\n      dup1\n      iszero\n      tag_146\n      jumpi\n      0x00\n      dup1\n      revert\n    tag_146:\n      pop\n      tag_147\n      0x04\n      dup1\n      calldatasize\n      sub\n      dup2\n      add\n      swap1\n      tag_148\n      swap2\n      swap1\n      tag_121\n      jump\t// in\n    tag_148:\n      tag_149\n      jump\t// in\n    tag_147:\n      mload(0x40)\n      tag_150\n      swap2\n      swap1\n      tag_67\n      jump\t// in\n    tag_150:\n      mload(0x40)\n      dup1\n      swap2\n      sub\n      swap1\n      return\n        /* \"contracts/space.sol\":5355:5522  function transfer(address _recipient, uint256 _amount) public virtual returns (bool) {... */\n    tag_24:\n      callvalue\n      dup1\n      iszero\n      tag_151\n      jumpi\n      0x00\n      dup1\n      revert\n    tag_151:\n      pop\n      tag_152\n      0x04\n      dup1\n      calldatasize\n      sub\n      dup2\n      add\n      swap1\n      tag_153\n      swap2\n      swap1\n      tag_54\n      jump\t// in\n    tag_153:\n      tag_154\n      jump\t// in\n    tag_152:\n      mload(0x40)\n      tag_155\n      swap2\n      swap1\n      tag_57\n      jump\t// in\n    tag_155:\n      mload(0x40)\n      dup1\n      swap2\n      sub\n      swap1\n      return\n        /* \"contracts/space.sol\":13260:13817  function finalizeRedeem(uint256 _redeemIndex) external nonReentrant validateRedeem(msg.sender,_redeemIndex) {... */\n    tag_25:\n      callvalue\n      dup1\n      iszero\n      tag_156\n      jumpi\n      0x00\n      dup1\n      revert\n    tag_156:\n      pop\n      tag_157\n      0x04\n      dup1\n      calldatasize\n      sub\n      dup2\n      add\n      swap1\n      tag_158\n      swap2\n      swap1\n      tag_108\n      jump\t// in\n    tag_158:\n      tag_159\n      jump\t// in\n    tag_157:\n      stop\n        /* \"contracts/space.sol\":15953:16093  function getUserRedeemsLength(address _userAddress) external view returns (uint256) {... */\n    tag_26:\n      callvalue\n      dup1\n      iszero\n      tag_160\n      jumpi\n      0x00\n      dup1\n      revert\n    tag_160:\n      pop\n      tag_161\n      0x04\n      dup1\n      calldatasize\n      sub\n      dup2\n      add\n      swap1\n      tag_162\n      swap2\n      swap1\n      tag_75\n      jump\t// in\n    tag_162:\n      tag_163\n      jump\t// in\n    tag_161:\n      mload(0x40)\n      tag_164\n      swap2\n      swap1\n      tag_67\n      jump\t// in\n    tag_164:\n      mload(0x40)\n      dup1\n      swap2\n      sub\n      swap1\n      return\n        /* \"contracts/space.sol\":967:999  uint256 public minRedeemDuration */\n    tag_27:\n      callvalue\n      dup1\n      iszero\n      tag_165\n      jumpi\n      0x00\n      dup1\n      revert\n    tag_165:\n      pop\n      tag_166\n      tag_167\n      jump\t// in\n    tag_166:\n      mload(0x40)\n      tag_168\n      swap2\n      swap1\n      tag_67\n      jump\t// in\n    tag_168:\n      mload(0x40)\n      dup1\n      swap2\n      sub\n      swap1\n      return\n        /* \"contracts/space.sol\":10732:11368  function updateRedeemSettings(uint256 _minRedeemRatio,uint256 _maxRedeemRatio,uint256 _minRedeemDuration,uint256 _maxRedeemDuration) external onlyOwner {... */\n    tag_28:\n      callvalue\n      dup1\n      iszero\n      tag_169\n      jumpi\n      0x00\n      dup1\n      revert\n    tag_169:\n      pop\n      tag_170\n      0x04\n      dup1\n      calldatasize\n      sub\n      dup2\n      add\n      swap1\n      tag_171\n      swap2\n      swap1\n      tag_172\n      jump\t// in\n    tag_171:\n      tag_173\n      jump\t// in\n    tag_170:\n      stop\n        /* \"contracts/space.sol\":5160:5295  function unbondingBalancOf(address _account) public view virtual returns (uint256) {... */\n    tag_29:\n      callvalue\n      dup1\n      iszero\n      tag_174\n      jumpi\n      0x00\n      dup1\n      revert\n    tag_174:\n      pop\n      tag_175\n      0x04\n      dup1\n      calldatasize\n      sub\n      dup2\n      add\n      swap1\n      tag_176\n      swap2\n      swap1\n      tag_75\n      jump\t// in\n    tag_176:\n      tag_177\n      jump\t// in\n    tag_175:\n      mload(0x40)\n      tag_178\n      swap2\n      swap1\n      tag_67\n      jump\t// in\n    tag_178:\n      mload(0x40)\n      dup1\n      swap2\n      sub\n      swap1\n      return\n        /* \"contracts/space.sol\":5583:5727  function allowance(address _owner, address _spender) public view virtual returns (uint256) {... */\n    tag_30:\n      callvalue\n      dup1\n      iszero\n      tag_179\n      jumpi\n      0x00\n      dup1\n      revert\n    tag_179:\n      pop\n      tag_180\n      0x04\n      dup1\n      calldatasize\n      sub\n      dup2\n      add\n      swap1\n      tag_181\n      swap2\n      swap1\n      tag_182\n      jump\t// in\n    tag_181:\n      tag_183\n      jump\t// in\n    tag_180:\n      mload(0x40)\n      tag_184\n      swap2\n      swap1\n      tag_67\n      jump\t// in\n    tag_184:\n      mload(0x40)\n      dup1\n      swap2\n      sub\n      swap1\n      return\n        /* \"contracts/space.sol\":924:953  uint256 public maxRedeemRatio */\n    tag_31:\n      callvalue\n      dup1\n      iszero\n      tag_185\n      jumpi\n      0x00\n      dup1\n      revert\n    tag_185:\n      pop\n      tag_186\n      tag_187\n      jump\t// in\n    tag_186:\n      mload(0x40)\n      tag_188\n      swap2\n      swap1\n      tag_67\n      jump\t// in\n    tag_188:\n      mload(0x40)\n      dup1\n      swap2\n      sub\n      swap1\n      return\n        /* \"contracts/space.sol\":1022:1054  uint256 public maxRedeemDuration */\n    tag_32:\n      callvalue\n      dup1\n      iszero\n      tag_189\n      jumpi\n      0x00\n      dup1\n      revert\n    tag_189:\n      pop\n      tag_190\n      tag_191\n      jump\t// in\n    tag_190:\n      mload(0x40)\n      tag_192\n      swap2\n      swap1\n      tag_67\n      jump\t// in\n    tag_192:\n      mload(0x40)\n      dup1\n      swap2\n      sub\n      swap1\n      return\n        /* \"contracts/space.sol\":847:872  uint256 public burnNumber */\n    tag_33:\n      callvalue\n      dup1\n      iszero\n      tag_193\n      jumpi\n      0x00\n      dup1\n      revert\n    tag_193:\n      pop\n      tag_194\n      tag_195\n      jump\t// in\n    tag_194:\n      mload(0x40)\n      tag_196\n      swap2\n      swap1\n      tag_67\n      jump\t// in\n    tag_196:\n      mload(0x40)\n      dup1\n      swap2\n      sub\n      swap1\n      return\n        /* \"@openzeppelin/contracts-upgradeable/access/OwnableUpgradeable.sol\":2321:2519  function transferOwnership(address newOwner) public virtual onlyOwner {... */\n    tag_34:\n      callvalue\n      dup1\n      iszero\n      tag_197\n      jumpi\n      0x00\n      dup1\n      revert\n    tag_197:\n      pop\n      tag_198\n      0x04\n      dup1\n      calldatasize\n      sub\n      dup2\n      add\n      swap1\n      tag_199\n      swap2\n      swap1\n      tag_75\n      jump\t// in\n    tag_199:\n      tag_200\n      jump\t// in\n    tag_198:\n      stop\n        /* \"contracts/space.sol\":4171:4264  function name() public view virtual returns (string memory) {... */\n    tag_48:\n        /* \"contracts/space.sol\":4216:4229  string memory */\n      0x60\n        /* \"contracts/space.sol\":4248:4257  tokenName */\n      0x6c\n        /* \"contracts/space.sol\":4241:4257  return tokenName */\n      dup1\n      sload\n      tag_202\n      swap1\n      tag_203\n      jump\t// in\n    tag_202:\n      dup1\n      0x1f\n      add\n      0x20\n      dup1\n      swap2\n      div\n      mul\n      0x20\n      add\n      mload(0x40)\n      swap1\n      dup2\n      add\n      0x40\n      mstore\n      dup1\n      swap3\n      swap2\n      swap1\n      dup2\n      dup2\n      mstore\n      0x20\n      add\n      dup3\n      dup1\n      sload\n      tag_204\n      swap1\n      tag_203\n      jump\t// in\n    tag_204:\n      dup1\n      iszero\n      tag_205\n      jumpi\n      dup1\n      0x1f\n      lt\n      tag_206\n      jumpi\n      0x0100\n      dup1\n      dup4\n      sload\n      div\n      mul\n      dup4\n      mstore\n      swap2\n      0x20\n      add\n      swap2\n      jump(tag_205)\n    tag_206:\n      dup3\n      add\n      swap2\n      swap1\n      0x00\n      mstore\n      keccak256(0x00, 0x20)\n      swap1\n    tag_207:\n      dup2\n      sload\n      dup2\n      mstore\n      swap1\n      0x01\n      add\n      swap1\n      0x20\n      add\n      dup1\n      dup4\n      gt\n      tag_207\n      jumpi\n      dup3\n      swap1\n      sub\n      0x1f\n      and\n      dup3\n      add\n      swap2\n    tag_205:\n      pop\n      pop\n      pop\n      pop\n      pop\n      swap1\n      pop\n        /* \"contracts/space.sol\":4171:4264  function name() public view virtual returns (string memory) {... */\n      swap1\n      jump\t// out\n        /* \"contracts/space.sol\":5786:5947  function approve(address _spender, uint256 _amount) public virtual returns (bool) {... */\n    tag_55:\n        /* \"contracts/space.sol\":5862:5866  bool */\n      0x00\n        /* \"contracts/space.sol\":5878:5919  _approve(_msgSender(), _spender, _amount) */\n      tag_209\n        /* \"contracts/space.sol\":5887:5899  _msgSender() */\n      tag_210\n        /* \"contracts/space.sol\":5887:5897  _msgSender */\n      tag_211\n        /* \"contracts/space.sol\":5887:5899  _msgSender() */\n      jump\t// in\n    tag_210:\n        /* \"contracts/space.sol\":5901:5909  _spender */\n      dup5\n        /* \"contracts/space.sol\":5911:5918  _amount */\n      dup5\n        /* \"contracts/space.sol\":5878:5886  _approve */\n      tag_212\n        /* \"contracts/space.sol\":5878:5919  _approve(_msgSender(), _spender, _amount) */\n      jump\t// in\n    tag_209:\n        /* \"contracts/space.sol\":5936:5940  true */\n      0x01\n        /* \"contracts/space.sol\":5929:5940  return true */\n      swap1\n      pop\n        /* \"contracts/space.sol\":5786:5947  function approve(address _spender, uint256 _amount) public virtual returns (bool) {... */\n      swap3\n      swap2\n      pop\n      pop\n      jump\t// out\n        /* \"contracts/space.sol\":2903:3207  function initialize(string memory _name, string memory _symbol,uint256 _minRedeemRatio,uint256 _maxRedeemRatio,uint256 _minRedeemDuration,uint256 _maxRedeemDuration) public initializer {... */\n    tag_62:\n        /* \"@openzeppelin/contracts-upgradeable/proxy/utils/Initializable.sol\":3268:3287  bool isTopLevelCall */\n      0x00\n        /* \"@openzeppelin/contracts-upgradeable/proxy/utils/Initializable.sol\":3291:3304  _initializing */\n      dup1\n      0x01\n      swap1\n      sload\n      swap1\n      0x0100\n      exp\n      swap1\n      div\n      0xff\n      and\n        /* \"@openzeppelin/contracts-upgradeable/proxy/utils/Initializable.sol\":3290:3304  !_initializing */\n      iszero\n        /* \"@openzeppelin/contracts-upgradeable/proxy/utils/Initializable.sol\":3268:3304  bool isTopLevelCall = !_initializing */\n      swap1\n      pop\n        /* \"@openzeppelin/contracts-upgradeable/proxy/utils/Initializable.sol\":3336:3350  isTopLevelCall */\n      dup1\n        /* \"@openzeppelin/contracts-upgradeable/proxy/utils/Initializable.sol\":3336:3370  isTopLevelCall && _initialized < 1 */\n      dup1\n      iszero\n      tag_214\n      jumpi\n      pop\n        /* \"@openzeppelin/contracts-upgradeable/proxy/utils/Initializable.sol\":3369:3370  1 */\n      0x01\n        /* \"@openzeppelin/contracts-upgradeable/proxy/utils/Initializable.sol\":3354:3366  _initialized */\n      0x00\n      dup1\n      sload\n      swap1\n      0x0100\n      exp\n      swap1\n      div\n      0xff\n      and\n        /* \"@openzeppelin/contracts-upgradeable/proxy/utils/Initializable.sol\":3354:3370  _initialized < 1 */\n      0xff\n      and\n      lt\n        /* \"@openzeppelin/contracts-upgradeable/proxy/utils/Initializable.sol\":3336:3370  isTopLevelCall && _initialized < 1 */\n    tag_214:\n        /* \"@openzeppelin/contracts-upgradeable/proxy/utils/Initializable.sol\":3335:3443  (isTopLevelCall && _initialized < 1) || (!AddressUpgradeable.isContract(address(this)) && _initialized == 1) */\n      dup1\n      tag_215\n      jumpi\n      pop\n        /* \"@openzeppelin/contracts-upgradeable/proxy/utils/Initializable.sol\":3377:3421  AddressUpgradeable.isContract(address(this)) */\n      tag_216\n        /* \"@openzeppelin/contracts-upgradeable/proxy/utils/Initializable.sol\":3415:3419  this */\n      address\n        /* \"@openzeppelin/contracts-upgradeable/proxy/utils/Initializable.sol\":3377:3406  AddressUpgradeable.isContract */\n      tag_217\n        /* \"@openzeppelin/contracts-upgradeable/proxy/utils/Initializable.sol\":3377:3421  AddressUpgradeable.isContract(address(this)) */\n      jump\t// in\n    tag_216:\n        /* \"@openzeppelin/contracts-upgradeable/proxy/utils/Initializable.sol\":3376:3421  !AddressUpgradeable.isContract(address(this)) */\n      iszero\n        /* \"@openzeppelin/contracts-upgradeable/proxy/utils/Initializable.sol\":3376:3442  !AddressUpgradeable.isContract(address(this)) && _initialized == 1 */\n      dup1\n      iszero\n      tag_218\n      jumpi\n      pop\n        /* \"@openzeppelin/contracts-upgradeable/proxy/utils/Initializable.sol\":3441:3442  1 */\n      0x01\n        /* \"@openzeppelin/contracts-upgradeable/proxy/utils/Initializable.sol\":3425:3437  _initialized */\n      0x00\n      dup1\n      sload\n      swap1\n      0x0100\n      exp\n      swap1\n      div\n      0xff\n      and\n        /* \"@openzeppelin/contracts-upgradeable/proxy/utils/Initializable.sol\":3425:3442  _initialized == 1 */\n      0xff\n      and\n      eq\n        /* \"@openzeppelin/contracts-upgradeable/proxy/utils/Initializable.sol\":3376:3442  !AddressUpgradeable.isContract(address(this)) && _initialized == 1 */\n    tag_218:\n        /* \"@openzeppelin/contracts-upgradeable/proxy/utils/Initializable.sol\":3335:3443  (isTopLevelCall && _initialized < 1) || (!AddressUpgradeable.isContract(address(this)) && _initialized == 1) */\n    tag_215:\n        /* \"@openzeppelin/contracts-upgradeable/proxy/utils/Initializable.sol\":3314:3515  require(... */\n      tag_219\n      jumpi\n      mload(0x40)\n      0x08c379a000000000000000000000000000000000000000000000000000000000\n      dup2\n      mstore\n      0x04\n      add\n      tag_220\n      swap1\n      tag_221\n      jump\t// in\n    tag_220:\n      mload(0x40)\n      dup1\n      swap2\n      sub\n      swap1\n      revert\n    tag_219:\n        /* \"@openzeppelin/contracts-upgradeable/proxy/utils/Initializable.sol\":3540:3541  1 */\n      0x01\n        /* \"@openzeppelin/contracts-upgradeable/proxy/utils/Initializable.sol\":3525:3537  _initialized */\n      0x00\n      dup1\n        /* \"@openzeppelin/contracts-upgradeable/proxy/utils/Initializable.sol\":3525:3541  _initialized = 1 */\n      0x0100\n      exp\n      dup2\n      sload\n      dup2\n      0xff\n      mul\n      not\n      and\n      swap1\n      dup4\n      0xff\n      and\n      mul\n      or\n      swap1\n      sstore\n      pop\n        /* \"@openzeppelin/contracts-upgradeable/proxy/utils/Initializable.sol\":3555:3569  isTopLevelCall */\n      dup1\n        /* \"@openzeppelin/contracts-upgradeable/proxy/utils/Initializable.sol\":3551:3616  if (isTopLevelCall) {... */\n      iszero\n      tag_222\n      jumpi\n        /* \"@openzeppelin/contracts-upgradeable/proxy/utils/Initializable.sol\":3601:3605  true */\n      0x01\n        /* \"@openzeppelin/contracts-upgradeable/proxy/utils/Initializable.sol\":3585:3598  _initializing */\n      0x00\n      0x01\n        /* \"@openzeppelin/contracts-upgradeable/proxy/utils/Initializable.sol\":3585:3605  _initializing = true */\n      0x0100\n      exp\n      dup2\n      sload\n      dup2\n      0xff\n      mul\n      not\n      and\n      swap1\n      dup4\n      iszero\n      iszero\n      mul\n      or\n      swap1\n      sstore\n      pop\n        /* \"@openzeppelin/contracts-upgradeable/proxy/utils/Initializable.sol\":3551:3616  if (isTopLevelCall) {... */\n    tag_222:\n        /* \"contracts/space.sol\":3098:3200  __ERC20_init(_name, _symbol, _minRedeemRatio, _maxRedeemRatio, _minRedeemDuration, _maxRedeemDuration) */\n      tag_224\n        /* \"contracts/space.sol\":3111:3116  _name */\n      dup8\n        /* \"contracts/space.sol\":3118:3125  _symbol */\n      dup8\n        /* \"contracts/space.sol\":3127:3142  _minRedeemRatio */\n      dup8\n        /* \"contracts/space.sol\":3144:3159  _maxRedeemRatio */\n      dup8\n        /* \"contracts/space.sol\":3161:3179  _minRedeemDuration */\n      dup8\n        /* \"contracts/space.sol\":3181:3199  _maxRedeemDuration */\n      dup8\n        /* \"contracts/space.sol\":3098:3110  __ERC20_init */\n      tag_225\n        /* \"contracts/space.sol\":3098:3200  __ERC20_init(_name, _symbol, _minRedeemRatio, _maxRedeemRatio, _minRedeemDuration, _maxRedeemDuration) */\n      jump\t// in\n    tag_224:\n        /* \"@openzeppelin/contracts-upgradeable/proxy/utils/Initializable.sol\":3640:3654  isTopLevelCall */\n      dup1\n        /* \"@openzeppelin/contracts-upgradeable/proxy/utils/Initializable.sol\":3636:3735  if (isTopLevelCall) {... */\n      iszero\n      tag_226\n      jumpi\n        /* \"@openzeppelin/contracts-upgradeable/proxy/utils/Initializable.sol\":3686:3691  false */\n      0x00\n        /* \"@openzeppelin/contracts-upgradeable/proxy/utils/Initializable.sol\":3670:3683  _initializing */\n      dup1\n      0x01\n        /* \"@openzeppelin/contracts-upgradeable/proxy/utils/Initializable.sol\":3670:3691  _initializing = false */\n      0x0100\n      exp\n      dup2\n      sload\n      dup2\n      0xff\n      mul\n      not\n      and\n      swap1\n      dup4\n      iszero\n      iszero\n      mul\n      or\n      swap1\n      sstore\n      pop\n        /* \"@openzeppelin/contracts-upgradeable/proxy/utils/Initializable.sol\":3710:3724  Initialized(1) */\n      0x7f26b83ff96e1f2b6a682f133852f6798a09c465da95921460cefb3847402498\n        /* \"@openzeppelin/contracts-upgradeable/proxy/utils/Initializable.sol\":3722:3723  1 */\n      0x01\n        /* \"@openzeppelin/contracts-upgradeable/proxy/utils/Initializable.sol\":3710:3724  Initialized(1) */\n      mload(0x40)\n      tag_227\n      swap2\n      swap1\n      tag_228\n      jump\t// in\n    tag_227:\n      mload(0x40)\n      dup1\n      swap2\n      sub\n      swap1\n      log1\n        /* \"@openzeppelin/contracts-upgradeable/proxy/utils/Initializable.sol\":3636:3735  if (isTopLevelCall) {... */\n    tag_226:\n        /* \"@openzeppelin/contracts-upgradeable/proxy/utils/Initializable.sol\":3258:3741  {... */\n      pop\n        /* \"contracts/space.sol\":2903:3207  function initialize(string memory _name, string memory _symbol,uint256 _minRedeemRatio,uint256 _maxRedeemRatio,uint256 _minRedeemDuration,uint256 _maxRedeemDuration) public initializer {... */\n      pop\n      pop\n      pop\n      pop\n      pop\n      pop\n      jump\t// out\n        /* \"contracts/space.sol\":4720:4817  function totalSupply() public view virtual returns (uint256) {... */\n    tag_65:\n        /* \"contracts/space.sol\":4772:4779  uint256 */\n      0x00\n        /* \"contracts/space.sol\":4798:4810  _totalSupply */\n      sload(0x6b)\n        /* \"contracts/space.sol\":4791:4810  return _totalSupply */\n      swap1\n      pop\n        /* \"contracts/space.sol\":4720:4817  function totalSupply() public view virtual returns (uint256) {... */\n      swap1\n      jump\t// out\n        /* \"contracts/space.sol\":878:907  uint256 public minRedeemRatio */\n    tag_70:\n      sload(0x67)\n      dup2\n      jump\t// out\n        /* \"contracts/space.sol\":16183:16313  function isTransferWhitelisted(address _account) external view returns (bool) {... */\n    tag_76:\n        /* \"contracts/space.sol\":16255:16259  bool */\n      0x00\n        /* \"contracts/space.sol\":16278:16296  _transferWhitelist */\n      0x6e\n        /* \"contracts/space.sol\":16278:16306  _transferWhitelist[_account] */\n      0x00\n        /* \"contracts/space.sol\":16297:16305  _account */\n      dup4\n        /* \"contracts/space.sol\":16278:16306  _transferWhitelist[_account] */\n      0xffffffffffffffffffffffffffffffffffffffff\n      and\n      0xffffffffffffffffffffffffffffffffffffffff\n      and\n      dup2\n      mstore\n      0x20\n      add\n      swap1\n      dup2\n      mstore\n      0x20\n      add\n      0x00\n      keccak256\n      0x00\n      swap1\n      sload\n      swap1\n      0x0100\n      exp\n      swap1\n      div\n      0xff\n      and\n        /* \"contracts/space.sol\":16271:16306  return _transferWhitelist[_account] */\n      swap1\n      pop\n        /* \"contracts/space.sol\":16183:16313  function isTransferWhitelisted(address _account) external view returns (bool) {... */\n      swap2\n      swap1\n      pop\n      jump\t// out\n        /* \"contracts/space.sol\":1180:1231  mapping (address => bool) public _transferWhitelist */\n    tag_81:\n      mstore(0x20, 0x6e)\n      dup1\n      0x00\n      mstore\n      keccak256(0x00, 0x40)\n      0x00\n      swap2\n      pop\n      sload\n      swap1\n      0x0100\n      exp\n      swap1\n      div\n      0xff\n      and\n      dup2\n      jump\t// out\n        /* \"contracts/space.sol\":6011:6453  function transferFrom(address _sender, address _recipient, uint256 _amount) public virtual returns (bool) {... */\n    tag_87:\n        /* \"contracts/space.sol\":6111:6115  bool */\n      0x00\n        /* \"contracts/space.sol\":6127:6166  _transfer(_sender, _recipient, _amount) */\n      tag_232\n        /* \"contracts/space.sol\":6137:6144  _sender */\n      dup5\n        /* \"contracts/space.sol\":6146:6156  _recipient */\n      dup5\n        /* \"contracts/space.sol\":6158:6165  _amount */\n      dup5\n        /* \"contracts/space.sol\":6127:6136  _transfer */\n      tag_233\n        /* \"contracts/space.sol\":6127:6166  _transfer(_sender, _recipient, _amount) */\n      jump\t// in\n    tag_232:\n        /* \"contracts/space.sol\":6176:6200  uint256 currentAllowance */\n      0x00\n        /* \"contracts/space.sol\":6203:6214  _allowances */\n      0x72\n        /* \"contracts/space.sol\":6203:6223  _allowances[_sender] */\n      0x00\n        /* \"contracts/space.sol\":6215:6222  _sender */\n      dup7\n        /* \"contracts/space.sol\":6203:6223  _allowances[_sender] */\n      0xffffffffffffffffffffffffffffffffffffffff\n      and\n      0xffffffffffffffffffffffffffffffffffffffff\n      and\n      dup2\n      mstore\n      0x20\n      add\n      swap1\n      dup2\n      mstore\n      0x20\n      add\n      0x00\n      keccak256\n        /* \"contracts/space.sol\":6203:6237  _allowances[_sender][_msgSender()] */\n      0x00\n        /* \"contracts/space.sol\":6224:6236  _msgSender() */\n      tag_234\n        /* \"contracts/space.sol\":6224:6234  _msgSender */\n      tag_211\n        /* \"contracts/space.sol\":6224:6236  _msgSender() */\n      jump\t// in\n    tag_234:\n        /* \"contracts/space.sol\":6203:6237  _allowances[_sender][_msgSender()] */\n      0xffffffffffffffffffffffffffffffffffffffff\n      and\n      0xffffffffffffffffffffffffffffffffffffffff\n      and\n      dup2\n      mstore\n      0x20\n      add\n      swap1\n      dup2\n      mstore\n      0x20\n      add\n      0x00\n      keccak256\n      sload\n        /* \"contracts/space.sol\":6176:6237  uint256 currentAllowance = _allowances[_sender][_msgSender()] */\n      swap1\n      pop\n        /* \"contracts/space.sol\":6275:6282  _amount */\n      dup3\n        /* \"contracts/space.sol\":6255:6271  currentAllowance */\n      dup2\n        /* \"contracts/space.sol\":6255:6282  currentAllowance >= _amount */\n      lt\n      iszero\n        /* \"contracts/space.sol\":6247:6334  require(currentAllowance >= _amount, \"XEvmos ERC20: transfer amount exceeds allowance\") */\n      tag_235\n      jumpi\n      mload(0x40)\n      0x08c379a000000000000000000000000000000000000000000000000000000000\n      dup2\n      mstore\n      0x04\n      add\n      tag_236\n      swap1\n      tag_237\n      jump\t// in\n    tag_236:\n      mload(0x40)\n      dup1\n      swap2\n      sub\n      swap1\n      revert\n    tag_235:\n        /* \"contracts/space.sol\":6360:6419  _approve(_sender, _msgSender(), currentAllowance - _amount) */\n      tag_238\n        /* \"contracts/space.sol\":6369:6376  _sender */\n      dup6\n        /* \"contracts/space.sol\":6378:6390  _msgSender() */\n      tag_239\n        /* \"contracts/space.sol\":6378:6388  _msgSender */\n      tag_211\n        /* \"contracts/space.sol\":6378:6390  _msgSender() */\n      jump\t// in\n    tag_239:\n        /* \"contracts/space.sol\":6411:6418  _amount */\n      dup6\n        /* \"contracts/space.sol\":6392:6408  currentAllowance */\n      dup5\n        /* \"contracts/space.sol\":6392:6418  currentAllowance - _amount */\n      sub\n        /* \"contracts/space.sol\":6360:6368  _approve */\n      tag_212\n        /* \"contracts/space.sol\":6360:6419  _approve(_sender, _msgSender(), currentAllowance - _amount) */\n      jump\t// in\n    tag_238:\n        /* \"contracts/space.sol\":6442:6446  true */\n      0x01\n        /* \"contracts/space.sol\":6435:6446  return true */\n      swap2\n      pop\n      pop\n        /* \"contracts/space.sol\":6011:6453  function transferFrom(address _sender, address _recipient, uint256 _amount) public virtual returns (bool) {... */\n      swap4\n      swap3\n      pop\n      pop\n      pop\n      jump\t// out\n        /* \"contracts/space.sol\":4575:4657  function decimals() public view virtual returns (uint8) {... */\n    tag_91:\n        /* \"contracts/space.sol\":4624:4629  uint8 */\n      0x00\n        /* \"contracts/space.sol\":4648:4650  18 */\n      0x12\n        /* \"contracts/space.sol\":4641:4650  return 18 */\n      swap1\n      pop\n        /* \"contracts/space.sol\":4575:4657  function decimals() public view virtual returns (uint8) {... */\n      swap1\n      jump\t// out\n        /* \"contracts/space.sol\":6561:6778  function increaseAllowance(address _spender, uint256 _addedValue) public virtual returns (bool) {... */\n    tag_97:\n        /* \"contracts/space.sol\":6651:6655  bool */\n      0x00\n        /* \"contracts/space.sol\":6667:6750  _approve(_msgSender(), _spender, _allowances[_msgSender()][_spender] + _addedValue) */\n      tag_242\n        /* \"contracts/space.sol\":6676:6688  _msgSender() */\n      tag_243\n        /* \"contracts/space.sol\":6676:6686  _msgSender */\n      tag_211\n        /* \"contracts/space.sol\":6676:6688  _msgSender() */\n      jump\t// in\n    tag_243:\n        /* \"contracts/space.sol\":6690:6698  _spender */\n      dup5\n        /* \"contracts/space.sol\":6738:6749  _addedValue */\n      dup5\n        /* \"contracts/space.sol\":6700:6711  _allowances */\n      0x72\n        /* \"contracts/space.sol\":6700:6725  _allowances[_msgSender()] */\n      0x00\n        /* \"contracts/space.sol\":6712:6724  _msgSender() */\n      tag_244\n        /* \"contracts/space.sol\":6712:6722  _msgSender */\n      tag_211\n        /* \"contracts/space.sol\":6712:6724  _msgSender() */\n      jump\t// in\n    tag_244:\n        /* \"contracts/space.sol\":6700:6725  _allowances[_msgSender()] */\n      0xffffffffffffffffffffffffffffffffffffffff\n      and\n      0xffffffffffffffffffffffffffffffffffffffff\n      and\n      dup2\n      mstore\n      0x20\n      add\n      swap1\n      dup2\n      mstore\n      0x20\n      add\n      0x00\n      keccak256\n        /* \"contracts/space.sol\":6700:6735  _allowances[_msgSender()][_spender] */\n      0x00\n        /* \"contracts/space.sol\":6726:6734  _spender */\n      dup9\n        /* \"contracts/space.sol\":6700:6735  _allowances[_msgSender()][_spender] */\n      0xffffffffffffffffffffffffffffffffffffffff\n      and\n      0xffffffffffffffffffffffffffffffffffffffff\n      and\n      dup2\n      mstore\n      0x20\n      add\n      swap1\n      dup2\n      mstore\n      0x20\n      add\n      0x00\n      keccak256\n      sload\n        /* \"contracts/space.sol\":6700:6749  _allowances[_msgSender()][_spender] + _addedValue */\n      tag_245\n      swap2\n      swap1\n      tag_246\n      jump\t// in\n    tag_245:\n        /* \"contracts/space.sol\":6667:6675  _approve */\n      tag_212\n        /* \"contracts/space.sol\":6667:6750  _approve(_msgSender(), _spender, _allowances[_msgSender()][_spender] + _addedValue) */\n      jump\t// in\n    tag_242:\n        /* \"contracts/space.sol\":6767:6771  true */\n      0x01\n        /* \"contracts/space.sol\":6760:6771  return true */\n      swap1\n      pop\n        /* \"contracts/space.sol\":6561:6778  function increaseAllowance(address _spender, uint256 _addedValue) public virtual returns (bool) {... */\n      swap3\n      swap2\n      pop\n      pop\n      jump\t// out\n        /* \"contracts/space.sol\":1282:1333  mapping(address => RedeemInfo[]) public userRedeems */\n    tag_102:\n      mstore(0x20, 0x6f)\n      dup2\n      0x00\n      mstore\n      keccak256(0x00, 0x40)\n      dup2\n      dup2\n      sload\n      dup2\n      lt\n      tag_247\n      jumpi\n      0x00\n      dup1\n      revert\n    tag_247:\n      swap1\n      0x00\n      mstore\n      keccak256(0x00, 0x20)\n      swap1\n      0x04\n      mul\n      add\n      0x00\n      swap2\n      pop\n      swap2\n      pop\n      pop\n      dup1\n      0x00\n      add\n      sload\n      swap1\n      dup1\n      0x01\n      add\n      sload\n      swap1\n      dup1\n      0x02\n      add\n      sload\n      swap1\n      dup1\n      0x03\n      add\n      sload\n      swap1\n      pop\n      dup5\n      jump\t// out\n        /* \"contracts/space.sol\":13932:14437  function cancelRedeem(uint256 _redeemIndex) external nonReentrant validateRedeem(msg.sender, _redeemIndex) {... */\n    tag_109:\n        /* \"@openzeppelin/contracts/security/ReentrancyGuard.sol\":2261:2282  _nonReentrantBefore() */\n      tag_250\n        /* \"@openzeppelin/contracts/security/ReentrancyGuard.sol\":2261:2280  _nonReentrantBefore */\n      tag_251\n        /* \"@openzeppelin/contracts/security/ReentrancyGuard.sol\":2261:2282  _nonReentrantBefore() */\n      jump\t// in\n    tag_250:\n        /* \"contracts/space.sol\":14013:14023  msg.sender */\n      caller\n        /* \"contracts/space.sol\":14025:14037  _redeemIndex */\n      dup2\n        /* \"contracts/space.sol\":16726:16737  userRedeems */\n      0x6f\n        /* \"contracts/space.sol\":16726:16751  userRedeems[_userAddress] */\n      0x00\n        /* \"contracts/space.sol\":16738:16750  _userAddress */\n      dup4\n        /* \"contracts/space.sol\":16726:16751  userRedeems[_userAddress] */\n      0xffffffffffffffffffffffffffffffffffffffff\n      and\n      0xffffffffffffffffffffffffffffffffffffffff\n      and\n      dup2\n      mstore\n      0x20\n      add\n      swap1\n      dup2\n      mstore\n      0x20\n      add\n      0x00\n      keccak256\n        /* \"contracts/space.sol\":16726:16758  userRedeems[_userAddress].length */\n      dup1\n      sload\n      swap1\n      pop\n        /* \"contracts/space.sol\":16711:16723  _redeemIndex */\n      dup2\n        /* \"contracts/space.sol\":16711:16758  _redeemIndex < userRedeems[_userAddress].length */\n      lt\n        /* \"contracts/space.sol\":16703:16806  require(_redeemIndex < userRedeems[_userAddress].length, \"validateRedeem: redeem entry does not exist\") */\n      tag_253\n      jumpi\n      mload(0x40)\n      0x08c379a000000000000000000000000000000000000000000000000000000000\n      dup2\n      mstore\n      0x04\n      add\n      tag_254\n      swap1\n      tag_255\n      jump\t// in\n    tag_254:\n      mload(0x40)\n      dup1\n      swap2\n      sub\n      swap1\n      revert\n    tag_253:\n        /* \"contracts/space.sol\":14049:14075  RedeemInfo storage _redeem */\n      0x00\n        /* \"contracts/space.sol\":14078:14089  userRedeems */\n      0x6f\n        /* \"contracts/space.sol\":14078:14101  userRedeems[msg.sender] */\n      0x00\n        /* \"contracts/space.sol\":14090:14100  msg.sender */\n      caller\n        /* \"contracts/space.sol\":14078:14101  userRedeems[msg.sender] */\n      0xffffffffffffffffffffffffffffffffffffffff\n      and\n      0xffffffffffffffffffffffffffffffffffffffff\n      and\n      dup2\n      mstore\n      0x20\n      add\n      swap1\n      dup2\n      mstore\n      0x20\n      add\n      0x00\n      keccak256\n        /* \"contracts/space.sol\":14102:14114  _redeemIndex */\n      dup5\n        /* \"contracts/space.sol\":14078:14115  userRedeems[msg.sender][_redeemIndex] */\n      dup2\n      sload\n      dup2\n      lt\n      tag_257\n      jumpi\n      tag_258\n      tag_259\n      jump\t// in\n    tag_258:\n    tag_257:\n      swap1\n      0x00\n      mstore\n      keccak256(0x00, 0x20)\n      swap1\n      0x04\n      mul\n      add\n        /* \"contracts/space.sol\":14049:14115  RedeemInfo storage _redeem = userRedeems[msg.sender][_redeemIndex] */\n      swap1\n      pop\n        /* \"contracts/space.sol\":14208:14215  _redeem */\n      dup1\n        /* \"contracts/space.sol\":14208:14228  _redeem.xEvmosAmount */\n      0x01\n      add\n      sload\n        /* \"contracts/space.sol\":14174:14192  _unbondingBalances */\n      0x71\n        /* \"contracts/space.sol\":14174:14204  _unbondingBalances[msg.sender] */\n      0x00\n        /* \"contracts/space.sol\":14193:14203  msg.sender */\n      caller\n        /* \"contracts/space.sol\":14174:14204  _unbondingBalances[msg.sender] */\n      0xffffffffffffffffffffffffffffffffffffffff\n      and\n      0xffffffffffffffffffffffffffffffffffffffff\n      and\n      dup2\n      mstore\n      0x20\n      add\n      swap1\n      dup2\n      mstore\n      0x20\n      add\n      0x00\n      keccak256\n      0x00\n        /* \"contracts/space.sol\":14174:14228  _unbondingBalances[msg.sender] -= _redeem.xEvmosAmount */\n      dup3\n      dup3\n      sload\n      tag_261\n      swap2\n      swap1\n      tag_262\n      jump\t// in\n    tag_261:\n      swap3\n      pop\n      pop\n      dup2\n      swap1\n      sstore\n      pop\n        /* \"contracts/space.sol\":14238:14296  _transfer(address(this), msg.sender, _redeem.xEvmosAmount) */\n      tag_263\n        /* \"contracts/space.sol\":14256:14260  this */\n      address\n        /* \"contracts/space.sol\":14263:14273  msg.sender */\n      caller\n        /* \"contracts/space.sol\":14275:14282  _redeem */\n      dup4\n        /* \"contracts/space.sol\":14275:14295  _redeem.xEvmosAmount */\n      0x01\n      add\n      sload\n        /* \"contracts/space.sol\":14238:14247  _transfer */\n      tag_233\n        /* \"contracts/space.sol\":14238:14296  _transfer(address(this), msg.sender, _redeem.xEvmosAmount) */\n      jump\t// in\n    tag_263:\n        /* \"contracts/space.sol\":14324:14334  msg.sender */\n      caller\n        /* \"contracts/space.sol\":14311:14357  CancelRedeem(msg.sender, _redeem.xEvmosAmount) */\n      0xffffffffffffffffffffffffffffffffffffffff\n      and\n      0x56d7520e387607a8daa892e3fed116badc2a636307bdc794b1c1aed97ae203f4\n        /* \"contracts/space.sol\":14336:14343  _redeem */\n      dup3\n        /* \"contracts/space.sol\":14336:14356  _redeem.xEvmosAmount */\n      0x01\n      add\n      sload\n        /* \"contracts/space.sol\":14311:14357  CancelRedeem(msg.sender, _redeem.xEvmosAmount) */\n      mload(0x40)\n      tag_264\n      swap2\n      swap1\n      tag_67\n      jump\t// in\n    tag_264:\n      mload(0x40)\n      dup1\n      swap2\n      sub\n      swap1\n      log2\n        /* \"contracts/space.sol\":14398:14430  _deleteRedeemEntry(_redeemIndex) */\n      tag_265\n        /* \"contracts/space.sol\":14417:14429  _redeemIndex */\n      dup5\n        /* \"contracts/space.sol\":14398:14416  _deleteRedeemEntry */\n      tag_266\n        /* \"contracts/space.sol\":14398:14430  _deleteRedeemEntry(_redeemIndex) */\n      jump\t// in\n    tag_265:\n        /* \"contracts/space.sol\":14039:14437  {... */\n      pop\n        /* \"@openzeppelin/contracts/security/ReentrancyGuard.sol\":2292:2293  _ */\n      pop\n      pop\n        /* \"@openzeppelin/contracts/security/ReentrancyGuard.sol\":2303:2323  _nonReentrantAfter() */\n      tag_267\n        /* \"@openzeppelin/contracts/security/ReentrancyGuard.sol\":2303:2321  _nonReentrantAfter */\n      tag_268\n        /* \"@openzeppelin/contracts/security/ReentrancyGuard.sol\":2303:2323  _nonReentrantAfter() */\n      jump\t// in\n    tag_267:\n        /* \"contracts/space.sol\":13932:14437  function cancelRedeem(uint256 _redeemIndex) external nonReentrant validateRedeem(msg.sender, _redeemIndex) {... */\n      pop\n      jump\t// out\n        /* \"contracts/space.sol\":4924:5043  function balanceOf(address  _account) public view virtual returns (uint256) {... */\n    tag_113:\n        /* \"contracts/space.sol\":4991:4998  uint256 */\n      0x00\n        /* \"contracts/space.sol\":5017:5026  _balances */\n      0x70\n        /* \"contracts/space.sol\":5017:5036  _balances[_account] */\n      0x00\n        /* \"contracts/space.sol\":5027:5035  _account */\n      dup4\n        /* \"contracts/space.sol\":5017:5036  _balances[_account] */\n      0xffffffffffffffffffffffffffffffffffffffff\n      and\n      0xffffffffffffffffffffffffffffffffffffffff\n      and\n      dup2\n      mstore\n      0x20\n      add\n      swap1\n      dup2\n      mstore\n      0x20\n      add\n      0x00\n      keccak256\n      sload\n        /* \"contracts/space.sol\":5010:5036  return _balances[_account] */\n      swap1\n      pop\n        /* \"contracts/space.sol\":4924:5043  function balanceOf(address  _account) public view virtual returns (uint256) {... */\n      swap2\n      swap1\n      pop\n      jump\t// out\n        /* \"@openzeppelin/contracts-upgradeable/access/OwnableUpgradeable.sol\":2071:2172  function renounceOwnership() public virtual onlyOwner {... */\n    tag_117:\n        /* \"@openzeppelin/contracts-upgradeable/access/OwnableUpgradeable.sol\":1334:1347  _checkOwner() */\n      tag_271\n        /* \"@openzeppelin/contracts-upgradeable/access/OwnableUpgradeable.sol\":1334:1345  _checkOwner */\n      tag_272\n        /* \"@openzeppelin/contracts-upgradeable/access/OwnableUpgradeable.sol\":1334:1347  _checkOwner() */\n      jump\t// in\n    tag_271:\n        /* \"@openzeppelin/contracts-upgradeable/access/OwnableUpgradeable.sol\":2135:2165  _transferOwnership(address(0)) */\n      tag_274\n        /* \"@openzeppelin/contracts-upgradeable/access/OwnableUpgradeable.sol\":2162:2163  0 */\n      0x00\n        /* \"@openzeppelin/contracts-upgradeable/access/OwnableUpgradeable.sol\":2135:2153  _transferOwnership */\n      tag_275\n        /* \"@openzeppelin/contracts-upgradeable/access/OwnableUpgradeable.sol\":2135:2165  _transferOwnership(address(0)) */\n      jump\t// in\n    tag_274:\n        /* \"@openzeppelin/contracts-upgradeable/access/OwnableUpgradeable.sol\":2071:2172  function renounceOwnership() public virtual onlyOwner {... */\n      jump\t// out\n        /* \"contracts/space.sol\":12204:13113  function redeem(uint256  _xEvmosAmount, uint256 _Class) external nonReentrant {... */\n    tag_122:\n        /* \"@openzeppelin/contracts/security/ReentrancyGuard.sol\":2261:2282  _nonReentrantBefore() */\n      tag_277\n        /* \"@openzeppelin/contracts/security/ReentrancyGuard.sol\":2261:2280  _nonReentrantBefore */\n      tag_251\n        /* \"@openzeppelin/contracts/security/ReentrancyGuard.sol\":2261:2282  _nonReentrantBefore() */\n      jump\t// in\n    tag_277:\n        /* \"contracts/space.sol\":12316:12317  0 */\n      0x00\n        /* \"contracts/space.sol\":12300:12313  _xEvmosAmount */\n      dup3\n        /* \"contracts/space.sol\":12300:12317  _xEvmosAmount > 0 */\n      gt\n        /* \"contracts/space.sol\":12292:12357  require(_xEvmosAmount > 0, \"redeem: xEvmosAmount cannot be null\") */\n      tag_279\n      jumpi\n      mload(0x40)\n      0x08c379a000000000000000000000000000000000000000000000000000000000\n      dup2\n      mstore\n      0x04\n      add\n      tag_280\n      swap1\n      tag_281\n      jump\t// in\n    tag_280:\n      mload(0x40)\n      dup1\n      swap2\n      sub\n      swap1\n      revert\n    tag_279:\n        /* \"contracts/space.sol\":12380:12381  1 */\n      0x01\n        /* \"contracts/space.sol\":12370:12376  _Class */\n      dup2\n        /* \"contracts/space.sol\":12370:12381  _Class != 1 */\n      eq\n      iszero\n        /* \"contracts/space.sol\":12370:12396  _Class != 1 && _Class != 2 */\n      dup1\n      iszero\n      tag_282\n      jumpi\n      pop\n        /* \"contracts/space.sol\":12395:12396  2 */\n      0x02\n        /* \"contracts/space.sol\":12385:12391  _Class */\n      dup2\n        /* \"contracts/space.sol\":12385:12396  _Class != 2 */\n      eq\n      iszero\n        /* \"contracts/space.sol\":12370:12396  _Class != 1 && _Class != 2 */\n    tag_282:\n        /* \"contracts/space.sol\":12367:12458  if(_Class != 1 && _Class != 2){... */\n      iszero\n      tag_283\n      jumpi\n        /* \"contracts/space.sol\":12419:12424  false */\n      0x00\n        /* \"contracts/space.sol\":12411:12447  require(false,\"redeem: Class error\") */\n      tag_284\n      jumpi\n      mload(0x40)\n      0x08c379a000000000000000000000000000000000000000000000000000000000\n      dup2\n      mstore\n      0x04\n      add\n      tag_285\n      swap1\n      tag_286\n      jump\t// in\n    tag_285:\n      mload(0x40)\n      dup1\n      swap2\n      sub\n      swap1\n      revert\n    tag_284:\n        /* \"contracts/space.sol\":12367:12458  if(_Class != 1 && _Class != 2){... */\n    tag_283:\n        /* \"contracts/space.sol\":12467:12518  _transfer(msg.sender, address(this), _xEvmosAmount) */\n      tag_287\n        /* \"contracts/space.sol\":12477:12487  msg.sender */\n      caller\n        /* \"contracts/space.sol\":12497:12501  this */\n      address\n        /* \"contracts/space.sol\":12504:12517  _xEvmosAmount */\n      dup5\n        /* \"contracts/space.sol\":12467:12476  _transfer */\n      tag_233\n        /* \"contracts/space.sol\":12467:12518  _transfer(msg.sender, address(this), _xEvmosAmount) */\n      jump\t// in\n    tag_287:\n        /* \"contracts/space.sol\":12570:12589  uint256 EvmosAmount */\n      0x00\n        /* \"contracts/space.sol\":12592:12640  getEvmosByVestingDuration(_xEvmosAmount, _Class) */\n      tag_288\n        /* \"contracts/space.sol\":12618:12631  _xEvmosAmount */\n      dup4\n        /* \"contracts/space.sol\":12633:12639  _Class */\n      dup4\n        /* \"contracts/space.sol\":12592:12617  getEvmosByVestingDuration */\n      tag_149\n        /* \"contracts/space.sol\":12592:12640  getEvmosByVestingDuration(_xEvmosAmount, _Class) */\n      jump\t// in\n    tag_288:\n        /* \"contracts/space.sol\":12570:12640  uint256 EvmosAmount = getEvmosByVestingDuration(_xEvmosAmount, _Class) */\n      swap1\n      pop\n        /* \"contracts/space.sol\":12650:12666  uint256 duration */\n      0x00\n        /* \"contracts/space.sol\":12693:12694  2 */\n      0x02\n        /* \"contracts/space.sol\":12683:12689  _Class */\n      dup4\n        /* \"contracts/space.sol\":12683:12694  _Class == 2 */\n      eq\n        /* \"contracts/space.sol\":12680:12805  if(_Class == 2){... */\n      iszero\n      tag_289\n      jumpi\n        /* \"contracts/space.sol\":12720:12737  maxRedeemDuration */\n      sload(0x6a)\n        /* \"contracts/space.sol\":12709:12737  duration = maxRedeemDuration */\n      swap1\n      pop\n        /* \"contracts/space.sol\":12680:12805  if(_Class == 2){... */\n      jump(tag_290)\n    tag_289:\n        /* \"contracts/space.sol\":12777:12794  minRedeemDuration */\n      sload(0x69)\n        /* \"contracts/space.sol\":12766:12794  duration = minRedeemDuration */\n      swap1\n      pop\n        /* \"contracts/space.sol\":12680:12805  if(_Class == 2){... */\n    tag_290:\n        /* \"contracts/space.sol\":12826:12836  msg.sender */\n      caller\n        /* \"contracts/space.sol\":12819:12875  Redeem(msg.sender, _xEvmosAmount, EvmosAmount, duration) */\n      0xffffffffffffffffffffffffffffffffffffffff\n      and\n      0xbd5034ffbd47e4e72a94baa2cdb74c6fad73cb3bcdc13036b72ec8306f5a7646\n        /* \"contracts/space.sol\":12838:12851  _xEvmosAmount */\n      dup6\n        /* \"contracts/space.sol\":12853:12864  EvmosAmount */\n      dup5\n        /* \"contracts/space.sol\":12866:12874  duration */\n      dup5\n        /* \"contracts/space.sol\":12819:12875  Redeem(msg.sender, _xEvmosAmount, EvmosAmount, duration) */\n      mload(0x40)\n      tag_291\n      swap4\n      swap3\n      swap2\n      swap1\n      tag_292\n      jump\t// in\n    tag_291:\n      mload(0x40)\n      dup1\n      swap2\n      sub\n      swap1\n      log2\n        /* \"contracts/space.sol\":12916:12927  userRedeems */\n      0x6f\n        /* \"contracts/space.sol\":12916:12939  userRedeems[msg.sender] */\n      0x00\n        /* \"contracts/space.sol\":12928:12938  msg.sender */\n      caller\n        /* \"contracts/space.sol\":12916:12939  userRedeems[msg.sender] */\n      0xffffffffffffffffffffffffffffffffffffffff\n      and\n      0xffffffffffffffffffffffffffffffffffffffff\n      and\n      dup2\n      mstore\n      0x20\n      add\n      swap1\n      dup2\n      mstore\n      0x20\n      add\n      0x00\n      keccak256\n        /* \"contracts/space.sol\":12945:13048  RedeemInfo(EvmosAmount, _xEvmosAmount, _currentBlockTimestamp(),_currentBlockTimestamp().add(duration)) */\n      mload(0x40)\n      dup1\n      0x80\n      add\n      0x40\n      mstore\n      dup1\n        /* \"contracts/space.sol\":12956:12967  EvmosAmount */\n      dup5\n        /* \"contracts/space.sol\":12945:13048  RedeemInfo(EvmosAmount, _xEvmosAmount, _currentBlockTimestamp(),_currentBlockTimestamp().add(duration)) */\n      dup2\n      mstore\n      0x20\n      add\n        /* \"contracts/space.sol\":12969:12982  _xEvmosAmount */\n      dup7\n        /* \"contracts/space.sol\":12945:13048  RedeemInfo(EvmosAmount, _xEvmosAmount, _currentBlockTimestamp(),_currentBlockTimestamp().add(duration)) */\n      dup2\n      mstore\n      0x20\n      add\n        /* \"contracts/space.sol\":12984:13008  _currentBlockTimestamp() */\n      tag_293\n        /* \"contracts/space.sol\":12984:13006  _currentBlockTimestamp */\n      tag_294\n        /* \"contracts/space.sol\":12984:13008  _currentBlockTimestamp() */\n      jump\t// in\n    tag_293:\n        /* \"contracts/space.sol\":12945:13048  RedeemInfo(EvmosAmount, _xEvmosAmount, _currentBlockTimestamp(),_currentBlockTimestamp().add(duration)) */\n      dup2\n      mstore\n      0x20\n      add\n        /* \"contracts/space.sol\":13009:13047  _currentBlockTimestamp().add(duration) */\n      tag_295\n        /* \"contracts/space.sol\":13038:13046  duration */\n      dup5\n        /* \"contracts/space.sol\":13009:13033  _currentBlockTimestamp() */\n      tag_296\n        /* \"contracts/space.sol\":13009:13031  _currentBlockTimestamp */\n      tag_294\n        /* \"contracts/space.sol\":13009:13033  _currentBlockTimestamp() */\n      jump\t// in\n    tag_296:\n        /* \"contracts/space.sol\":13009:13037  _currentBlockTimestamp().add */\n      tag_297\n      swap1\n        /* \"contracts/space.sol\":13009:13047  _currentBlockTimestamp().add(duration) */\n      swap2\n      swap1\n      0xffffffff\n      and\n      jump\t// in\n    tag_295:\n        /* \"contracts/space.sol\":12945:13048  RedeemInfo(EvmosAmount, _xEvmosAmount, _currentBlockTimestamp(),_currentBlockTimestamp().add(duration)) */\n      dup2\n      mstore\n      pop\n        /* \"contracts/space.sol\":12916:13049  userRedeems[msg.sender].push(RedeemInfo(EvmosAmount, _xEvmosAmount, _currentBlockTimestamp(),_currentBlockTimestamp().add(duration))) */\n      swap1\n      dup1\n      0x01\n      dup2\n      sload\n      add\n      dup1\n      dup3\n      sstore\n      dup1\n      swap2\n      pop\n      pop\n      0x01\n      swap1\n      sub\n      swap1\n      0x00\n      mstore\n      keccak256(0x00, 0x20)\n      swap1\n      0x04\n      mul\n      add\n      0x00\n      swap1\n      swap2\n      swap1\n      swap2\n      swap1\n      swap2\n      pop\n      0x00\n      dup3\n      add\n      mload\n      dup2\n      0x00\n      add\n      sstore\n      0x20\n      dup3\n      add\n      mload\n      dup2\n      0x01\n      add\n      sstore\n      0x40\n      dup3\n      add\n      mload\n      dup2\n      0x02\n      add\n      sstore\n      0x60\n      dup3\n      add\n      mload\n      dup2\n      0x03\n      add\n      sstore\n      pop\n      pop\n        /* \"contracts/space.sol\":13093:13106  _xEvmosAmount */\n      dup4\n        /* \"contracts/space.sol\":13059:13077  _unbondingBalances */\n      0x71\n        /* \"contracts/space.sol\":13059:13089  _unbondingBalances[msg.sender] */\n      0x00\n        /* \"contracts/space.sol\":13078:13088  msg.sender */\n      caller\n        /* \"contracts/space.sol\":13059:13089  _unbondingBalances[msg.sender] */\n      0xffffffffffffffffffffffffffffffffffffffff\n      and\n      0xffffffffffffffffffffffffffffffffffffffff\n      and\n      dup2\n      mstore\n      0x20\n      add\n      swap1\n      dup2\n      mstore\n      0x20\n      add\n      0x00\n      keccak256\n      0x00\n        /* \"contracts/space.sol\":13059:13106  _unbondingBalances[msg.sender] += _xEvmosAmount */\n      dup3\n      dup3\n      sload\n      tag_299\n      swap2\n      swap1\n      tag_246\n      jump\t// in\n    tag_299:\n      swap3\n      pop\n      pop\n      dup2\n      swap1\n      sstore\n      pop\n        /* \"contracts/space.sol\":12282:13113  {... */\n      pop\n      pop\n        /* \"@openzeppelin/contracts/security/ReentrancyGuard.sol\":2303:2323  _nonReentrantAfter() */\n      tag_300\n        /* \"@openzeppelin/contracts/security/ReentrancyGuard.sol\":2303:2321  _nonReentrantAfter */\n      tag_268\n        /* \"@openzeppelin/contracts/security/ReentrancyGuard.sol\":2303:2323  _nonReentrantAfter() */\n      jump\t// in\n    tag_300:\n        /* \"contracts/space.sol\":12204:13113  function redeem(uint256  _xEvmosAmount, uint256 _Class) external nonReentrant {... */\n      pop\n      pop\n      jump\t// out\n        /* \"contracts/space.sol\":9979:10331  function updateTransferWhitelist(address _account, bool _add) external onlyOwner {... */\n    tag_127:\n        /* \"@openzeppelin/contracts-upgradeable/access/OwnableUpgradeable.sol\":1334:1347  _checkOwner() */\n      tag_302\n        /* \"@openzeppelin/contracts-upgradeable/access/OwnableUpgradeable.sol\":1334:1345  _checkOwner */\n      tag_272\n        /* \"@openzeppelin/contracts-upgradeable/access/OwnableUpgradeable.sol\":1334:1347  _checkOwner() */\n      jump\t// in\n    tag_302:\n        /* \"contracts/space.sol\":10098:10102  this */\n      address\n        /* \"contracts/space.sol\":10078:10103  _account != address(this) */\n      0xffffffffffffffffffffffffffffffffffffffff\n      and\n        /* \"contracts/space.sol\":10078:10086  _account */\n      dup3\n        /* \"contracts/space.sol\":10078:10103  _account != address(this) */\n      0xffffffffffffffffffffffffffffffffffffffff\n      and\n      eq\n      iszero\n        /* \"contracts/space.sol\":10070:10168  require(_account != address(this), \"updateTransferWhitelist: Cannot remove XEvmos from whitelist\") */\n      tag_304\n      jumpi\n      mload(0x40)\n      0x08c379a000000000000000000000000000000000000000000000000000000000\n      dup2\n      mstore\n      0x04\n      add\n      tag_305\n      swap1\n      tag_306\n      jump\t// in\n    tag_305:\n      mload(0x40)\n      dup1\n      swap2\n      sub\n      swap1\n      revert\n    tag_304:\n        /* \"contracts/space.sol\":10181:10185  _add */\n      dup1\n        /* \"contracts/space.sol\":10178:10273  if(_add) _transferWhitelist[_account] = true;... */\n      iszero\n      tag_307\n      jumpi\n        /* \"contracts/space.sol\":10218:10222  true */\n      0x01\n        /* \"contracts/space.sol\":10187:10205  _transferWhitelist */\n      0x6e\n        /* \"contracts/space.sol\":10187:10215  _transferWhitelist[_account] */\n      0x00\n        /* \"contracts/space.sol\":10206:10214  _account */\n      dup5\n        /* \"contracts/space.sol\":10187:10215  _transferWhitelist[_account] */\n      0xffffffffffffffffffffffffffffffffffffffff\n      and\n      0xffffffffffffffffffffffffffffffffffffffff\n      and\n      dup2\n      mstore\n      0x20\n      add\n      swap1\n      dup2\n      mstore\n      0x20\n      add\n      0x00\n      keccak256\n      0x00\n        /* \"contracts/space.sol\":10187:10222  _transferWhitelist[_account] = true */\n      0x0100\n      exp\n      dup2\n      sload\n      dup2\n      0xff\n      mul\n      not\n      and\n      swap1\n      dup4\n      iszero\n      iszero\n      mul\n      or\n      swap1\n      sstore\n      pop\n        /* \"contracts/space.sol\":10178:10273  if(_add) _transferWhitelist[_account] = true;... */\n      jump(tag_308)\n    tag_307:\n        /* \"contracts/space.sol\":10268:10273  false */\n      0x00\n        /* \"contracts/space.sol\":10237:10255  _transferWhitelist */\n      0x6e\n        /* \"contracts/space.sol\":10237:10265  _transferWhitelist[_account] */\n      0x00\n        /* \"contracts/space.sol\":10256:10264  _account */\n      dup5\n        /* \"contracts/space.sol\":10237:10265  _transferWhitelist[_account] */\n      0xffffffffffffffffffffffffffffffffffffffff\n      and\n      0xffffffffffffffffffffffffffffffffffffffff\n      and\n      dup2\n      mstore\n      0x20\n      add\n      swap1\n      dup2\n      mstore\n      0x20\n      add\n      0x00\n      keccak256\n      0x00\n        /* \"contracts/space.sol\":10237:10273  _transferWhitelist[_account] = false */\n      0x0100\n      exp\n      dup2\n      sload\n      dup2\n      0xff\n      mul\n      not\n      and\n      swap1\n      dup4\n      iszero\n      iszero\n      mul\n      or\n      swap1\n      sstore\n      pop\n        /* \"contracts/space.sol\":10178:10273  if(_add) _transferWhitelist[_account] = true;... */\n    tag_308:\n        /* \"contracts/space.sol\":10288:10324  SetTransferWhitelist(_account, _add) */\n      0x3a34209cb941a5d23a56dea730a13738454bc7daefd4bb32e8d7df58c1bd920d\n        /* \"contracts/space.sol\":10309:10317  _account */\n      dup3\n        /* \"contracts/space.sol\":10319:10323  _add */\n      dup3\n        /* \"contracts/space.sol\":10288:10324  SetTransferWhitelist(_account, _add) */\n      mload(0x40)\n      tag_309\n      swap3\n      swap2\n      swap1\n      tag_310\n      jump\t// in\n    tag_309:\n      mload(0x40)\n      dup1\n      swap2\n      sub\n      swap1\n      log1\n        /* \"contracts/space.sol\":9979:10331  function updateTransferWhitelist(address _account, bool _add) external onlyOwner {... */\n      pop\n      pop\n      jump\t// out\n        /* \"@openzeppelin/contracts-upgradeable/access/OwnableUpgradeable.sol\":1441:1526  function owner() public view virtual returns (address) {... */\n    tag_130:\n        /* \"@openzeppelin/contracts-upgradeable/access/OwnableUpgradeable.sol\":1487:1494  address */\n      0x00\n        /* \"@openzeppelin/contracts-upgradeable/access/OwnableUpgradeable.sol\":1513:1519  _owner */\n      0x33\n      0x00\n      swap1\n      sload\n      swap1\n      0x0100\n      exp\n      swap1\n      div\n      0xffffffffffffffffffffffffffffffffffffffff\n      and\n        /* \"@openzeppelin/contracts-upgradeable/access/OwnableUpgradeable.sol\":1506:1519  return _owner */\n      swap1\n      pop\n        /* \"@openzeppelin/contracts-upgradeable/access/OwnableUpgradeable.sol\":1441:1526  function owner() public view virtual returns (address) {... */\n      swap1\n      jump\t// out\n        /* \"contracts/space.sol\":4373:4470  function symbol() public view virtual returns (string memory) {... */\n    tag_135:\n        /* \"contracts/space.sol\":4420:4433  string memory */\n      0x60\n        /* \"contracts/space.sol\":4452:4463  tokenSymbol */\n      0x6d\n        /* \"contracts/space.sol\":4445:4463  return tokenSymbol */\n      dup1\n      sload\n      tag_313\n      swap1\n      tag_203\n      jump\t// in\n    tag_313:\n      dup1\n      0x1f\n      add\n      0x20\n      dup1\n      swap2\n      div\n      mul\n      0x20\n      add\n      mload(0x40)\n      swap1\n      dup2\n      add\n      0x40\n      mstore\n      dup1\n      swap3\n      swap2\n      swap1\n      dup2\n      dup2\n      mstore\n      0x20\n      add\n      dup3\n      dup1\n      sload\n      tag_314\n      swap1\n      tag_203\n      jump\t// in\n    tag_314:\n      dup1\n      iszero\n      tag_315\n      jumpi\n      dup1\n      0x1f\n      lt\n      tag_316\n      jumpi\n      0x0100\n      dup1\n      dup4\n      sload\n      div\n      mul\n      dup4\n      mstore\n      swap2\n      0x20\n      add\n      swap2\n      jump(tag_315)\n    tag_316:\n      dup3\n      add\n      swap2\n      swap1\n      0x00\n      mstore\n      keccak256(0x00, 0x20)\n      swap1\n    tag_317:\n      dup2\n      sload\n      dup2\n      mstore\n      swap1\n      0x01\n      add\n      swap1\n      0x20\n      add\n      dup1\n      dup4\n      gt\n      tag_317\n      jumpi\n      dup3\n      swap1\n      sub\n      0x1f\n      and\n      dup3\n      add\n      swap2\n    tag_315:\n      pop\n      pop\n      pop\n      pop\n      pop\n      swap1\n      pop\n        /* \"contracts/space.sol\":4373:4470  function symbol() public view virtual returns (string memory) {... */\n      swap1\n      jump\t// out\n        /* \"contracts/space.sol\":11449:11551  function convert(uint256 _amount) external nonReentrant {... */\n    tag_140:\n        /* \"@openzeppelin/contracts/security/ReentrancyGuard.sol\":2261:2282  _nonReentrantBefore() */\n      tag_319\n        /* \"@openzeppelin/contracts/security/ReentrancyGuard.sol\":2261:2280  _nonReentrantBefore */\n      tag_251\n        /* \"@openzeppelin/contracts/security/ReentrancyGuard.sol\":2261:2282  _nonReentrantBefore() */\n      jump\t// in\n    tag_319:\n        /* \"contracts/space.sol\":11515:11544  _convert(_amount, msg.sender) */\n      tag_321\n        /* \"contracts/space.sol\":11524:11531  _amount */\n      dup2\n        /* \"contracts/space.sol\":11533:11543  msg.sender */\n      caller\n        /* \"contracts/space.sol\":11515:11523  _convert */\n      tag_322\n        /* \"contracts/space.sol\":11515:11544  _convert(_amount, msg.sender) */\n      jump\t// in\n    tag_321:\n        /* \"@openzeppelin/contracts/security/ReentrancyGuard.sol\":2303:2323  _nonReentrantAfter() */\n      tag_323\n        /* \"@openzeppelin/contracts/security/ReentrancyGuard.sol\":2303:2321  _nonReentrantAfter */\n      tag_268\n        /* \"@openzeppelin/contracts/security/ReentrancyGuard.sol\":2303:2323  _nonReentrantAfter() */\n      jump\t// in\n    tag_323:\n        /* \"contracts/space.sol\":11449:11551  function convert(uint256 _amount) external nonReentrant {... */\n      pop\n      jump\t// out\n        /* \"contracts/space.sol\":6886:7291  function decreaseAllowance(address _spender, uint256 _subtractedValue) public virtual returns (bool) {... */\n    tag_144:\n        /* \"contracts/space.sol\":6981:6985  bool */\n      0x00\n        /* \"contracts/space.sol\":6997:7021  uint256 currentAllowance */\n      dup1\n        /* \"contracts/space.sol\":7024:7035  _allowances */\n      0x72\n        /* \"contracts/space.sol\":7024:7049  _allowances[_msgSender()] */\n      0x00\n        /* \"contracts/space.sol\":7036:7048  _msgSender() */\n      tag_325\n        /* \"contracts/space.sol\":7036:7046  _msgSender */\n      tag_211\n        /* \"contracts/space.sol\":7036:7048  _msgSender() */\n      jump\t// in\n    tag_325:\n        /* \"contracts/space.sol\":7024:7049  _allowances[_msgSender()] */\n      0xffffffffffffffffffffffffffffffffffffffff\n      and\n      0xffffffffffffffffffffffffffffffffffffffff\n      and\n      dup2\n      mstore\n      0x20\n      add\n      swap1\n      dup2\n      mstore\n      0x20\n      add\n      0x00\n      keccak256\n        /* \"contracts/space.sol\":7024:7059  _allowances[_msgSender()][_spender] */\n      0x00\n        /* \"contracts/space.sol\":7050:7058  _spender */\n      dup6\n        /* \"contracts/space.sol\":7024:7059  _allowances[_msgSender()][_spender] */\n      0xffffffffffffffffffffffffffffffffffffffff\n      and\n      0xffffffffffffffffffffffffffffffffffffffff\n      and\n      dup2\n      mstore\n      0x20\n      add\n      swap1\n      dup2\n      mstore\n      0x20\n      add\n      0x00\n      keccak256\n      sload\n        /* \"contracts/space.sol\":6997:7059  uint256 currentAllowance = _allowances[_msgSender()][_spender] */\n      swap1\n      pop\n        /* \"contracts/space.sol\":7097:7113  _subtractedValue */\n      dup3\n        /* \"contracts/space.sol\":7077:7093  currentAllowance */\n      dup2\n        /* \"contracts/space.sol\":7077:7113  currentAllowance >= _subtractedValue */\n      lt\n      iszero\n        /* \"contracts/space.sol\":7069:7162  require(currentAllowance >= _subtractedValue, \"XEvmos ERC20: decreased allowance below zero\") */\n      tag_326\n      jumpi\n      mload(0x40)\n      0x08c379a000000000000000000000000000000000000000000000000000000000\n      dup2\n      mstore\n      0x04\n      add\n      tag_327\n      swap1\n      tag_328\n      jump\t// in\n    tag_327:\n      mload(0x40)\n      dup1\n      swap2\n      sub\n      swap1\n      revert\n    tag_326:\n        /* \"contracts/space.sol\":7188:7257  _approve(_msgSender(), _spender, currentAllowance - _subtractedValue) */\n      tag_329\n        /* \"contracts/space.sol\":7197:7209  _msgSender() */\n      tag_330\n        /* \"contracts/space.sol\":7197:7207  _msgSender */\n      tag_211\n        /* \"contracts/space.sol\":7197:7209  _msgSender() */\n      jump\t// in\n    tag_330:\n        /* \"contracts/space.sol\":7211:7219  _spender */\n      dup6\n        /* \"contracts/space.sol\":7240:7256  _subtractedValue */\n      dup6\n        /* \"contracts/space.sol\":7221:7237  currentAllowance */\n      dup5\n        /* \"contracts/space.sol\":7221:7256  currentAllowance - _subtractedValue */\n      sub\n        /* \"contracts/space.sol\":7188:7196  _approve */\n      tag_212\n        /* \"contracts/space.sol\":7188:7257  _approve(_msgSender(), _spender, currentAllowance - _subtractedValue) */\n      jump\t// in\n    tag_329:\n        /* \"contracts/space.sol\":7280:7284  true */\n      0x01\n        /* \"contracts/space.sol\":7273:7284  return true */\n      swap2\n      pop\n      pop\n        /* \"contracts/space.sol\":6886:7291  function decreaseAllowance(address _spender, uint256 _subtractedValue) public virtual returns (bool) {... */\n      swap3\n      swap2\n      pop\n      pop\n      jump\t// out\n        /* \"contracts/space.sol\":15527:15868  function getEvmosByVestingDuration(uint256 _amount, uint256 _Class) public view returns (uint256) {... */\n    tag_149:\n        /* \"contracts/space.sol\":15616:15623  uint256 */\n      0x00\n        /* \"contracts/space.sol\":15648:15649  1 */\n      0x01\n        /* \"contracts/space.sol\":15638:15644  _Class */\n      dup3\n        /* \"contracts/space.sol\":15638:15649  _Class != 1 */\n      eq\n      iszero\n        /* \"contracts/space.sol\":15638:15664  _Class != 1 && _Class != 2 */\n      dup1\n      iszero\n      tag_332\n      jumpi\n      pop\n        /* \"contracts/space.sol\":15663:15664  2 */\n      0x02\n        /* \"contracts/space.sol\":15653:15659  _Class */\n      dup3\n        /* \"contracts/space.sol\":15653:15664  _Class != 2 */\n      eq\n      iszero\n        /* \"contracts/space.sol\":15638:15664  _Class != 1 && _Class != 2 */\n    tag_332:\n        /* \"contracts/space.sol\":15635:15698  if(_Class != 1 && _Class != 2){... */\n      iszero\n      tag_333\n      jumpi\n        /* \"contracts/space.sol\":15686:15687  0 */\n      0x00\n        /* \"contracts/space.sol\":15679:15687  return 0 */\n      swap1\n      pop\n      jump(tag_331)\n        /* \"contracts/space.sol\":15635:15698  if(_Class != 1 && _Class != 2){... */\n    tag_333:\n        /* \"contracts/space.sol\":15720:15721  1 */\n      0x01\n        /* \"contracts/space.sol\":15710:15716  _Class */\n      dup3\n        /* \"contracts/space.sol\":15710:15721  _Class == 1 */\n      eq\n        /* \"contracts/space.sol\":15707:15862  if(_Class == 1){... */\n      iszero\n      tag_334\n      jumpi\n        /* \"contracts/space.sol\":15743:15779  _amount.mul(minRedeemRatio).div(100) */\n      tag_335\n        /* \"contracts/space.sol\":15775:15778  100 */\n      0x64\n        /* \"contracts/space.sol\":15743:15770  _amount.mul(minRedeemRatio) */\n      tag_336\n        /* \"contracts/space.sol\":15755:15769  minRedeemRatio */\n      sload(0x67)\n        /* \"contracts/space.sol\":15743:15750  _amount */\n      dup7\n        /* \"contracts/space.sol\":15743:15754  _amount.mul */\n      tag_337\n      swap1\n        /* \"contracts/space.sol\":15743:15770  _amount.mul(minRedeemRatio) */\n      swap2\n      swap1\n      0xffffffff\n      and\n      jump\t// in\n    tag_336:\n        /* \"contracts/space.sol\":15743:15774  _amount.mul(minRedeemRatio).div */\n      tag_338\n      swap1\n        /* \"contracts/space.sol\":15743:15779  _amount.mul(minRedeemRatio).div(100) */\n      swap2\n      swap1\n      0xffffffff\n      and\n      jump\t// in\n    tag_335:\n        /* \"contracts/space.sol\":15736:15779  return _amount.mul(minRedeemRatio).div(100) */\n      swap1\n      pop\n      jump(tag_331)\n        /* \"contracts/space.sol\":15707:15862  if(_Class == 1){... */\n    tag_334:\n        /* \"contracts/space.sol\":15815:15851  _amount.mul(maxRedeemRatio).div(100) */\n      tag_340\n        /* \"contracts/space.sol\":15847:15850  100 */\n      0x64\n        /* \"contracts/space.sol\":15815:15842  _amount.mul(maxRedeemRatio) */\n      tag_341\n        /* \"contracts/space.sol\":15827:15841  maxRedeemRatio */\n      sload(0x68)\n        /* \"contracts/space.sol\":15815:15822  _amount */\n      dup7\n        /* \"contracts/space.sol\":15815:15826  _amount.mul */\n      tag_337\n      swap1\n        /* \"contracts/space.sol\":15815:15842  _amount.mul(maxRedeemRatio) */\n      swap2\n      swap1\n      0xffffffff\n      and\n      jump\t// in\n    tag_341:\n        /* \"contracts/space.sol\":15815:15846  _amount.mul(maxRedeemRatio).div */\n      tag_338\n      swap1\n        /* \"contracts/space.sol\":15815:15851  _amount.mul(maxRedeemRatio).div(100) */\n      swap2\n      swap1\n      0xffffffff\n      and\n      jump\t// in\n    tag_340:\n        /* \"contracts/space.sol\":15808:15851  return _amount.mul(maxRedeemRatio).div(100) */\n      swap1\n      pop\n        /* \"contracts/space.sol\":15527:15868  function getEvmosByVestingDuration(uint256 _amount, uint256 _Class) public view returns (uint256) {... */\n    tag_331:\n      swap3\n      swap2\n      pop\n      pop\n      jump\t// out\n        /* \"contracts/space.sol\":5355:5522  function transfer(address _recipient, uint256 _amount) public virtual returns (bool) {... */\n    tag_154:\n        /* \"contracts/space.sol\":5434:5438  bool */\n      0x00\n        /* \"contracts/space.sol\":5450:5494  _transfer(_msgSender(), _recipient, _amount) */\n      tag_343\n        /* \"contracts/space.sol\":5460:5472  _msgSender() */\n      tag_344\n        /* \"contracts/space.sol\":5460:5470  _msgSender */\n      tag_211\n        /* \"contracts/space.sol\":5460:5472  _msgSender() */\n      jump\t// in\n    tag_344:\n        /* \"contracts/space.sol\":5474:5484  _recipient */\n      dup5\n        /* \"contracts/space.sol\":5486:5493  _amount */\n      dup5\n        /* \"contracts/space.sol\":5450:5459  _transfer */\n      tag_233\n        /* \"contracts/space.sol\":5450:5494  _transfer(_msgSender(), _recipient, _amount) */\n      jump\t// in\n    tag_343:\n        /* \"contracts/space.sol\":5511:5515  true */\n      0x01\n        /* \"contracts/space.sol\":5504:5515  return true */\n      swap1\n      pop\n        /* \"contracts/space.sol\":5355:5522  function transfer(address _recipient, uint256 _amount) public virtual returns (bool) {... */\n      swap3\n      swap2\n      pop\n      pop\n      jump\t// out\n        /* \"contracts/space.sol\":13260:13817  function finalizeRedeem(uint256 _redeemIndex) external nonReentrant validateRedeem(msg.sender,_redeemIndex) {... */\n    tag_159:\n        /* \"@openzeppelin/contracts/security/ReentrancyGuard.sol\":2261:2282  _nonReentrantBefore() */\n      tag_346\n        /* \"@openzeppelin/contracts/security/ReentrancyGuard.sol\":2261:2280  _nonReentrantBefore */\n      tag_251\n        /* \"@openzeppelin/contracts/security/ReentrancyGuard.sol\":2261:2282  _nonReentrantBefore() */\n      jump\t// in\n    tag_346:\n        /* \"contracts/space.sol\":13343:13353  msg.sender */\n      caller\n        /* \"contracts/space.sol\":13354:13366  _redeemIndex */\n      dup2\n        /* \"contracts/space.sol\":16726:16737  userRedeems */\n      0x6f\n        /* \"contracts/space.sol\":16726:16751  userRedeems[_userAddress] */\n      0x00\n        /* \"contracts/space.sol\":16738:16750  _userAddress */\n      dup4\n        /* \"contracts/space.sol\":16726:16751  userRedeems[_userAddress] */\n      0xffffffffffffffffffffffffffffffffffffffff\n      and\n      0xffffffffffffffffffffffffffffffffffffffff\n      and\n      dup2\n      mstore\n      0x20\n      add\n      swap1\n      dup2\n      mstore\n      0x20\n      add\n      0x00\n      keccak256\n        /* \"contracts/space.sol\":16726:16758  userRedeems[_userAddress].length */\n      dup1\n      sload\n      swap1\n      pop\n        /* \"contracts/space.sol\":16711:16723  _redeemIndex */\n      dup2\n        /* \"contracts/space.sol\":16711:16758  _redeemIndex < userRedeems[_userAddress].length */\n      lt\n        /* \"contracts/space.sol\":16703:16806  require(_redeemIndex < userRedeems[_userAddress].length, \"validateRedeem: redeem entry does not exist\") */\n      tag_348\n      jumpi\n      mload(0x40)\n      0x08c379a000000000000000000000000000000000000000000000000000000000\n      dup2\n      mstore\n      0x04\n      add\n      tag_349\n      swap1\n      tag_255\n      jump\t// in\n    tag_349:\n      mload(0x40)\n      dup1\n      swap2\n      sub\n      swap1\n      revert\n    tag_348:\n        /* \"contracts/space.sol\":13378:13404  RedeemInfo storage _redeem */\n      0x00\n        /* \"contracts/space.sol\":13407:13418  userRedeems */\n      0x6f\n        /* \"contracts/space.sol\":13407:13430  userRedeems[msg.sender] */\n      0x00\n        /* \"contracts/space.sol\":13419:13429  msg.sender */\n      caller\n        /* \"contracts/space.sol\":13407:13430  userRedeems[msg.sender] */\n      0xffffffffffffffffffffffffffffffffffffffff\n      and\n      0xffffffffffffffffffffffffffffffffffffffff\n      and\n      dup2\n      mstore\n      0x20\n      add\n      swap1\n      dup2\n      mstore\n      0x20\n      add\n      0x00\n      keccak256\n        /* \"contracts/space.sol\":13431:13443  _redeemIndex */\n      dup5\n        /* \"contracts/space.sol\":13407:13444  userRedeems[msg.sender][_redeemIndex] */\n      dup2\n      sload\n      dup2\n      lt\n      tag_351\n      jumpi\n      tag_352\n      tag_259\n      jump\t// in\n    tag_352:\n    tag_351:\n      swap1\n      0x00\n      mstore\n      keccak256(0x00, 0x20)\n      swap1\n      0x04\n      mul\n      add\n        /* \"contracts/space.sol\":13378:13444  RedeemInfo storage _redeem = userRedeems[msg.sender][_redeemIndex] */\n      swap1\n      pop\n        /* \"contracts/space.sol\":13521:13528  _redeem */\n      dup1\n        /* \"contracts/space.sol\":13521:13541  _redeem.xEvmosAmount */\n      0x01\n      add\n      sload\n        /* \"contracts/space.sol\":13487:13505  _unbondingBalances */\n      0x71\n        /* \"contracts/space.sol\":13487:13517  _unbondingBalances[msg.sender] */\n      0x00\n        /* \"contracts/space.sol\":13506:13516  msg.sender */\n      caller\n        /* \"contracts/space.sol\":13487:13517  _unbondingBalances[msg.sender] */\n      0xffffffffffffffffffffffffffffffffffffffff\n      and\n      0xffffffffffffffffffffffffffffffffffffffff\n      and\n      dup2\n      mstore\n      0x20\n      add\n      swap1\n      dup2\n      mstore\n      0x20\n      add\n      0x00\n      keccak256\n      0x00\n        /* \"contracts/space.sol\":13487:13541  _unbondingBalances[msg.sender] -= _redeem.xEvmosAmount */\n      dup3\n      dup3\n      sload\n      tag_354\n      swap2\n      swap1\n      tag_262\n      jump\t// in\n    tag_354:\n      swap3\n      pop\n      pop\n      dup2\n      swap1\n      sstore\n      pop\n        /* \"contracts/space.sol\":13587:13594  _redeem */\n      dup1\n        /* \"contracts/space.sol\":13587:13602  _redeem.endTime */\n      0x03\n      add\n      sload\n        /* \"contracts/space.sol\":13559:13583  _currentBlockTimestamp() */\n      tag_355\n        /* \"contracts/space.sol\":13559:13581  _currentBlockTimestamp */\n      tag_294\n        /* \"contracts/space.sol\":13559:13583  _currentBlockTimestamp() */\n      jump\t// in\n    tag_355:\n        /* \"contracts/space.sol\":13559:13602  _currentBlockTimestamp() >= _redeem.endTime */\n      lt\n      iszero\n        /* \"contracts/space.sol\":13551:13657  require(_currentBlockTimestamp() >= _redeem.endTime, \"finalizeRedeem: vesting duration has not ended yet\") */\n      tag_356\n      jumpi\n      mload(0x40)\n      0x08c379a000000000000000000000000000000000000000000000000000000000\n      dup2\n      mstore\n      0x04\n      add\n      tag_357\n      swap1\n      tag_358\n      jump\t// in\n    tag_357:\n      mload(0x40)\n      dup1\n      swap2\n      sub\n      swap1\n      revert\n    tag_356:\n        /* \"contracts/space.sol\":13667:13737  _finalizeRedeem(msg.sender, _redeem.xEvmosAmount, _redeem.EvmosAmount) */\n      tag_359\n        /* \"contracts/space.sol\":13683:13693  msg.sender */\n      caller\n        /* \"contracts/space.sol\":13695:13702  _redeem */\n      dup3\n        /* \"contracts/space.sol\":13695:13715  _redeem.xEvmosAmount */\n      0x01\n      add\n      sload\n        /* \"contracts/space.sol\":13717:13724  _redeem */\n      dup4\n        /* \"contracts/space.sol\":13717:13736  _redeem.EvmosAmount */\n      0x00\n      add\n      sload\n        /* \"contracts/space.sol\":13667:13682  _finalizeRedeem */\n      tag_360\n        /* \"contracts/space.sol\":13667:13737  _finalizeRedeem(msg.sender, _redeem.xEvmosAmount, _redeem.EvmosAmount) */\n      jump\t// in\n    tag_359:\n        /* \"contracts/space.sol\":13778:13810  _deleteRedeemEntry(_redeemIndex) */\n      tag_361\n        /* \"contracts/space.sol\":13797:13809  _redeemIndex */\n      dup5\n        /* \"contracts/space.sol\":13778:13796  _deleteRedeemEntry */\n      tag_266\n        /* \"contracts/space.sol\":13778:13810  _deleteRedeemEntry(_redeemIndex) */\n      jump\t// in\n    tag_361:\n        /* \"contracts/space.sol\":13368:13817  {... */\n      pop\n        /* \"@openzeppelin/contracts/security/ReentrancyGuard.sol\":2292:2293  _ */\n      pop\n      pop\n        /* \"@openzeppelin/contracts/security/ReentrancyGuard.sol\":2303:2323  _nonReentrantAfter() */\n      tag_362\n        /* \"@openzeppelin/contracts/security/ReentrancyGuard.sol\":2303:2321  _nonReentrantAfter */\n      tag_268\n        /* \"@openzeppelin/contracts/security/ReentrancyGuard.sol\":2303:2323  _nonReentrantAfter() */\n      jump\t// in\n    tag_362:\n        /* \"contracts/space.sol\":13260:13817  function finalizeRedeem(uint256 _redeemIndex) external nonReentrant validateRedeem(msg.sender,_redeemIndex) {... */\n      pop\n      jump\t// out\n        /* \"contracts/space.sol\":15953:16093  function getUserRedeemsLength(address _userAddress) external view returns (uint256) {... */\n    tag_163:\n        /* \"contracts/space.sol\":16028:16035  uint256 */\n      0x00\n        /* \"contracts/space.sol\":16054:16065  userRedeems */\n      0x6f\n        /* \"contracts/space.sol\":16054:16079  userRedeems[_userAddress] */\n      0x00\n        /* \"contracts/space.sol\":16066:16078  _userAddress */\n      dup4\n        /* \"contracts/space.sol\":16054:16079  userRedeems[_userAddress] */\n      0xffffffffffffffffffffffffffffffffffffffff\n      and\n      0xffffffffffffffffffffffffffffffffffffffff\n      and\n      dup2\n      mstore\n      0x20\n      add\n      swap1\n      dup2\n      mstore\n      0x20\n      add\n      0x00\n      keccak256\n        /* \"contracts/space.sol\":16054:16086  userRedeems[_userAddress].length */\n      dup1\n      sload\n      swap1\n      pop\n        /* \"contracts/space.sol\":16047:16086  return userRedeems[_userAddress].length */\n      swap1\n      pop\n        /* \"contracts/space.sol\":15953:16093  function getUserRedeemsLength(address _userAddress) external view returns (uint256) {... */\n      swap2\n      swap1\n      pop\n      jump\t// out\n        /* \"contracts/space.sol\":967:999  uint256 public minRedeemDuration */\n    tag_167:\n      sload(0x69)\n      dup2\n      jump\t// out\n        /* \"contracts/space.sol\":10732:11368  function updateRedeemSettings(uint256 _minRedeemRatio,uint256 _maxRedeemRatio,uint256 _minRedeemDuration,uint256 _maxRedeemDuration) external onlyOwner {... */\n    tag_173:\n        /* \"@openzeppelin/contracts-upgradeable/access/OwnableUpgradeable.sol\":1334:1347  _checkOwner() */\n      tag_365\n        /* \"@openzeppelin/contracts-upgradeable/access/OwnableUpgradeable.sol\":1334:1345  _checkOwner */\n      tag_272\n        /* \"@openzeppelin/contracts-upgradeable/access/OwnableUpgradeable.sol\":1334:1347  _checkOwner() */\n      jump\t// in\n    tag_365:\n        /* \"contracts/space.sol\":10921:10936  _maxRedeemRatio */\n      dup3\n        /* \"contracts/space.sol\":10902:10917  _minRedeemRatio */\n      dup5\n        /* \"contracts/space.sol\":10902:10936  _minRedeemRatio <= _maxRedeemRatio */\n      gt\n      iszero\n        /* \"contracts/space.sol\":10894:10981  require(_minRedeemRatio <= _maxRedeemRatio, \"updateRedeemSettings: wrong ratio values\") */\n      tag_367\n      jumpi\n      mload(0x40)\n      0x08c379a000000000000000000000000000000000000000000000000000000000\n      dup2\n      mstore\n      0x04\n      add\n      tag_368\n      swap1\n      tag_369\n      jump\t// in\n    tag_368:\n      mload(0x40)\n      dup1\n      swap2\n      sub\n      swap1\n      revert\n    tag_367:\n        /* \"contracts/space.sol\":11020:11021  0 */\n      0x00\n        /* \"contracts/space.sol\":10999:11017  _maxRedeemDuration */\n      dup2\n        /* \"contracts/space.sol\":10999:11021  _maxRedeemDuration > 0 */\n      gt\n        /* \"contracts/space.sol\":10991:11073  require(_maxRedeemDuration > 0 , \"updateRedeemSettings: wrong maxDuration values\") */\n      tag_370\n      jumpi\n      mload(0x40)\n      0x08c379a000000000000000000000000000000000000000000000000000000000\n      dup2\n      mstore\n      0x04\n      add\n      tag_371\n      swap1\n      tag_372\n      jump\t// in\n    tag_371:\n      mload(0x40)\n      dup1\n      swap2\n      sub\n      swap1\n      revert\n    tag_370:\n        /* \"contracts/space.sol\":11100:11115  _minRedeemRatio */\n      dup4\n        /* \"contracts/space.sol\":11083:11097  minRedeemRatio */\n      0x67\n        /* \"contracts/space.sol\":11083:11115  minRedeemRatio = _minRedeemRatio */\n      dup2\n      swap1\n      sstore\n      pop\n        /* \"contracts/space.sol\":11142:11157  _maxRedeemRatio */\n      dup3\n        /* \"contracts/space.sol\":11125:11139  maxRedeemRatio */\n      0x68\n        /* \"contracts/space.sol\":11125:11157  maxRedeemRatio = _maxRedeemRatio */\n      dup2\n      swap1\n      sstore\n      pop\n        /* \"contracts/space.sol\":11187:11205  _minRedeemDuration */\n      dup2\n        /* \"contracts/space.sol\":11167:11184  minRedeemDuration */\n      0x69\n        /* \"contracts/space.sol\":11167:11205  minRedeemDuration = _minRedeemDuration */\n      dup2\n      swap1\n      sstore\n      pop\n        /* \"contracts/space.sol\":11235:11253  _maxRedeemDuration */\n      dup1\n        /* \"contracts/space.sol\":11215:11232  maxRedeemDuration */\n      0x6a\n        /* \"contracts/space.sol\":11215:11253  maxRedeemDuration = _maxRedeemDuration */\n      dup2\n      swap1\n      sstore\n      pop\n        /* \"contracts/space.sol\":11268:11361  UpdateRedeemSettings(_minRedeemRatio, _maxRedeemRatio, _minRedeemDuration,_maxRedeemDuration) */\n      0xf282865353a487a40c4983b3a1a4e8901e81cb5605f653e6352dc57cdb574488\n        /* \"contracts/space.sol\":11289:11304  _minRedeemRatio */\n      dup5\n        /* \"contracts/space.sol\":11306:11321  _maxRedeemRatio */\n      dup5\n        /* \"contracts/space.sol\":11323:11341  _minRedeemDuration */\n      dup5\n        /* \"contracts/space.sol\":11342:11360  _maxRedeemDuration */\n      dup5\n        /* \"contracts/space.sol\":11268:11361  UpdateRedeemSettings(_minRedeemRatio, _maxRedeemRatio, _minRedeemDuration,_maxRedeemDuration) */\n      mload(0x40)\n      tag_373\n      swap5\n      swap4\n      swap3\n      swap2\n      swap1\n      tag_104\n      jump\t// in\n    tag_373:\n      mload(0x40)\n      dup1\n      swap2\n      sub\n      swap1\n      log1\n        /* \"contracts/space.sol\":10732:11368  function updateRedeemSettings(uint256 _minRedeemRatio,uint256 _maxRedeemRatio,uint256 _minRedeemDuration,uint256 _maxRedeemDuration) external onlyOwner {... */\n      pop\n      pop\n      pop\n      pop\n      jump\t// out\n        /* \"contracts/space.sol\":5160:5295  function unbondingBalancOf(address _account) public view virtual returns (uint256) {... */\n    tag_177:\n        /* \"contracts/space.sol\":5234:5241  uint256 */\n      0x00\n        /* \"contracts/space.sol\":5260:5278  _unbondingBalances */\n      0x71\n        /* \"contracts/space.sol\":5260:5288  _unbondingBalances[_account] */\n      0x00\n        /* \"contracts/space.sol\":5279:5287  _account */\n      dup4\n        /* \"contracts/space.sol\":5260:5288  _unbondingBalances[_account] */\n      0xffffffffffffffffffffffffffffffffffffffff\n      and\n      0xffffffffffffffffffffffffffffffffffffffff\n      and\n      dup2\n      mstore\n      0x20\n      add\n      swap1\n      dup2\n      mstore\n      0x20\n      add\n      0x00\n      keccak256\n      sload\n        /* \"contracts/space.sol\":5253:5288  return _unbondingBalances[_account] */\n      swap1\n      pop\n        /* \"contracts/space.sol\":5160:5295  function unbondingBalancOf(address _account) public view virtual returns (uint256) {... */\n      swap2\n      swap1\n      pop\n      jump\t// out\n        /* \"contracts/space.sol\":5583:5727  function allowance(address _owner, address _spender) public view virtual returns (uint256) {... */\n    tag_183:\n        /* \"contracts/space.sol\":5665:5672  uint256 */\n      0x00\n        /* \"contracts/space.sol\":5691:5702  _allowances */\n      0x72\n        /* \"contracts/space.sol\":5691:5710  _allowances[_owner] */\n      0x00\n        /* \"contracts/space.sol\":5703:5709  _owner */\n      dup5\n        /* \"contracts/space.sol\":5691:5710  _allowances[_owner] */\n      0xffffffffffffffffffffffffffffffffffffffff\n      and\n      0xffffffffffffffffffffffffffffffffffffffff\n      and\n      dup2\n      mstore\n      0x20\n      add\n      swap1\n      dup2\n      mstore\n      0x20\n      add\n      0x00\n      keccak256\n        /* \"contracts/space.sol\":5691:5720  _allowances[_owner][_spender] */\n      0x00\n        /* \"contracts/space.sol\":5711:5719  _spender */\n      dup4\n        /* \"contracts/space.sol\":5691:5720  _allowances[_owner][_spender] */\n      0xffffffffffffffffffffffffffffffffffffffff\n      and\n      0xffffffffffffffffffffffffffffffffffffffff\n      and\n      dup2\n      mstore\n      0x20\n      add\n      swap1\n      dup2\n      mstore\n      0x20\n      add\n      0x00\n      keccak256\n      sload\n        /* \"contracts/space.sol\":5684:5720  return _allowances[_owner][_spender] */\n      swap1\n      pop\n        /* \"contracts/space.sol\":5583:5727  function allowance(address _owner, address _spender) public view virtual returns (uint256) {... */\n      swap3\n      swap2\n      pop\n      pop\n      jump\t// out\n        /* \"contracts/space.sol\":924:953  uint256 public maxRedeemRatio */\n    tag_187:\n      sload(0x68)\n      dup2\n      jump\t// out\n        /* \"contracts/space.sol\":1022:1054  uint256 public maxRedeemDuration */\n    tag_191:\n      sload(0x6a)\n      dup2\n      jump\t// out\n        /* \"contracts/space.sol\":847:872  uint256 public burnNumber */\n    tag_195:\n      sload(0x66)\n      dup2\n      jump\t// out\n        /* \"@openzeppelin/contracts-upgradeable/access/OwnableUpgradeable.sol\":2321:2519  function transferOwnership(address newOwner) public virtual onlyOwner {... */\n    tag_200:\n        /* \"@openzeppelin/contracts-upgradeable/access/OwnableUpgradeable.sol\":1334:1347  _checkOwner() */\n      tag_377\n        /* \"@openzeppelin/contracts-upgradeable/access/OwnableUpgradeable.sol\":1334:1345  _checkOwner */\n      tag_272\n        /* \"@openzeppelin/contracts-upgradeable/access/OwnableUpgradeable.sol\":1334:1347  _checkOwner() */\n      jump\t// in\n    tag_377:\n        /* \"@openzeppelin/contracts-upgradeable/access/OwnableUpgradeable.sol\":2429:2430  0 */\n      0x00\n        /* \"@openzeppelin/contracts-upgradeable/access/OwnableUpgradeable.sol\":2409:2431  newOwner != address(0) */\n      0xffffffffffffffffffffffffffffffffffffffff\n      and\n        /* \"@openzeppelin/contracts-upgradeable/access/OwnableUpgradeable.sol\":2409:2417  newOwner */\n      dup2\n        /* \"@openzeppelin/contracts-upgradeable/access/OwnableUpgradeable.sol\":2409:2431  newOwner != address(0) */\n      0xffffffffffffffffffffffffffffffffffffffff\n      and\n      eq\n      iszero\n        /* \"@openzeppelin/contracts-upgradeable/access/OwnableUpgradeable.sol\":2401:2474  require(newOwner != address(0), \"Ownable: new owner is the zero address\") */\n      tag_379\n      jumpi\n      mload(0x40)\n      0x08c379a000000000000000000000000000000000000000000000000000000000\n      dup2\n      mstore\n      0x04\n      add\n      tag_380\n      swap1\n      tag_381\n      jump\t// in\n    tag_380:\n      mload(0x40)\n      dup1\n      swap2\n      sub\n      swap1\n      revert\n    tag_379:\n        /* \"@openzeppelin/contracts-upgradeable/access/OwnableUpgradeable.sol\":2484:2512  _transferOwnership(newOwner) */\n      tag_382\n        /* \"@openzeppelin/contracts-upgradeable/access/OwnableUpgradeable.sol\":2503:2511  newOwner */\n      dup2\n        /* \"@openzeppelin/contracts-upgradeable/access/OwnableUpgradeable.sol\":2484:2502  _transferOwnership */\n      tag_275\n        /* \"@openzeppelin/contracts-upgradeable/access/OwnableUpgradeable.sol\":2484:2512  _transferOwnership(newOwner) */\n      jump\t// in\n    tag_382:\n        /* \"@openzeppelin/contracts-upgradeable/access/OwnableUpgradeable.sol\":2321:2519  function transferOwnership(address newOwner) public virtual onlyOwner {... */\n      pop\n      jump\t// out\n        /* \"@openzeppelin/contracts-upgradeable/utils/ContextUpgradeable.sol\":850:946  function _msgSender() internal view virtual returns (address) {... */\n    tag_211:\n        /* \"@openzeppelin/contracts-upgradeable/utils/ContextUpgradeable.sol\":903:910  address */\n      0x00\n        /* \"@openzeppelin/contracts-upgradeable/utils/ContextUpgradeable.sol\":929:939  msg.sender */\n      caller\n        /* \"@openzeppelin/contracts-upgradeable/utils/ContextUpgradeable.sol\":922:939  return msg.sender */\n      swap1\n      pop\n        /* \"@openzeppelin/contracts-upgradeable/utils/ContextUpgradeable.sol\":850:946  function _msgSender() internal view virtual returns (address) {... */\n      swap1\n      jump\t// out\n        /* \"contracts/space.sol\":9418:9782  function _approve(address _owner, address _spender, uint256 _amount) internal virtual {... */\n    tag_212:\n        /* \"contracts/space.sol\":9540:9541  0 */\n      0x00\n        /* \"contracts/space.sol\":9522:9542  _owner != address(0) */\n      0xffffffffffffffffffffffffffffffffffffffff\n      and\n        /* \"contracts/space.sol\":9522:9528  _owner */\n      dup4\n        /* \"contracts/space.sol\":9522:9542  _owner != address(0) */\n      0xffffffffffffffffffffffffffffffffffffffff\n      and\n      eq\n      iszero\n        /* \"contracts/space.sol\":9514:9590  require(_owner != address(0), \"XEvmos ERC20: approve from the zero address\") */\n      tag_385\n      jumpi\n      mload(0x40)\n      0x08c379a000000000000000000000000000000000000000000000000000000000\n      dup2\n      mstore\n      0x04\n      add\n      tag_386\n      swap1\n      tag_387\n      jump\t// in\n    tag_386:\n      mload(0x40)\n      dup1\n      swap2\n      sub\n      swap1\n      revert\n    tag_385:\n        /* \"contracts/space.sol\":9628:9629  0 */\n      0x00\n        /* \"contracts/space.sol\":9608:9630  _spender != address(0) */\n      0xffffffffffffffffffffffffffffffffffffffff\n      and\n        /* \"contracts/space.sol\":9608:9616  _spender */\n      dup3\n        /* \"contracts/space.sol\":9608:9630  _spender != address(0) */\n      0xffffffffffffffffffffffffffffffffffffffff\n      and\n      eq\n      iszero\n        /* \"contracts/space.sol\":9600:9676  require(_spender != address(0), \"XEvmos ERC20: approve to the zero address\") */\n      tag_388\n      jumpi\n      mload(0x40)\n      0x08c379a000000000000000000000000000000000000000000000000000000000\n      dup2\n      mstore\n      0x04\n      add\n      tag_389\n      swap1\n      tag_390\n      jump\t// in\n    tag_389:\n      mload(0x40)\n      dup1\n      swap2\n      sub\n      swap1\n      revert\n    tag_388:\n        /* \"contracts/space.sol\":9718:9725  _amount */\n      dup1\n        /* \"contracts/space.sol\":9686:9697  _allowances */\n      0x72\n        /* \"contracts/space.sol\":9686:9705  _allowances[_owner] */\n      0x00\n        /* \"contracts/space.sol\":9698:9704  _owner */\n      dup6\n        /* \"contracts/space.sol\":9686:9705  _allowances[_owner] */\n      0xffffffffffffffffffffffffffffffffffffffff\n      and\n      0xffffffffffffffffffffffffffffffffffffffff\n      and\n      dup2\n      mstore\n      0x20\n      add\n      swap1\n      dup2\n      mstore\n      0x20\n      add\n      0x00\n      keccak256\n        /* \"contracts/space.sol\":9686:9715  _allowances[_owner][_spender] */\n      0x00\n        /* \"contracts/space.sol\":9706:9714  _spender */\n      dup5\n        /* \"contracts/space.sol\":9686:9715  _allowances[_owner][_spender] */\n      0xffffffffffffffffffffffffffffffffffffffff\n      and\n      0xffffffffffffffffffffffffffffffffffffffff\n      and\n      dup2\n      mstore\n      0x20\n      add\n      swap1\n      dup2\n      mstore\n      0x20\n      add\n      0x00\n      keccak256\n        /* \"contracts/space.sol\":9686:9725  _allowances[_owner][_spender] = _amount */\n      dup2\n      swap1\n      sstore\n      pop\n        /* \"contracts/space.sol\":9757:9765  _spender */\n      dup2\n        /* \"contracts/space.sol\":9740:9775  Approval(_owner, _spender, _amount) */\n      0xffffffffffffffffffffffffffffffffffffffff\n      and\n        /* \"contracts/space.sol\":9749:9755  _owner */\n      dup4\n        /* \"contracts/space.sol\":9740:9775  Approval(_owner, _spender, _amount) */\n      0xffffffffffffffffffffffffffffffffffffffff\n      and\n      0x8c5be1e5ebec7d5bd14f71427d1e84f3dd0314c0f7b2291e5b200ac8c7c3b925\n        /* \"contracts/space.sol\":9767:9774  _amount */\n      dup4\n        /* \"contracts/space.sol\":9740:9775  Approval(_owner, _spender, _amount) */\n      mload(0x40)\n      tag_391\n      swap2\n      swap1\n      tag_67\n      jump\t// in\n    tag_391:\n      mload(0x40)\n      dup1\n      swap2\n      sub\n      swap1\n      log3\n        /* \"contracts/space.sol\":9418:9782  function _approve(address _owner, address _spender, uint256 _amount) internal virtual {... */\n      pop\n      pop\n      pop\n      jump\t// out\n        /* \"@openzeppelin/contracts-upgradeable/utils/AddressUpgradeable.sol\":1186:1506  function isContract(address account) internal view returns (bool) {... */\n    tag_217:\n        /* \"@openzeppelin/contracts-upgradeable/utils/AddressUpgradeable.sol\":1246:1250  bool */\n      0x00\n        /* \"@openzeppelin/contracts-upgradeable/utils/AddressUpgradeable.sol\":1498:1499  0 */\n      dup1\n        /* \"@openzeppelin/contracts-upgradeable/utils/AddressUpgradeable.sol\":1476:1483  account */\n      dup3\n        /* \"@openzeppelin/contracts-upgradeable/utils/AddressUpgradeable.sol\":1476:1495  account.code.length */\n      0xffffffffffffffffffffffffffffffffffffffff\n      and\n      extcodesize\n        /* \"@openzeppelin/contracts-upgradeable/utils/AddressUpgradeable.sol\":1476:1499  account.code.length > 0 */\n      gt\n        /* \"@openzeppelin/contracts-upgradeable/utils/AddressUpgradeable.sol\":1469:1499  return account.code.length > 0 */\n      swap1\n      pop\n        /* \"@openzeppelin/contracts-upgradeable/utils/AddressUpgradeable.sol\":1186:1506  function isContract(address account) internal view returns (bool) {... */\n      swap2\n      swap1\n      pop\n      jump\t// out\n        /* \"contracts/space.sol\":3213:3603  function __ERC20_init(string memory _name, string memory _symbol,uint256 _minRedeemRatio,uint256 _maxRedeemRatio,uint256 _minRedeemDuration,uint256 _maxRedeemDuration) internal initializer {... */\n    tag_225:\n        /* \"@openzeppelin/contracts-upgradeable/proxy/utils/Initializable.sol\":3268:3287  bool isTopLevelCall */\n      0x00\n        /* \"@openzeppelin/contracts-upgradeable/proxy/utils/Initializable.sol\":3291:3304  _initializing */\n      dup1\n      0x01\n      swap1\n      sload\n      swap1\n      0x0100\n      exp\n      swap1\n      div\n      0xff\n      and\n        /* \"@openzeppelin/contracts-upgradeable/proxy/utils/Initializable.sol\":3290:3304  !_initializing */\n      iszero\n        /* \"@openzeppelin/contracts-upgradeable/proxy/utils/Initializable.sol\":3268:3304  bool isTopLevelCall = !_initializing */\n      swap1\n      pop\n        /* \"@openzeppelin/contracts-upgradeable/proxy/utils/Initializable.sol\":3336:3350  isTopLevelCall */\n      dup1\n        /* \"@openzeppelin/contracts-upgradeable/proxy/utils/Initializable.sol\":3336:3370  isTopLevelCall && _initialized < 1 */\n      dup1\n      iszero\n      tag_394\n      jumpi\n      pop\n        /* \"@openzeppelin/contracts-upgradeable/proxy/utils/Initializable.sol\":3369:3370  1 */\n      0x01\n        /* \"@openzeppelin/contracts-upgradeable/proxy/utils/Initializable.sol\":3354:3366  _initialized */\n      0x00\n      dup1\n      sload\n      swap1\n      0x0100\n      exp\n      swap1\n      div\n      0xff\n      and\n        /* \"@openzeppelin/contracts-upgradeable/proxy/utils/Initializable.sol\":3354:3370  _initialized < 1 */\n      0xff\n      and\n      lt\n        /* \"@openzeppelin/contracts-upgradeable/proxy/utils/Initializable.sol\":3336:3370  isTopLevelCall && _initialized < 1 */\n    tag_394:\n        /* \"@openzeppelin/contracts-upgradeable/proxy/utils/Initializable.sol\":3335:3443  (isTopLevelCall && _initialized < 1) || (!AddressUpgradeable.isContract(address(this)) && _initialized == 1) */\n      dup1\n      tag_395\n      jumpi\n      pop\n        /* \"@openzeppelin/contracts-upgradeable/proxy/utils/Initializable.sol\":3377:3421  AddressUpgradeable.isContract(address(this)) */\n      tag_396\n        /* \"@openzeppelin/contracts-upgradeable/proxy/utils/Initializable.sol\":3415:3419  this */\n      address\n        /* \"@openzeppelin/contracts-upgradeable/proxy/utils/Initializable.sol\":3377:3406  AddressUpgradeable.isContract */\n      tag_217\n        /* \"@openzeppelin/contracts-upgradeable/proxy/utils/Initializable.sol\":3377:3421  AddressUpgradeable.isContract(address(this)) */\n      jump\t// in\n    tag_396:\n        /* \"@openzeppelin/contracts-upgradeable/proxy/utils/Initializable.sol\":3376:3421  !AddressUpgradeable.isContract(address(this)) */\n      iszero\n        /* \"@openzeppelin/contracts-upgradeable/proxy/utils/Initializable.sol\":3376:3442  !AddressUpgradeable.isContract(address(this)) && _initialized == 1 */\n      dup1\n      iszero\n      tag_397\n      jumpi\n      pop\n        /* \"@openzeppelin/contracts-upgradeable/proxy/utils/Initializable.sol\":3441:3442  1 */\n      0x01\n        /* \"@openzeppelin/contracts-upgradeable/proxy/utils/Initializable.sol\":3425:3437  _initialized */\n      0x00\n      dup1\n      sload\n      swap1\n      0x0100\n      exp\n      swap1\n      div\n      0xff\n      and\n        /* \"@openzeppelin/contracts-upgradeable/proxy/utils/Initializable.sol\":3425:3442  _initialized == 1 */\n      0xff\n      and\n      eq\n        /* \"@openzeppelin/contracts-upgradeable/proxy/utils/Initializable.sol\":3376:3442  !AddressUpgradeable.isContract(address(this)) && _initialized == 1 */\n    tag_397:\n        /* \"@openzeppelin/contracts-upgradeable/proxy/utils/Initializable.sol\":3335:3443  (isTopLevelCall && _initialized < 1) || (!AddressUpgradeable.isContract(address(this)) && _initialized == 1) */\n    tag_395:\n        /* \"@openzeppelin/contracts-upgradeable/proxy/utils/Initializable.sol\":3314:3515  require(... */\n      tag_398\n      jumpi\n      mload(0x40)\n      0x08c379a000000000000000000000000000000000000000000000000000000000\n      dup2\n      mstore\n      0x04\n      add\n      tag_399\n      swap1\n      tag_221\n      jump\t// in\n    tag_399:\n      mload(0x40)\n      dup1\n      swap2\n      sub\n      swap1\n      revert\n    tag_398:\n        /* \"@openzeppelin/contracts-upgradeable/proxy/utils/Initializable.sol\":3540:3541  1 */\n      0x01\n        /* \"@openzeppelin/contracts-upgradeable/proxy/utils/Initializable.sol\":3525:3537  _initialized */\n      0x00\n      dup1\n        /* \"@openzeppelin/contracts-upgradeable/proxy/utils/Initializable.sol\":3525:3541  _initialized = 1 */\n      0x0100\n      exp\n      dup2\n      sload\n      dup2\n      0xff\n      mul\n      not\n      and\n      swap1\n      dup4\n      0xff\n      and\n      mul\n      or\n      swap1\n      sstore\n      pop\n        /* \"@openzeppelin/contracts-upgradeable/proxy/utils/Initializable.sol\":3555:3569  isTopLevelCall */\n      dup1\n        /* \"@openzeppelin/contracts-upgradeable/proxy/utils/Initializable.sol\":3551:3616  if (isTopLevelCall) {... */\n      iszero\n      tag_400\n      jumpi\n        /* \"@openzeppelin/contracts-upgradeable/proxy/utils/Initializable.sol\":3601:3605  true */\n      0x01\n        /* \"@openzeppelin/contracts-upgradeable/proxy/utils/Initializable.sol\":3585:3598  _initializing */\n      0x00\n      0x01\n        /* \"@openzeppelin/contracts-upgradeable/proxy/utils/Initializable.sol\":3585:3605  _initializing = true */\n      0x0100\n      exp\n      dup2\n      sload\n      dup2\n      0xff\n      mul\n      not\n      and\n      swap1\n      dup4\n      iszero\n      iszero\n      mul\n      or\n      swap1\n      sstore\n      pop\n        /* \"@openzeppelin/contracts-upgradeable/proxy/utils/Initializable.sol\":3551:3616  if (isTopLevelCall) {... */\n    tag_400:\n        /* \"contracts/space.sol\":3412:3438  __Context_init_unchained() */\n      tag_402\n        /* \"contracts/space.sol\":3412:3436  __Context_init_unchained */\n      tag_403\n        /* \"contracts/space.sol\":3412:3438  __Context_init_unchained() */\n      jump\t// in\n    tag_402:\n        /* \"contracts/space.sol\":3448:3474  __Ownable_init_unchained() */\n      tag_404\n        /* \"contracts/space.sol\":3448:3472  __Ownable_init_unchained */\n      tag_405\n        /* \"contracts/space.sol\":3448:3474  __Ownable_init_unchained() */\n      jump\t// in\n    tag_404:\n        /* \"contracts/space.sol\":3484:3596  __ERC20_init_unchained(_name, _symbol, _minRedeemRatio, _maxRedeemRatio, _minRedeemDuration, _maxRedeemDuration) */\n      tag_406\n        /* \"contracts/space.sol\":3507:3512  _name */\n      dup8\n        /* \"contracts/space.sol\":3514:3521  _symbol */\n      dup8\n        /* \"contracts/space.sol\":3523:3538  _minRedeemRatio */\n      dup8\n        /* \"contracts/space.sol\":3540:3555  _maxRedeemRatio */\n      dup8\n        /* \"contracts/space.sol\":3557:3575  _minRedeemDuration */\n      dup8\n        /* \"contracts/space.sol\":3577:3595  _maxRedeemDuration */\n      dup8\n        /* \"contracts/space.sol\":3484:3506  __ERC20_init_unchained */\n      tag_407\n        /* \"contracts/space.sol\":3484:3596  __ERC20_init_unchained(_name, _symbol, _minRedeemRatio, _maxRedeemRatio, _minRedeemDuration, _maxRedeemDuration) */\n      jump\t// in\n    tag_406:\n        /* \"@openzeppelin/contracts-upgradeable/proxy/utils/Initializable.sol\":3640:3654  isTopLevelCall */\n      dup1\n        /* \"@openzeppelin/contracts-upgradeable/proxy/utils/Initializable.sol\":3636:3735  if (isTopLevelCall) {... */\n      iszero\n      tag_408\n      jumpi\n        /* \"@openzeppelin/contracts-upgradeable/proxy/utils/Initializable.sol\":3686:3691  false */\n      0x00\n        /* \"@openzeppelin/contracts-upgradeable/proxy/utils/Initializable.sol\":3670:3683  _initializing */\n      dup1\n      0x01\n        /* \"@openzeppelin/contracts-upgradeable/proxy/utils/Initializable.sol\":3670:3691  _initializing = false */\n      0x0100\n      exp\n      dup2\n      sload\n      dup2\n      0xff\n      mul\n      not\n      and\n      swap1\n      dup4\n      iszero\n      iszero\n      mul\n      or\n      swap1\n      sstore\n      pop\n        /* \"@openzeppelin/contracts-upgradeable/proxy/utils/Initializable.sol\":3710:3724  Initialized(1) */\n      0x7f26b83ff96e1f2b6a682f133852f6798a09c465da95921460cefb3847402498\n        /* \"@openzeppelin/contracts-upgradeable/proxy/utils/Initializable.sol\":3722:3723  1 */\n      0x01\n        /* \"@openzeppelin/contracts-upgradeable/proxy/utils/Initializable.sol\":3710:3724  Initialized(1) */\n      mload(0x40)\n      tag_409\n      swap2\n      swap1\n      tag_228\n      jump\t// in\n    tag_409:\n      mload(0x40)\n      dup1\n      swap2\n      sub\n      swap1\n      log1\n        /* \"@openzeppelin/contracts-upgradeable/proxy/utils/Initializable.sol\":3636:3735  if (isTopLevelCall) {... */\n    tag_408:\n        /* \"@openzeppelin/contracts-upgradeable/proxy/utils/Initializable.sol\":3258:3741  {... */\n      pop\n        /* \"contracts/space.sol\":3213:3603  function __ERC20_init(string memory _name, string memory _symbol,uint256 _minRedeemRatio,uint256 _maxRedeemRatio,uint256 _minRedeemDuration,uint256 _maxRedeemDuration) internal initializer {... */\n      pop\n      pop\n      pop\n      pop\n      pop\n      pop\n      jump\t// out\n        /* \"contracts/space.sol\":7383:8076  function _transfer(address _sender, address _recipient, uint256 _amount) internal virtual {... */\n    tag_233:\n        /* \"contracts/space.sol\":7510:7511  0 */\n      0x00\n        /* \"contracts/space.sol\":7491:7512  _sender != address(0) */\n      0xffffffffffffffffffffffffffffffffffffffff\n      and\n        /* \"contracts/space.sol\":7491:7498  _sender */\n      dup4\n        /* \"contracts/space.sol\":7491:7512  _sender != address(0) */\n      0xffffffffffffffffffffffffffffffffffffffff\n      and\n      eq\n      iszero\n        /* \"contracts/space.sol\":7483:7561  require(_sender != address(0), \"XEvmos ERC20: transfer from the zero address\") */\n      tag_411\n      jumpi\n      mload(0x40)\n      0x08c379a000000000000000000000000000000000000000000000000000000000\n      dup2\n      mstore\n      0x04\n      add\n      tag_412\n      swap1\n      tag_413\n      jump\t// in\n    tag_412:\n      mload(0x40)\n      dup1\n      swap2\n      sub\n      swap1\n      revert\n    tag_411:\n        /* \"contracts/space.sol\":7601:7602  0 */\n      0x00\n        /* \"contracts/space.sol\":7579:7603  _recipient != address(0) */\n      0xffffffffffffffffffffffffffffffffffffffff\n      and\n        /* \"contracts/space.sol\":7579:7589  _recipient */\n      dup3\n        /* \"contracts/space.sol\":7579:7603  _recipient != address(0) */\n      0xffffffffffffffffffffffffffffffffffffffff\n      and\n      eq\n      iszero\n        /* \"contracts/space.sol\":7571:7650  require(_recipient != address(0), \"XEvmos ERC20: transfer to the zero address\") */\n      tag_414\n      jumpi\n      mload(0x40)\n      0x08c379a000000000000000000000000000000000000000000000000000000000\n      dup2\n      mstore\n      0x04\n      add\n      tag_415\n      swap1\n      tag_416\n      jump\t// in\n    tag_415:\n      mload(0x40)\n      dup1\n      swap2\n      sub\n      swap1\n      revert\n    tag_414:\n        /* \"contracts/space.sol\":7660:7710  _beforeTokenTransfer(_sender, _recipient, _amount) */\n      tag_417\n        /* \"contracts/space.sol\":7681:7688  _sender */\n      dup4\n        /* \"contracts/space.sol\":7690:7700  _recipient */\n      dup4\n        /* \"contracts/space.sol\":7702:7709  _amount */\n      dup4\n        /* \"contracts/space.sol\":7660:7680  _beforeTokenTransfer */\n      tag_418\n        /* \"contracts/space.sol\":7660:7710  _beforeTokenTransfer(_sender, _recipient, _amount) */\n      jump\t// in\n    tag_417:\n        /* \"contracts/space.sol\":7720:7741  uint256 senderBalance */\n      0x00\n        /* \"contracts/space.sol\":7744:7753  _balances */\n      0x70\n        /* \"contracts/space.sol\":7744:7762  _balances[_sender] */\n      0x00\n        /* \"contracts/space.sol\":7754:7761  _sender */\n      dup6\n        /* \"contracts/space.sol\":7744:7762  _balances[_sender] */\n      0xffffffffffffffffffffffffffffffffffffffff\n      and\n      0xffffffffffffffffffffffffffffffffffffffff\n      and\n      dup2\n      mstore\n      0x20\n      add\n      swap1\n      dup2\n      mstore\n      0x20\n      add\n      0x00\n      keccak256\n      sload\n        /* \"contracts/space.sol\":7720:7762  uint256 senderBalance = _balances[_sender] */\n      swap1\n      pop\n        /* \"contracts/space.sol\":7797:7804  _amount */\n      dup2\n        /* \"contracts/space.sol\":7780:7793  senderBalance */\n      dup2\n        /* \"contracts/space.sol\":7780:7804  senderBalance >= _amount */\n      lt\n      iszero\n        /* \"contracts/space.sol\":7772:7854  require(senderBalance >= _amount, \"XEvmos ERC20: transfer amount exceeds balance\") */\n      tag_419\n      jumpi\n      mload(0x40)\n      0x08c379a000000000000000000000000000000000000000000000000000000000\n      dup2\n      mstore\n      0x04\n      add\n      tag_420\n      swap1\n      tag_421\n      jump\t// in\n    tag_420:\n      mload(0x40)\n      dup1\n      swap2\n      sub\n      swap1\n      revert\n    tag_419:\n        /* \"contracts/space.sol\":7902:7909  _amount */\n      dup2\n        /* \"contracts/space.sol\":7880:7889  _balances */\n      0x70\n        /* \"contracts/space.sol\":7880:7898  _balances[_sender] */\n      0x00\n        /* \"contracts/space.sol\":7890:7897  _sender */\n      dup7\n        /* \"contracts/space.sol\":7880:7898  _balances[_sender] */\n      0xffffffffffffffffffffffffffffffffffffffff\n      and\n      0xffffffffffffffffffffffffffffffffffffffff\n      and\n      dup2\n      mstore\n      0x20\n      add\n      swap1\n      dup2\n      mstore\n      0x20\n      add\n      0x00\n      keccak256\n      0x00\n        /* \"contracts/space.sol\":7880:7909  _balances[_sender] -= _amount */\n      dup3\n      dup3\n      sload\n      sub\n      swap3\n      pop\n      pop\n      dup2\n      swap1\n      sstore\n      pop\n        /* \"contracts/space.sol\":7950:7957  _amount */\n      dup2\n        /* \"contracts/space.sol\":7925:7934  _balances */\n      0x70\n        /* \"contracts/space.sol\":7925:7946  _balances[_recipient] */\n      0x00\n        /* \"contracts/space.sol\":7935:7945  _recipient */\n      dup6\n        /* \"contracts/space.sol\":7925:7946  _balances[_recipient] */\n      0xffffffffffffffffffffffffffffffffffffffff\n      and\n      0xffffffffffffffffffffffffffffffffffffffff\n      and\n      dup2\n      mstore\n      0x20\n      add\n      swap1\n      dup2\n      mstore\n      0x20\n      add\n      0x00\n      keccak256\n      0x00\n        /* \"contracts/space.sol\":7925:7957  _balances[_recipient] += _amount */\n      dup3\n      dup3\n      sload\n      tag_422\n      swap2\n      swap1\n      tag_246\n      jump\t// in\n    tag_422:\n      swap3\n      pop\n      pop\n      dup2\n      swap1\n      sstore\n      pop\n        /* \"contracts/space.sol\":7990:8000  _recipient */\n      dup3\n        /* \"contracts/space.sol\":7972:8010  Transfer(_sender, _recipient, _amount) */\n      0xffffffffffffffffffffffffffffffffffffffff\n      and\n        /* \"contracts/space.sol\":7981:7988  _sender */\n      dup5\n        /* \"contracts/space.sol\":7972:8010  Transfer(_sender, _recipient, _amount) */\n      0xffffffffffffffffffffffffffffffffffffffff\n      and\n      0xddf252ad1be2c89b69c2b068fc378daa952ba7f163c4a11628f55a4df523b3ef\n        /* \"contracts/space.sol\":8002:8009  _amount */\n      dup5\n        /* \"contracts/space.sol\":7972:8010  Transfer(_sender, _recipient, _amount) */\n      mload(0x40)\n      tag_423\n      swap2\n      swap1\n      tag_67\n      jump\t// in\n    tag_423:\n      mload(0x40)\n      dup1\n      swap2\n      sub\n      swap1\n      log3\n        /* \"contracts/space.sol\":8020:8069  _afterTokenTransfer(_sender, _recipient, _amount) */\n      tag_424\n        /* \"contracts/space.sol\":8040:8047  _sender */\n      dup5\n        /* \"contracts/space.sol\":8049:8059  _recipient */\n      dup5\n        /* \"contracts/space.sol\":8061:8068  _amount */\n      dup5\n        /* \"contracts/space.sol\":8020:8039  _afterTokenTransfer */\n      tag_425\n        /* \"contracts/space.sol\":8020:8069  _afterTokenTransfer(_sender, _recipient, _amount) */\n      jump\t// in\n    tag_424:\n        /* \"contracts/space.sol\":7473:8076  {... */\n      pop\n        /* \"contracts/space.sol\":7383:8076  function _transfer(address _sender, address _recipient, uint256 _amount) internal virtual {... */\n      pop\n      pop\n      pop\n      jump\t// out\n        /* \"@openzeppelin/contracts/security/ReentrancyGuard.sol\":2336:2623  function _nonReentrantBefore() private {... */\n    tag_251:\n        /* \"@openzeppelin/contracts/security/ReentrancyGuard.sol\":1759:1760  2 */\n      0x02\n        /* \"@openzeppelin/contracts/security/ReentrancyGuard.sol\":2468:2475  _status */\n      sload(0x65)\n        /* \"@openzeppelin/contracts/security/ReentrancyGuard.sol\":2468:2487  _status != _ENTERED */\n      eq\n      iszero\n        /* \"@openzeppelin/contracts/security/ReentrancyGuard.sol\":2460:2523  require(_status != _ENTERED, \"ReentrancyGuard: reentrant call\") */\n      tag_427\n      jumpi\n      mload(0x40)\n      0x08c379a000000000000000000000000000000000000000000000000000000000\n      dup2\n      mstore\n      0x04\n      add\n      tag_428\n      swap1\n      tag_429\n      jump\t// in\n    tag_428:\n      mload(0x40)\n      dup1\n      swap2\n      sub\n      swap1\n      revert\n    tag_427:\n        /* \"@openzeppelin/contracts/security/ReentrancyGuard.sol\":1759:1760  2 */\n      0x02\n        /* \"@openzeppelin/contracts/security/ReentrancyGuard.sol\":2598:2605  _status */\n      0x65\n        /* \"@openzeppelin/contracts/security/ReentrancyGuard.sol\":2598:2616  _status = _ENTERED */\n      dup2\n      swap1\n      sstore\n      pop\n        /* \"@openzeppelin/contracts/security/ReentrancyGuard.sol\":2336:2623  function _nonReentrantBefore() private {... */\n      jump\t// out\n        /* \"contracts/space.sol\":15213:15415  function _deleteRedeemEntry(uint256 _index) internal {... */\n    tag_266:\n        /* \"contracts/space.sol\":15310:15321  userRedeems */\n      0x6f\n        /* \"contracts/space.sol\":15310:15333  userRedeems[msg.sender] */\n      0x00\n        /* \"contracts/space.sol\":15322:15332  msg.sender */\n      caller\n        /* \"contracts/space.sol\":15310:15333  userRedeems[msg.sender] */\n      0xffffffffffffffffffffffffffffffffffffffff\n      and\n      0xffffffffffffffffffffffffffffffffffffffff\n      and\n      dup2\n      mstore\n      0x20\n      add\n      swap1\n      dup2\n      mstore\n      0x20\n      add\n      0x00\n      keccak256\n        /* \"contracts/space.sol\":15367:15368  1 */\n      0x01\n        /* \"contracts/space.sol\":15334:15345  userRedeems */\n      0x6f\n        /* \"contracts/space.sol\":15334:15357  userRedeems[msg.sender] */\n      0x00\n        /* \"contracts/space.sol\":15346:15356  msg.sender */\n      caller\n        /* \"contracts/space.sol\":15334:15357  userRedeems[msg.sender] */\n      0xffffffffffffffffffffffffffffffffffffffff\n      and\n      0xffffffffffffffffffffffffffffffffffffffff\n      and\n      dup2\n      mstore\n      0x20\n      add\n      swap1\n      dup2\n      mstore\n      0x20\n      add\n      0x00\n      keccak256\n        /* \"contracts/space.sol\":15334:15364  userRedeems[msg.sender].length */\n      dup1\n      sload\n      swap1\n      pop\n        /* \"contracts/space.sol\":15334:15368  userRedeems[msg.sender].length - 1 */\n      tag_431\n      swap2\n      swap1\n      tag_262\n      jump\t// in\n    tag_431:\n        /* \"contracts/space.sol\":15310:15369  userRedeems[msg.sender][userRedeems[msg.sender].length - 1] */\n      dup2\n      sload\n      dup2\n      lt\n      tag_432\n      jumpi\n      tag_433\n      tag_259\n      jump\t// in\n    tag_433:\n    tag_432:\n      swap1\n      0x00\n      mstore\n      keccak256(0x00, 0x20)\n      swap1\n      0x04\n      mul\n      add\n        /* \"contracts/space.sol\":15276:15287  userRedeems */\n      0x6f\n        /* \"contracts/space.sol\":15276:15299  userRedeems[msg.sender] */\n      0x00\n        /* \"contracts/space.sol\":15288:15298  msg.sender */\n      caller\n        /* \"contracts/space.sol\":15276:15299  userRedeems[msg.sender] */\n      0xffffffffffffffffffffffffffffffffffffffff\n      and\n      0xffffffffffffffffffffffffffffffffffffffff\n      and\n      dup2\n      mstore\n      0x20\n      add\n      swap1\n      dup2\n      mstore\n      0x20\n      add\n      0x00\n      keccak256\n        /* \"contracts/space.sol\":15300:15306  _index */\n      dup3\n        /* \"contracts/space.sol\":15276:15307  userRedeems[msg.sender][_index] */\n      dup2\n      sload\n      dup2\n      lt\n      tag_435\n      jumpi\n      tag_436\n      tag_259\n      jump\t// in\n    tag_436:\n    tag_435:\n      swap1\n      0x00\n      mstore\n      keccak256(0x00, 0x20)\n      swap1\n      0x04\n      mul\n      add\n        /* \"contracts/space.sol\":15276:15369  userRedeems[msg.sender][_index] = userRedeems[msg.sender][userRedeems[msg.sender].length - 1] */\n      0x00\n      dup3\n      add\n      sload\n      dup2\n      0x00\n      add\n      sstore\n      0x01\n      dup3\n      add\n      sload\n      dup2\n      0x01\n      add\n      sstore\n      0x02\n      dup3\n      add\n      sload\n      dup2\n      0x02\n      add\n      sstore\n      0x03\n      dup3\n      add\n      sload\n      dup2\n      0x03\n      add\n      sstore\n      swap1\n      pop\n      pop\n        /* \"contracts/space.sol\":15379:15390  userRedeems */\n      0x6f\n        /* \"contracts/space.sol\":15379:15402  userRedeems[msg.sender] */\n      0x00\n        /* \"contracts/space.sol\":15391:15401  msg.sender */\n      caller\n        /* \"contracts/space.sol\":15379:15402  userRedeems[msg.sender] */\n      0xffffffffffffffffffffffffffffffffffffffff\n      and\n      0xffffffffffffffffffffffffffffffffffffffff\n      and\n      dup2\n      mstore\n      0x20\n      add\n      swap1\n      dup2\n      mstore\n      0x20\n      add\n      0x00\n      keccak256\n        /* \"contracts/space.sol\":15379:15408  userRedeems[msg.sender].pop() */\n      dup1\n      sload\n      dup1\n      tag_438\n      jumpi\n      tag_439\n      tag_440\n      jump\t// in\n    tag_439:\n    tag_438:\n      0x01\n      swap1\n      sub\n      dup2\n      dup2\n      swap1\n      0x00\n      mstore\n      keccak256(0x00, 0x20)\n      swap1\n      0x04\n      mul\n      add\n      0x00\n      dup1\n      dup3\n      add\n      0x00\n      swap1\n      sstore\n      0x01\n      dup3\n      add\n      0x00\n      swap1\n      sstore\n      0x02\n      dup3\n      add\n      0x00\n      swap1\n      sstore\n      0x03\n      dup3\n      add\n      0x00\n      swap1\n      sstore\n      pop\n      pop\n      swap1\n      sstore\n        /* \"contracts/space.sol\":15213:15415  function _deleteRedeemEntry(uint256 _index) internal {... */\n      pop\n      jump\t// out\n        /* \"@openzeppelin/contracts/security/ReentrancyGuard.sol\":2629:2838  function _nonReentrantAfter() private {... */\n    tag_268:\n        /* \"@openzeppelin/contracts/security/ReentrancyGuard.sol\":1716:1717  1 */\n      0x01\n        /* \"@openzeppelin/contracts/security/ReentrancyGuard.sol\":2809:2816  _status */\n      0x65\n        /* \"@openzeppelin/contracts/security/ReentrancyGuard.sol\":2809:2831  _status = _NOT_ENTERED */\n      dup2\n      swap1\n      sstore\n      pop\n        /* \"@openzeppelin/contracts/security/ReentrancyGuard.sol\":2629:2838  function _nonReentrantAfter() private {... */\n      jump\t// out\n        /* \"@openzeppelin/contracts-upgradeable/access/OwnableUpgradeable.sol\":1599:1729  function _checkOwner() internal view virtual {... */\n    tag_272:\n        /* \"@openzeppelin/contracts-upgradeable/access/OwnableUpgradeable.sol\":1673:1685  _msgSender() */\n      tag_444\n        /* \"@openzeppelin/contracts-upgradeable/access/OwnableUpgradeable.sol\":1673:1683  _msgSender */\n      tag_211\n        /* \"@openzeppelin/contracts-upgradeable/access/OwnableUpgradeable.sol\":1673:1685  _msgSender() */\n      jump\t// in\n    tag_444:\n        /* \"@openzeppelin/contracts-upgradeable/access/OwnableUpgradeable.sol\":1662:1685  owner() == _msgSender() */\n      0xffffffffffffffffffffffffffffffffffffffff\n      and\n        /* \"@openzeppelin/contracts-upgradeable/access/OwnableUpgradeable.sol\":1662:1669  owner() */\n      tag_445\n        /* \"@openzeppelin/contracts-upgradeable/access/OwnableUpgradeable.sol\":1662:1667  owner */\n      tag_130\n        /* \"@openzeppelin/contracts-upgradeable/access/OwnableUpgradeable.sol\":1662:1669  owner() */\n      jump\t// in\n    tag_445:\n        /* \"@openzeppelin/contracts-upgradeable/access/OwnableUpgradeable.sol\":1662:1685  owner() == _msgSender() */\n      0xffffffffffffffffffffffffffffffffffffffff\n      and\n      eq\n        /* \"@openzeppelin/contracts-upgradeable/access/OwnableUpgradeable.sol\":1654:1722  require(owner() == _msgSender(), \"Ownable: caller is not the owner\") */\n      tag_446\n      jumpi\n      mload(0x40)\n      0x08c379a000000000000000000000000000000000000000000000000000000000\n      dup2\n      mstore\n      0x04\n      add\n      tag_447\n      swap1\n      tag_448\n      jump\t// in\n    tag_447:\n      mload(0x40)\n      dup1\n      swap2\n      sub\n      swap1\n      revert\n    tag_446:\n        /* \"@openzeppelin/contracts-upgradeable/access/OwnableUpgradeable.sol\":1599:1729  function _checkOwner() internal view virtual {... */\n      jump\t// out\n        /* \"@openzeppelin/contracts-upgradeable/access/OwnableUpgradeable.sol\":2673:2860  function _transferOwnership(address newOwner) internal virtual {... */\n    tag_275:\n        /* \"@openzeppelin/contracts-upgradeable/access/OwnableUpgradeable.sol\":2746:2762  address oldOwner */\n      0x00\n        /* \"@openzeppelin/contracts-upgradeable/access/OwnableUpgradeable.sol\":2765:2771  _owner */\n      0x33\n      0x00\n      swap1\n      sload\n      swap1\n      0x0100\n      exp\n      swap1\n      div\n      0xffffffffffffffffffffffffffffffffffffffff\n      and\n        /* \"@openzeppelin/contracts-upgradeable/access/OwnableUpgradeable.sol\":2746:2771  address oldOwner = _owner */\n      swap1\n      pop\n        /* \"@openzeppelin/contracts-upgradeable/access/OwnableUpgradeable.sol\":2790:2798  newOwner */\n      dup2\n        /* \"@openzeppelin/contracts-upgradeable/access/OwnableUpgradeable.sol\":2781:2787  _owner */\n      0x33\n      0x00\n        /* \"@openzeppelin/contracts-upgradeable/access/OwnableUpgradeable.sol\":2781:2798  _owner = newOwner */\n      0x0100\n      exp\n      dup2\n      sload\n      dup2\n      0xffffffffffffffffffffffffffffffffffffffff\n      mul\n      not\n      and\n      swap1\n      dup4\n      0xffffffffffffffffffffffffffffffffffffffff\n      and\n      mul\n      or\n      swap1\n      sstore\n      pop\n        /* \"@openzeppelin/contracts-upgradeable/access/OwnableUpgradeable.sol\":2844:2852  newOwner */\n      dup2\n        /* \"@openzeppelin/contracts-upgradeable/access/OwnableUpgradeable.sol\":2813:2853  OwnershipTransferred(oldOwner, newOwner) */\n      0xffffffffffffffffffffffffffffffffffffffff\n      and\n        /* \"@openzeppelin/contracts-upgradeable/access/OwnableUpgradeable.sol\":2834:2842  oldOwner */\n      dup2\n        /* \"@openzeppelin/contracts-upgradeable/access/OwnableUpgradeable.sol\":2813:2853  OwnershipTransferred(oldOwner, newOwner) */\n      0xffffffffffffffffffffffffffffffffffffffff\n      and\n      0x8be0079c531659141344cd1fd0a4f28419497f9722a3daafe3b4186f6b6457e0\n      mload(0x40)\n      mload(0x40)\n      dup1\n      swap2\n      sub\n      swap1\n      log3\n        /* \"@openzeppelin/contracts-upgradeable/access/OwnableUpgradeable.sol\":2736:2860  {... */\n      pop\n        /* \"@openzeppelin/contracts-upgradeable/access/OwnableUpgradeable.sol\":2673:2860  function _transferOwnership(address newOwner) internal virtual {... */\n      pop\n      jump\t// out\n        /* \"contracts/space.sol\":16400:16560  function _currentBlockTimestamp() internal view virtual returns (uint256) {... */\n    tag_294:\n        /* \"contracts/space.sol\":16465:16472  uint256 */\n      0x00\n        /* \"contracts/space.sol\":16538:16553  block.timestamp */\n      timestamp\n        /* \"contracts/space.sol\":16531:16553  return block.timestamp */\n      swap1\n      pop\n        /* \"contracts/space.sol\":16400:16560  function _currentBlockTimestamp() internal view virtual returns (uint256) {... */\n      swap1\n      jump\t// out\n        /* \"@openzeppelin/contracts-upgradeable/utils/math/SafeMathUpgradeable.sol\":2766:2862  function add(uint256 a, uint256 b) internal pure returns (uint256) {... */\n    tag_297:\n        /* \"@openzeppelin/contracts-upgradeable/utils/math/SafeMathUpgradeable.sol\":2824:2831  uint256 */\n      0x00\n        /* \"@openzeppelin/contracts-upgradeable/utils/math/SafeMathUpgradeable.sol\":2854:2855  b */\n      dup2\n        /* \"@openzeppelin/contracts-upgradeable/utils/math/SafeMathUpgradeable.sol\":2850:2851  a */\n      dup4\n        /* \"@openzeppelin/contracts-upgradeable/utils/math/SafeMathUpgradeable.sol\":2850:2855  a + b */\n      tag_452\n      swap2\n      swap1\n      tag_246\n      jump\t// in\n    tag_452:\n        /* \"@openzeppelin/contracts-upgradeable/utils/math/SafeMathUpgradeable.sol\":2843:2855  return a + b */\n      swap1\n      pop\n        /* \"@openzeppelin/contracts-upgradeable/utils/math/SafeMathUpgradeable.sol\":2766:2862  function add(uint256 a, uint256 b) internal pure returns (uint256) {... */\n      swap3\n      swap2\n      pop\n      pop\n      jump\t// out\n        /* \"contracts/space.sol\":11722:12032  function _convert(uint256 _amount, address _to) internal {... */\n    tag_322:\n        /* \"contracts/space.sol\":11808:11809  0 */\n      0x00\n        /* \"contracts/space.sol\":11797:11804  _amount */\n      dup3\n        /* \"contracts/space.sol\":11797:11809  _amount != 0 */\n      eq\n      iszero\n        /* \"contracts/space.sol\":11789:11844  require(_amount != 0, \"convert: amount cannot be null\") */\n      tag_454\n      jumpi\n      mload(0x40)\n      0x08c379a000000000000000000000000000000000000000000000000000000000\n      dup2\n      mstore\n      0x04\n      add\n      tag_455\n      swap1\n      tag_456\n      jump\t// in\n    tag_455:\n      mload(0x40)\n      dup1\n      swap2\n      sub\n      swap1\n      revert\n    tag_454:\n        /* \"contracts/space.sol\":11932:11939  _amount */\n      dup2\n        /* \"contracts/space.sol\":11919:11928  msg.value */\n      callvalue\n        /* \"contracts/space.sol\":11919:11939  msg.value == _amount */\n      eq\n        /* \"contracts/space.sol\":11911:11977  require(msg.value == _amount,\"convert: The amount is not correct\") */\n      tag_457\n      jumpi\n      mload(0x40)\n      0x08c379a000000000000000000000000000000000000000000000000000000000\n      dup2\n      mstore\n      0x04\n      add\n      tag_458\n      swap1\n      tag_459\n      jump\t// in\n    tag_458:\n      mload(0x40)\n      dup1\n      swap2\n      sub\n      swap1\n      revert\n    tag_457:\n        /* \"contracts/space.sol\":12000:12010  msg.sender */\n      caller\n        /* \"contracts/space.sol\":11992:12025  Convert(msg.sender, _to, _amount) */\n      0xffffffffffffffffffffffffffffffffffffffff\n      and\n      0xccfaeb3043a96a967dc036ab72e078a9632af809671bc2a1ac30a8043645f89e\n        /* \"contracts/space.sol\":12012:12015  _to */\n      dup3\n        /* \"contracts/space.sol\":12017:12024  _amount */\n      dup5\n        /* \"contracts/space.sol\":11992:12025  Convert(msg.sender, _to, _amount) */\n      mload(0x40)\n      tag_460\n      swap3\n      swap2\n      swap1\n      tag_461\n      jump\t// in\n    tag_460:\n      mload(0x40)\n      dup1\n      swap2\n      sub\n      swap1\n      log2\n        /* \"contracts/space.sol\":11722:12032  function _convert(uint256 _amount, address _to) internal {... */\n      pop\n      pop\n      jump\t// out\n        /* \"@openzeppelin/contracts-upgradeable/utils/math/SafeMathUpgradeable.sol\":3476:3572  function mul(uint256 a, uint256 b) internal pure returns (uint256) {... */\n    tag_337:\n        /* \"@openzeppelin/contracts-upgradeable/utils/math/SafeMathUpgradeable.sol\":3534:3541  uint256 */\n      0x00\n        /* \"@openzeppelin/contracts-upgradeable/utils/math/SafeMathUpgradeable.sol\":3564:3565  b */\n      dup2\n        /* \"@openzeppelin/contracts-upgradeable/utils/math/SafeMathUpgradeable.sol\":3560:3561  a */\n      dup4\n        /* \"@openzeppelin/contracts-upgradeable/utils/math/SafeMathUpgradeable.sol\":3560:3565  a * b */\n      tag_463\n      swap2\n      swap1\n      tag_464\n      jump\t// in\n    tag_463:\n        /* \"@openzeppelin/contracts-upgradeable/utils/math/SafeMathUpgradeable.sol\":3553:3565  return a * b */\n      swap1\n      pop\n        /* \"@openzeppelin/contracts-upgradeable/utils/math/SafeMathUpgradeable.sol\":3476:3572  function mul(uint256 a, uint256 b) internal pure returns (uint256) {... */\n      swap3\n      swap2\n      pop\n      pop\n      jump\t// out\n        /* \"@openzeppelin/contracts-upgradeable/utils/math/SafeMathUpgradeable.sol\":3861:3957  function div(uint256 a, uint256 b) internal pure returns (uint256) {... */\n    tag_338:\n        /* \"@openzeppelin/contracts-upgradeable/utils/math/SafeMathUpgradeable.sol\":3919:3926  uint256 */\n      0x00\n        /* \"@openzeppelin/contracts-upgradeable/utils/math/SafeMathUpgradeable.sol\":3949:3950  b */\n      dup2\n        /* \"@openzeppelin/contracts-upgradeable/utils/math/SafeMathUpgradeable.sol\":3945:3946  a */\n      dup4\n        /* \"@openzeppelin/contracts-upgradeable/utils/math/SafeMathUpgradeable.sol\":3945:3950  a / b */\n      tag_466\n      swap2\n      swap1\n      tag_467\n      jump\t// in\n    tag_466:\n        /* \"@openzeppelin/contracts-upgradeable/utils/math/SafeMathUpgradeable.sol\":3938:3950  return a / b */\n      swap1\n      pop\n        /* \"@openzeppelin/contracts-upgradeable/utils/math/SafeMathUpgradeable.sol\":3861:3957  function div(uint256 a, uint256 b) internal pure returns (uint256) {... */\n      swap3\n      swap2\n      pop\n      pop\n      jump\t// out\n        /* \"contracts/space.sol\":14730:15120  function _finalizeRedeem(address _userAddress, uint256 _xEvmosAmount, uint256 _EvmosAmount) internal {... */\n    tag_360:\n        /* \"contracts/space.sol\":14876:14888  bool success */\n      0x00\n        /* \"contracts/space.sol\":14894:14906  _userAddress */\n      dup4\n        /* \"contracts/space.sol\":14894:14911  _userAddress.call */\n      0xffffffffffffffffffffffffffffffffffffffff\n      and\n        /* \"contracts/space.sol\":14918:14930  _EvmosAmount */\n      dup3\n        /* \"contracts/space.sol\":14894:14935  _userAddress.call{value:_EvmosAmount}(\"\") */\n      mload(0x40)\n      tag_469\n      swap1\n      tag_470\n      jump\t// in\n    tag_469:\n      0x00\n      mload(0x40)\n      dup1\n      dup4\n      sub\n      dup2\n      dup6\n      dup8\n      gas\n      call\n      swap3\n      pop\n      pop\n      pop\n      returndatasize\n      dup1\n      0x00\n      dup2\n      eq\n      tag_473\n      jumpi\n      mload(0x40)\n      swap2\n      pop\n      and(add(returndatasize, 0x3f), not(0x1f))\n      dup3\n      add\n      0x40\n      mstore\n      returndatasize\n      dup3\n      mstore\n      returndatasize\n      0x00\n      0x20\n      dup5\n      add\n      returndatacopy\n      jump(tag_472)\n    tag_473:\n      0x60\n      swap2\n      pop\n    tag_472:\n      pop\n        /* \"contracts/space.sol\":14875:14935  (bool success, ) = _userAddress.call{value:_EvmosAmount}(\"\") */\n      pop\n      swap1\n      pop\n        /* \"contracts/space.sol\":14953:14960  success */\n      dup1\n        /* \"contracts/space.sol\":14945:14996  require(success, \"finalizeRedeem:Transfer failed.\") */\n      tag_474\n      jumpi\n      mload(0x40)\n      0x08c379a000000000000000000000000000000000000000000000000000000000\n      dup2\n      mstore\n      0x04\n      add\n      tag_475\n      swap1\n      tag_476\n      jump\t// in\n    tag_475:\n      mload(0x40)\n      dup1\n      swap2\n      sub\n      swap1\n      revert\n    tag_474:\n        /* \"contracts/space.sol\":15006:15041  _burn(address(this), _xEvmosAmount) */\n      tag_477\n        /* \"contracts/space.sol\":15020:15024  this */\n      address\n        /* \"contracts/space.sol\":15027:15040  _xEvmosAmount */\n      dup5\n        /* \"contracts/space.sol\":15006:15011  _burn */\n      tag_478\n        /* \"contracts/space.sol\":15006:15041  _burn(address(this), _xEvmosAmount) */\n      jump\t// in\n    tag_477:\n        /* \"contracts/space.sol\":15071:15083  _userAddress */\n      dup4\n        /* \"contracts/space.sol\":15056:15113  FinalizeRedeem(_userAddress, _xEvmosAmount, _EvmosAmount) */\n      0xffffffffffffffffffffffffffffffffffffffff\n      and\n      0x0da072ebd7a5649099f43a3776eb0cda17aca79426ee9f28aae203f5dfa04eda\n        /* \"contracts/space.sol\":15085:15098  _xEvmosAmount */\n      dup5\n        /* \"contracts/space.sol\":15100:15112  _EvmosAmount */\n      dup5\n        /* \"contracts/space.sol\":15056:15113  FinalizeRedeem(_userAddress, _xEvmosAmount, _EvmosAmount) */\n      mload(0x40)\n      tag_479\n      swap3\n      swap2\n      swap1\n      tag_480\n      jump\t// in\n    tag_479:\n      mload(0x40)\n      dup1\n      swap2\n      sub\n      swap1\n      log2\n        /* \"contracts/space.sol\":14831:15120  {... */\n      pop\n        /* \"contracts/space.sol\":14730:15120  function _finalizeRedeem(address _userAddress, uint256 _xEvmosAmount, uint256 _EvmosAmount) internal {... */\n      pop\n      pop\n      pop\n      jump\t// out\n        /* \"@openzeppelin/contracts-upgradeable/utils/ContextUpgradeable.sol\":776:845  function __Context_init_unchained() internal onlyInitializing {... */\n    tag_403:\n        /* \"@openzeppelin/contracts-upgradeable/proxy/utils/Initializable.sol\":5363:5376  _initializing */\n      0x00\n      0x01\n      swap1\n      sload\n      swap1\n      0x0100\n      exp\n      swap1\n      div\n      0xff\n      and\n        /* \"@openzeppelin/contracts-upgradeable/proxy/utils/Initializable.sol\":5355:5424  require(_initializing, \"Initializable: contract is not initializing\") */\n      tag_482\n      jumpi\n      mload(0x40)\n      0x08c379a000000000000000000000000000000000000000000000000000000000\n      dup2\n      mstore\n      0x04\n      add\n      tag_483\n      swap1\n      tag_484\n      jump\t// in\n    tag_483:\n      mload(0x40)\n      dup1\n      swap2\n      sub\n      swap1\n      revert\n    tag_482:\n        /* \"@openzeppelin/contracts-upgradeable/utils/ContextUpgradeable.sol\":776:845  function __Context_init_unchained() internal onlyInitializing {... */\n      jump\t// out\n        /* \"@openzeppelin/contracts-upgradeable/access/OwnableUpgradeable.sol\":1104:1215  function __Ownable_init_unchained() internal onlyInitializing {... */\n    tag_405:\n        /* \"@openzeppelin/contracts-upgradeable/proxy/utils/Initializable.sol\":5363:5376  _initializing */\n      0x00\n      0x01\n      swap1\n      sload\n      swap1\n      0x0100\n      exp\n      swap1\n      div\n      0xff\n      and\n        /* \"@openzeppelin/contracts-upgradeable/proxy/utils/Initializable.sol\":5355:5424  require(_initializing, \"Initializable: contract is not initializing\") */\n      tag_487\n      jumpi\n      mload(0x40)\n      0x08c379a000000000000000000000000000000000000000000000000000000000\n      dup2\n      mstore\n      0x04\n      add\n      tag_488\n      swap1\n      tag_484\n      jump\t// in\n    tag_488:\n      mload(0x40)\n      dup1\n      swap2\n      sub\n      swap1\n      revert\n    tag_487:\n        /* \"@openzeppelin/contracts-upgradeable/access/OwnableUpgradeable.sol\":1176:1208  _transferOwnership(_msgSender()) */\n      tag_490\n        /* \"@openzeppelin/contracts-upgradeable/access/OwnableUpgradeable.sol\":1195:1207  _msgSender() */\n      tag_491\n        /* \"@openzeppelin/contracts-upgradeable/access/OwnableUpgradeable.sol\":1195:1205  _msgSender */\n      tag_211\n        /* \"@openzeppelin/contracts-upgradeable/access/OwnableUpgradeable.sol\":1195:1207  _msgSender() */\n      jump\t// in\n    tag_491:\n        /* \"@openzeppelin/contracts-upgradeable/access/OwnableUpgradeable.sol\":1176:1194  _transferOwnership */\n      tag_275\n        /* \"@openzeppelin/contracts-upgradeable/access/OwnableUpgradeable.sol\":1176:1208  _transferOwnership(_msgSender()) */\n      jump\t// in\n    tag_490:\n        /* \"@openzeppelin/contracts-upgradeable/access/OwnableUpgradeable.sol\":1104:1215  function __Ownable_init_unchained() internal onlyInitializing {... */\n      jump\t// out\n        /* \"contracts/space.sol\":3609:4103  function __ERC20_init_unchained(string memory _name, string memory _symbol,uint256 _minRedeemRatio,uint256 _maxRedeemRatio,uint256 _minRedeemDuration,uint256 _maxRedeemDuration) internal initializer {... */\n    tag_407:\n        /* \"@openzeppelin/contracts-upgradeable/proxy/utils/Initializable.sol\":3268:3287  bool isTopLevelCall */\n      0x00\n        /* \"@openzeppelin/contracts-upgradeable/proxy/utils/Initializable.sol\":3291:3304  _initializing */\n      dup1\n      0x01\n      swap1\n      sload\n      swap1\n      0x0100\n      exp\n      swap1\n      div\n      0xff\n      and\n        /* \"@openzeppelin/contracts-upgradeable/proxy/utils/Initializable.sol\":3290:3304  !_initializing */\n      iszero\n        /* \"@openzeppelin/contracts-upgradeable/proxy/utils/Initializable.sol\":3268:3304  bool isTopLevelCall = !_initializing */\n      swap1\n      pop\n        /* \"@openzeppelin/contracts-upgradeable/proxy/utils/Initializable.sol\":3336:3350  isTopLevelCall */\n      dup1\n        /* \"@openzeppelin/contracts-upgradeable/proxy/utils/Initializable.sol\":3336:3370  isTopLevelCall && _initialized < 1 */\n      dup1\n      iszero\n      tag_493\n      jumpi\n      pop\n        /* \"@openzeppelin/contracts-upgradeable/proxy/utils/Initializable.sol\":3369:3370  1 */\n      0x01\n        /* \"@openzeppelin/contracts-upgradeable/proxy/utils/Initializable.sol\":3354:3366  _initialized */\n      0x00\n      dup1\n      sload\n      swap1\n      0x0100\n      exp\n      swap1\n      div\n      0xff\n      and\n        /* \"@openzeppelin/contracts-upgradeable/proxy/utils/Initializable.sol\":3354:3370  _initialized < 1 */\n      0xff\n      and\n      lt\n        /* \"@openzeppelin/contracts-upgradeable/proxy/utils/Initializable.sol\":3336:3370  isTopLevelCall && _initialized < 1 */\n    tag_493:\n        /* \"@openzeppelin/contracts-upgradeable/proxy/utils/Initializable.sol\":3335:3443  (isTopLevelCall && _initialized < 1) || (!AddressUpgradeable.isContract(address(this)) && _initialized == 1) */\n      dup1\n      tag_494\n      jumpi\n      pop\n        /* \"@openzeppelin/contracts-upgradeable/proxy/utils/Initializable.sol\":3377:3421  AddressUpgradeable.isContract(address(this)) */\n      tag_495\n        /* \"@openzeppelin/contracts-upgradeable/proxy/utils/Initializable.sol\":3415:3419  this */\n      address\n        /* \"@openzeppelin/contracts-upgradeable/proxy/utils/Initializable.sol\":3377:3406  AddressUpgradeable.isContract */\n      tag_217\n        /* \"@openzeppelin/contracts-upgradeable/proxy/utils/Initializable.sol\":3377:3421  AddressUpgradeable.isContract(address(this)) */\n      jump\t// in\n    tag_495:\n        /* \"@openzeppelin/contracts-upgradeable/proxy/utils/Initializable.sol\":3376:3421  !AddressUpgradeable.isContract(address(this)) */\n      iszero\n        /* \"@openzeppelin/contracts-upgradeable/proxy/utils/Initializable.sol\":3376:3442  !AddressUpgradeable.isContract(address(this)) && _initialized == 1 */\n      dup1\n      iszero\n      tag_496\n      jumpi\n      pop\n        /* \"@openzeppelin/contracts-upgradeable/proxy/utils/Initializable.sol\":3441:3442  1 */\n      0x01\n        /* \"@openzeppelin/contracts-upgradeable/proxy/utils/Initializable.sol\":3425:3437  _initialized */\n      0x00\n      dup1\n      sload\n      swap1\n      0x0100\n      exp\n      swap1\n      div\n      0xff\n      and\n        /* \"@openzeppelin/contracts-upgradeable/proxy/utils/Initializable.sol\":3425:3442  _initialized == 1 */\n      0xff\n      and\n      eq\n        /* \"@openzeppelin/contracts-upgradeable/proxy/utils/Initializable.sol\":3376:3442  !AddressUpgradeable.isContract(address(this)) && _initialized == 1 */\n    tag_496:\n        /* \"@openzeppelin/contracts-upgradeable/proxy/utils/Initializable.sol\":3335:3443  (isTopLevelCall && _initialized < 1) || (!AddressUpgradeable.isContract(address(this)) && _initialized == 1) */\n    tag_494:\n        /* \"@openzeppelin/contracts-upgradeable/proxy/utils/Initializable.sol\":3314:3515  require(... */\n      tag_497\n      jumpi\n      mload(0x40)\n      0x08c379a000000000000000000000000000000000000000000000000000000000\n      dup2\n      mstore\n      0x04\n      add\n      tag_498\n      swap1\n      tag_221\n      jump\t// in\n    tag_498:\n      mload(0x40)\n      dup1\n      swap2\n      sub\n      swap1\n      revert\n    tag_497:\n        /* \"@openzeppelin/contracts-upgradeable/proxy/utils/Initializable.sol\":3540:3541  1 */\n      0x01\n        /* \"@openzeppelin/contracts-upgradeable/proxy/utils/Initializable.sol\":3525:3537  _initialized */\n      0x00\n      dup1\n        /* \"@openzeppelin/contracts-upgradeable/proxy/utils/Initializable.sol\":3525:3541  _initialized = 1 */\n      0x0100\n      exp\n      dup2\n      sload\n      dup2\n      0xff\n      mul\n      not\n      and\n      swap1\n      dup4\n      0xff\n      and\n      mul\n      or\n      swap1\n      sstore\n      pop\n        /* \"@openzeppelin/contracts-upgradeable/proxy/utils/Initializable.sol\":3555:3569  isTopLevelCall */\n      dup1\n        /* \"@openzeppelin/contracts-upgradeable/proxy/utils/Initializable.sol\":3551:3616  if (isTopLevelCall) {... */\n      iszero\n      tag_499\n      jumpi\n        /* \"@openzeppelin/contracts-upgradeable/proxy/utils/Initializable.sol\":3601:3605  true */\n      0x01\n        /* \"@openzeppelin/contracts-upgradeable/proxy/utils/Initializable.sol\":3585:3598  _initializing */\n      0x00\n      0x01\n        /* \"@openzeppelin/contracts-upgradeable/proxy/utils/Initializable.sol\":3585:3605  _initializing = true */\n      0x0100\n      exp\n      dup2\n      sload\n      dup2\n      0xff\n      mul\n      not\n      and\n      swap1\n      dup4\n      iszero\n      iszero\n      mul\n      or\n      swap1\n      sstore\n      pop\n        /* \"@openzeppelin/contracts-upgradeable/proxy/utils/Initializable.sol\":3551:3616  if (isTopLevelCall) {... */\n    tag_499:\n        /* \"contracts/space.sol\":3830:3835  _name */\n      dup7\n        /* \"contracts/space.sol\":3818:3827  tokenName */\n      0x6c\n        /* \"contracts/space.sol\":3818:3835  tokenName = _name */\n      swap1\n      dup1\n      mload\n      swap1\n      0x20\n      add\n      swap1\n      tag_501\n      swap3\n      swap2\n      swap1\n      tag_502\n      jump\t// in\n    tag_501:\n      pop\n        /* \"contracts/space.sol\":3859:3866  _symbol */\n      dup6\n        /* \"contracts/space.sol\":3845:3856  tokenSymbol */\n      0x6d\n        /* \"contracts/space.sol\":3845:3866  tokenSymbol = _symbol */\n      swap1\n      dup1\n      mload\n      swap1\n      0x20\n      add\n      swap1\n      tag_503\n      swap3\n      swap2\n      swap1\n      tag_502\n      jump\t// in\n    tag_503:\n      pop\n        /* \"contracts/space.sol\":3893:3908  _minRedeemRatio */\n      dup5\n        /* \"contracts/space.sol\":3876:3890  minRedeemRatio */\n      0x67\n        /* \"contracts/space.sol\":3876:3908  minRedeemRatio = _minRedeemRatio */\n      dup2\n      swap1\n      sstore\n      pop\n        /* \"contracts/space.sol\":3935:3950  _maxRedeemRatio */\n      dup4\n        /* \"contracts/space.sol\":3918:3932  maxRedeemRatio */\n      0x68\n        /* \"contracts/space.sol\":3918:3950  maxRedeemRatio = _maxRedeemRatio */\n      dup2\n      swap1\n      sstore\n      pop\n        /* \"contracts/space.sol\":3980:3998  _minRedeemDuration */\n      dup3\n        /* \"contracts/space.sol\":3960:3977  minRedeemDuration */\n      0x69\n        /* \"contracts/space.sol\":3960:3998  minRedeemDuration = _minRedeemDuration */\n      dup2\n      swap1\n      sstore\n      pop\n        /* \"contracts/space.sol\":4028:4046  _maxRedeemDuration */\n      dup2\n        /* \"contracts/space.sol\":4008:4025  maxRedeemDuration */\n      0x6a\n        /* \"contracts/space.sol\":4008:4046  maxRedeemDuration = _maxRedeemDuration */\n      dup2\n      swap1\n      sstore\n      pop\n        /* \"contracts/space.sol\":4092:4096  true */\n      0x01\n        /* \"contracts/space.sol\":4056:4074  _transferWhitelist */\n      0x6e\n        /* \"contracts/space.sol\":4056:4089  _transferWhitelist[address(this)] */\n      0x00\n        /* \"contracts/space.sol\":4083:4087  this */\n      address\n        /* \"contracts/space.sol\":4056:4089  _transferWhitelist[address(this)] */\n      0xffffffffffffffffffffffffffffffffffffffff\n      and\n      0xffffffffffffffffffffffffffffffffffffffff\n      and\n      dup2\n      mstore\n      0x20\n      add\n      swap1\n      dup2\n      mstore\n      0x20\n      add\n      0x00\n      keccak256\n      0x00\n        /* \"contracts/space.sol\":4056:4096  _transferWhitelist[address(this)] = true */\n      0x0100\n      exp\n      dup2\n      sload\n      dup2\n      0xff\n      mul\n      not\n      and\n      swap1\n      dup4\n      iszero\n      iszero\n      mul\n      or\n      swap1\n      sstore\n      pop\n        /* \"@openzeppelin/contracts-upgradeable/proxy/utils/Initializable.sol\":3640:3654  isTopLevelCall */\n      dup1\n        /* \"@openzeppelin/contracts-upgradeable/proxy/utils/Initializable.sol\":3636:3735  if (isTopLevelCall) {... */\n      iszero\n      tag_504\n      jumpi\n        /* \"@openzeppelin/contracts-upgradeable/proxy/utils/Initializable.sol\":3686:3691  false */\n      0x00\n        /* \"@openzeppelin/contracts-upgradeable/proxy/utils/Initializable.sol\":3670:3683  _initializing */\n      dup1\n      0x01\n        /* \"@openzeppelin/contracts-upgradeable/proxy/utils/Initializable.sol\":3670:3691  _initializing = false */\n      0x0100\n      exp\n      dup2\n      sload\n      dup2\n      0xff\n      mul\n      not\n      and\n      swap1\n      dup4\n      iszero\n      iszero\n      mul\n      or\n      swap1\n      sstore\n      pop\n        /* \"@openzeppelin/contracts-upgradeable/proxy/utils/Initializable.sol\":3710:3724  Initialized(1) */\n      0x7f26b83ff96e1f2b6a682f133852f6798a09c465da95921460cefb3847402498\n        /* \"@openzeppelin/contracts-upgradeable/proxy/utils/Initializable.sol\":3722:3723  1 */\n      0x01\n        /* \"@openzeppelin/contracts-upgradeable/proxy/utils/Initializable.sol\":3710:3724  Initialized(1) */\n      mload(0x40)\n      tag_505\n      swap2\n      swap1\n      tag_228\n      jump\t// in\n    tag_505:\n      mload(0x40)\n      dup1\n      swap2\n      sub\n      swap1\n      log1\n        /* \"@openzeppelin/contracts-upgradeable/proxy/utils/Initializable.sol\":3636:3735  if (isTopLevelCall) {... */\n    tag_504:\n        /* \"@openzeppelin/contracts-upgradeable/proxy/utils/Initializable.sol\":3258:3741  {... */\n      pop\n        /* \"contracts/space.sol\":3609:4103  function __ERC20_init_unchained(string memory _name, string memory _symbol,uint256 _minRedeemRatio,uint256 _maxRedeemRatio,uint256 _minRedeemDuration,uint256 _maxRedeemDuration) internal initializer {... */\n      pop\n      pop\n      pop\n      pop\n      pop\n      pop\n      jump\t// out\n        /* \"contracts/space.sol\":16939:17177  function _beforeTokenTransfer(address _from, address _to, uint256 _amount) internal view  {... */\n    tag_418:\n        /* \"contracts/space.sol\":17064:17065  0 */\n      0x00\n        /* \"contracts/space.sol\":17047:17066  _from == address(0) */\n      0xffffffffffffffffffffffffffffffffffffffff\n      and\n        /* \"contracts/space.sol\":17047:17052  _from */\n      dup4\n        /* \"contracts/space.sol\":17047:17066  _from == address(0) */\n      0xffffffffffffffffffffffffffffffffffffffff\n      and\n      eq\n        /* \"contracts/space.sol\":17047:17087  _from == address(0) || _to == address(0) */\n      dup1\n      tag_507\n      jumpi\n      pop\n        /* \"contracts/space.sol\":17085:17086  0 */\n      0x00\n        /* \"contracts/space.sol\":17070:17087  _to == address(0) */\n      0xffffffffffffffffffffffffffffffffffffffff\n      and\n        /* \"contracts/space.sol\":17070:17073  _to */\n      dup3\n        /* \"contracts/space.sol\":17070:17087  _to == address(0) */\n      0xffffffffffffffffffffffffffffffffffffffff\n      and\n      eq\n        /* \"contracts/space.sol\":17047:17087  _from == address(0) || _to == address(0) */\n    tag_507:\n        /* \"contracts/space.sol\":17047:17116  _from == address(0) || _to == address(0) || _transferWhitelist[_from] */\n      dup1\n      tag_508\n      jumpi\n      pop\n        /* \"contracts/space.sol\":17091:17109  _transferWhitelist */\n      0x6e\n        /* \"contracts/space.sol\":17091:17116  _transferWhitelist[_from] */\n      0x00\n        /* \"contracts/space.sol\":17110:17115  _from */\n      dup5\n        /* \"contracts/space.sol\":17091:17116  _transferWhitelist[_from] */\n      0xffffffffffffffffffffffffffffffffffffffff\n      and\n      0xffffffffffffffffffffffffffffffffffffffff\n      and\n      dup2\n      mstore\n      0x20\n      add\n      swap1\n      dup2\n      mstore\n      0x20\n      add\n      0x00\n      keccak256\n      0x00\n      swap1\n      sload\n      swap1\n      0x0100\n      exp\n      swap1\n      div\n      0xff\n      and\n        /* \"contracts/space.sol\":17047:17116  _from == address(0) || _to == address(0) || _transferWhitelist[_from] */\n    tag_508:\n        /* \"contracts/space.sol\":17047:17143  _from == address(0) || _to == address(0) || _transferWhitelist[_from] || _transferWhitelist[_to] */\n      dup1\n      tag_509\n      jumpi\n      pop\n        /* \"contracts/space.sol\":17120:17138  _transferWhitelist */\n      0x6e\n        /* \"contracts/space.sol\":17120:17143  _transferWhitelist[_to] */\n      0x00\n        /* \"contracts/space.sol\":17139:17142  _to */\n      dup4\n        /* \"contracts/space.sol\":17120:17143  _transferWhitelist[_to] */\n      0xffffffffffffffffffffffffffffffffffffffff\n      and\n      0xffffffffffffffffffffffffffffffffffffffff\n      and\n      dup2\n      mstore\n      0x20\n      add\n      swap1\n      dup2\n      mstore\n      0x20\n      add\n      0x00\n      keccak256\n      0x00\n      swap1\n      sload\n      swap1\n      0x0100\n      exp\n      swap1\n      div\n      0xff\n      and\n        /* \"contracts/space.sol\":17047:17143  _from == address(0) || _to == address(0) || _transferWhitelist[_from] || _transferWhitelist[_to] */\n    tag_509:\n        /* \"contracts/space.sol\":17039:17170  require(_from == address(0) || _to == address(0) || _transferWhitelist[_from] || _transferWhitelist[_to] , \"transfer: not allowed\") */\n      tag_510\n      jumpi\n      mload(0x40)\n      0x08c379a000000000000000000000000000000000000000000000000000000000\n      dup2\n      mstore\n      0x04\n      add\n      tag_511\n      swap1\n      tag_512\n      jump\t// in\n    tag_511:\n      mload(0x40)\n      dup1\n      swap2\n      sub\n      swap1\n      revert\n    tag_510:\n        /* \"contracts/space.sol\":16939:17177  function _beforeTokenTransfer(address _from, address _to, uint256 _amount) internal view  {... */\n      pop\n      pop\n      pop\n      jump\t// out\n        /* \"contracts/space.sol\":17183:17276  function _afterTokenTransfer(address _from, address _to, uint256 _amount) internal virtual {} */\n    tag_425:\n      pop\n      pop\n      pop\n      jump\t// out\n        /* \"contracts/space.sol\":8707:9310  function _burn(address _account, uint256 _amount) internal virtual {... */\n    tag_478:\n        /* \"contracts/space.sol\":8812:8813  0 */\n      0x00\n        /* \"contracts/space.sol\":8792:8814  _account != address(0) */\n      0xffffffffffffffffffffffffffffffffffffffff\n      and\n        /* \"contracts/space.sol\":8792:8800  _account */\n      dup3\n        /* \"contracts/space.sol\":8792:8814  _account != address(0) */\n      0xffffffffffffffffffffffffffffffffffffffff\n      and\n      eq\n      iszero\n        /* \"contracts/space.sol\":8784:8859  require(_account != address(0), \"XEvmos ERC20: burn from the zero address\") */\n      tag_515\n      jumpi\n      mload(0x40)\n      0x08c379a000000000000000000000000000000000000000000000000000000000\n      dup2\n      mstore\n      0x04\n      add\n      tag_516\n      swap1\n      tag_517\n      jump\t// in\n    tag_516:\n      mload(0x40)\n      dup1\n      swap2\n      sub\n      swap1\n      revert\n    tag_515:\n        /* \"contracts/space.sol\":8869:8920  _beforeTokenTransfer(_account, address(0), _amount) */\n      tag_518\n        /* \"contracts/space.sol\":8890:8898  _account */\n      dup3\n        /* \"contracts/space.sol\":8908:8909  0 */\n      0x00\n        /* \"contracts/space.sol\":8912:8919  _amount */\n      dup4\n        /* \"contracts/space.sol\":8869:8889  _beforeTokenTransfer */\n      tag_418\n        /* \"contracts/space.sol\":8869:8920  _beforeTokenTransfer(_account, address(0), _amount) */\n      jump\t// in\n    tag_518:\n        /* \"contracts/space.sol\":8930:8952  uint256 accountBalance */\n      0x00\n        /* \"contracts/space.sol\":8955:8964  _balances */\n      0x70\n        /* \"contracts/space.sol\":8955:8974  _balances[_account] */\n      0x00\n        /* \"contracts/space.sol\":8965:8973  _account */\n      dup5\n        /* \"contracts/space.sol\":8955:8974  _balances[_account] */\n      0xffffffffffffffffffffffffffffffffffffffff\n      and\n      0xffffffffffffffffffffffffffffffffffffffff\n      and\n      dup2\n      mstore\n      0x20\n      add\n      swap1\n      dup2\n      mstore\n      0x20\n      add\n      0x00\n      keccak256\n      sload\n        /* \"contracts/space.sol\":8930:8974  uint256 accountBalance = _balances[_account] */\n      swap1\n      pop\n        /* \"contracts/space.sol\":9010:9017  _amount */\n      dup2\n        /* \"contracts/space.sol\":8992:9006  accountBalance */\n      dup2\n        /* \"contracts/space.sol\":8992:9017  accountBalance >= _amount */\n      lt\n      iszero\n        /* \"contracts/space.sol\":8984:9063  require(accountBalance >= _amount, \"XEvmos ERC20: burn amount exceeds balance\") */\n      tag_519\n      jumpi\n      mload(0x40)\n      0x08c379a000000000000000000000000000000000000000000000000000000000\n      dup2\n      mstore\n      0x04\n      add\n      tag_520\n      swap1\n      tag_521\n      jump\t// in\n    tag_520:\n      mload(0x40)\n      dup1\n      swap2\n      sub\n      swap1\n      revert\n    tag_519:\n        /* \"contracts/space.sol\":9112:9119  _amount */\n      dup2\n        /* \"contracts/space.sol\":9089:9098  _balances */\n      0x70\n        /* \"contracts/space.sol\":9089:9108  _balances[_account] */\n      0x00\n        /* \"contracts/space.sol\":9099:9107  _account */\n      dup6\n        /* \"contracts/space.sol\":9089:9108  _balances[_account] */\n      0xffffffffffffffffffffffffffffffffffffffff\n      and\n      0xffffffffffffffffffffffffffffffffffffffff\n      and\n      dup2\n      mstore\n      0x20\n      add\n      swap1\n      dup2\n      mstore\n      0x20\n      add\n      0x00\n      keccak256\n      0x00\n        /* \"contracts/space.sol\":9089:9119  _balances[_account] -= _amount */\n      dup3\n      dup3\n      sload\n      sub\n      swap3\n      pop\n      pop\n      dup2\n      swap1\n      sstore\n      pop\n        /* \"contracts/space.sol\":9151:9158  _amount */\n      dup2\n        /* \"contracts/space.sol\":9135:9147  _totalSupply */\n      0x6b\n      0x00\n        /* \"contracts/space.sol\":9135:9158  _totalSupply -= _amount */\n      dup3\n      dup3\n      sload\n      tag_522\n      swap2\n      swap1\n      tag_262\n      jump\t// in\n    tag_522:\n      swap3\n      pop\n      pop\n      dup2\n      swap1\n      sstore\n      pop\n        /* \"contracts/space.sol\":9182:9189  _amount */\n      dup2\n        /* \"contracts/space.sol\":9168:9178  burnNumber */\n      0x66\n      0x00\n        /* \"contracts/space.sol\":9168:9189  burnNumber += _amount */\n      dup3\n      dup3\n      sload\n      tag_523\n      swap2\n      swap1\n      tag_246\n      jump\t// in\n    tag_523:\n      swap3\n      pop\n      pop\n      dup2\n      swap1\n      sstore\n      pop\n        /* \"contracts/space.sol\":9231:9232  0 */\n      0x00\n        /* \"contracts/space.sol\":9204:9243  Transfer(_account, address(0), _amount) */\n      0xffffffffffffffffffffffffffffffffffffffff\n      and\n        /* \"contracts/space.sol\":9213:9221  _account */\n      dup4\n        /* \"contracts/space.sol\":9204:9243  Transfer(_account, address(0), _amount) */\n      0xffffffffffffffffffffffffffffffffffffffff\n      and\n      0xddf252ad1be2c89b69c2b068fc378daa952ba7f163c4a11628f55a4df523b3ef\n        /* \"contracts/space.sol\":9235:9242  _amount */\n      dup5\n        /* \"contracts/space.sol\":9204:9243  Transfer(_account, address(0), _amount) */\n      mload(0x40)\n      tag_524\n      swap2\n      swap1\n      tag_67\n      jump\t// in\n    tag_524:\n      mload(0x40)\n      dup1\n      swap2\n      sub\n      swap1\n      log3\n        /* \"contracts/space.sol\":9253:9303  _afterTokenTransfer(_account, address(0), _amount) */\n      tag_525\n        /* \"contracts/space.sol\":9273:9281  _account */\n      dup4\n        /* \"contracts/space.sol\":9291:9292  0 */\n      0x00\n        /* \"contracts/space.sol\":9295:9302  _amount */\n      dup5\n        /* \"contracts/space.sol\":9253:9272  _afterTokenTransfer */\n      tag_425\n        /* \"contracts/space.sol\":9253:9303  _afterTokenTransfer(_account, address(0), _amount) */\n      jump\t// in\n    tag_525:\n        /* \"contracts/space.sol\":8774:9310  {... */\n      pop\n        /* \"contracts/space.sol\":8707:9310  function _burn(address _account, uint256 _amount) internal virtual {... */\n      pop\n      pop\n      jump\t// out\n    tag_502:\n      dup3\n      dup1\n      sload\n      tag_526\n      swap1\n      tag_203\n      jump\t// in\n    tag_526:\n      swap1\n      0x00\n      mstore\n      keccak256(0x00, 0x20)\n      swap1\n      0x1f\n      add\n      0x20\n      swap1\n      div\n      dup2\n      add\n      swap3\n      dup3\n      tag_528\n      jumpi\n      0x00\n      dup6\n      sstore\n      jump(tag_527)\n    tag_528:\n      dup3\n      0x1f\n      lt\n      tag_529\n      jumpi\n      dup1\n      mload\n      not(0xff)\n      and\n      dup4\n      dup1\n      add\n      or\n      dup6\n      sstore\n      jump(tag_527)\n    tag_529:\n      dup3\n      dup1\n      add\n      0x01\n      add\n      dup6\n      sstore\n      dup3\n      iszero\n      tag_527\n      jumpi\n      swap2\n      dup3\n      add\n    tag_530:\n      dup3\n      dup2\n      gt\n      iszero\n      tag_531\n      jumpi\n      dup3\n      mload\n      dup3\n      sstore\n      swap2\n      0x20\n      add\n      swap2\n      swap1\n      0x01\n      add\n      swap1\n      jump(tag_530)\n    tag_531:\n    tag_527:\n      pop\n      swap1\n      pop\n      tag_532\n      swap2\n      swap1\n      tag_533\n      jump\t// in\n    tag_532:\n      pop\n      swap1\n      jump\t// out\n    tag_533:\n    tag_534:\n      dup1\n      dup3\n      gt\n      iszero\n      tag_535\n      jumpi\n      0x00\n      dup2\n      0x00\n      swap1\n      sstore\n      pop\n      0x01\n      add\n      jump(tag_534)\n    tag_535:\n      pop\n      swap1\n      jump\t// out\n        /* \"#utility.yul\":7:106   */\n    tag_536:\n        /* \"#utility.yul\":59:65   */\n      0x00\n        /* \"#utility.yul\":93:98   */\n      dup2\n        /* \"#utility.yul\":87:99   */\n      mload\n        /* \"#utility.yul\":77:99   */\n      swap1\n      pop\n        /* \"#utility.yul\":7:106   */\n      swap2\n      swap1\n      pop\n      jump\t// out\n        /* \"#utility.yul\":112:281   */\n    tag_537:\n        /* \"#utility.yul\":196:207   */\n      0x00\n        /* \"#utility.yul\":230:236   */\n      dup3\n        /* \"#utility.yul\":225:228   */\n      dup3\n        /* \"#utility.yul\":218:237   */\n      mstore\n        /* \"#utility.yul\":270:274   */\n      0x20\n        /* \"#utility.yul\":265:268   */\n      dup3\n        /* \"#utility.yul\":261:275   */\n      add\n        /* \"#utility.yul\":246:275   */\n      swap1\n      pop\n        /* \"#utility.yul\":112:281   */\n      swap3\n      swap2\n      pop\n      pop\n      jump\t// out\n        /* \"#utility.yul\":287:594   */\n    tag_538:\n        /* \"#utility.yul\":355:356   */\n      0x00\n        /* \"#utility.yul\":365:478   */\n    tag_632:\n        /* \"#utility.yul\":379:385   */\n      dup4\n        /* \"#utility.yul\":376:377   */\n      dup2\n        /* \"#utility.yul\":373:386   */\n      lt\n        /* \"#utility.yul\":365:478   */\n      iszero\n      tag_634\n      jumpi\n        /* \"#utility.yul\":464:465   */\n      dup1\n        /* \"#utility.yul\":459:462   */\n      dup3\n        /* \"#utility.yul\":455:466   */\n      add\n        /* \"#utility.yul\":449:467   */\n      mload\n        /* \"#utility.yul\":445:446   */\n      dup2\n        /* \"#utility.yul\":440:443   */\n      dup5\n        /* \"#utility.yul\":436:447   */\n      add\n        /* \"#utility.yul\":429:468   */\n      mstore\n        /* \"#utility.yul\":401:403   */\n      0x20\n        /* \"#utility.yul\":398:399   */\n      dup2\n        /* \"#utility.yul\":394:404   */\n      add\n        /* \"#utility.yul\":389:404   */\n      swap1\n      pop\n        /* \"#utility.yul\":365:478   */\n      jump(tag_632)\n    tag_634:\n        /* \"#utility.yul\":496:502   */\n      dup4\n        /* \"#utility.yul\":493:494   */\n      dup2\n        /* \"#utility.yul\":490:503   */\n      gt\n        /* \"#utility.yul\":487:588   */\n      iszero\n      tag_635\n      jumpi\n        /* \"#utility.yul\":576:577   */\n      0x00\n        /* \"#utility.yul\":567:573   */\n      dup5\n        /* \"#utility.yul\":562:565   */\n      dup5\n        /* \"#utility.yul\":558:574   */\n      add\n        /* \"#utility.yul\":551:578   */\n      mstore\n        /* \"#utility.yul\":487:588   */\n    tag_635:\n        /* \"#utility.yul\":336:594   */\n      pop\n        /* \"#utility.yul\":287:594   */\n      pop\n      pop\n      pop\n      jump\t// out\n        /* \"#utility.yul\":600:702   */\n    tag_539:\n        /* \"#utility.yul\":641:647   */\n      0x00\n        /* \"#utility.yul\":692:694   */\n      0x1f\n        /* \"#utility.yul\":688:695   */\n      not\n        /* \"#utility.yul\":683:685   */\n      0x1f\n        /* \"#utility.yul\":676:681   */\n      dup4\n        /* \"#utility.yul\":672:686   */\n      add\n        /* \"#utility.yul\":668:696   */\n      and\n        /* \"#utility.yul\":658:696   */\n      swap1\n      pop\n        /* \"#utility.yul\":600:702   */\n      swap2\n      swap1\n      pop\n      jump\t// out\n        /* \"#utility.yul\":708:1072   */\n    tag_540:\n        /* \"#utility.yul\":796:799   */\n      0x00\n        /* \"#utility.yul\":824:863   */\n      tag_638\n        /* \"#utility.yul\":857:862   */\n      dup3\n        /* \"#utility.yul\":824:863   */\n      tag_536\n      jump\t// in\n    tag_638:\n        /* \"#utility.yul\":879:950   */\n      tag_639\n        /* \"#utility.yul\":943:949   */\n      dup2\n        /* \"#utility.yul\":938:941   */\n      dup6\n        /* \"#utility.yul\":879:950   */\n      tag_537\n      jump\t// in\n    tag_639:\n        /* \"#utility.yul\":872:950   */\n      swap4\n      pop\n        /* \"#utility.yul\":959:1011   */\n      tag_640\n        /* \"#utility.yul\":1004:1010   */\n      dup2\n        /* \"#utility.yul\":999:1002   */\n      dup6\n        /* \"#utility.yul\":992:996   */\n      0x20\n        /* \"#utility.yul\":985:990   */\n      dup7\n        /* \"#utility.yul\":981:997   */\n      add\n        /* \"#utility.yul\":959:1011   */\n      tag_538\n      jump\t// in\n    tag_640:\n        /* \"#utility.yul\":1036:1065   */\n      tag_641\n        /* \"#utility.yul\":1058:1064   */\n      dup2\n        /* \"#utility.yul\":1036:1065   */\n      tag_539\n      jump\t// in\n    tag_641:\n        /* \"#utility.yul\":1031:1034   */\n      dup5\n        /* \"#utility.yul\":1027:1066   */\n      add\n        /* \"#utility.yul\":1020:1066   */\n      swap2\n      pop\n        /* \"#utility.yul\":800:1072   */\n      pop\n        /* \"#utility.yul\":708:1072   */\n      swap3\n      swap2\n      pop\n      pop\n      jump\t// out\n        /* \"#utility.yul\":1078:1391   */\n    tag_50:\n        /* \"#utility.yul\":1191:1195   */\n      0x00\n        /* \"#utility.yul\":1229:1231   */\n      0x20\n        /* \"#utility.yul\":1218:1227   */\n      dup3\n        /* \"#utility.yul\":1214:1232   */\n      add\n        /* \"#utility.yul\":1206:1232   */\n      swap1\n      pop\n        /* \"#utility.yul\":1278:1287   */\n      dup2\n        /* \"#utility.yul\":1272:1276   */\n      dup2\n        /* \"#utility.yul\":1268:1288   */\n      sub\n        /* \"#utility.yul\":1264:1265   */\n      0x00\n        /* \"#utility.yul\":1253:1262   */\n      dup4\n        /* \"#utility.yul\":1249:1266   */\n      add\n        /* \"#utility.yul\":1242:1289   */\n      mstore\n        /* \"#utility.yul\":1306:1384   */\n      tag_643\n        /* \"#utility.yul\":1379:1383   */\n      dup2\n        /* \"#utility.yul\":1370:1376   */\n      dup5\n        /* \"#utility.yul\":1306:1384   */\n      tag_540\n      jump\t// in\n    tag_643:\n        /* \"#utility.yul\":1298:1384   */\n      swap1\n      pop\n        /* \"#utility.yul\":1078:1391   */\n      swap3\n      swap2\n      pop\n      pop\n      jump\t// out\n        /* \"#utility.yul\":1397:1472   */\n    tag_541:\n        /* \"#utility.yul\":1430:1436   */\n      0x00\n        /* \"#utility.yul\":1463:1465   */\n      0x40\n        /* \"#utility.yul\":1457:1466   */\n      mload\n        /* \"#utility.yul\":1447:1466   */\n      swap1\n      pop\n        /* \"#utility.yul\":1397:1472   */\n      swap1\n      jump\t// out\n        /* \"#utility.yul\":1478:1595   */\n    tag_542:\n        /* \"#utility.yul\":1587:1588   */\n      0x00\n        /* \"#utility.yul\":1584:1585   */\n      dup1\n        /* \"#utility.yul\":1577:1589   */\n      revert\n        /* \"#utility.yul\":1601:1718   */\n    tag_543:\n        /* \"#utility.yul\":1710:1711   */\n      0x00\n        /* \"#utility.yul\":1707:1708   */\n      dup1\n        /* \"#utility.yul\":1700:1712   */\n      revert\n        /* \"#utility.yul\":1724:1850   */\n    tag_544:\n        /* \"#utility.yul\":1761:1768   */\n      0x00\n        /* \"#utility.yul\":1801:1843   */\n      0xffffffffffffffffffffffffffffffffffffffff\n        /* \"#utility.yul\":1794:1799   */\n      dup3\n        /* \"#utility.yul\":1790:1844   */\n      and\n        /* \"#utility.yul\":1779:1844   */\n      swap1\n      pop\n        /* \"#utility.yul\":1724:1850   */\n      swap2\n      swap1\n      pop\n      jump\t// out\n        /* \"#utility.yul\":1856:1952   */\n    tag_545:\n        /* \"#utility.yul\":1893:1900   */\n      0x00\n        /* \"#utility.yul\":1922:1946   */\n      tag_649\n        /* \"#utility.yul\":1940:1945   */\n      dup3\n        /* \"#utility.yul\":1922:1946   */\n      tag_544\n      jump\t// in\n    tag_649:\n        /* \"#utility.yul\":1911:1946   */\n      swap1\n      pop\n        /* \"#utility.yul\":1856:1952   */\n      swap2\n      swap1\n      pop\n      jump\t// out\n        /* \"#utility.yul\":1958:2080   */\n    tag_546:\n        /* \"#utility.yul\":2031:2055   */\n      tag_651\n        /* \"#utility.yul\":2049:2054   */\n      dup2\n        /* \"#utility.yul\":2031:2055   */\n      tag_545\n      jump\t// in\n    tag_651:\n        /* \"#utility.yul\":2024:2029   */\n      dup2\n        /* \"#utility.yul\":2021:2056   */\n      eq\n        /* \"#utility.yul\":2011:2074   */\n      tag_652\n      jumpi\n        /* \"#utility.yul\":2070:2071   */\n      0x00\n        /* \"#utility.yul\":2067:2068   */\n      dup1\n        /* \"#utility.yul\":2060:2072   */\n      revert\n        /* \"#utility.yul\":2011:2074   */\n    tag_652:\n        /* \"#utility.yul\":1958:2080   */\n      pop\n      jump\t// out\n        /* \"#utility.yul\":2086:2225   */\n    tag_547:\n        /* \"#utility.yul\":2132:2137   */\n      0x00\n        /* \"#utility.yul\":2170:2176   */\n      dup2\n        /* \"#utility.yul\":2157:2177   */\n      calldataload\n        /* \"#utility.yul\":2148:2177   */\n      swap1\n      pop\n        /* \"#utility.yul\":2186:2219   */\n      tag_654\n        /* \"#utility.yul\":2213:2218   */\n      dup2\n        /* \"#utility.yul\":2186:2219   */\n      tag_546\n      jump\t// in\n    tag_654:\n        /* \"#utility.yul\":2086:2225   */\n      swap3\n      swap2\n      pop\n      pop\n      jump\t// out\n        /* \"#utility.yul\":2231:2308   */\n    tag_548:\n        /* \"#utility.yul\":2268:2275   */\n      0x00\n        /* \"#utility.yul\":2297:2302   */\n      dup2\n        /* \"#utility.yul\":2286:2302   */\n      swap1\n      pop\n        /* \"#utility.yul\":2231:2308   */\n      swap2\n      swap1\n      pop\n      jump\t// out\n        /* \"#utility.yul\":2314:2436   */\n    tag_549:\n        /* \"#utility.yul\":2387:2411   */\n      tag_657\n        /* \"#utility.yul\":2405:2410   */\n      dup2\n        /* \"#utility.yul\":2387:2411   */\n      tag_548\n      jump\t// in\n    tag_657:\n        /* \"#utility.yul\":2380:2385   */\n      dup2\n        /* \"#utility.yul\":2377:2412   */\n      eq\n        /* \"#utility.yul\":2367:2430   */\n      tag_658\n      jumpi\n        /* \"#utility.yul\":2426:2427   */\n      0x00\n        /* \"#utility.yul\":2423:2424   */\n      dup1\n        /* \"#utility.yul\":2416:2428   */\n      revert\n        /* \"#utility.yul\":2367:2430   */\n    tag_658:\n        /* \"#utility.yul\":2314:2436   */\n      pop\n      jump\t// out\n        /* \"#utility.yul\":2442:2581   */\n    tag_550:\n        /* \"#utility.yul\":2488:2493   */\n      0x00\n        /* \"#utility.yul\":2526:2532   */\n      dup2\n        /* \"#utility.yul\":2513:2533   */\n      calldataload\n        /* \"#utility.yul\":2504:2533   */\n      swap1\n      pop\n        /* \"#utility.yul\":2542:2575   */\n      tag_660\n        /* \"#utility.yul\":2569:2574   */\n      dup2\n        /* \"#utility.yul\":2542:2575   */\n      tag_549\n      jump\t// in\n    tag_660:\n        /* \"#utility.yul\":2442:2581   */\n      swap3\n      swap2\n      pop\n      pop\n      jump\t// out\n        /* \"#utility.yul\":2587:3061   */\n    tag_54:\n        /* \"#utility.yul\":2655:2661   */\n      0x00\n        /* \"#utility.yul\":2663:2669   */\n      dup1\n        /* \"#utility.yul\":2712:2714   */\n      0x40\n        /* \"#utility.yul\":2700:2709   */\n      dup4\n        /* \"#utility.yul\":2691:2698   */\n      dup6\n        /* \"#utility.yul\":2687:2710   */\n      sub\n        /* \"#utility.yul\":2683:2715   */\n      slt\n        /* \"#utility.yul\":2680:2799   */\n      iszero\n      tag_662\n      jumpi\n        /* \"#utility.yul\":2718:2797   */\n      tag_663\n      tag_542\n      jump\t// in\n    tag_663:\n        /* \"#utility.yul\":2680:2799   */\n    tag_662:\n        /* \"#utility.yul\":2838:2839   */\n      0x00\n        /* \"#utility.yul\":2863:2916   */\n      tag_664\n        /* \"#utility.yul\":2908:2915   */\n      dup6\n        /* \"#utility.yul\":2899:2905   */\n      dup3\n        /* \"#utility.yul\":2888:2897   */\n      dup7\n        /* \"#utility.yul\":2884:2906   */\n      add\n        /* \"#utility.yul\":2863:2916   */\n      tag_547\n      jump\t// in\n    tag_664:\n        /* \"#utility.yul\":2853:2916   */\n      swap3\n      pop\n        /* \"#utility.yul\":2809:2926   */\n      pop\n        /* \"#utility.yul\":2965:2967   */\n      0x20\n        /* \"#utility.yul\":2991:3044   */\n      tag_665\n        /* \"#utility.yul\":3036:3043   */\n      dup6\n        /* \"#utility.yul\":3027:3033   */\n      dup3\n        /* \"#utility.yul\":3016:3025   */\n      dup7\n        /* \"#utility.yul\":3012:3034   */\n      add\n        /* \"#utility.yul\":2991:3044   */\n      tag_550\n      jump\t// in\n    tag_665:\n        /* \"#utility.yul\":2981:3044   */\n      swap2\n      pop\n        /* \"#utility.yul\":2936:3054   */\n      pop\n        /* \"#utility.yul\":2587:3061   */\n      swap3\n      pop\n      swap3\n      swap1\n      pop\n      jump\t// out\n        /* \"#utility.yul\":3067:3157   */\n    tag_551:\n        /* \"#utility.yul\":3101:3108   */\n      0x00\n        /* \"#utility.yul\":3144:3149   */\n      dup2\n        /* \"#utility.yul\":3137:3150   */\n      iszero\n        /* \"#utility.yul\":3130:3151   */\n      iszero\n        /* \"#utility.yul\":3119:3151   */\n      swap1\n      pop\n        /* \"#utility.yul\":3067:3157   */\n      swap2\n      swap1\n      pop\n      jump\t// out\n        /* \"#utility.yul\":3163:3272   */\n    tag_552:\n        /* \"#utility.yul\":3244:3265   */\n      tag_668\n        /* \"#utility.yul\":3259:3264   */\n      dup2\n        /* \"#utility.yul\":3244:3265   */\n      tag_551\n      jump\t// in\n    tag_668:\n        /* \"#utility.yul\":3239:3242   */\n      dup3\n        /* \"#utility.yul\":3232:3266   */\n      mstore\n        /* \"#utility.yul\":3163:3272   */\n      pop\n      pop\n      jump\t// out\n        /* \"#utility.yul\":3278:3488   */\n    tag_57:\n        /* \"#utility.yul\":3365:3369   */\n      0x00\n        /* \"#utility.yul\":3403:3405   */\n      0x20\n        /* \"#utility.yul\":3392:3401   */\n      dup3\n        /* \"#utility.yul\":3388:3406   */\n      add\n        /* \"#utility.yul\":3380:3406   */\n      swap1\n      pop\n        /* \"#utility.yul\":3416:3481   */\n      tag_670\n        /* \"#utility.yul\":3478:3479   */\n      0x00\n        /* \"#utility.yul\":3467:3476   */\n      dup4\n        /* \"#utility.yul\":3463:3480   */\n      add\n        /* \"#utility.yul\":3454:3460   */\n      dup5\n        /* \"#utility.yul\":3416:3481   */\n      tag_552\n      jump\t// in\n    tag_670:\n        /* \"#utility.yul\":3278:3488   */\n      swap3\n      swap2\n      pop\n      pop\n      jump\t// out\n        /* \"#utility.yul\":3494:3611   */\n    tag_553:\n        /* \"#utility.yul\":3603:3604   */\n      0x00\n        /* \"#utility.yul\":3600:3601   */\n      dup1\n        /* \"#utility.yul\":3593:3605   */\n      revert\n        /* \"#utility.yul\":3617:3734   */\n    tag_554:\n        /* \"#utility.yul\":3726:3727   */\n      0x00\n        /* \"#utility.yul\":3723:3724   */\n      dup1\n        /* \"#utility.yul\":3716:3728   */\n      revert\n        /* \"#utility.yul\":3740:3920   */\n    tag_555:\n        /* \"#utility.yul\":3788:3865   */\n      0x4e487b7100000000000000000000000000000000000000000000000000000000\n        /* \"#utility.yul\":3785:3786   */\n      0x00\n        /* \"#utility.yul\":3778:3866   */\n      mstore\n        /* \"#utility.yul\":3885:3889   */\n      0x41\n        /* \"#utility.yul\":3882:3883   */\n      0x04\n        /* \"#utility.yul\":3875:3890   */\n      mstore\n        /* \"#utility.yul\":3909:3913   */\n      0x24\n        /* \"#utility.yul\":3906:3907   */\n      0x00\n        /* \"#utility.yul\":3899:3914   */\n      revert\n        /* \"#utility.yul\":3926:4207   */\n    tag_556:\n        /* \"#utility.yul\":4009:4036   */\n      tag_675\n        /* \"#utility.yul\":4031:4035   */\n      dup3\n        /* \"#utility.yul\":4009:4036   */\n      tag_539\n      jump\t// in\n    tag_675:\n        /* \"#utility.yul\":4001:4007   */\n      dup2\n        /* \"#utility.yul\":3997:4037   */\n      add\n        /* \"#utility.yul\":4139:4145   */\n      dup2\n        /* \"#utility.yul\":4127:4137   */\n      dup2\n        /* \"#utility.yul\":4124:4146   */\n      lt\n        /* \"#utility.yul\":4103:4121   */\n      0xffffffffffffffff\n        /* \"#utility.yul\":4091:4101   */\n      dup3\n        /* \"#utility.yul\":4088:4122   */\n      gt\n        /* \"#utility.yul\":4085:4147   */\n      or\n        /* \"#utility.yul\":4082:4170   */\n      iszero\n      tag_676\n      jumpi\n        /* \"#utility.yul\":4150:4168   */\n      tag_677\n      tag_555\n      jump\t// in\n    tag_677:\n        /* \"#utility.yul\":4082:4170   */\n    tag_676:\n        /* \"#utility.yul\":4190:4200   */\n      dup1\n        /* \"#utility.yul\":4186:4188   */\n      0x40\n        /* \"#utility.yul\":4179:4201   */\n      mstore\n        /* \"#utility.yul\":3969:4207   */\n      pop\n        /* \"#utility.yul\":3926:4207   */\n      pop\n      pop\n      jump\t// out\n        /* \"#utility.yul\":4213:4342   */\n    tag_557:\n        /* \"#utility.yul\":4247:4253   */\n      0x00\n        /* \"#utility.yul\":4274:4294   */\n      tag_679\n      tag_541\n      jump\t// in\n    tag_679:\n        /* \"#utility.yul\":4264:4294   */\n      swap1\n      pop\n        /* \"#utility.yul\":4303:4336   */\n      tag_680\n        /* \"#utility.yul\":4331:4335   */\n      dup3\n        /* \"#utility.yul\":4323:4329   */\n      dup3\n        /* \"#utility.yul\":4303:4336   */\n      tag_556\n      jump\t// in\n    tag_680:\n        /* \"#utility.yul\":4213:4342   */\n      swap2\n      swap1\n      pop\n      jump\t// out\n        /* \"#utility.yul\":4348:4656   */\n    tag_558:\n        /* \"#utility.yul\":4410:4414   */\n      0x00\n        /* \"#utility.yul\":4500:4518   */\n      0xffffffffffffffff\n        /* \"#utility.yul\":4492:4498   */\n      dup3\n        /* \"#utility.yul\":4489:4519   */\n      gt\n        /* \"#utility.yul\":4486:4542   */\n      iszero\n      tag_682\n      jumpi\n        /* \"#utility.yul\":4522:4540   */\n      tag_683\n      tag_555\n      jump\t// in\n    tag_683:\n        /* \"#utility.yul\":4486:4542   */\n    tag_682:\n        /* \"#utility.yul\":4560:4589   */\n      tag_684\n        /* \"#utility.yul\":4582:4588   */\n      dup3\n        /* \"#utility.yul\":4560:4589   */\n      tag_539\n      jump\t// in\n    tag_684:\n        /* \"#utility.yul\":4552:4589   */\n      swap1\n      pop\n        /* \"#utility.yul\":4644:4648   */\n      0x20\n        /* \"#utility.yul\":4638:4642   */\n      dup2\n        /* \"#utility.yul\":4634:4649   */\n      add\n        /* \"#utility.yul\":4626:4649   */\n      swap1\n      pop\n        /* \"#utility.yul\":4348:4656   */\n      swap2\n      swap1\n      pop\n      jump\t// out\n        /* \"#utility.yul\":4662:4816   */\n    tag_559:\n        /* \"#utility.yul\":4746:4752   */\n      dup3\n        /* \"#utility.yul\":4741:4744   */\n      dup2\n        /* \"#utility.yul\":4736:4739   */\n      dup4\n        /* \"#utility.yul\":4723:4753   */\n      calldatacopy\n        /* \"#utility.yul\":4808:4809   */\n      0x00\n        /* \"#utility.yul\":4799:4805   */\n      dup4\n        /* \"#utility.yul\":4794:4797   */\n      dup4\n        /* \"#utility.yul\":4790:4806   */\n      add\n        /* \"#utility.yul\":4783:4810   */\n      mstore\n        /* \"#utility.yul\":4662:4816   */\n      pop\n      pop\n      pop\n      jump\t// out\n        /* \"#utility.yul\":4822:5234   */\n    tag_560:\n        /* \"#utility.yul\":4900:4905   */\n      0x00\n        /* \"#utility.yul\":4925:4991   */\n      tag_687\n        /* \"#utility.yul\":4941:4990   */\n      tag_688\n        /* \"#utility.yul\":4983:4989   */\n      dup5\n        /* \"#utility.yul\":4941:4990   */\n      tag_558\n      jump\t// in\n    tag_688:\n        /* \"#utility.yul\":4925:4991   */\n      tag_557\n      jump\t// in\n    tag_687:\n        /* \"#utility.yul\":4916:4991   */\n      swap1\n      pop\n        /* \"#utility.yul\":5014:5020   */\n      dup3\n        /* \"#utility.yul\":5007:5012   */\n      dup2\n        /* \"#utility.yul\":5000:5021   */\n      mstore\n        /* \"#utility.yul\":5052:5056   */\n      0x20\n        /* \"#utility.yul\":5045:5050   */\n      dup2\n        /* \"#utility.yul\":5041:5057   */\n      add\n        /* \"#utility.yul\":5090:5093   */\n      dup5\n        /* \"#utility.yul\":5081:5087   */\n      dup5\n        /* \"#utility.yul\":5076:5079   */\n      dup5\n        /* \"#utility.yul\":5072:5088   */\n      add\n        /* \"#utility.yul\":5069:5094   */\n      gt\n        /* \"#utility.yul\":5066:5178   */\n      iszero\n      tag_689\n      jumpi\n        /* \"#utility.yul\":5097:5176   */\n      tag_690\n      tag_554\n      jump\t// in\n    tag_690:\n        /* \"#utility.yul\":5066:5178   */\n    tag_689:\n        /* \"#utility.yul\":5187:5228   */\n      tag_691\n        /* \"#utility.yul\":5221:5227   */\n      dup5\n        /* \"#utility.yul\":5216:5219   */\n      dup3\n        /* \"#utility.yul\":5211:5214   */\n      dup6\n        /* \"#utility.yul\":5187:5228   */\n      tag_559\n      jump\t// in\n    tag_691:\n        /* \"#utility.yul\":4906:5234   */\n      pop\n        /* \"#utility.yul\":4822:5234   */\n      swap4\n      swap3\n      pop\n      pop\n      pop\n      jump\t// out\n        /* \"#utility.yul\":5254:5594   */\n    tag_561:\n        /* \"#utility.yul\":5310:5315   */\n      0x00\n        /* \"#utility.yul\":5359:5362   */\n      dup3\n        /* \"#utility.yul\":5352:5356   */\n      0x1f\n        /* \"#utility.yul\":5344:5350   */\n      dup4\n        /* \"#utility.yul\":5340:5357   */\n      add\n        /* \"#utility.yul\":5336:5363   */\n      slt\n        /* \"#utility.yul\":5326:5448   */\n      tag_693\n      jumpi\n        /* \"#utility.yul\":5367:5446   */\n      tag_694\n      tag_553\n      jump\t// in\n    tag_694:\n        /* \"#utility.yul\":5326:5448   */\n    tag_693:\n        /* \"#utility.yul\":5484:5490   */\n      dup2\n        /* \"#utility.yul\":5471:5491   */\n      calldataload\n        /* \"#utility.yul\":5509:5588   */\n      tag_695\n        /* \"#utility.yul\":5584:5587   */\n      dup5\n        /* \"#utility.yul\":5576:5582   */\n      dup3\n        /* \"#utility.yul\":5569:5573   */\n      0x20\n        /* \"#utility.yul\":5561:5567   */\n      dup7\n        /* \"#utility.yul\":5557:5574   */\n      add\n        /* \"#utility.yul\":5509:5588   */\n      tag_560\n      jump\t// in\n    tag_695:\n        /* \"#utility.yul\":5500:5588   */\n      swap2\n      pop\n        /* \"#utility.yul\":5316:5594   */\n      pop\n        /* \"#utility.yul\":5254:5594   */\n      swap3\n      swap2\n      pop\n      pop\n      jump\t// out\n        /* \"#utility.yul\":5600:7017   */\n    tag_61:\n        /* \"#utility.yul\":5724:5730   */\n      0x00\n        /* \"#utility.yul\":5732:5738   */\n      dup1\n        /* \"#utility.yul\":5740:5746   */\n      0x00\n        /* \"#utility.yul\":5748:5754   */\n      dup1\n        /* \"#utility.yul\":5756:5762   */\n      0x00\n        /* \"#utility.yul\":5764:5770   */\n      dup1\n        /* \"#utility.yul\":5813:5816   */\n      0xc0\n        /* \"#utility.yul\":5801:5810   */\n      dup8\n        /* \"#utility.yul\":5792:5799   */\n      dup10\n        /* \"#utility.yul\":5788:5811   */\n      sub\n        /* \"#utility.yul\":5784:5817   */\n      slt\n        /* \"#utility.yul\":5781:5901   */\n      iszero\n      tag_697\n      jumpi\n        /* \"#utility.yul\":5820:5899   */\n      tag_698\n      tag_542\n      jump\t// in\n    tag_698:\n        /* \"#utility.yul\":5781:5901   */\n    tag_697:\n        /* \"#utility.yul\":5968:5969   */\n      0x00\n        /* \"#utility.yul\":5957:5966   */\n      dup8\n        /* \"#utility.yul\":5953:5970   */\n      add\n        /* \"#utility.yul\":5940:5971   */\n      calldataload\n        /* \"#utility.yul\":5998:6016   */\n      0xffffffffffffffff\n        /* \"#utility.yul\":5990:5996   */\n      dup2\n        /* \"#utility.yul\":5987:6017   */\n      gt\n        /* \"#utility.yul\":5984:6101   */\n      iszero\n      tag_699\n      jumpi\n        /* \"#utility.yul\":6020:6099   */\n      tag_700\n      tag_543\n      jump\t// in\n    tag_700:\n        /* \"#utility.yul\":5984:6101   */\n    tag_699:\n        /* \"#utility.yul\":6125:6188   */\n      tag_701\n        /* \"#utility.yul\":6180:6187   */\n      dup10\n        /* \"#utility.yul\":6171:6177   */\n      dup3\n        /* \"#utility.yul\":6160:6169   */\n      dup11\n        /* \"#utility.yul\":6156:6178   */\n      add\n        /* \"#utility.yul\":6125:6188   */\n      tag_561\n      jump\t// in\n    tag_701:\n        /* \"#utility.yul\":6115:6188   */\n      swap7\n      pop\n        /* \"#utility.yul\":5911:6198   */\n      pop\n        /* \"#utility.yul\":6265:6267   */\n      0x20\n        /* \"#utility.yul\":6254:6263   */\n      dup8\n        /* \"#utility.yul\":6250:6268   */\n      add\n        /* \"#utility.yul\":6237:6269   */\n      calldataload\n        /* \"#utility.yul\":6296:6314   */\n      0xffffffffffffffff\n        /* \"#utility.yul\":6288:6294   */\n      dup2\n        /* \"#utility.yul\":6285:6315   */\n      gt\n        /* \"#utility.yul\":6282:6399   */\n      iszero\n      tag_702\n      jumpi\n        /* \"#utility.yul\":6318:6397   */\n      tag_703\n      tag_543\n      jump\t// in\n    tag_703:\n        /* \"#utility.yul\":6282:6399   */\n    tag_702:\n        /* \"#utility.yul\":6423:6486   */\n      tag_704\n        /* \"#utility.yul\":6478:6485   */\n      dup10\n        /* \"#utility.yul\":6469:6475   */\n      dup3\n        /* \"#utility.yul\":6458:6467   */\n      dup11\n        /* \"#utility.yul\":6454:6476   */\n      add\n        /* \"#utility.yul\":6423:6486   */\n      tag_561\n      jump\t// in\n    tag_704:\n        /* \"#utility.yul\":6413:6486   */\n      swap6\n      pop\n        /* \"#utility.yul\":6208:6496   */\n      pop\n        /* \"#utility.yul\":6535:6537   */\n      0x40\n        /* \"#utility.yul\":6561:6614   */\n      tag_705\n        /* \"#utility.yul\":6606:6613   */\n      dup10\n        /* \"#utility.yul\":6597:6603   */\n      dup3\n        /* \"#utility.yul\":6586:6595   */\n      dup11\n        /* \"#utility.yul\":6582:6604   */\n      add\n        /* \"#utility.yul\":6561:6614   */\n      tag_550\n      jump\t// in\n    tag_705:\n        /* \"#utility.yul\":6551:6614   */\n      swap5\n      pop\n        /* \"#utility.yul\":6506:6624   */\n      pop\n        /* \"#utility.yul\":6663:6665   */\n      0x60\n        /* \"#utility.yul\":6689:6742   */\n      tag_706\n        /* \"#utility.yul\":6734:6741   */\n      dup10\n        /* \"#utility.yul\":6725:6731   */\n      dup3\n        /* \"#utility.yul\":6714:6723   */\n      dup11\n        /* \"#utility.yul\":6710:6732   */\n      add\n        /* \"#utility.yul\":6689:6742   */\n      tag_550\n      jump\t// in\n    tag_706:\n        /* \"#utility.yul\":6679:6742   */\n      swap4\n      pop\n        /* \"#utility.yul\":6634:6752   */\n      pop\n        /* \"#utility.yul\":6791:6794   */\n      0x80\n        /* \"#utility.yul\":6818:6871   */\n      tag_707\n        /* \"#utility.yul\":6863:6870   */\n      dup10\n        /* \"#utility.yul\":6854:6860   */\n      dup3\n        /* \"#utility.yul\":6843:6852   */\n      dup11\n        /* \"#utility.yul\":6839:6861   */\n      add\n        /* \"#utility.yul\":6818:6871   */\n      tag_550\n      jump\t// in\n    tag_707:\n        /* \"#utility.yul\":6808:6871   */\n      swap3\n      pop\n        /* \"#utility.yul\":6762:6881   */\n      pop\n        /* \"#utility.yul\":6920:6923   */\n      0xa0\n        /* \"#utility.yul\":6947:7000   */\n      tag_708\n        /* \"#utility.yul\":6992:6999   */\n      dup10\n        /* \"#utility.yul\":6983:6989   */\n      dup3\n        /* \"#utility.yul\":6972:6981   */\n      dup11\n        /* \"#utility.yul\":6968:6990   */\n      add\n        /* \"#utility.yul\":6947:7000   */\n      tag_550\n      jump\t// in\n    tag_708:\n        /* \"#utility.yul\":6937:7000   */\n      swap2\n      pop\n        /* \"#utility.yul\":6891:7010   */\n      pop\n        /* \"#utility.yul\":5600:7017   */\n      swap3\n      swap6\n      pop\n      swap3\n      swap6\n      pop\n      swap3\n      swap6\n      jump\t// out\n        /* \"#utility.yul\":7023:7141   */\n    tag_562:\n        /* \"#utility.yul\":7110:7134   */\n      tag_710\n        /* \"#utility.yul\":7128:7133   */\n      dup2\n        /* \"#utility.yul\":7110:7134   */\n      tag_548\n      jump\t// in\n    tag_710:\n        /* \"#utility.yul\":7105:7108   */\n      dup3\n        /* \"#utility.yul\":7098:7135   */\n      mstore\n        /* \"#utility.yul\":7023:7141   */\n      pop\n      pop\n      jump\t// out\n        /* \"#utility.yul\":7147:7369   */\n    tag_67:\n        /* \"#utility.yul\":7240:7244   */\n      0x00\n        /* \"#utility.yul\":7278:7280   */\n      0x20\n        /* \"#utility.yul\":7267:7276   */\n      dup3\n        /* \"#utility.yul\":7263:7281   */\n      add\n        /* \"#utility.yul\":7255:7281   */\n      swap1\n      pop\n        /* \"#utility.yul\":7291:7362   */\n      tag_712\n        /* \"#utility.yul\":7359:7360   */\n      0x00\n        /* \"#utility.yul\":7348:7357   */\n      dup4\n        /* \"#utility.yul\":7344:7361   */\n      add\n        /* \"#utility.yul\":7335:7341   */\n      dup5\n        /* \"#utility.yul\":7291:7362   */\n      tag_562\n      jump\t// in\n    tag_712:\n        /* \"#utility.yul\":7147:7369   */\n      swap3\n      swap2\n      pop\n      pop\n      jump\t// out\n        /* \"#utility.yul\":7375:7704   */\n    tag_75:\n        /* \"#utility.yul\":7434:7440   */\n      0x00\n        /* \"#utility.yul\":7483:7485   */\n      0x20\n        /* \"#utility.yul\":7471:7480   */\n      dup3\n        /* \"#utility.yul\":7462:7469   */\n      dup5\n        /* \"#utility.yul\":7458:7481   */\n      sub\n        /* \"#utility.yul\":7454:7486   */\n      slt\n        /* \"#utility.yul\":7451:7570   */\n      iszero\n      tag_714\n      jumpi\n        /* \"#utility.yul\":7489:7568   */\n      tag_715\n      tag_542\n      jump\t// in\n    tag_715:\n        /* \"#utility.yul\":7451:7570   */\n    tag_714:\n        /* \"#utility.yul\":7609:7610   */\n      0x00\n        /* \"#utility.yul\":7634:7687   */\n      tag_716\n        /* \"#utility.yul\":7679:7686   */\n      dup5\n        /* \"#utility.yul\":7670:7676   */\n      dup3\n        /* \"#utility.yul\":7659:7668   */\n      dup6\n        /* \"#utility.yul\":7655:7677   */\n      add\n        /* \"#utility.yul\":7634:7687   */\n      tag_547\n      jump\t// in\n    tag_716:\n        /* \"#utility.yul\":7624:7687   */\n      swap2\n      pop\n        /* \"#utility.yul\":7580:7697   */\n      pop\n        /* \"#utility.yul\":7375:7704   */\n      swap3\n      swap2\n      pop\n      pop\n      jump\t// out\n        /* \"#utility.yul\":7710:8329   */\n    tag_86:\n        /* \"#utility.yul\":7787:7793   */\n      0x00\n        /* \"#utility.yul\":7795:7801   */\n      dup1\n        /* \"#utility.yul\":7803:7809   */\n      0x00\n        /* \"#utility.yul\":7852:7854   */\n      0x60\n        /* \"#utility.yul\":7840:7849   */\n      dup5\n        /* \"#utility.yul\":7831:7838   */\n      dup7\n        /* \"#utility.yul\":7827:7850   */\n      sub\n        /* \"#utility.yul\":7823:7855   */\n      slt\n        /* \"#utility.yul\":7820:7939   */\n      iszero\n      tag_718\n      jumpi\n        /* \"#utility.yul\":7858:7937   */\n      tag_719\n      tag_542\n      jump\t// in\n    tag_719:\n        /* \"#utility.yul\":7820:7939   */\n    tag_718:\n        /* \"#utility.yul\":7978:7979   */\n      0x00\n        /* \"#utility.yul\":8003:8056   */\n      tag_720\n        /* \"#utility.yul\":8048:8055   */\n      dup7\n        /* \"#utility.yul\":8039:8045   */\n      dup3\n        /* \"#utility.yul\":8028:8037   */\n      dup8\n        /* \"#utility.yul\":8024:8046   */\n      add\n        /* \"#utility.yul\":8003:8056   */\n      tag_547\n      jump\t// in\n    tag_720:\n        /* \"#utility.yul\":7993:8056   */\n      swap4\n      pop\n        /* \"#utility.yul\":7949:8066   */\n      pop\n        /* \"#utility.yul\":8105:8107   */\n      0x20\n        /* \"#utility.yul\":8131:8184   */\n      tag_721\n        /* \"#utility.yul\":8176:8183   */\n      dup7\n        /* \"#utility.yul\":8167:8173   */\n      dup3\n        /* \"#utility.yul\":8156:8165   */\n      dup8\n        /* \"#utility.yul\":8152:8174   */\n      add\n        /* \"#utility.yul\":8131:8184   */\n      tag_547\n      jump\t// in\n    tag_721:\n        /* \"#utility.yul\":8121:8184   */\n      swap3\n      pop\n        /* \"#utility.yul\":8076:8194   */\n      pop\n        /* \"#utility.yul\":8233:8235   */\n      0x40\n        /* \"#utility.yul\":8259:8312   */\n      tag_722\n        /* \"#utility.yul\":8304:8311   */\n      dup7\n        /* \"#utility.yul\":8295:8301   */\n      dup3\n        /* \"#utility.yul\":8284:8293   */\n      dup8\n        /* \"#utility.yul\":8280:8302   */\n      add\n        /* \"#utility.yul\":8259:8312   */\n      tag_550\n      jump\t// in\n    tag_722:\n        /* \"#utility.yul\":8249:8312   */\n      swap2\n      pop\n        /* \"#utility.yul\":8204:8322   */\n      pop\n        /* \"#utility.yul\":7710:8329   */\n      swap3\n      pop\n      swap3\n      pop\n      swap3\n      jump\t// out\n        /* \"#utility.yul\":8335:8421   */\n    tag_563:\n        /* \"#utility.yul\":8370:8377   */\n      0x00\n        /* \"#utility.yul\":8410:8414   */\n      0xff\n        /* \"#utility.yul\":8403:8408   */\n      dup3\n        /* \"#utility.yul\":8399:8415   */\n      and\n        /* \"#utility.yul\":8388:8415   */\n      swap1\n      pop\n        /* \"#utility.yul\":8335:8421   */\n      swap2\n      swap1\n      pop\n      jump\t// out\n        /* \"#utility.yul\":8427:8539   */\n    tag_564:\n        /* \"#utility.yul\":8510:8532   */\n      tag_725\n        /* \"#utility.yul\":8526:8531   */\n      dup2\n        /* \"#utility.yul\":8510:8532   */\n      tag_563\n      jump\t// in\n    tag_725:\n        /* \"#utility.yul\":8505:8508   */\n      dup3\n        /* \"#utility.yul\":8498:8533   */\n      mstore\n        /* \"#utility.yul\":8427:8539   */\n      pop\n      pop\n      jump\t// out\n        /* \"#utility.yul\":8545:8759   */\n    tag_93:\n        /* \"#utility.yul\":8634:8638   */\n      0x00\n        /* \"#utility.yul\":8672:8674   */\n      0x20\n        /* \"#utility.yul\":8661:8670   */\n      dup3\n        /* \"#utility.yul\":8657:8675   */\n      add\n        /* \"#utility.yul\":8649:8675   */\n      swap1\n      pop\n        /* \"#utility.yul\":8685:8752   */\n      tag_727\n        /* \"#utility.yul\":8749:8750   */\n      0x00\n        /* \"#utility.yul\":8738:8747   */\n      dup4\n        /* \"#utility.yul\":8734:8751   */\n      add\n        /* \"#utility.yul\":8725:8731   */\n      dup5\n        /* \"#utility.yul\":8685:8752   */\n      tag_564\n      jump\t// in\n    tag_727:\n        /* \"#utility.yul\":8545:8759   */\n      swap3\n      swap2\n      pop\n      pop\n      jump\t// out\n        /* \"#utility.yul\":8765:9318   */\n    tag_104:\n        /* \"#utility.yul\":8942:8946   */\n      0x00\n        /* \"#utility.yul\":8980:8983   */\n      0x80\n        /* \"#utility.yul\":8969:8978   */\n      dup3\n        /* \"#utility.yul\":8965:8984   */\n      add\n        /* \"#utility.yul\":8957:8984   */\n      swap1\n      pop\n        /* \"#utility.yul\":8994:9065   */\n      tag_729\n        /* \"#utility.yul\":9062:9063   */\n      0x00\n        /* \"#utility.yul\":9051:9060   */\n      dup4\n        /* \"#utility.yul\":9047:9064   */\n      add\n        /* \"#utility.yul\":9038:9044   */\n      dup8\n        /* \"#utility.yul\":8994:9065   */\n      tag_562\n      jump\t// in\n    tag_729:\n        /* \"#utility.yul\":9075:9147   */\n      tag_730\n        /* \"#utility.yul\":9143:9145   */\n      0x20\n        /* \"#utility.yul\":9132:9141   */\n      dup4\n        /* \"#utility.yul\":9128:9146   */\n      add\n        /* \"#utility.yul\":9119:9125   */\n      dup7\n        /* \"#utility.yul\":9075:9147   */\n      tag_562\n      jump\t// in\n    tag_730:\n        /* \"#utility.yul\":9157:9229   */\n      tag_731\n        /* \"#utility.yul\":9225:9227   */\n      0x40\n        /* \"#utility.yul\":9214:9223   */\n      dup4\n        /* \"#utility.yul\":9210:9228   */\n      add\n        /* \"#utility.yul\":9201:9207   */\n      dup6\n        /* \"#utility.yul\":9157:9229   */\n      tag_562\n      jump\t// in\n    tag_731:\n        /* \"#utility.yul\":9239:9311   */\n      tag_732\n        /* \"#utility.yul\":9307:9309   */\n      0x60\n        /* \"#utility.yul\":9296:9305   */\n      dup4\n        /* \"#utility.yul\":9292:9310   */\n      add\n        /* \"#utility.yul\":9283:9289   */\n      dup5\n        /* \"#utility.yul\":9239:9311   */\n      tag_562\n      jump\t// in\n    tag_732:\n        /* \"#utility.yul\":8765:9318   */\n      swap6\n      swap5\n      pop\n      pop\n      pop\n      pop\n      pop\n      jump\t// out\n        /* \"#utility.yul\":9324:9653   */\n    tag_108:\n        /* \"#utility.yul\":9383:9389   */\n      0x00\n        /* \"#utility.yul\":9432:9434   */\n      0x20\n        /* \"#utility.yul\":9420:9429   */\n      dup3\n        /* \"#utility.yul\":9411:9418   */\n      dup5\n        /* \"#utility.yul\":9407:9430   */\n      sub\n        /* \"#utility.yul\":9403:9435   */\n      slt\n        /* \"#utility.yul\":9400:9519   */\n      iszero\n      tag_734\n      jumpi\n        /* \"#utility.yul\":9438:9517   */\n      tag_735\n      tag_542\n      jump\t// in\n    tag_735:\n        /* \"#utility.yul\":9400:9519   */\n    tag_734:\n        /* \"#utility.yul\":9558:9559   */\n      0x00\n        /* \"#utility.yul\":9583:9636   */\n      tag_736\n        /* \"#utility.yul\":9628:9635   */\n      dup5\n        /* \"#utility.yul\":9619:9625   */\n      dup3\n        /* \"#utility.yul\":9608:9617   */\n      dup6\n        /* \"#utility.yul\":9604:9626   */\n      add\n        /* \"#utility.yul\":9583:9636   */\n      tag_550\n      jump\t// in\n    tag_736:\n        /* \"#utility.yul\":9573:9636   */\n      swap2\n      pop\n        /* \"#utility.yul\":9529:9646   */\n      pop\n        /* \"#utility.yul\":9324:9653   */\n      swap3\n      swap2\n      pop\n      pop\n      jump\t// out\n        /* \"#utility.yul\":9659:10133   */\n    tag_121:\n        /* \"#utility.yul\":9727:9733   */\n      0x00\n        /* \"#utility.yul\":9735:9741   */\n      dup1\n        /* \"#utility.yul\":9784:9786   */\n      0x40\n        /* \"#utility.yul\":9772:9781   */\n      dup4\n        /* \"#utility.yul\":9763:9770   */\n      dup6\n        /* \"#utility.yul\":9759:9782   */\n      sub\n        /* \"#utility.yul\":9755:9787   */\n      slt\n        /* \"#utility.yul\":9752:9871   */\n      iszero\n      tag_738\n      jumpi\n        /* \"#utility.yul\":9790:9869   */\n      tag_739\n      tag_542\n      jump\t// in\n    tag_739:\n        /* \"#utility.yul\":9752:9871   */\n    tag_738:\n        /* \"#utility.yul\":9910:9911   */\n      0x00\n        /* \"#utility.yul\":9935:9988   */\n      tag_740\n        /* \"#utility.yul\":9980:9987   */\n      dup6\n        /* \"#utility.yul\":9971:9977   */\n      dup3\n        /* \"#utility.yul\":9960:9969   */\n      dup7\n        /* \"#utility.yul\":9956:9978   */\n      add\n        /* \"#utility.yul\":9935:9988   */\n      tag_550\n      jump\t// in\n    tag_740:\n        /* \"#utility.yul\":9925:9988   */\n      swap3\n      pop\n        /* \"#utility.yul\":9881:9998   */\n      pop\n        /* \"#utility.yul\":10037:10039   */\n      0x20\n        /* \"#utility.yul\":10063:10116   */\n      tag_741\n        /* \"#utility.yul\":10108:10115   */\n      dup6\n        /* \"#utility.yul\":10099:10105   */\n      dup3\n        /* \"#utility.yul\":10088:10097   */\n      dup7\n        /* \"#utility.yul\":10084:10106   */\n      add\n        /* \"#utility.yul\":10063:10116   */\n      tag_550\n      jump\t// in\n    tag_741:\n        /* \"#utility.yul\":10053:10116   */\n      swap2\n      pop\n        /* \"#utility.yul\":10008:10126   */\n      pop\n        /* \"#utility.yul\":9659:10133   */\n      swap3\n      pop\n      swap3\n      swap1\n      pop\n      jump\t// out\n        /* \"#utility.yul\":10139:10255   */\n    tag_565:\n        /* \"#utility.yul\":10209:10230   */\n      tag_743\n        /* \"#utility.yul\":10224:10229   */\n      dup2\n        /* \"#utility.yul\":10209:10230   */\n      tag_551\n      jump\t// in\n    tag_743:\n        /* \"#utility.yul\":10202:10207   */\n      dup2\n        /* \"#utility.yul\":10199:10231   */\n      eq\n        /* \"#utility.yul\":10189:10249   */\n      tag_744\n      jumpi\n        /* \"#utility.yul\":10245:10246   */\n      0x00\n        /* \"#utility.yul\":10242:10243   */\n      dup1\n        /* \"#utility.yul\":10235:10247   */\n      revert\n        /* \"#utility.yul\":10189:10249   */\n    tag_744:\n        /* \"#utility.yul\":10139:10255   */\n      pop\n      jump\t// out\n        /* \"#utility.yul\":10261:10394   */\n    tag_566:\n        /* \"#utility.yul\":10304:10309   */\n      0x00\n        /* \"#utility.yul\":10342:10348   */\n      dup2\n        /* \"#utility.yul\":10329:10349   */\n      calldataload\n        /* \"#utility.yul\":10320:10349   */\n      swap1\n      pop\n        /* \"#utility.yul\":10358:10388   */\n      tag_746\n        /* \"#utility.yul\":10382:10387   */\n      dup2\n        /* \"#utility.yul\":10358:10388   */\n      tag_565\n      jump\t// in\n    tag_746:\n        /* \"#utility.yul\":10261:10394   */\n      swap3\n      swap2\n      pop\n      pop\n      jump\t// out\n        /* \"#utility.yul\":10400:10868   */\n    tag_126:\n        /* \"#utility.yul\":10465:10471   */\n      0x00\n        /* \"#utility.yul\":10473:10479   */\n      dup1\n        /* \"#utility.yul\":10522:10524   */\n      0x40\n        /* \"#utility.yul\":10510:10519   */\n      dup4\n        /* \"#utility.yul\":10501:10508   */\n      dup6\n        /* \"#utility.yul\":10497:10520   */\n      sub\n        /* \"#utility.yul\":10493:10525   */\n      slt\n        /* \"#utility.yul\":10490:10609   */\n      iszero\n      tag_748\n      jumpi\n        /* \"#utility.yul\":10528:10607   */\n      tag_749\n      tag_542\n      jump\t// in\n    tag_749:\n        /* \"#utility.yul\":10490:10609   */\n    tag_748:\n        /* \"#utility.yul\":10648:10649   */\n      0x00\n        /* \"#utility.yul\":10673:10726   */\n      tag_750\n        /* \"#utility.yul\":10718:10725   */\n      dup6\n        /* \"#utility.yul\":10709:10715   */\n      dup3\n        /* \"#utility.yul\":10698:10707   */\n      dup7\n        /* \"#utility.yul\":10694:10716   */\n      add\n        /* \"#utility.yul\":10673:10726   */\n      tag_547\n      jump\t// in\n    tag_750:\n        /* \"#utility.yul\":10663:10726   */\n      swap3\n      pop\n        /* \"#utility.yul\":10619:10736   */\n      pop\n        /* \"#utility.yul\":10775:10777   */\n      0x20\n        /* \"#utility.yul\":10801:10851   */\n      tag_751\n        /* \"#utility.yul\":10843:10850   */\n      dup6\n        /* \"#utility.yul\":10834:10840   */\n      dup3\n        /* \"#utility.yul\":10823:10832   */\n      dup7\n        /* \"#utility.yul\":10819:10841   */\n      add\n        /* \"#utility.yul\":10801:10851   */\n      tag_566\n      jump\t// in\n    tag_751:\n        /* \"#utility.yul\":10791:10851   */\n      swap2\n      pop\n        /* \"#utility.yul\":10746:10861   */\n      pop\n        /* \"#utility.yul\":10400:10868   */\n      swap3\n      pop\n      swap3\n      swap1\n      pop\n      jump\t// out\n        /* \"#utility.yul\":10874:10992   */\n    tag_567:\n        /* \"#utility.yul\":10961:10985   */\n      tag_753\n        /* \"#utility.yul\":10979:10984   */\n      dup2\n        /* \"#utility.yul\":10961:10985   */\n      tag_545\n      jump\t// in\n    tag_753:\n        /* \"#utility.yul\":10956:10959   */\n      dup3\n        /* \"#utility.yul\":10949:10986   */\n      mstore\n        /* \"#utility.yul\":10874:10992   */\n      pop\n      pop\n      jump\t// out\n        /* \"#utility.yul\":10998:11220   */\n    tag_132:\n        /* \"#utility.yul\":11091:11095   */\n      0x00\n        /* \"#utility.yul\":11129:11131   */\n      0x20\n        /* \"#utility.yul\":11118:11127   */\n      dup3\n        /* \"#utility.yul\":11114:11132   */\n      add\n        /* \"#utility.yul\":11106:11132   */\n      swap1\n      pop\n        /* \"#utility.yul\":11142:11213   */\n      tag_755\n        /* \"#utility.yul\":11210:11211   */\n      0x00\n        /* \"#utility.yul\":11199:11208   */\n      dup4\n        /* \"#utility.yul\":11195:11212   */\n      add\n        /* \"#utility.yul\":11186:11192   */\n      dup5\n        /* \"#utility.yul\":11142:11213   */\n      tag_567\n      jump\t// in\n    tag_755:\n        /* \"#utility.yul\":10998:11220   */\n      swap3\n      swap2\n      pop\n      pop\n      jump\t// out\n        /* \"#utility.yul\":11226:11991   */\n    tag_172:\n        /* \"#utility.yul\":11312:11318   */\n      0x00\n        /* \"#utility.yul\":11320:11326   */\n      dup1\n        /* \"#utility.yul\":11328:11334   */\n      0x00\n        /* \"#utility.yul\":11336:11342   */\n      dup1\n        /* \"#utility.yul\":11385:11388   */\n      0x80\n        /* \"#utility.yul\":11373:11382   */\n      dup6\n        /* \"#utility.yul\":11364:11371   */\n      dup8\n        /* \"#utility.yul\":11360:11383   */\n      sub\n        /* \"#utility.yul\":11356:11389   */\n      slt\n        /* \"#utility.yul\":11353:11473   */\n      iszero\n      tag_757\n      jumpi\n        /* \"#utility.yul\":11392:11471   */\n      tag_758\n      tag_542\n      jump\t// in\n    tag_758:\n        /* \"#utility.yul\":11353:11473   */\n    tag_757:\n        /* \"#utility.yul\":11512:11513   */\n      0x00\n        /* \"#utility.yul\":11537:11590   */\n      tag_759\n        /* \"#utility.yul\":11582:11589   */\n      dup8\n        /* \"#utility.yul\":11573:11579   */\n      dup3\n        /* \"#utility.yul\":11562:11571   */\n      dup9\n        /* \"#utility.yul\":11558:11580   */\n      add\n        /* \"#utility.yul\":11537:11590   */\n      tag_550\n      jump\t// in\n    tag_759:\n        /* \"#utility.yul\":11527:11590   */\n      swap5\n      pop\n        /* \"#utility.yul\":11483:11600   */\n      pop\n        /* \"#utility.yul\":11639:11641   */\n      0x20\n        /* \"#utility.yul\":11665:11718   */\n      tag_760\n        /* \"#utility.yul\":11710:11717   */\n      dup8\n        /* \"#utility.yul\":11701:11707   */\n      dup3\n        /* \"#utility.yul\":11690:11699   */\n      dup9\n        /* \"#utility.yul\":11686:11708   */\n      add\n        /* \"#utility.yul\":11665:11718   */\n      tag_550\n      jump\t// in\n    tag_760:\n        /* \"#utility.yul\":11655:11718   */\n      swap4\n      pop\n        /* \"#utility.yul\":11610:11728   */\n      pop\n        /* \"#utility.yul\":11767:11769   */\n      0x40\n        /* \"#utility.yul\":11793:11846   */\n      tag_761\n        /* \"#utility.yul\":11838:11845   */\n      dup8\n        /* \"#utility.yul\":11829:11835   */\n      dup3\n        /* \"#utility.yul\":11818:11827   */\n      dup9\n        /* \"#utility.yul\":11814:11836   */\n      add\n        /* \"#utility.yul\":11793:11846   */\n      tag_550\n      jump\t// in\n    tag_761:\n        /* \"#utility.yul\":11783:11846   */\n      swap3\n      pop\n        /* \"#utility.yul\":11738:11856   */\n      pop\n        /* \"#utility.yul\":11895:11897   */\n      0x60\n        /* \"#utility.yul\":11921:11974   */\n      tag_762\n        /* \"#utility.yul\":11966:11973   */\n      dup8\n        /* \"#utility.yul\":11957:11963   */\n      dup3\n        /* \"#utility.yul\":11946:11955   */\n      dup9\n        /* \"#utility.yul\":11942:11964   */\n      add\n        /* \"#utility.yul\":11921:11974   */\n      tag_550\n      jump\t// in\n    tag_762:\n        /* \"#utility.yul\":11911:11974   */\n      swap2\n      pop\n        /* \"#utility.yul\":11866:11984   */\n      pop\n        /* \"#utility.yul\":11226:11991   */\n      swap3\n      swap6\n      swap2\n      swap5\n      pop\n      swap3\n      pop\n      jump\t// out\n        /* \"#utility.yul\":11997:12471   */\n    tag_182:\n        /* \"#utility.yul\":12065:12071   */\n      0x00\n        /* \"#utility.yul\":12073:12079   */\n      dup1\n        /* \"#utility.yul\":12122:12124   */\n      0x40\n        /* \"#utility.yul\":12110:12119   */\n      dup4\n        /* \"#utility.yul\":12101:12108   */\n      dup6\n        /* \"#utility.yul\":12097:12120   */\n      sub\n        /* \"#utility.yul\":12093:12125   */\n      slt\n        /* \"#utility.yul\":12090:12209   */\n      iszero\n      tag_764\n      jumpi\n        /* \"#utility.yul\":12128:12207   */\n      tag_765\n      tag_542\n      jump\t// in\n    tag_765:\n        /* \"#utility.yul\":12090:12209   */\n    tag_764:\n        /* \"#utility.yul\":12248:12249   */\n      0x00\n        /* \"#utility.yul\":12273:12326   */\n      tag_766\n        /* \"#utility.yul\":12318:12325   */\n      dup6\n        /* \"#utility.yul\":12309:12315   */\n      dup3\n        /* \"#utility.yul\":12298:12307   */\n      dup7\n        /* \"#utility.yul\":12294:12316   */\n      add\n        /* \"#utility.yul\":12273:12326   */\n      tag_547\n      jump\t// in\n    tag_766:\n        /* \"#utility.yul\":12263:12326   */\n      swap3\n      pop\n        /* \"#utility.yul\":12219:12336   */\n      pop\n        /* \"#utility.yul\":12375:12377   */\n      0x20\n        /* \"#utility.yul\":12401:12454   */\n      tag_767\n        /* \"#utility.yul\":12446:12453   */\n      dup6\n        /* \"#utility.yul\":12437:12443   */\n      dup3\n        /* \"#utility.yul\":12426:12435   */\n      dup7\n        /* \"#utility.yul\":12422:12444   */\n      add\n        /* \"#utility.yul\":12401:12454   */\n      tag_547\n      jump\t// in\n    tag_767:\n        /* \"#utility.yul\":12391:12454   */\n      swap2\n      pop\n        /* \"#utility.yul\":12346:12464   */\n      pop\n        /* \"#utility.yul\":11997:12471   */\n      swap3\n      pop\n      swap3\n      swap1\n      pop\n      jump\t// out\n        /* \"#utility.yul\":12477:12657   */\n    tag_568:\n        /* \"#utility.yul\":12525:12602   */\n      0x4e487b7100000000000000000000000000000000000000000000000000000000\n        /* \"#utility.yul\":12522:12523   */\n      0x00\n        /* \"#utility.yul\":12515:12603   */\n      mstore\n        /* \"#utility.yul\":12622:12626   */\n      0x22\n        /* \"#utility.yul\":12619:12620   */\n      0x04\n        /* \"#utility.yul\":12612:12627   */\n      mstore\n        /* \"#utility.yul\":12646:12650   */\n      0x24\n        /* \"#utility.yul\":12643:12644   */\n      0x00\n        /* \"#utility.yul\":12636:12651   */\n      revert\n        /* \"#utility.yul\":12663:12983   */\n    tag_203:\n        /* \"#utility.yul\":12707:12713   */\n      0x00\n        /* \"#utility.yul\":12744:12745   */\n      0x02\n        /* \"#utility.yul\":12738:12742   */\n      dup3\n        /* \"#utility.yul\":12734:12746   */\n      div\n        /* \"#utility.yul\":12724:12746   */\n      swap1\n      pop\n        /* \"#utility.yul\":12791:12792   */\n      0x01\n        /* \"#utility.yul\":12785:12789   */\n      dup3\n        /* \"#utility.yul\":12781:12793   */\n      and\n        /* \"#utility.yul\":12812:12830   */\n      dup1\n        /* \"#utility.yul\":12802:12883   */\n      tag_770\n      jumpi\n        /* \"#utility.yul\":12868:12872   */\n      0x7f\n        /* \"#utility.yul\":12860:12866   */\n      dup3\n        /* \"#utility.yul\":12856:12873   */\n      and\n        /* \"#utility.yul\":12846:12873   */\n      swap2\n      pop\n        /* \"#utility.yul\":12802:12883   */\n    tag_770:\n        /* \"#utility.yul\":12930:12932   */\n      0x20\n        /* \"#utility.yul\":12922:12928   */\n      dup3\n        /* \"#utility.yul\":12919:12933   */\n      lt\n        /* \"#utility.yul\":12899:12917   */\n      dup2\n        /* \"#utility.yul\":12896:12934   */\n      eq\n        /* \"#utility.yul\":12893:12977   */\n      iszero\n      tag_771\n      jumpi\n        /* \"#utility.yul\":12949:12967   */\n      tag_772\n      tag_568\n      jump\t// in\n    tag_772:\n        /* \"#utility.yul\":12893:12977   */\n    tag_771:\n        /* \"#utility.yul\":12714:12983   */\n      pop\n        /* \"#utility.yul\":12663:12983   */\n      swap2\n      swap1\n      pop\n      jump\t// out\n        /* \"#utility.yul\":12989:13222   */\n    tag_569:\n        /* \"#utility.yul\":13129:13163   */\n      0x496e697469616c697a61626c653a20636f6e747261637420697320616c726561\n        /* \"#utility.yul\":13125:13126   */\n      0x00\n        /* \"#utility.yul\":13117:13123   */\n      dup3\n        /* \"#utility.yul\":13113:13127   */\n      add\n        /* \"#utility.yul\":13106:13164   */\n      mstore\n        /* \"#utility.yul\":13198:13214   */\n      0x647920696e697469616c697a6564000000000000000000000000000000000000\n        /* \"#utility.yul\":13193:13195   */\n      0x20\n        /* \"#utility.yul\":13185:13191   */\n      dup3\n        /* \"#utility.yul\":13181:13196   */\n      add\n        /* \"#utility.yul\":13174:13215   */\n      mstore\n        /* \"#utility.yul\":12989:13222   */\n      pop\n      jump\t// out\n        /* \"#utility.yul\":13228:13594   */\n    tag_570:\n        /* \"#utility.yul\":13370:13373   */\n      0x00\n        /* \"#utility.yul\":13391:13458   */\n      tag_775\n        /* \"#utility.yul\":13455:13457   */\n      0x2e\n        /* \"#utility.yul\":13450:13453   */\n      dup4\n        /* \"#utility.yul\":13391:13458   */\n      tag_537\n      jump\t// in\n    tag_775:\n        /* \"#utility.yul\":13384:13458   */\n      swap2\n      pop\n        /* \"#utility.yul\":13467:13560   */\n      tag_776\n        /* \"#utility.yul\":13556:13559   */\n      dup3\n        /* \"#utility.yul\":13467:13560   */\n      tag_569\n      jump\t// in\n    tag_776:\n        /* \"#utility.yul\":13585:13587   */\n      0x40\n        /* \"#utility.yul\":13580:13583   */\n      dup3\n        /* \"#utility.yul\":13576:13588   */\n      add\n        /* \"#utility.yul\":13569:13588   */\n      swap1\n      pop\n        /* \"#utility.yul\":13228:13594   */\n      swap2\n      swap1\n      pop\n      jump\t// out\n        /* \"#utility.yul\":13600:14019   */\n    tag_221:\n        /* \"#utility.yul\":13766:13770   */\n      0x00\n        /* \"#utility.yul\":13804:13806   */\n      0x20\n        /* \"#utility.yul\":13793:13802   */\n      dup3\n        /* \"#utility.yul\":13789:13807   */\n      add\n        /* \"#utility.yul\":13781:13807   */\n      swap1\n      pop\n        /* \"#utility.yul\":13853:13862   */\n      dup2\n        /* \"#utility.yul\":13847:13851   */\n      dup2\n        /* \"#utility.yul\":13843:13863   */\n      sub\n        /* \"#utility.yul\":13839:13840   */\n      0x00\n        /* \"#utility.yul\":13828:13837   */\n      dup4\n        /* \"#utility.yul\":13824:13841   */\n      add\n        /* \"#utility.yul\":13817:13864   */\n      mstore\n        /* \"#utility.yul\":13881:14012   */\n      tag_778\n        /* \"#utility.yul\":14007:14011   */\n      dup2\n        /* \"#utility.yul\":13881:14012   */\n      tag_570\n      jump\t// in\n    tag_778:\n        /* \"#utility.yul\":13873:14012   */\n      swap1\n      pop\n        /* \"#utility.yul\":13600:14019   */\n      swap2\n      swap1\n      pop\n      jump\t// out\n        /* \"#utility.yul\":14025:14110   */\n    tag_571:\n        /* \"#utility.yul\":14070:14077   */\n      0x00\n        /* \"#utility.yul\":14099:14104   */\n      dup2\n        /* \"#utility.yul\":14088:14104   */\n      swap1\n      pop\n        /* \"#utility.yul\":14025:14110   */\n      swap2\n      swap1\n      pop\n      jump\t// out\n        /* \"#utility.yul\":14116:14176   */\n    tag_572:\n        /* \"#utility.yul\":14144:14147   */\n      0x00\n        /* \"#utility.yul\":14165:14170   */\n      dup2\n        /* \"#utility.yul\":14158:14170   */\n      swap1\n      pop\n        /* \"#utility.yul\":14116:14176   */\n      swap2\n      swap1\n      pop\n      jump\t// out\n        /* \"#utility.yul\":14182:14336   */\n    tag_573:\n        /* \"#utility.yul\":14238:14247   */\n      0x00\n        /* \"#utility.yul\":14271:14330   */\n      tag_782\n        /* \"#utility.yul\":14287:14329   */\n      tag_783\n        /* \"#utility.yul\":14296:14328   */\n      tag_784\n        /* \"#utility.yul\":14322:14327   */\n      dup5\n        /* \"#utility.yul\":14296:14328   */\n      tag_571\n      jump\t// in\n    tag_784:\n        /* \"#utility.yul\":14287:14329   */\n      tag_572\n      jump\t// in\n    tag_783:\n        /* \"#utility.yul\":14271:14330   */\n      tag_563\n      jump\t// in\n    tag_782:\n        /* \"#utility.yul\":14258:14330   */\n      swap1\n      pop\n        /* \"#utility.yul\":14182:14336   */\n      swap2\n      swap1\n      pop\n      jump\t// out\n        /* \"#utility.yul\":14342:14485   */\n    tag_574:\n        /* \"#utility.yul\":14435:14478   */\n      tag_786\n        /* \"#utility.yul\":14472:14477   */\n      dup2\n        /* \"#utility.yul\":14435:14478   */\n      tag_573\n      jump\t// in\n    tag_786:\n        /* \"#utility.yul\":14430:14433   */\n      dup3\n        /* \"#utility.yul\":14423:14479   */\n      mstore\n        /* \"#utility.yul\":14342:14485   */\n      pop\n      pop\n      jump\t// out\n        /* \"#utility.yul\":14491:14725   */\n    tag_228:\n        /* \"#utility.yul\":14590:14594   */\n      0x00\n        /* \"#utility.yul\":14628:14630   */\n      0x20\n        /* \"#utility.yul\":14617:14626   */\n      dup3\n        /* \"#utility.yul\":14613:14631   */\n      add\n        /* \"#utility.yul\":14605:14631   */\n      swap1\n      pop\n        /* \"#utility.yul\":14641:14718   */\n      tag_788\n        /* \"#utility.yul\":14715:14716   */\n      0x00\n        /* \"#utility.yul\":14704:14713   */\n      dup4\n        /* \"#utility.yul\":14700:14717   */\n      add\n        /* \"#utility.yul\":14691:14697   */\n      dup5\n        /* \"#utility.yul\":14641:14718   */\n      tag_574\n      jump\t// in\n    tag_788:\n        /* \"#utility.yul\":14491:14725   */\n      swap3\n      swap2\n      pop\n      pop\n      jump\t// out\n        /* \"#utility.yul\":14731:14965   */\n    tag_575:\n        /* \"#utility.yul\":14871:14905   */\n      0x5845766d6f732045524332303a207472616e7366657220616d6f756e74206578\n        /* \"#utility.yul\":14867:14868   */\n      0x00\n        /* \"#utility.yul\":14859:14865   */\n      dup3\n        /* \"#utility.yul\":14855:14869   */\n      add\n        /* \"#utility.yul\":14848:14906   */\n      mstore\n        /* \"#utility.yul\":14940:14957   */\n      0x636565647320616c6c6f77616e63650000000000000000000000000000000000\n        /* \"#utility.yul\":14935:14937   */\n      0x20\n        /* \"#utility.yul\":14927:14933   */\n      dup3\n        /* \"#utility.yul\":14923:14938   */\n      add\n        /* \"#utility.yul\":14916:14958   */\n      mstore\n        /* \"#utility.yul\":14731:14965   */\n      pop\n      jump\t// out\n        /* \"#utility.yul\":14971:15337   */\n    tag_576:\n        /* \"#utility.yul\":15113:15116   */\n      0x00\n        /* \"#utility.yul\":15134:15201   */\n      tag_791\n        /* \"#utility.yul\":15198:15200   */\n      0x2f\n        /* \"#utility.yul\":15193:15196   */\n      dup4\n        /* \"#utility.yul\":15134:15201   */\n      tag_537\n      jump\t// in\n    tag_791:\n        /* \"#utility.yul\":15127:15201   */\n      swap2\n      pop\n        /* \"#utility.yul\":15210:15303   */\n      tag_792\n        /* \"#utility.yul\":15299:15302   */\n      dup3\n        /* \"#utility.yul\":15210:15303   */\n      tag_575\n      jump\t// in\n    tag_792:\n        /* \"#utility.yul\":15328:15330   */\n      0x40\n        /* \"#utility.yul\":15323:15326   */\n      dup3\n        /* \"#utility.yul\":15319:15331   */\n      add\n        /* \"#utility.yul\":15312:15331   */\n      swap1\n      pop\n        /* \"#utility.yul\":14971:15337   */\n      swap2\n      swap1\n      pop\n      jump\t// out\n        /* \"#utility.yul\":15343:15762   */\n    tag_237:\n        /* \"#utility.yul\":15509:15513   */\n      0x00\n        /* \"#utility.yul\":15547:15549   */\n      0x20\n        /* \"#utility.yul\":15536:15545   */\n      dup3\n        /* \"#utility.yul\":15532:15550   */\n      add\n        /* \"#utility.yul\":15524:15550   */\n      swap1\n      pop\n        /* \"#utility.yul\":15596:15605   */\n      dup2\n        /* \"#utility.yul\":15590:15594   */\n      dup2\n        /* \"#utility.yul\":15586:15606   */\n      sub\n        /* \"#utility.yul\":15582:15583   */\n      0x00\n        /* \"#utility.yul\":15571:15580   */\n      dup4\n        /* \"#utility.yul\":15567:15584   */\n      add\n        /* \"#utility.yul\":15560:15607   */\n      mstore\n        /* \"#utility.yul\":15624:15755   */\n      tag_794\n        /* \"#utility.yul\":15750:15754   */\n      dup2\n        /* \"#utility.yul\":15624:15755   */\n      tag_576\n      jump\t// in\n    tag_794:\n        /* \"#utility.yul\":15616:15755   */\n      swap1\n      pop\n        /* \"#utility.yul\":15343:15762   */\n      swap2\n      swap1\n      pop\n      jump\t// out\n        /* \"#utility.yul\":15768:15948   */\n    tag_577:\n        /* \"#utility.yul\":15816:15893   */\n      0x4e487b7100000000000000000000000000000000000000000000000000000000\n        /* \"#utility.yul\":15813:15814   */\n      0x00\n        /* \"#utility.yul\":15806:15894   */\n      mstore\n        /* \"#utility.yul\":15913:15917   */\n      0x11\n        /* \"#utility.yul\":15910:15911   */\n      0x04\n        /* \"#utility.yul\":15903:15918   */\n      mstore\n        /* \"#utility.yul\":15937:15941   */\n      0x24\n        /* \"#utility.yul\":15934:15935   */\n      0x00\n        /* \"#utility.yul\":15927:15942   */\n      revert\n        /* \"#utility.yul\":15954:16259   */\n    tag_246:\n        /* \"#utility.yul\":15994:15997   */\n      0x00\n        /* \"#utility.yul\":16013:16033   */\n      tag_797\n        /* \"#utility.yul\":16031:16032   */\n      dup3\n        /* \"#utility.yul\":16013:16033   */\n      tag_548\n      jump\t// in\n    tag_797:\n        /* \"#utility.yul\":16008:16033   */\n      swap2\n      pop\n        /* \"#utility.yul\":16047:16067   */\n      tag_798\n        /* \"#utility.yul\":16065:16066   */\n      dup4\n        /* \"#utility.yul\":16047:16067   */\n      tag_548\n      jump\t// in\n    tag_798:\n        /* \"#utility.yul\":16042:16067   */\n      swap3\n      pop\n        /* \"#utility.yul\":16201:16202   */\n      dup3\n        /* \"#utility.yul\":16133:16199   */\n      0xffffffffffffffffffffffffffffffffffffffffffffffffffffffffffffffff\n        /* \"#utility.yul\":16129:16203   */\n      sub\n        /* \"#utility.yul\":16126:16127   */\n      dup3\n        /* \"#utility.yul\":16123:16204   */\n      gt\n        /* \"#utility.yul\":16120:16227   */\n      iszero\n      tag_799\n      jumpi\n        /* \"#utility.yul\":16207:16225   */\n      tag_800\n      tag_577\n      jump\t// in\n    tag_800:\n        /* \"#utility.yul\":16120:16227   */\n    tag_799:\n        /* \"#utility.yul\":16251:16252   */\n      dup3\n        /* \"#utility.yul\":16248:16249   */\n      dup3\n        /* \"#utility.yul\":16244:16253   */\n      add\n        /* \"#utility.yul\":16237:16253   */\n      swap1\n      pop\n        /* \"#utility.yul\":15954:16259   */\n      swap3\n      swap2\n      pop\n      pop\n      jump\t// out\n        /* \"#utility.yul\":16265:16495   */\n    tag_578:\n        /* \"#utility.yul\":16405:16439   */\n      0x76616c696461746552656465656d3a2072656465656d20656e74727920646f65\n        /* \"#utility.yul\":16401:16402   */\n      0x00\n        /* \"#utility.yul\":16393:16399   */\n      dup3\n        /* \"#utility.yul\":16389:16403   */\n      add\n        /* \"#utility.yul\":16382:16440   */\n      mstore\n        /* \"#utility.yul\":16474:16487   */\n      0x73206e6f74206578697374000000000000000000000000000000000000000000\n        /* \"#utility.yul\":16469:16471   */\n      0x20\n        /* \"#utility.yul\":16461:16467   */\n      dup3\n        /* \"#utility.yul\":16457:16472   */\n      add\n        /* \"#utility.yul\":16450:16488   */\n      mstore\n        /* \"#utility.yul\":16265:16495   */\n      pop\n      jump\t// out\n        /* \"#utility.yul\":16501:16867   */\n    tag_579:\n        /* \"#utility.yul\":16643:16646   */\n      0x00\n        /* \"#utility.yul\":16664:16731   */\n      tag_803\n        /* \"#utility.yul\":16728:16730   */\n      0x2b\n        /* \"#utility.yul\":16723:16726   */\n      dup4\n        /* \"#utility.yul\":16664:16731   */\n      tag_537\n      jump\t// in\n    tag_803:\n        /* \"#utility.yul\":16657:16731   */\n      swap2\n      pop\n        /* \"#utility.yul\":16740:16833   */\n      tag_804\n        /* \"#utility.yul\":16829:16832   */\n      dup3\n        /* \"#utility.yul\":16740:16833   */\n      tag_578\n      jump\t// in\n    tag_804:\n        /* \"#utility.yul\":16858:16860   */\n      0x40\n        /* \"#utility.yul\":16853:16856   */\n      dup3\n        /* \"#utility.yul\":16849:16861   */\n      add\n        /* \"#utility.yul\":16842:16861   */\n      swap1\n      pop\n        /* \"#utility.yul\":16501:16867   */\n      swap2\n      swap1\n      pop\n      jump\t// out\n        /* \"#utility.yul\":16873:17292   */\n    tag_255:\n        /* \"#utility.yul\":17039:17043   */\n      0x00\n        /* \"#utility.yul\":17077:17079   */\n      0x20\n        /* \"#utility.yul\":17066:17075   */\n      dup3\n        /* \"#utility.yul\":17062:17080   */\n      add\n        /* \"#utility.yul\":17054:17080   */\n      swap1\n      pop\n        /* \"#utility.yul\":17126:17135   */\n      dup2\n        /* \"#utility.yul\":17120:17124   */\n      dup2\n        /* \"#utility.yul\":17116:17136   */\n      sub\n        /* \"#utility.yul\":17112:17113   */\n      0x00\n        /* \"#utility.yul\":17101:17110   */\n      dup4\n        /* \"#utility.yul\":17097:17114   */\n      add\n        /* \"#utility.yul\":17090:17137   */\n      mstore\n        /* \"#utility.yul\":17154:17285   */\n      tag_806\n        /* \"#utility.yul\":17280:17284   */\n      dup2\n        /* \"#utility.yul\":17154:17285   */\n      tag_579\n      jump\t// in\n    tag_806:\n        /* \"#utility.yul\":17146:17285   */\n      swap1\n      pop\n        /* \"#utility.yul\":16873:17292   */\n      swap2\n      swap1\n      pop\n      jump\t// out\n        /* \"#utility.yul\":17298:17478   */\n    tag_259:\n        /* \"#utility.yul\":17346:17423   */\n      0x4e487b7100000000000000000000000000000000000000000000000000000000\n        /* \"#utility.yul\":17343:17344   */\n      0x00\n        /* \"#utility.yul\":17336:17424   */\n      mstore\n        /* \"#utility.yul\":17443:17447   */\n      0x32\n        /* \"#utility.yul\":17440:17441   */\n      0x04\n        /* \"#utility.yul\":17433:17448   */\n      mstore\n        /* \"#utility.yul\":17467:17471   */\n      0x24\n        /* \"#utility.yul\":17464:17465   */\n      0x00\n        /* \"#utility.yul\":17457:17472   */\n      revert\n        /* \"#utility.yul\":17484:17675   */\n    tag_262:\n        /* \"#utility.yul\":17524:17528   */\n      0x00\n        /* \"#utility.yul\":17544:17564   */\n      tag_809\n        /* \"#utility.yul\":17562:17563   */\n      dup3\n        /* \"#utility.yul\":17544:17564   */\n      tag_548\n      jump\t// in\n    tag_809:\n        /* \"#utility.yul\":17539:17564   */\n      swap2\n      pop\n        /* \"#utility.yul\":17578:17598   */\n      tag_810\n        /* \"#utility.yul\":17596:17597   */\n      dup4\n        /* \"#utility.yul\":17578:17598   */\n      tag_548\n      jump\t// in\n    tag_810:\n        /* \"#utility.yul\":17573:17598   */\n      swap3\n      pop\n        /* \"#utility.yul\":17617:17618   */\n      dup3\n        /* \"#utility.yul\":17614:17615   */\n      dup3\n        /* \"#utility.yul\":17611:17619   */\n      lt\n        /* \"#utility.yul\":17608:17642   */\n      iszero\n      tag_811\n      jumpi\n        /* \"#utility.yul\":17622:17640   */\n      tag_812\n      tag_577\n      jump\t// in\n    tag_812:\n        /* \"#utility.yul\":17608:17642   */\n    tag_811:\n        /* \"#utility.yul\":17667:17668   */\n      dup3\n        /* \"#utility.yul\":17664:17665   */\n      dup3\n        /* \"#utility.yul\":17660:17669   */\n      sub\n        /* \"#utility.yul\":17652:17669   */\n      swap1\n      pop\n        /* \"#utility.yul\":17484:17675   */\n      swap3\n      swap2\n      pop\n      pop\n      jump\t// out\n        /* \"#utility.yul\":17681:17903   */\n    tag_580:\n        /* \"#utility.yul\":17821:17855   */\n      0x72656465656d3a207845766d6f73416d6f756e742063616e6e6f74206265206e\n        /* \"#utility.yul\":17817:17818   */\n      0x00\n        /* \"#utility.yul\":17809:17815   */\n      dup3\n        /* \"#utility.yul\":17805:17819   */\n      add\n        /* \"#utility.yul\":17798:17856   */\n      mstore\n        /* \"#utility.yul\":17890:17895   */\n      0x756c6c0000000000000000000000000000000000000000000000000000000000\n        /* \"#utility.yul\":17885:17887   */\n      0x20\n        /* \"#utility.yul\":17877:17883   */\n      dup3\n        /* \"#utility.yul\":17873:17888   */\n      add\n        /* \"#utility.yul\":17866:17896   */\n      mstore\n        /* \"#utility.yul\":17681:17903   */\n      pop\n      jump\t// out\n        /* \"#utility.yul\":17909:18275   */\n    tag_581:\n        /* \"#utility.yul\":18051:18054   */\n      0x00\n        /* \"#utility.yul\":18072:18139   */\n      tag_815\n        /* \"#utility.yul\":18136:18138   */\n      0x23\n        /* \"#utility.yul\":18131:18134   */\n      dup4\n        /* \"#utility.yul\":18072:18139   */\n      tag_537\n      jump\t// in\n    tag_815:\n        /* \"#utility.yul\":18065:18139   */\n      swap2\n      pop\n        /* \"#utility.yul\":18148:18241   */\n      tag_816\n        /* \"#utility.yul\":18237:18240   */\n      dup3\n        /* \"#utility.yul\":18148:18241   */\n      tag_580\n      jump\t// in\n    tag_816:\n        /* \"#utility.yul\":18266:18268   */\n      0x40\n        /* \"#utility.yul\":18261:18264   */\n      dup3\n        /* \"#utility.yul\":18257:18269   */\n      add\n        /* \"#utility.yul\":18250:18269   */\n      swap1\n      pop\n        /* \"#utility.yul\":17909:18275   */\n      swap2\n      swap1\n      pop\n      jump\t// out\n        /* \"#utility.yul\":18281:18700   */\n    tag_281:\n        /* \"#utility.yul\":18447:18451   */\n      0x00\n        /* \"#utility.yul\":18485:18487   */\n      0x20\n        /* \"#utility.yul\":18474:18483   */\n      dup3\n        /* \"#utility.yul\":18470:18488   */\n      add\n        /* \"#utility.yul\":18462:18488   */\n      swap1\n      pop\n        /* \"#utility.yul\":18534:18543   */\n      dup2\n        /* \"#utility.yul\":18528:18532   */\n      dup2\n        /* \"#utility.yul\":18524:18544   */\n      sub\n        /* \"#utility.yul\":18520:18521   */\n      0x00\n        /* \"#utility.yul\":18509:18518   */\n      dup4\n        /* \"#utility.yul\":18505:18522   */\n      add\n        /* \"#utility.yul\":18498:18545   */\n      mstore\n        /* \"#utility.yul\":18562:18693   */\n      tag_818\n        /* \"#utility.yul\":18688:18692   */\n      dup2\n        /* \"#utility.yul\":18562:18693   */\n      tag_581\n      jump\t// in\n    tag_818:\n        /* \"#utility.yul\":18554:18693   */\n      swap1\n      pop\n        /* \"#utility.yul\":18281:18700   */\n      swap2\n      swap1\n      pop\n      jump\t// out\n        /* \"#utility.yul\":18706:18875   */\n    tag_582:\n        /* \"#utility.yul\":18846:18867   */\n      0x72656465656d3a20436c617373206572726f7200000000000000000000000000\n        /* \"#utility.yul\":18842:18843   */\n      0x00\n        /* \"#utility.yul\":18834:18840   */\n      dup3\n        /* \"#utility.yul\":18830:18844   */\n      add\n        /* \"#utility.yul\":18823:18868   */\n      mstore\n        /* \"#utility.yul\":18706:18875   */\n      pop\n      jump\t// out\n        /* \"#utility.yul\":18881:19247   */\n    tag_583:\n        /* \"#utility.yul\":19023:19026   */\n      0x00\n        /* \"#utility.yul\":19044:19111   */\n      tag_821\n        /* \"#utility.yul\":19108:19110   */\n      0x13\n        /* \"#utility.yul\":19103:19106   */\n      dup4\n        /* \"#utility.yul\":19044:19111   */\n      tag_537\n      jump\t// in\n    tag_821:\n        /* \"#utility.yul\":19037:19111   */\n      swap2\n      pop\n        /* \"#utility.yul\":19120:19213   */\n      tag_822\n        /* \"#utility.yul\":19209:19212   */\n      dup3\n        /* \"#utility.yul\":19120:19213   */\n      tag_582\n      jump\t// in\n    tag_822:\n        /* \"#utility.yul\":19238:19240   */\n      0x20\n        /* \"#utility.yul\":19233:19236   */\n      dup3\n        /* \"#utility.yul\":19229:19241   */\n      add\n        /* \"#utility.yul\":19222:19241   */\n      swap1\n      pop\n        /* \"#utility.yul\":18881:19247   */\n      swap2\n      swap1\n      pop\n      jump\t// out\n        /* \"#utility.yul\":19253:19672   */\n    tag_286:\n        /* \"#utility.yul\":19419:19423   */\n      0x00\n        /* \"#utility.yul\":19457:19459   */\n      0x20\n        /* \"#utility.yul\":19446:19455   */\n      dup3\n        /* \"#utility.yul\":19442:19460   */\n      add\n        /* \"#utility.yul\":19434:19460   */\n      swap1\n      pop\n        /* \"#utility.yul\":19506:19515   */\n      dup2\n        /* \"#utility.yul\":19500:19504   */\n      dup2\n        /* \"#utility.yul\":19496:19516   */\n      sub\n        /* \"#utility.yul\":19492:19493   */\n      0x00\n        /* \"#utility.yul\":19481:19490   */\n      dup4\n        /* \"#utility.yul\":19477:19494   */\n      add\n        /* \"#utility.yul\":19470:19517   */\n      mstore\n        /* \"#utility.yul\":19534:19665   */\n      tag_824\n        /* \"#utility.yul\":19660:19664   */\n      dup2\n        /* \"#utility.yul\":19534:19665   */\n      tag_583\n      jump\t// in\n    tag_824:\n        /* \"#utility.yul\":19526:19665   */\n      swap1\n      pop\n        /* \"#utility.yul\":19253:19672   */\n      swap2\n      swap1\n      pop\n      jump\t// out\n        /* \"#utility.yul\":19678:20120   */\n    tag_292:\n        /* \"#utility.yul\":19827:19831   */\n      0x00\n        /* \"#utility.yul\":19865:19867   */\n      0x60\n        /* \"#utility.yul\":19854:19863   */\n      dup3\n        /* \"#utility.yul\":19850:19868   */\n      add\n        /* \"#utility.yul\":19842:19868   */\n      swap1\n      pop\n        /* \"#utility.yul\":19878:19949   */\n      tag_826\n        /* \"#utility.yul\":19946:19947   */\n      0x00\n        /* \"#utility.yul\":19935:19944   */\n      dup4\n        /* \"#utility.yul\":19931:19948   */\n      add\n        /* \"#utility.yul\":19922:19928   */\n      dup7\n        /* \"#utility.yul\":19878:19949   */\n      tag_562\n      jump\t// in\n    tag_826:\n        /* \"#utility.yul\":19959:20031   */\n      tag_827\n        /* \"#utility.yul\":20027:20029   */\n      0x20\n        /* \"#utility.yul\":20016:20025   */\n      dup4\n        /* \"#utility.yul\":20012:20030   */\n      add\n        /* \"#utility.yul\":20003:20009   */\n      dup6\n        /* \"#utility.yul\":19959:20031   */\n      tag_562\n      jump\t// in\n    tag_827:\n        /* \"#utility.yul\":20041:20113   */\n      tag_828\n        /* \"#utility.yul\":20109:20111   */\n      0x40\n        /* \"#utility.yul\":20098:20107   */\n      dup4\n        /* \"#utility.yul\":20094:20112   */\n      add\n        /* \"#utility.yul\":20085:20091   */\n      dup5\n        /* \"#utility.yul\":20041:20113   */\n      tag_562\n      jump\t// in\n    tag_828:\n        /* \"#utility.yul\":19678:20120   */\n      swap5\n      swap4\n      pop\n      pop\n      pop\n      pop\n      jump\t// out\n        /* \"#utility.yul\":20126:20373   */\n    tag_584:\n        /* \"#utility.yul\":20266:20300   */\n      0x7570646174655472616e7366657257686974656c6973743a2043616e6e6f7420\n        /* \"#utility.yul\":20262:20263   */\n      0x00\n        /* \"#utility.yul\":20254:20260   */\n      dup3\n        /* \"#utility.yul\":20250:20264   */\n      add\n        /* \"#utility.yul\":20243:20301   */\n      mstore\n        /* \"#utility.yul\":20335:20365   */\n      0x72656d6f7665205845766d6f732066726f6d2077686974656c69737400000000\n        /* \"#utility.yul\":20330:20332   */\n      0x20\n        /* \"#utility.yul\":20322:20328   */\n      dup3\n        /* \"#utility.yul\":20318:20333   */\n      add\n        /* \"#utility.yul\":20311:20366   */\n      mstore\n        /* \"#utility.yul\":20126:20373   */\n      pop\n      jump\t// out\n        /* \"#utility.yul\":20379:20745   */\n    tag_585:\n        /* \"#utility.yul\":20521:20524   */\n      0x00\n        /* \"#utility.yul\":20542:20609   */\n      tag_831\n        /* \"#utility.yul\":20606:20608   */\n      0x3c\n        /* \"#utility.yul\":20601:20604   */\n      dup4\n        /* \"#utility.yul\":20542:20609   */\n      tag_537\n      jump\t// in\n    tag_831:\n        /* \"#utility.yul\":20535:20609   */\n      swap2\n      pop\n        /* \"#utility.yul\":20618:20711   */\n      tag_832\n        /* \"#utility.yul\":20707:20710   */\n      dup3\n        /* \"#utility.yul\":20618:20711   */\n      tag_584\n      jump\t// in\n    tag_832:\n        /* \"#utility.yul\":20736:20738   */\n      0x40\n        /* \"#utility.yul\":20731:20734   */\n      dup3\n        /* \"#utility.yul\":20727:20739   */\n      add\n        /* \"#utility.yul\":20720:20739   */\n      swap1\n      pop\n        /* \"#utility.yul\":20379:20745   */\n      swap2\n      swap1\n      pop\n      jump\t// out\n        /* \"#utility.yul\":20751:21170   */\n    tag_306:\n        /* \"#utility.yul\":20917:20921   */\n      0x00\n        /* \"#utility.yul\":20955:20957   */\n      0x20\n        /* \"#utility.yul\":20944:20953   */\n      dup3\n        /* \"#utility.yul\":20940:20958   */\n      add\n        /* \"#utility.yul\":20932:20958   */\n      swap1\n      pop\n        /* \"#utility.yul\":21004:21013   */\n      dup2\n        /* \"#utility.yul\":20998:21002   */\n      dup2\n        /* \"#utility.yul\":20994:21014   */\n      sub\n        /* \"#utility.yul\":20990:20991   */\n      0x00\n        /* \"#utility.yul\":20979:20988   */\n      dup4\n        /* \"#utility.yul\":20975:20992   */\n      add\n        /* \"#utility.yul\":20968:21015   */\n      mstore\n        /* \"#utility.yul\":21032:21163   */\n      tag_834\n        /* \"#utility.yul\":21158:21162   */\n      dup2\n        /* \"#utility.yul\":21032:21163   */\n      tag_585\n      jump\t// in\n    tag_834:\n        /* \"#utility.yul\":21024:21163   */\n      swap1\n      pop\n        /* \"#utility.yul\":20751:21170   */\n      swap2\n      swap1\n      pop\n      jump\t// out\n        /* \"#utility.yul\":21176:21496   */\n    tag_310:\n        /* \"#utility.yul\":21291:21295   */\n      0x00\n        /* \"#utility.yul\":21329:21331   */\n      0x40\n        /* \"#utility.yul\":21318:21327   */\n      dup3\n        /* \"#utility.yul\":21314:21332   */\n      add\n        /* \"#utility.yul\":21306:21332   */\n      swap1\n      pop\n        /* \"#utility.yul\":21342:21413   */\n      tag_836\n        /* \"#utility.yul\":21410:21411   */\n      0x00\n        /* \"#utility.yul\":21399:21408   */\n      dup4\n        /* \"#utility.yul\":21395:21412   */\n      add\n        /* \"#utility.yul\":21386:21392   */\n      dup6\n        /* \"#utility.yul\":21342:21413   */\n      tag_567\n      jump\t// in\n    tag_836:\n        /* \"#utility.yul\":21423:21489   */\n      tag_837\n        /* \"#utility.yul\":21485:21487   */\n      0x20\n        /* \"#utility.yul\":21474:21483   */\n      dup4\n        /* \"#utility.yul\":21470:21488   */\n      add\n        /* \"#utility.yul\":21461:21467   */\n      dup5\n        /* \"#utility.yul\":21423:21489   */\n      tag_552\n      jump\t// in\n    tag_837:\n        /* \"#utility.yul\":21176:21496   */\n      swap4\n      swap3\n      pop\n      pop\n      pop\n      jump\t// out\n        /* \"#utility.yul\":21502:21733   */\n    tag_586:\n        /* \"#utility.yul\":21642:21676   */\n      0x5845766d6f732045524332303a2064656372656173656420616c6c6f77616e63\n        /* \"#utility.yul\":21638:21639   */\n      0x00\n        /* \"#utility.yul\":21630:21636   */\n      dup3\n        /* \"#utility.yul\":21626:21640   */\n      add\n        /* \"#utility.yul\":21619:21677   */\n      mstore\n        /* \"#utility.yul\":21711:21725   */\n      0x652062656c6f77207a65726f0000000000000000000000000000000000000000\n        /* \"#utility.yul\":21706:21708   */\n      0x20\n        /* \"#utility.yul\":21698:21704   */\n      dup3\n        /* \"#utility.yul\":21694:21709   */\n      add\n        /* \"#utility.yul\":21687:21726   */\n      mstore\n        /* \"#utility.yul\":21502:21733   */\n      pop\n      jump\t// out\n        /* \"#utility.yul\":21739:22105   */\n    tag_587:\n        /* \"#utility.yul\":21881:21884   */\n      0x00\n        /* \"#utility.yul\":21902:21969   */\n      tag_840\n        /* \"#utility.yul\":21966:21968   */\n      0x2c\n        /* \"#utility.yul\":21961:21964   */\n      dup4\n        /* \"#utility.yul\":21902:21969   */\n      tag_537\n      jump\t// in\n    tag_840:\n        /* \"#utility.yul\":21895:21969   */\n      swap2\n      pop\n        /* \"#utility.yul\":21978:22071   */\n      tag_841\n        /* \"#utility.yul\":22067:22070   */\n      dup3\n        /* \"#utility.yul\":21978:22071   */\n      tag_586\n      jump\t// in\n    tag_841:\n        /* \"#utility.yul\":22096:22098   */\n      0x40\n        /* \"#utility.yul\":22091:22094   */\n      dup3\n        /* \"#utility.yul\":22087:22099   */\n      add\n        /* \"#utility.yul\":22080:22099   */\n      swap1\n      pop\n        /* \"#utility.yul\":21739:22105   */\n      swap2\n      swap1\n      pop\n      jump\t// out\n        /* \"#utility.yul\":22111:22530   */\n    tag_328:\n        /* \"#utility.yul\":22277:22281   */\n      0x00\n        /* \"#utility.yul\":22315:22317   */\n      0x20\n        /* \"#utility.yul\":22304:22313   */\n      dup3\n        /* \"#utility.yul\":22300:22318   */\n      add\n        /* \"#utility.yul\":22292:22318   */\n      swap1\n      pop\n        /* \"#utility.yul\":22364:22373   */\n      dup2\n        /* \"#utility.yul\":22358:22362   */\n      dup2\n        /* \"#utility.yul\":22354:22374   */\n      sub\n        /* \"#utility.yul\":22350:22351   */\n      0x00\n        /* \"#utility.yul\":22339:22348   */\n      dup4\n        /* \"#utility.yul\":22335:22352   */\n      add\n        /* \"#utility.yul\":22328:22375   */\n      mstore\n        /* \"#utility.yul\":22392:22523   */\n      tag_843\n        /* \"#utility.yul\":22518:22522   */\n      dup2\n        /* \"#utility.yul\":22392:22523   */\n      tag_587\n      jump\t// in\n    tag_843:\n        /* \"#utility.yul\":22384:22523   */\n      swap1\n      pop\n        /* \"#utility.yul\":22111:22530   */\n      swap2\n      swap1\n      pop\n      jump\t// out\n        /* \"#utility.yul\":22536:22773   */\n    tag_588:\n        /* \"#utility.yul\":22676:22710   */\n      0x66696e616c697a6552656465656d3a2076657374696e67206475726174696f6e\n        /* \"#utility.yul\":22672:22673   */\n      0x00\n        /* \"#utility.yul\":22664:22670   */\n      dup3\n        /* \"#utility.yul\":22660:22674   */\n      add\n        /* \"#utility.yul\":22653:22711   */\n      mstore\n        /* \"#utility.yul\":22745:22765   */\n      0x20686173206e6f7420656e646564207965740000000000000000000000000000\n        /* \"#utility.yul\":22740:22742   */\n      0x20\n        /* \"#utility.yul\":22732:22738   */\n      dup3\n        /* \"#utility.yul\":22728:22743   */\n      add\n        /* \"#utility.yul\":22721:22766   */\n      mstore\n        /* \"#utility.yul\":22536:22773   */\n      pop\n      jump\t// out\n        /* \"#utility.yul\":22779:23145   */\n    tag_589:\n        /* \"#utility.yul\":22921:22924   */\n      0x00\n        /* \"#utility.yul\":22942:23009   */\n      tag_846\n        /* \"#utility.yul\":23006:23008   */\n      0x32\n        /* \"#utility.yul\":23001:23004   */\n      dup4\n        /* \"#utility.yul\":22942:23009   */\n      tag_537\n      jump\t// in\n    tag_846:\n        /* \"#utility.yul\":22935:23009   */\n      swap2\n      pop\n        /* \"#utility.yul\":23018:23111   */\n      tag_847\n        /* \"#utility.yul\":23107:23110   */\n      dup3\n        /* \"#utility.yul\":23018:23111   */\n      tag_588\n      jump\t// in\n    tag_847:\n        /* \"#utility.yul\":23136:23138   */\n      0x40\n        /* \"#utility.yul\":23131:23134   */\n      dup3\n        /* \"#utility.yul\":23127:23139   */\n      add\n        /* \"#utility.yul\":23120:23139   */\n      swap1\n      pop\n        /* \"#utility.yul\":22779:23145   */\n      swap2\n      swap1\n      pop\n      jump\t// out\n        /* \"#utility.yul\":23151:23570   */\n    tag_358:\n        /* \"#utility.yul\":23317:23321   */\n      0x00\n        /* \"#utility.yul\":23355:23357   */\n      0x20\n        /* \"#utility.yul\":23344:23353   */\n      dup3\n        /* \"#utility.yul\":23340:23358   */\n      add\n        /* \"#utility.yul\":23332:23358   */\n      swap1\n      pop\n        /* \"#utility.yul\":23404:23413   */\n      dup2\n        /* \"#utility.yul\":23398:23402   */\n      dup2\n        /* \"#utility.yul\":23394:23414   */\n      sub\n        /* \"#utility.yul\":23390:23391   */\n      0x00\n        /* \"#utility.yul\":23379:23388   */\n      dup4\n        /* \"#utility.yul\":23375:23392   */\n      add\n        /* \"#utility.yul\":23368:23415   */\n      mstore\n        /* \"#utility.yul\":23432:23563   */\n      tag_849\n        /* \"#utility.yul\":23558:23562   */\n      dup2\n        /* \"#utility.yul\":23432:23563   */\n      tag_589\n      jump\t// in\n    tag_849:\n        /* \"#utility.yul\":23424:23563   */\n      swap1\n      pop\n        /* \"#utility.yul\":23151:23570   */\n      swap2\n      swap1\n      pop\n      jump\t// out\n        /* \"#utility.yul\":23576:23803   */\n    tag_590:\n        /* \"#utility.yul\":23716:23750   */\n      0x75706461746552656465656d53657474696e67733a2077726f6e672072617469\n        /* \"#utility.yul\":23712:23713   */\n      0x00\n        /* \"#utility.yul\":23704:23710   */\n      dup3\n        /* \"#utility.yul\":23700:23714   */\n      add\n        /* \"#utility.yul\":23693:23751   */\n      mstore\n        /* \"#utility.yul\":23785:23795   */\n      0x6f2076616c756573000000000000000000000000000000000000000000000000\n        /* \"#utility.yul\":23780:23782   */\n      0x20\n        /* \"#utility.yul\":23772:23778   */\n      dup3\n        /* \"#utility.yul\":23768:23783   */\n      add\n        /* \"#utility.yul\":23761:23796   */\n      mstore\n        /* \"#utility.yul\":23576:23803   */\n      pop\n      jump\t// out\n        /* \"#utility.yul\":23809:24175   */\n    tag_591:\n        /* \"#utility.yul\":23951:23954   */\n      0x00\n        /* \"#utility.yul\":23972:24039   */\n      tag_852\n        /* \"#utility.yul\":24036:24038   */\n      0x28\n        /* \"#utility.yul\":24031:24034   */\n      dup4\n        /* \"#utility.yul\":23972:24039   */\n      tag_537\n      jump\t// in\n    tag_852:\n        /* \"#utility.yul\":23965:24039   */\n      swap2\n      pop\n        /* \"#utility.yul\":24048:24141   */\n      tag_853\n        /* \"#utility.yul\":24137:24140   */\n      dup3\n        /* \"#utility.yul\":24048:24141   */\n      tag_590\n      jump\t// in\n    tag_853:\n        /* \"#utility.yul\":24166:24168   */\n      0x40\n        /* \"#utility.yul\":24161:24164   */\n      dup3\n        /* \"#utility.yul\":24157:24169   */\n      add\n        /* \"#utility.yul\":24150:24169   */\n      swap1\n      pop\n        /* \"#utility.yul\":23809:24175   */\n      swap2\n      swap1\n      pop\n      jump\t// out\n        /* \"#utility.yul\":24181:24600   */\n    tag_369:\n        /* \"#utility.yul\":24347:24351   */\n      0x00\n        /* \"#utility.yul\":24385:24387   */\n      0x20\n        /* \"#utility.yul\":24374:24383   */\n      dup3\n        /* \"#utility.yul\":24370:24388   */\n      add\n        /* \"#utility.yul\":24362:24388   */\n      swap1\n      pop\n        /* \"#utility.yul\":24434:24443   */\n      dup2\n        /* \"#utility.yul\":24428:24432   */\n      dup2\n        /* \"#utility.yul\":24424:24444   */\n      sub\n        /* \"#utility.yul\":24420:24421   */\n      0x00\n        /* \"#utility.yul\":24409:24418   */\n      dup4\n        /* \"#utility.yul\":24405:24422   */\n      add\n        /* \"#utility.yul\":24398:24445   */\n      mstore\n        /* \"#utility.yul\":24462:24593   */\n      tag_855\n        /* \"#utility.yul\":24588:24592   */\n      dup2\n        /* \"#utility.yul\":24462:24593   */\n      tag_591\n      jump\t// in\n    tag_855:\n        /* \"#utility.yul\":24454:24593   */\n      swap1\n      pop\n        /* \"#utility.yul\":24181:24600   */\n      swap2\n      swap1\n      pop\n      jump\t// out\n        /* \"#utility.yul\":24606:24839   */\n    tag_592:\n        /* \"#utility.yul\":24746:24780   */\n      0x75706461746552656465656d53657474696e67733a2077726f6e67206d617844\n        /* \"#utility.yul\":24742:24743   */\n      0x00\n        /* \"#utility.yul\":24734:24740   */\n      dup3\n        /* \"#utility.yul\":24730:24744   */\n      add\n        /* \"#utility.yul\":24723:24781   */\n      mstore\n        /* \"#utility.yul\":24815:24831   */\n      0x75726174696f6e2076616c756573000000000000000000000000000000000000\n        /* \"#utility.yul\":24810:24812   */\n      0x20\n        /* \"#utility.yul\":24802:24808   */\n      dup3\n        /* \"#utility.yul\":24798:24813   */\n      add\n        /* \"#utility.yul\":24791:24832   */\n      mstore\n        /* \"#utility.yul\":24606:24839   */\n      pop\n      jump\t// out\n        /* \"#utility.yul\":24845:25211   */\n    tag_593:\n        /* \"#utility.yul\":24987:24990   */\n      0x00\n        /* \"#utility.yul\":25008:25075   */\n      tag_858\n        /* \"#utility.yul\":25072:25074   */\n      0x2e\n        /* \"#utility.yul\":25067:25070   */\n      dup4\n        /* \"#utility.yul\":25008:25075   */\n      tag_537\n      jump\t// in\n    tag_858:\n        /* \"#utility.yul\":25001:25075   */\n      swap2\n      pop\n        /* \"#utility.yul\":25084:25177   */\n      tag_859\n        /* \"#utility.yul\":25173:25176   */\n      dup3\n        /* \"#utility.yul\":25084:25177   */\n      tag_592\n      jump\t// in\n    tag_859:\n        /* \"#utility.yul\":25202:25204   */\n      0x40\n        /* \"#utility.yul\":25197:25200   */\n      dup3\n        /* \"#utility.yul\":25193:25205   */\n      add\n        /* \"#utility.yul\":25186:25205   */\n      swap1\n      pop\n        /* \"#utility.yul\":24845:25211   */\n      swap2\n      swap1\n      pop\n      jump\t// out\n        /* \"#utility.yul\":25217:25636   */\n    tag_372:\n        /* \"#utility.yul\":25383:25387   */\n      0x00\n        /* \"#utility.yul\":25421:25423   */\n      0x20\n        /* \"#utility.yul\":25410:25419   */\n      dup3\n        /* \"#utility.yul\":25406:25424   */\n      add\n        /* \"#utility.yul\":25398:25424   */\n      swap1\n      pop\n        /* \"#utility.yul\":25470:25479   */\n      dup2\n        /* \"#utility.yul\":25464:25468   */\n      dup2\n        /* \"#utility.yul\":25460:25480   */\n      sub\n        /* \"#utility.yul\":25456:25457   */\n      0x00\n        /* \"#utility.yul\":25445:25454   */\n      dup4\n        /* \"#utility.yul\":25441:25458   */\n      add\n        /* \"#utility.yul\":25434:25481   */\n      mstore\n        /* \"#utility.yul\":25498:25629   */\n      tag_861\n        /* \"#utility.yul\":25624:25628   */\n      dup2\n        /* \"#utility.yul\":25498:25629   */\n      tag_593\n      jump\t// in\n    tag_861:\n        /* \"#utility.yul\":25490:25629   */\n      swap1\n      pop\n        /* \"#utility.yul\":25217:25636   */\n      swap2\n      swap1\n      pop\n      jump\t// out\n        /* \"#utility.yul\":25642:25867   */\n    tag_594:\n        /* \"#utility.yul\":25782:25816   */\n      0x4f776e61626c653a206e6577206f776e657220697320746865207a65726f2061\n        /* \"#utility.yul\":25778:25779   */\n      0x00\n        /* \"#utility.yul\":25770:25776   */\n      dup3\n        /* \"#utility.yul\":25766:25780   */\n      add\n        /* \"#utility.yul\":25759:25817   */\n      mstore\n        /* \"#utility.yul\":25851:25859   */\n      0x6464726573730000000000000000000000000000000000000000000000000000\n        /* \"#utility.yul\":25846:25848   */\n      0x20\n        /* \"#utility.yul\":25838:25844   */\n      dup3\n        /* \"#utility.yul\":25834:25849   */\n      add\n        /* \"#utility.yul\":25827:25860   */\n      mstore\n        /* \"#utility.yul\":25642:25867   */\n      pop\n      jump\t// out\n        /* \"#utility.yul\":25873:26239   */\n    tag_595:\n        /* \"#utility.yul\":26015:26018   */\n      0x00\n        /* \"#utility.yul\":26036:26103   */\n      tag_864\n        /* \"#utility.yul\":26100:26102   */\n      0x26\n        /* \"#utility.yul\":26095:26098   */\n      dup4\n        /* \"#utility.yul\":26036:26103   */\n      tag_537\n      jump\t// in\n    tag_864:\n        /* \"#utility.yul\":26029:26103   */\n      swap2\n      pop\n        /* \"#utility.yul\":26112:26205   */\n      tag_865\n        /* \"#utility.yul\":26201:26204   */\n      dup3\n        /* \"#utility.yul\":26112:26205   */\n      tag_594\n      jump\t// in\n    tag_865:\n        /* \"#utility.yul\":26230:26232   */\n      0x40\n        /* \"#utility.yul\":26225:26228   */\n      dup3\n        /* \"#utility.yul\":26221:26233   */\n      add\n        /* \"#utility.yul\":26214:26233   */\n      swap1\n      pop\n        /* \"#utility.yul\":25873:26239   */\n      swap2\n      swap1\n      pop\n      jump\t// out\n        /* \"#utility.yul\":26245:26664   */\n    tag_381:\n        /* \"#utility.yul\":26411:26415   */\n      0x00\n        /* \"#utility.yul\":26449:26451   */\n      0x20\n        /* \"#utility.yul\":26438:26447   */\n      dup3\n        /* \"#utility.yul\":26434:26452   */\n      add\n        /* \"#utility.yul\":26426:26452   */\n      swap1\n      pop\n        /* \"#utility.yul\":26498:26507   */\n      dup2\n        /* \"#utility.yul\":26492:26496   */\n      dup2\n        /* \"#utility.yul\":26488:26508   */\n      sub\n        /* \"#utility.yul\":26484:26485   */\n      0x00\n        /* \"#utility.yul\":26473:26482   */\n      dup4\n        /* \"#utility.yul\":26469:26486   */\n      add\n        /* \"#utility.yul\":26462:26509   */\n      mstore\n        /* \"#utility.yul\":26526:26657   */\n      tag_867\n        /* \"#utility.yul\":26652:26656   */\n      dup2\n        /* \"#utility.yul\":26526:26657   */\n      tag_595\n      jump\t// in\n    tag_867:\n        /* \"#utility.yul\":26518:26657   */\n      swap1\n      pop\n        /* \"#utility.yul\":26245:26664   */\n      swap2\n      swap1\n      pop\n      jump\t// out\n        /* \"#utility.yul\":26670:26900   */\n    tag_596:\n        /* \"#utility.yul\":26810:26844   */\n      0x5845766d6f732045524332303a20617070726f76652066726f6d20746865207a\n        /* \"#utility.yul\":26806:26807   */\n      0x00\n        /* \"#utility.yul\":26798:26804   */\n      dup3\n        /* \"#utility.yul\":26794:26808   */\n      add\n        /* \"#utility.yul\":26787:26845   */\n      mstore\n        /* \"#utility.yul\":26879:26892   */\n      0x65726f2061646472657373000000000000000000000000000000000000000000\n        /* \"#utility.yul\":26874:26876   */\n      0x20\n        /* \"#utility.yul\":26866:26872   */\n      dup3\n        /* \"#utility.yul\":26862:26877   */\n      add\n        /* \"#utility.yul\":26855:26893   */\n      mstore\n        /* \"#utility.yul\":26670:26900   */\n      pop\n      jump\t// out\n        /* \"#utility.yul\":26906:27272   */\n    tag_597:\n        /* \"#utility.yul\":27048:27051   */\n      0x00\n        /* \"#utility.yul\":27069:27136   */\n      tag_870\n        /* \"#utility.yul\":27133:27135   */\n      0x2b\n        /* \"#utility.yul\":27128:27131   */\n      dup4\n        /* \"#utility.yul\":27069:27136   */\n      tag_537\n      jump\t// in\n    tag_870:\n        /* \"#utility.yul\":27062:27136   */\n      swap2\n      pop\n        /* \"#utility.yul\":27145:27238   */\n      tag_871\n        /* \"#utility.yul\":27234:27237   */\n      dup3\n        /* \"#utility.yul\":27145:27238   */\n      tag_596\n      jump\t// in\n    tag_871:\n        /* \"#utility.yul\":27263:27265   */\n      0x40\n        /* \"#utility.yul\":27258:27261   */\n      dup3\n        /* \"#utility.yul\":27254:27266   */\n      add\n        /* \"#utility.yul\":27247:27266   */\n      swap1\n      pop\n        /* \"#utility.yul\":26906:27272   */\n      swap2\n      swap1\n      pop\n      jump\t// out\n        /* \"#utility.yul\":27278:27697   */\n    tag_387:\n        /* \"#utility.yul\":27444:27448   */\n      0x00\n        /* \"#utility.yul\":27482:27484   */\n      0x20\n        /* \"#utility.yul\":27471:27480   */\n      dup3\n        /* \"#utility.yul\":27467:27485   */\n      add\n        /* \"#utility.yul\":27459:27485   */\n      swap1\n      pop\n        /* \"#utility.yul\":27531:27540   */\n      dup2\n        /* \"#utility.yul\":27525:27529   */\n      dup2\n        /* \"#utility.yul\":27521:27541   */\n      sub\n        /* \"#utility.yul\":27517:27518   */\n      0x00\n        /* \"#utility.yul\":27506:27515   */\n      dup4\n        /* \"#utility.yul\":27502:27519   */\n      add\n        /* \"#utility.yul\":27495:27542   */\n      mstore\n        /* \"#utility.yul\":27559:27690   */\n      tag_873\n        /* \"#utility.yul\":27685:27689   */\n      dup2\n        /* \"#utility.yul\":27559:27690   */\n      tag_597\n      jump\t// in\n    tag_873:\n        /* \"#utility.yul\":27551:27690   */\n      swap1\n      pop\n        /* \"#utility.yul\":27278:27697   */\n      swap2\n      swap1\n      pop\n      jump\t// out\n        /* \"#utility.yul\":27703:27931   */\n    tag_598:\n        /* \"#utility.yul\":27843:27877   */\n      0x5845766d6f732045524332303a20617070726f766520746f20746865207a6572\n        /* \"#utility.yul\":27839:27840   */\n      0x00\n        /* \"#utility.yul\":27831:27837   */\n      dup3\n        /* \"#utility.yul\":27827:27841   */\n      add\n        /* \"#utility.yul\":27820:27878   */\n      mstore\n        /* \"#utility.yul\":27912:27923   */\n      0x6f20616464726573730000000000000000000000000000000000000000000000\n        /* \"#utility.yul\":27907:27909   */\n      0x20\n        /* \"#utility.yul\":27899:27905   */\n      dup3\n        /* \"#utility.yul\":27895:27910   */\n      add\n        /* \"#utility.yul\":27888:27924   */\n      mstore\n        /* \"#utility.yul\":27703:27931   */\n      pop\n      jump\t// out\n        /* \"#utility.yul\":27937:28303   */\n    tag_599:\n        /* \"#utility.yul\":28079:28082   */\n      0x00\n        /* \"#utility.yul\":28100:28167   */\n      tag_876\n        /* \"#utility.yul\":28164:28166   */\n      0x29\n        /* \"#utility.yul\":28159:28162   */\n      dup4\n        /* \"#utility.yul\":28100:28167   */\n      tag_537\n      jump\t// in\n    tag_876:\n        /* \"#utility.yul\":28093:28167   */\n      swap2\n      pop\n        /* \"#utility.yul\":28176:28269   */\n      tag_877\n        /* \"#utility.yul\":28265:28268   */\n      dup3\n        /* \"#utility.yul\":28176:28269   */\n      tag_598\n      jump\t// in\n    tag_877:\n        /* \"#utility.yul\":28294:28296   */\n      0x40\n        /* \"#utility.yul\":28289:28292   */\n      dup3\n        /* \"#utility.yul\":28285:28297   */\n      add\n        /* \"#utility.yul\":28278:28297   */\n      swap1\n      pop\n        /* \"#utility.yul\":27937:28303   */\n      swap2\n      swap1\n      pop\n      jump\t// out\n        /* \"#utility.yul\":28309:28728   */\n    tag_390:\n        /* \"#utility.yul\":28475:28479   */\n      0x00\n        /* \"#utility.yul\":28513:28515   */\n      0x20\n        /* \"#utility.yul\":28502:28511   */\n      dup3\n        /* \"#utility.yul\":28498:28516   */\n      add\n        /* \"#utility.yul\":28490:28516   */\n      swap1\n      pop\n        /* \"#utility.yul\":28562:28571   */\n      dup2\n        /* \"#utility.yul\":28556:28560   */\n      dup2\n        /* \"#utility.yul\":28552:28572   */\n      sub\n        /* \"#utility.yul\":28548:28549   */\n      0x00\n        /* \"#utility.yul\":28537:28546   */\n      dup4\n        /* \"#utility.yul\":28533:28550   */\n      add\n        /* \"#utility.yul\":28526:28573   */\n      mstore\n        /* \"#utility.yul\":28590:28721   */\n      tag_879\n        /* \"#utility.yul\":28716:28720   */\n      dup2\n        /* \"#utility.yul\":28590:28721   */\n      tag_599\n      jump\t// in\n    tag_879:\n        /* \"#utility.yul\":28582:28721   */\n      swap1\n      pop\n        /* \"#utility.yul\":28309:28728   */\n      swap2\n      swap1\n      pop\n      jump\t// out\n        /* \"#utility.yul\":28734:28965   */\n    tag_600:\n        /* \"#utility.yul\":28874:28908   */\n      0x5845766d6f732045524332303a207472616e736665722066726f6d2074686520\n        /* \"#utility.yul\":28870:28871   */\n      0x00\n        /* \"#utility.yul\":28862:28868   */\n      dup3\n        /* \"#utility.yul\":28858:28872   */\n      add\n        /* \"#utility.yul\":28851:28909   */\n      mstore\n        /* \"#utility.yul\":28943:28957   */\n      0x7a65726f20616464726573730000000000000000000000000000000000000000\n        /* \"#utility.yul\":28938:28940   */\n      0x20\n        /* \"#utility.yul\":28930:28936   */\n      dup3\n        /* \"#utility.yul\":28926:28941   */\n      add\n        /* \"#utility.yul\":28919:28958   */\n      mstore\n        /* \"#utility.yul\":28734:28965   */\n      pop\n      jump\t// out\n        /* \"#utility.yul\":28971:29337   */\n    tag_601:\n        /* \"#utility.yul\":29113:29116   */\n      0x00\n        /* \"#utility.yul\":29134:29201   */\n      tag_882\n        /* \"#utility.yul\":29198:29200   */\n      0x2c\n        /* \"#utility.yul\":29193:29196   */\n      dup4\n        /* \"#utility.yul\":29134:29201   */\n      tag_537\n      jump\t// in\n    tag_882:\n        /* \"#utility.yul\":29127:29201   */\n      swap2\n      pop\n        /* \"#utility.yul\":29210:29303   */\n      tag_883\n        /* \"#utility.yul\":29299:29302   */\n      dup3\n        /* \"#utility.yul\":29210:29303   */\n      tag_600\n      jump\t// in\n    tag_883:\n        /* \"#utility.yul\":29328:29330   */\n      0x40\n        /* \"#utility.yul\":29323:29326   */\n      dup3\n        /* \"#utility.yul\":29319:29331   */\n      add\n        /* \"#utility.yul\":29312:29331   */\n      swap1\n      pop\n        /* \"#utility.yul\":28971:29337   */\n      swap2\n      swap1\n      pop\n      jump\t// out\n        /* \"#utility.yul\":29343:29762   */\n    tag_413:\n        /* \"#utility.yul\":29509:29513   */\n      0x00\n        /* \"#utility.yul\":29547:29549   */\n      0x20\n        /* \"#utility.yul\":29536:29545   */\n      dup3\n        /* \"#utility.yul\":29532:29550   */\n      add\n        /* \"#utility.yul\":29524:29550   */\n      swap1\n      pop\n        /* \"#utility.yul\":29596:29605   */\n      dup2\n        /* \"#utility.yul\":29590:29594   */\n      dup2\n        /* \"#utility.yul\":29586:29606   */\n      sub\n        /* \"#utility.yul\":29582:29583   */\n      0x00\n        /* \"#utility.yul\":29571:29580   */\n      dup4\n        /* \"#utility.yul\":29567:29584   */\n      add\n        /* \"#utility.yul\":29560:29607   */\n      mstore\n        /* \"#utility.yul\":29624:29755   */\n      tag_885\n        /* \"#utility.yul\":29750:29754   */\n      dup2\n        /* \"#utility.yul\":29624:29755   */\n      tag_601\n      jump\t// in\n    tag_885:\n        /* \"#utility.yul\":29616:29755   */\n      swap1\n      pop\n        /* \"#utility.yul\":29343:29762   */\n      swap2\n      swap1\n      pop\n      jump\t// out\n        /* \"#utility.yul\":29768:29997   */\n    tag_602:\n        /* \"#utility.yul\":29908:29942   */\n      0x5845766d6f732045524332303a207472616e7366657220746f20746865207a65\n        /* \"#utility.yul\":29904:29905   */\n      0x00\n        /* \"#utility.yul\":29896:29902   */\n      dup3\n        /* \"#utility.yul\":29892:29906   */\n      add\n        /* \"#utility.yul\":29885:29943   */\n      mstore\n        /* \"#utility.yul\":29977:29989   */\n      0x726f206164647265737300000000000000000000000000000000000000000000\n        /* \"#utility.yul\":29972:29974   */\n      0x20\n        /* \"#utility.yul\":29964:29970   */\n      dup3\n        /* \"#utility.yul\":29960:29975   */\n      add\n        /* \"#utility.yul\":29953:29990   */\n      mstore\n        /* \"#utility.yul\":29768:29997   */\n      pop\n      jump\t// out\n        /* \"#utility.yul\":30003:30369   */\n    tag_603:\n        /* \"#utility.yul\":30145:30148   */\n      0x00\n        /* \"#utility.yul\":30166:30233   */\n      tag_888\n        /* \"#utility.yul\":30230:30232   */\n      0x2a\n        /* \"#utility.yul\":30225:30228   */\n      dup4\n        /* \"#utility.yul\":30166:30233   */\n      tag_537\n      jump\t// in\n    tag_888:\n        /* \"#utility.yul\":30159:30233   */\n      swap2\n      pop\n        /* \"#utility.yul\":30242:30335   */\n      tag_889\n        /* \"#utility.yul\":30331:30334   */\n      dup3\n        /* \"#utility.yul\":30242:30335   */\n      tag_602\n      jump\t// in\n    tag_889:\n        /* \"#utility.yul\":30360:30362   */\n      0x40\n        /* \"#utility.yul\":30355:30358   */\n      dup3\n        /* \"#utility.yul\":30351:30363   */\n      add\n        /* \"#utility.yul\":30344:30363   */\n      swap1\n      pop\n        /* \"#utility.yul\":30003:30369   */\n      swap2\n      swap1\n      pop\n      jump\t// out\n        /* \"#utility.yul\":30375:30794   */\n    tag_416:\n        /* \"#utility.yul\":30541:30545   */\n      0x00\n        /* \"#utility.yul\":30579:30581   */\n      0x20\n        /* \"#utility.yul\":30568:30577   */\n      dup3\n        /* \"#utility.yul\":30564:30582   */\n      add\n        /* \"#utility.yul\":30556:30582   */\n      swap1\n      pop\n        /* \"#utility.yul\":30628:30637   */\n      dup2\n        /* \"#utility.yul\":30622:30626   */\n      dup2\n        /* \"#utility.yul\":30618:30638   */\n      sub\n        /* \"#utility.yul\":30614:30615   */\n      0x00\n        /* \"#utility.yul\":30603:30612   */\n      dup4\n        /* \"#utility.yul\":30599:30616   */\n      add\n        /* \"#utility.yul\":30592:30639   */\n      mstore\n        /* \"#utility.yul\":30656:30787   */\n      tag_891\n        /* \"#utility.yul\":30782:30786   */\n      dup2\n        /* \"#utility.yul\":30656:30787   */\n      tag_603\n      jump\t// in\n    tag_891:\n        /* \"#utility.yul\":30648:30787   */\n      swap1\n      pop\n        /* \"#utility.yul\":30375:30794   */\n      swap2\n      swap1\n      pop\n      jump\t// out\n        /* \"#utility.yul\":30800:31032   */\n    tag_604:\n        /* \"#utility.yul\":30940:30974   */\n      0x5845766d6f732045524332303a207472616e7366657220616d6f756e74206578\n        /* \"#utility.yul\":30936:30937   */\n      0x00\n        /* \"#utility.yul\":30928:30934   */\n      dup3\n        /* \"#utility.yul\":30924:30938   */\n      add\n        /* \"#utility.yul\":30917:30975   */\n      mstore\n        /* \"#utility.yul\":31009:31024   */\n      0x63656564732062616c616e636500000000000000000000000000000000000000\n        /* \"#utility.yul\":31004:31006   */\n      0x20\n        /* \"#utility.yul\":30996:31002   */\n      dup3\n        /* \"#utility.yul\":30992:31007   */\n      add\n        /* \"#utility.yul\":30985:31025   */\n      mstore\n        /* \"#utility.yul\":30800:31032   */\n      pop\n      jump\t// out\n        /* \"#utility.yul\":31038:31404   */\n    tag_605:\n        /* \"#utility.yul\":31180:31183   */\n      0x00\n        /* \"#utility.yul\":31201:31268   */\n      tag_894\n        /* \"#utility.yul\":31265:31267   */\n      0x2d\n        /* \"#utility.yul\":31260:31263   */\n      dup4\n        /* \"#utility.yul\":31201:31268   */\n      tag_537\n      jump\t// in\n    tag_894:\n        /* \"#utility.yul\":31194:31268   */\n      swap2\n      pop\n        /* \"#utility.yul\":31277:31370   */\n      tag_895\n        /* \"#utility.yul\":31366:31369   */\n      dup3\n        /* \"#utility.yul\":31277:31370   */\n      tag_604\n      jump\t// in\n    tag_895:\n        /* \"#utility.yul\":31395:31397   */\n      0x40\n        /* \"#utility.yul\":31390:31393   */\n      dup3\n        /* \"#utility.yul\":31386:31398   */\n      add\n        /* \"#utility.yul\":31379:31398   */\n      swap1\n      pop\n        /* \"#utility.yul\":31038:31404   */\n      swap2\n      swap1\n      pop\n      jump\t// out\n        /* \"#utility.yul\":31410:31829   */\n    tag_421:\n        /* \"#utility.yul\":31576:31580   */\n      0x00\n        /* \"#utility.yul\":31614:31616   */\n      0x20\n        /* \"#utility.yul\":31603:31612   */\n      dup3\n        /* \"#utility.yul\":31599:31617   */\n      add\n        /* \"#utility.yul\":31591:31617   */\n      swap1\n      pop\n        /* \"#utility.yul\":31663:31672   */\n      dup2\n        /* \"#utility.yul\":31657:31661   */\n      dup2\n        /* \"#utility.yul\":31653:31673   */\n      sub\n        /* \"#utility.yul\":31649:31650   */\n      0x00\n        /* \"#utility.yul\":31638:31647   */\n      dup4\n        /* \"#utility.yul\":31634:31651   */\n      add\n        /* \"#utility.yul\":31627:31674   */\n      mstore\n        /* \"#utility.yul\":31691:31822   */\n      tag_897\n        /* \"#utility.yul\":31817:31821   */\n      dup2\n        /* \"#utility.yul\":31691:31822   */\n      tag_605\n      jump\t// in\n    tag_897:\n        /* \"#utility.yul\":31683:31822   */\n      swap1\n      pop\n        /* \"#utility.yul\":31410:31829   */\n      swap2\n      swap1\n      pop\n      jump\t// out\n        /* \"#utility.yul\":31835:32016   */\n    tag_606:\n        /* \"#utility.yul\":31975:32008   */\n      0x5265656e7472616e637947756172643a207265656e7472616e742063616c6c00\n        /* \"#utility.yul\":31971:31972   */\n      0x00\n        /* \"#utility.yul\":31963:31969   */\n      dup3\n        /* \"#utility.yul\":31959:31973   */\n      add\n        /* \"#utility.yul\":31952:32009   */\n      mstore\n        /* \"#utility.yul\":31835:32016   */\n      pop\n      jump\t// out\n        /* \"#utility.yul\":32022:32388   */\n    tag_607:\n        /* \"#utility.yul\":32164:32167   */\n      0x00\n        /* \"#utility.yul\":32185:32252   */\n      tag_900\n        /* \"#utility.yul\":32249:32251   */\n      0x1f\n        /* \"#utility.yul\":32244:32247   */\n      dup4\n        /* \"#utility.yul\":32185:32252   */\n      tag_537\n      jump\t// in\n    tag_900:\n        /* \"#utility.yul\":32178:32252   */\n      swap2\n      pop\n        /* \"#utility.yul\":32261:32354   */\n      tag_901\n        /* \"#utility.yul\":32350:32353   */\n      dup3\n        /* \"#utility.yul\":32261:32354   */\n      tag_606\n      jump\t// in\n    tag_901:\n        /* \"#utility.yul\":32379:32381   */\n      0x20\n        /* \"#utility.yul\":32374:32377   */\n      dup3\n        /* \"#utility.yul\":32370:32382   */\n      add\n        /* \"#utility.yul\":32363:32382   */\n      swap1\n      pop\n        /* \"#utility.yul\":32022:32388   */\n      swap2\n      swap1\n      pop\n      jump\t// out\n        /* \"#utility.yul\":32394:32813   */\n    tag_429:\n        /* \"#utility.yul\":32560:32564   */\n      0x00\n        /* \"#utility.yul\":32598:32600   */\n      0x20\n        /* \"#utility.yul\":32587:32596   */\n      dup3\n        /* \"#utility.yul\":32583:32601   */\n      add\n        /* \"#utility.yul\":32575:32601   */\n      swap1\n      pop\n        /* \"#utility.yul\":32647:32656   */\n      dup2\n        /* \"#utility.yul\":32641:32645   */\n      dup2\n        /* \"#utility.yul\":32637:32657   */\n      sub\n        /* \"#utility.yul\":32633:32634   */\n      0x00\n        /* \"#utility.yul\":32622:32631   */\n      dup4\n        /* \"#utility.yul\":32618:32635   */\n      add\n        /* \"#utility.yul\":32611:32658   */\n      mstore\n        /* \"#utility.yul\":32675:32806   */\n      tag_903\n        /* \"#utility.yul\":32801:32805   */\n      dup2\n        /* \"#utility.yul\":32675:32806   */\n      tag_607\n      jump\t// in\n    tag_903:\n        /* \"#utility.yul\":32667:32806   */\n      swap1\n      pop\n        /* \"#utility.yul\":32394:32813   */\n      swap2\n      swap1\n      pop\n      jump\t// out\n        /* \"#utility.yul\":32819:32999   */\n    tag_440:\n        /* \"#utility.yul\":32867:32944   */\n      0x4e487b7100000000000000000000000000000000000000000000000000000000\n        /* \"#utility.yul\":32864:32865   */\n      0x00\n        /* \"#utility.yul\":32857:32945   */\n      mstore\n        /* \"#utility.yul\":32964:32968   */\n      0x31\n        /* \"#utility.yul\":32961:32962   */\n      0x04\n        /* \"#utility.yul\":32954:32969   */\n      mstore\n        /* \"#utility.yul\":32988:32992   */\n      0x24\n        /* \"#utility.yul\":32985:32986   */\n      0x00\n        /* \"#utility.yul\":32978:32993   */\n      revert\n        /* \"#utility.yul\":33005:33187   */\n    tag_608:\n        /* \"#utility.yul\":33145:33179   */\n      0x4f776e61626c653a2063616c6c6572206973206e6f7420746865206f776e6572\n        /* \"#utility.yul\":33141:33142   */\n      0x00\n        /* \"#utility.yul\":33133:33139   */\n      dup3\n        /* \"#utility.yul\":33129:33143   */\n      add\n        /* \"#utility.yul\":33122:33180   */\n      mstore\n        /* \"#utility.yul\":33005:33187   */\n      pop\n      jump\t// out\n        /* \"#utility.yul\":33193:33559   */\n    tag_609:\n        /* \"#utility.yul\":33335:33338   */\n      0x00\n        /* \"#utility.yul\":33356:33423   */\n      tag_907\n        /* \"#utility.yul\":33420:33422   */\n      0x20\n        /* \"#utility.yul\":33415:33418   */\n      dup4\n        /* \"#utility.yul\":33356:33423   */\n      tag_537\n      jump\t// in\n    tag_907:\n        /* \"#utility.yul\":33349:33423   */\n      swap2\n      pop\n        /* \"#utility.yul\":33432:33525   */\n      tag_908\n        /* \"#utility.yul\":33521:33524   */\n      dup3\n        /* \"#utility.yul\":33432:33525   */\n      tag_608\n      jump\t// in\n    tag_908:\n        /* \"#utility.yul\":33550:33552   */\n      0x20\n        /* \"#utility.yul\":33545:33548   */\n      dup3\n        /* \"#utility.yul\":33541:33553   */\n      add\n        /* \"#utility.yul\":33534:33553   */\n      swap1\n      pop\n        /* \"#utility.yul\":33193:33559   */\n      swap2\n      swap1\n      pop\n      jump\t// out\n        /* \"#utility.yul\":33565:33984   */\n    tag_448:\n        /* \"#utility.yul\":33731:33735   */\n      0x00\n        /* \"#utility.yul\":33769:33771   */\n      0x20\n        /* \"#utility.yul\":33758:33767   */\n      dup3\n        /* \"#utility.yul\":33754:33772   */\n      add\n        /* \"#utility.yul\":33746:33772   */\n      swap1\n      pop\n        /* \"#utility.yul\":33818:33827   */\n      dup2\n        /* \"#utility.yul\":33812:33816   */\n      dup2\n        /* \"#utility.yul\":33808:33828   */\n      sub\n        /* \"#utility.yul\":33804:33805   */\n      0x00\n        /* \"#utility.yul\":33793:33802   */\n      dup4\n        /* \"#utility.yul\":33789:33806   */\n      add\n        /* \"#utility.yul\":33782:33829   */\n      mstore\n        /* \"#utility.yul\":33846:33977   */\n      tag_910\n        /* \"#utility.yul\":33972:33976   */\n      dup2\n        /* \"#utility.yul\":33846:33977   */\n      tag_609\n      jump\t// in\n    tag_910:\n        /* \"#utility.yul\":33838:33977   */\n      swap1\n      pop\n        /* \"#utility.yul\":33565:33984   */\n      swap2\n      swap1\n      pop\n      jump\t// out\n        /* \"#utility.yul\":33990:34170   */\n    tag_610:\n        /* \"#utility.yul\":34130:34162   */\n      0x636f6e766572743a20616d6f756e742063616e6e6f74206265206e756c6c0000\n        /* \"#utility.yul\":34126:34127   */\n      0x00\n        /* \"#utility.yul\":34118:34124   */\n      dup3\n        /* \"#utility.yul\":34114:34128   */\n      add\n        /* \"#utility.yul\":34107:34163   */\n      mstore\n        /* \"#utility.yul\":33990:34170   */\n      pop\n      jump\t// out\n        /* \"#utility.yul\":34176:34542   */\n    tag_611:\n        /* \"#utility.yul\":34318:34321   */\n      0x00\n        /* \"#utility.yul\":34339:34406   */\n      tag_913\n        /* \"#utility.yul\":34403:34405   */\n      0x1e\n        /* \"#utility.yul\":34398:34401   */\n      dup4\n        /* \"#utility.yul\":34339:34406   */\n      tag_537\n      jump\t// in\n    tag_913:\n        /* \"#utility.yul\":34332:34406   */\n      swap2\n      pop\n        /* \"#utility.yul\":34415:34508   */\n      tag_914\n        /* \"#utility.yul\":34504:34507   */\n      dup3\n        /* \"#utility.yul\":34415:34508   */\n      tag_610\n      jump\t// in\n    tag_914:\n        /* \"#utility.yul\":34533:34535   */\n      0x20\n        /* \"#utility.yul\":34528:34531   */\n      dup3\n        /* \"#utility.yul\":34524:34536   */\n      add\n        /* \"#utility.yul\":34517:34536   */\n      swap1\n      pop\n        /* \"#utility.yul\":34176:34542   */\n      swap2\n      swap1\n      pop\n      jump\t// out\n        /* \"#utility.yul\":34548:34967   */\n    tag_456:\n        /* \"#utility.yul\":34714:34718   */\n      0x00\n        /* \"#utility.yul\":34752:34754   */\n      0x20\n        /* \"#utility.yul\":34741:34750   */\n      dup3\n        /* \"#utility.yul\":34737:34755   */\n      add\n        /* \"#utility.yul\":34729:34755   */\n      swap1\n      pop\n        /* \"#utility.yul\":34801:34810   */\n      dup2\n        /* \"#utility.yul\":34795:34799   */\n      dup2\n        /* \"#utility.yul\":34791:34811   */\n      sub\n        /* \"#utility.yul\":34787:34788   */\n      0x00\n        /* \"#utility.yul\":34776:34785   */\n      dup4\n        /* \"#utility.yul\":34772:34789   */\n      add\n        /* \"#utility.yul\":34765:34812   */\n      mstore\n        /* \"#utility.yul\":34829:34960   */\n      tag_916\n        /* \"#utility.yul\":34955:34959   */\n      dup2\n        /* \"#utility.yul\":34829:34960   */\n      tag_611\n      jump\t// in\n    tag_916:\n        /* \"#utility.yul\":34821:34960   */\n      swap1\n      pop\n        /* \"#utility.yul\":34548:34967   */\n      swap2\n      swap1\n      pop\n      jump\t// out\n        /* \"#utility.yul\":34973:35194   */\n    tag_612:\n        /* \"#utility.yul\":35113:35147   */\n      0x636f6e766572743a2054686520616d6f756e74206973206e6f7420636f727265\n        /* \"#utility.yul\":35109:35110   */\n      0x00\n        /* \"#utility.yul\":35101:35107   */\n      dup3\n        /* \"#utility.yul\":35097:35111   */\n      add\n        /* \"#utility.yul\":35090:35148   */\n      mstore\n        /* \"#utility.yul\":35182:35186   */\n      0x6374000000000000000000000000000000000000000000000000000000000000\n        /* \"#utility.yul\":35177:35179   */\n      0x20\n        /* \"#utility.yul\":35169:35175   */\n      dup3\n        /* \"#utility.yul\":35165:35180   */\n      add\n        /* \"#utility.yul\":35158:35187   */\n      mstore\n        /* \"#utility.yul\":34973:35194   */\n      pop\n      jump\t// out\n        /* \"#utility.yul\":35200:35566   */\n    tag_613:\n        /* \"#utility.yul\":35342:35345   */\n      0x00\n        /* \"#utility.yul\":35363:35430   */\n      tag_919\n        /* \"#utility.yul\":35427:35429   */\n      0x22\n        /* \"#utility.yul\":35422:35425   */\n      dup4\n        /* \"#utility.yul\":35363:35430   */\n      tag_537\n      jump\t// in\n    tag_919:\n        /* \"#utility.yul\":35356:35430   */\n      swap2\n      pop\n        /* \"#utility.yul\":35439:35532   */\n      tag_920\n        /* \"#utility.yul\":35528:35531   */\n      dup3\n        /* \"#utility.yul\":35439:35532   */\n      tag_612\n      jump\t// in\n    tag_920:\n        /* \"#utility.yul\":35557:35559   */\n      0x40\n        /* \"#utility.yul\":35552:35555   */\n      dup3\n        /* \"#utility.yul\":35548:35560   */\n      add\n        /* \"#utility.yul\":35541:35560   */\n      swap1\n      pop\n        /* \"#utility.yul\":35200:35566   */\n      swap2\n      swap1\n      pop\n      jump\t// out\n        /* \"#utility.yul\":35572:35991   */\n    tag_459:\n        /* \"#utility.yul\":35738:35742   */\n      0x00\n        /* \"#utility.yul\":35776:35778   */\n      0x20\n        /* \"#utility.yul\":35765:35774   */\n      dup3\n        /* \"#utility.yul\":35761:35779   */\n      add\n        /* \"#utility.yul\":35753:35779   */\n      swap1\n      pop\n        /* \"#utility.yul\":35825:35834   */\n      dup2\n        /* \"#utility.yul\":35819:35823   */\n      dup2\n        /* \"#utility.yul\":35815:35835   */\n      sub\n        /* \"#utility.yul\":35811:35812   */\n      0x00\n        /* \"#utility.yul\":35800:35809   */\n      dup4\n        /* \"#utility.yul\":35796:35813   */\n      add\n        /* \"#utility.yul\":35789:35836   */\n      mstore\n        /* \"#utility.yul\":35853:35984   */\n      tag_922\n        /* \"#utility.yul\":35979:35983   */\n      dup2\n        /* \"#utility.yul\":35853:35984   */\n      tag_613\n      jump\t// in\n    tag_922:\n        /* \"#utility.yul\":35845:35984   */\n      swap1\n      pop\n        /* \"#utility.yul\":35572:35991   */\n      swap2\n      swap1\n      pop\n      jump\t// out\n        /* \"#utility.yul\":35997:36329   */\n    tag_461:\n        /* \"#utility.yul\":36118:36122   */\n      0x00\n        /* \"#utility.yul\":36156:36158   */\n      0x40\n        /* \"#utility.yul\":36145:36154   */\n      dup3\n        /* \"#utility.yul\":36141:36159   */\n      add\n        /* \"#utility.yul\":36133:36159   */\n      swap1\n      pop\n        /* \"#utility.yul\":36169:36240   */\n      tag_924\n        /* \"#utility.yul\":36237:36238   */\n      0x00\n        /* \"#utility.yul\":36226:36235   */\n      dup4\n        /* \"#utility.yul\":36222:36239   */\n      add\n        /* \"#utility.yul\":36213:36219   */\n      dup6\n        /* \"#utility.yul\":36169:36240   */\n      tag_567\n      jump\t// in\n    tag_924:\n        /* \"#utility.yul\":36250:36322   */\n      tag_925\n        /* \"#utility.yul\":36318:36320   */\n      0x20\n        /* \"#utility.yul\":36307:36316   */\n      dup4\n        /* \"#utility.yul\":36303:36321   */\n      add\n        /* \"#utility.yul\":36294:36300   */\n      dup5\n        /* \"#utility.yul\":36250:36322   */\n      tag_562\n      jump\t// in\n    tag_925:\n        /* \"#utility.yul\":35997:36329   */\n      swap4\n      swap3\n      pop\n      pop\n      pop\n      jump\t// out\n        /* \"#utility.yul\":36335:36683   */\n    tag_464:\n        /* \"#utility.yul\":36375:36382   */\n      0x00\n        /* \"#utility.yul\":36398:36418   */\n      tag_927\n        /* \"#utility.yul\":36416:36417   */\n      dup3\n        /* \"#utility.yul\":36398:36418   */\n      tag_548\n      jump\t// in\n    tag_927:\n        /* \"#utility.yul\":36393:36418   */\n      swap2\n      pop\n        /* \"#utility.yul\":36432:36452   */\n      tag_928\n        /* \"#utility.yul\":36450:36451   */\n      dup4\n        /* \"#utility.yul\":36432:36452   */\n      tag_548\n      jump\t// in\n    tag_928:\n        /* \"#utility.yul\":36427:36452   */\n      swap3\n      pop\n        /* \"#utility.yul\":36620:36621   */\n      dup2\n        /* \"#utility.yul\":36552:36618   */\n      0xffffffffffffffffffffffffffffffffffffffffffffffffffffffffffffffff\n        /* \"#utility.yul\":36548:36622   */\n      div\n        /* \"#utility.yul\":36545:36546   */\n      dup4\n        /* \"#utility.yul\":36542:36623   */\n      gt\n        /* \"#utility.yul\":36537:36538   */\n      dup3\n        /* \"#utility.yul\":36530:36539   */\n      iszero\n        /* \"#utility.yul\":36523:36540   */\n      iszero\n        /* \"#utility.yul\":36519:36624   */\n      and\n        /* \"#utility.yul\":36516:36647   */\n      iszero\n      tag_929\n      jumpi\n        /* \"#utility.yul\":36627:36645   */\n      tag_930\n      tag_577\n      jump\t// in\n    tag_930:\n        /* \"#utility.yul\":36516:36647   */\n    tag_929:\n        /* \"#utility.yul\":36675:36676   */\n      dup3\n        /* \"#utility.yul\":36672:36673   */\n      dup3\n        /* \"#utility.yul\":36668:36677   */\n      mul\n        /* \"#utility.yul\":36657:36677   */\n      swap1\n      pop\n        /* \"#utility.yul\":36335:36683   */\n      swap3\n      swap2\n      pop\n      pop\n      jump\t// out\n        /* \"#utility.yul\":36689:36869   */\n    tag_614:\n        /* \"#utility.yul\":36737:36814   */\n      0x4e487b7100000000000000000000000000000000000000000000000000000000\n        /* \"#utility.yul\":36734:36735   */\n      0x00\n        /* \"#utility.yul\":36727:36815   */\n      mstore\n        /* \"#utility.yul\":36834:36838   */\n      0x12\n        /* \"#utility.yul\":36831:36832   */\n      0x04\n        /* \"#utility.yul\":36824:36839   */\n      mstore\n        /* \"#utility.yul\":36858:36862   */\n      0x24\n        /* \"#utility.yul\":36855:36856   */\n      0x00\n        /* \"#utility.yul\":36848:36863   */\n      revert\n        /* \"#utility.yul\":36875:37060   */\n    tag_467:\n        /* \"#utility.yul\":36915:36916   */\n      0x00\n        /* \"#utility.yul\":36932:36952   */\n      tag_933\n        /* \"#utility.yul\":36950:36951   */\n      dup3\n        /* \"#utility.yul\":36932:36952   */\n      tag_548\n      jump\t// in\n    tag_933:\n        /* \"#utility.yul\":36927:36952   */\n      swap2\n      pop\n        /* \"#utility.yul\":36966:36986   */\n      tag_934\n        /* \"#utility.yul\":36984:36985   */\n      dup4\n        /* \"#utility.yul\":36966:36986   */\n      tag_548\n      jump\t// in\n    tag_934:\n        /* \"#utility.yul\":36961:36986   */\n      swap3\n      pop\n        /* \"#utility.yul\":37005:37006   */\n      dup3\n        /* \"#utility.yul\":36995:37030   */\n      tag_935\n      jumpi\n        /* \"#utility.yul\":37010:37028   */\n      tag_936\n      tag_614\n      jump\t// in\n    tag_936:\n        /* \"#utility.yul\":36995:37030   */\n    tag_935:\n        /* \"#utility.yul\":37052:37053   */\n      dup3\n        /* \"#utility.yul\":37049:37050   */\n      dup3\n        /* \"#utility.yul\":37045:37054   */\n      div\n        /* \"#utility.yul\":37040:37054   */\n      swap1\n      pop\n        /* \"#utility.yul\":36875:37060   */\n      swap3\n      swap2\n      pop\n      pop\n      jump\t// out\n        /* \"#utility.yul\":37066:37213   */\n    tag_615:\n        /* \"#utility.yul\":37167:37178   */\n      0x00\n        /* \"#utility.yul\":37204:37207   */\n      dup2\n        /* \"#utility.yul\":37189:37207   */\n      swap1\n      pop\n        /* \"#utility.yul\":37066:37213   */\n      swap3\n      swap2\n      pop\n      pop\n      jump\t// out\n        /* \"#utility.yul\":37219:37333   */\n    tag_616:\n      pop\n      jump\t// out\n        /* \"#utility.yul\":37339:37737   */\n    tag_617:\n        /* \"#utility.yul\":37498:37501   */\n      0x00\n        /* \"#utility.yul\":37519:37602   */\n      tag_940\n        /* \"#utility.yul\":37600:37601   */\n      0x00\n        /* \"#utility.yul\":37595:37598   */\n      dup4\n        /* \"#utility.yul\":37519:37602   */\n      tag_615\n      jump\t// in\n    tag_940:\n        /* \"#utility.yul\":37512:37602   */\n      swap2\n      pop\n        /* \"#utility.yul\":37611:37704   */\n      tag_941\n        /* \"#utility.yul\":37700:37703   */\n      dup3\n        /* \"#utility.yul\":37611:37704   */\n      tag_616\n      jump\t// in\n    tag_941:\n        /* \"#utility.yul\":37729:37730   */\n      0x00\n        /* \"#utility.yul\":37724:37727   */\n      dup3\n        /* \"#utility.yul\":37720:37731   */\n      add\n        /* \"#utility.yul\":37713:37731   */\n      swap1\n      pop\n        /* \"#utility.yul\":37339:37737   */\n      swap2\n      swap1\n      pop\n      jump\t// out\n        /* \"#utility.yul\":37743:38122   */\n    tag_470:\n        /* \"#utility.yul\":37927:37930   */\n      0x00\n        /* \"#utility.yul\":37949:38096   */\n      tag_943\n        /* \"#utility.yul\":38092:38095   */\n      dup3\n        /* \"#utility.yul\":37949:38096   */\n      tag_617\n      jump\t// in\n    tag_943:\n        /* \"#utility.yul\":37942:38096   */\n      swap2\n      pop\n        /* \"#utility.yul\":38113:38116   */\n      dup2\n        /* \"#utility.yul\":38106:38116   */\n      swap1\n      pop\n        /* \"#utility.yul\":37743:38122   */\n      swap2\n      swap1\n      pop\n      jump\t// out\n        /* \"#utility.yul\":38128:38309   */\n    tag_618:\n        /* \"#utility.yul\":38268:38301   */\n      0x66696e616c697a6552656465656d3a5472616e73666572206661696c65642e00\n        /* \"#utility.yul\":38264:38265   */\n      0x00\n        /* \"#utility.yul\":38256:38262   */\n      dup3\n        /* \"#utility.yul\":38252:38266   */\n      add\n        /* \"#utility.yul\":38245:38302   */\n      mstore\n        /* \"#utility.yul\":38128:38309   */\n      pop\n      jump\t// out\n        /* \"#utility.yul\":38315:38681   */\n    tag_619:\n        /* \"#utility.yul\":38457:38460   */\n      0x00\n        /* \"#utility.yul\":38478:38545   */\n      tag_946\n        /* \"#utility.yul\":38542:38544   */\n      0x1f\n        /* \"#utility.yul\":38537:38540   */\n      dup4\n        /* \"#utility.yul\":38478:38545   */\n      tag_537\n      jump\t// in\n    tag_946:\n        /* \"#utility.yul\":38471:38545   */\n      swap2\n      pop\n        /* \"#utility.yul\":38554:38647   */\n      tag_947\n        /* \"#utility.yul\":38643:38646   */\n      dup3\n        /* \"#utility.yul\":38554:38647   */\n      tag_618\n      jump\t// in\n    tag_947:\n        /* \"#utility.yul\":38672:38674   */\n      0x20\n        /* \"#utility.yul\":38667:38670   */\n      dup3\n        /* \"#utility.yul\":38663:38675   */\n      add\n        /* \"#utility.yul\":38656:38675   */\n      swap1\n      pop\n        /* \"#utility.yul\":38315:38681   */\n      swap2\n      swap1\n      pop\n      jump\t// out\n        /* \"#utility.yul\":38687:39106   */\n    tag_476:\n        /* \"#utility.yul\":38853:38857   */\n      0x00\n        /* \"#utility.yul\":38891:38893   */\n      0x20\n        /* \"#utility.yul\":38880:38889   */\n      dup3\n        /* \"#utility.yul\":38876:38894   */\n      add\n        /* \"#utility.yul\":38868:38894   */\n      swap1\n      pop\n        /* \"#utility.yul\":38940:38949   */\n      dup2\n        /* \"#utility.yul\":38934:38938   */\n      dup2\n        /* \"#utility.yul\":38930:38950   */\n      sub\n        /* \"#utility.yul\":38926:38927   */\n      0x00\n        /* \"#utility.yul\":38915:38924   */\n      dup4\n        /* \"#utility.yul\":38911:38928   */\n      add\n        /* \"#utility.yul\":38904:38951   */\n      mstore\n        /* \"#utility.yul\":38968:39099   */\n      tag_949\n        /* \"#utility.yul\":39094:39098   */\n      dup2\n        /* \"#utility.yul\":38968:39099   */\n      tag_619\n      jump\t// in\n    tag_949:\n        /* \"#utility.yul\":38960:39099   */\n      swap1\n      pop\n        /* \"#utility.yul\":38687:39106   */\n      swap2\n      swap1\n      pop\n      jump\t// out\n        /* \"#utility.yul\":39112:39444   */\n    tag_480:\n        /* \"#utility.yul\":39233:39237   */\n      0x00\n        /* \"#utility.yul\":39271:39273   */\n      0x40\n        /* \"#utility.yul\":39260:39269   */\n      dup3\n        /* \"#utility.yul\":39256:39274   */\n      add\n        /* \"#utility.yul\":39248:39274   */\n      swap1\n      pop\n        /* \"#utility.yul\":39284:39355   */\n      tag_951\n        /* \"#utility.yul\":39352:39353   */\n      0x00\n        /* \"#utility.yul\":39341:39350   */\n      dup4\n        /* \"#utility.yul\":39337:39354   */\n      add\n        /* \"#utility.yul\":39328:39334   */\n      dup6\n        /* \"#utility.yul\":39284:39355   */\n      tag_562\n      jump\t// in\n    tag_951:\n        /* \"#utility.yul\":39365:39437   */\n      tag_952\n        /* \"#utility.yul\":39433:39435   */\n      0x20\n        /* \"#utility.yul\":39422:39431   */\n      dup4\n        /* \"#utility.yul\":39418:39436   */\n      add\n        /* \"#utility.yul\":39409:39415   */\n      dup5\n        /* \"#utility.yul\":39365:39437   */\n      tag_562\n      jump\t// in\n    tag_952:\n        /* \"#utility.yul\":39112:39444   */\n      swap4\n      swap3\n      pop\n      pop\n      pop\n      jump\t// out\n        /* \"#utility.yul\":39450:39680   */\n    tag_620:\n        /* \"#utility.yul\":39590:39624   */\n      0x496e697469616c697a61626c653a20636f6e7472616374206973206e6f742069\n        /* \"#utility.yul\":39586:39587   */\n      0x00\n        /* \"#utility.yul\":39578:39584   */\n      dup3\n        /* \"#utility.yul\":39574:39588   */\n      add\n        /* \"#utility.yul\":39567:39625   */\n      mstore\n        /* \"#utility.yul\":39659:39672   */\n      0x6e697469616c697a696e67000000000000000000000000000000000000000000\n        /* \"#utility.yul\":39654:39656   */\n      0x20\n        /* \"#utility.yul\":39646:39652   */\n      dup3\n        /* \"#utility.yul\":39642:39657   */\n      add\n        /* \"#utility.yul\":39635:39673   */\n      mstore\n        /* \"#utility.yul\":39450:39680   */\n      pop\n      jump\t// out\n        /* \"#utility.yul\":39686:40052   */\n    tag_621:\n        /* \"#utility.yul\":39828:39831   */\n      0x00\n        /* \"#utility.yul\":39849:39916   */\n      tag_955\n        /* \"#utility.yul\":39913:39915   */\n      0x2b\n        /* \"#utility.yul\":39908:39911   */\n      dup4\n        /* \"#utility.yul\":39849:39916   */\n      tag_537\n      jump\t// in\n    tag_955:\n        /* \"#utility.yul\":39842:39916   */\n      swap2\n      pop\n        /* \"#utility.yul\":39925:40018   */\n      tag_956\n        /* \"#utility.yul\":40014:40017   */\n      dup3\n        /* \"#utility.yul\":39925:40018   */\n      tag_620\n      jump\t// in\n    tag_956:\n        /* \"#utility.yul\":40043:40045   */\n      0x40\n        /* \"#utility.yul\":40038:40041   */\n      dup3\n        /* \"#utility.yul\":40034:40046   */\n      add\n        /* \"#utility.yul\":40027:40046   */\n      swap1\n      pop\n        /* \"#utility.yul\":39686:40052   */\n      swap2\n      swap1\n      pop\n      jump\t// out\n        /* \"#utility.yul\":40058:40477   */\n    tag_484:\n        /* \"#utility.yul\":40224:40228   */\n      0x00\n        /* \"#utility.yul\":40262:40264   */\n      0x20\n        /* \"#utility.yul\":40251:40260   */\n      dup3\n        /* \"#utility.yul\":40247:40265   */\n      add\n        /* \"#utility.yul\":40239:40265   */\n      swap1\n      pop\n        /* \"#utility.yul\":40311:40320   */\n      dup2\n        /* \"#utility.yul\":40305:40309   */\n      dup2\n        /* \"#utility.yul\":40301:40321   */\n      sub\n        /* \"#utility.yul\":40297:40298   */\n      0x00\n        /* \"#utility.yul\":40286:40295   */\n      dup4\n        /* \"#utility.yul\":40282:40299   */\n      add\n        /* \"#utility.yul\":40275:40322   */\n      mstore\n        /* \"#utility.yul\":40339:40470   */\n      tag_958\n        /* \"#utility.yul\":40465:40469   */\n      dup2\n        /* \"#utility.yul\":40339:40470   */\n      tag_621\n      jump\t// in\n    tag_958:\n        /* \"#utility.yul\":40331:40470   */\n      swap1\n      pop\n        /* \"#utility.yul\":40058:40477   */\n      swap2\n      swap1\n      pop\n      jump\t// out\n        /* \"#utility.yul\":40483:40654   */\n    tag_622:\n        /* \"#utility.yul\":40623:40646   */\n      0x7472616e736665723a206e6f7420616c6c6f7765640000000000000000000000\n        /* \"#utility.yul\":40619:40620   */\n      0x00\n        /* \"#utility.yul\":40611:40617   */\n      dup3\n        /* \"#utility.yul\":40607:40621   */\n      add\n        /* \"#utility.yul\":40600:40647   */\n      mstore\n        /* \"#utility.yul\":40483:40654   */\n      pop\n      jump\t// out\n        /* \"#utility.yul\":40660:41026   */\n    tag_623:\n        /* \"#utility.yul\":40802:40805   */\n      0x00\n        /* \"#utility.yul\":40823:40890   */\n      tag_961\n        /* \"#utility.yul\":40887:40889   */\n      0x15\n        /* \"#utility.yul\":40882:40885   */\n      dup4\n        /* \"#utility.yul\":40823:40890   */\n      tag_537\n      jump\t// in\n    tag_961:\n        /* \"#utility.yul\":40816:40890   */\n      swap2\n      pop\n        /* \"#utility.yul\":40899:40992   */\n      tag_962\n        /* \"#utility.yul\":40988:40991   */\n      dup3\n        /* \"#utility.yul\":40899:40992   */\n      tag_622\n      jump\t// in\n    tag_962:\n        /* \"#utility.yul\":41017:41019   */\n      0x20\n        /* \"#utility.yul\":41012:41015   */\n      dup3\n        /* \"#utility.yul\":41008:41020   */\n      add\n        /* \"#utility.yul\":41001:41020   */\n      swap1\n      pop\n        /* \"#utility.yul\":40660:41026   */\n      swap2\n      swap1\n      pop\n      jump\t// out\n        /* \"#utility.yul\":41032:41451   */\n    tag_512:\n        /* \"#utility.yul\":41198:41202   */\n      0x00\n        /* \"#utility.yul\":41236:41238   */\n      0x20\n        /* \"#utility.yul\":41225:41234   */\n      dup3\n        /* \"#utility.yul\":41221:41239   */\n      add\n        /* \"#utility.yul\":41213:41239   */\n      swap1\n      pop\n        /* \"#utility.yul\":41285:41294   */\n      dup2\n        /* \"#utility.yul\":41279:41283   */\n      dup2\n        /* \"#utility.yul\":41275:41295   */\n      sub\n        /* \"#utility.yul\":41271:41272   */\n      0x00\n        /* \"#utility.yul\":41260:41269   */\n      dup4\n        /* \"#utility.yul\":41256:41273   */\n      add\n        /* \"#utility.yul\":41249:41296   */\n      mstore\n        /* \"#utility.yul\":41313:41444   */\n      tag_964\n        /* \"#utility.yul\":41439:41443   */\n      dup2\n        /* \"#utility.yul\":41313:41444   */\n      tag_623\n      jump\t// in\n    tag_964:\n        /* \"#utility.yul\":41305:41444   */\n      swap1\n      pop\n        /* \"#utility.yul\":41032:41451   */\n      swap2\n      swap1\n      pop\n      jump\t// out\n        /* \"#utility.yul\":41457:41684   */\n    tag_624:\n        /* \"#utility.yul\":41597:41631   */\n      0x5845766d6f732045524332303a206275726e2066726f6d20746865207a65726f\n        /* \"#utility.yul\":41593:41594   */\n      0x00\n        /* \"#utility.yul\":41585:41591   */\n      dup3\n        /* \"#utility.yul\":41581:41595   */\n      add\n        /* \"#utility.yul\":41574:41632   */\n      mstore\n        /* \"#utility.yul\":41666:41676   */\n      0x2061646472657373000000000000000000000000000000000000000000000000\n        /* \"#utility.yul\":41661:41663   */\n      0x20\n        /* \"#utility.yul\":41653:41659   */\n      dup3\n        /* \"#utility.yul\":41649:41664   */\n      add\n        /* \"#utility.yul\":41642:41677   */\n      mstore\n        /* \"#utility.yul\":41457:41684   */\n      pop\n      jump\t// out\n        /* \"#utility.yul\":41690:42056   */\n    tag_625:\n        /* \"#utility.yul\":41832:41835   */\n      0x00\n        /* \"#utility.yul\":41853:41920   */\n      tag_967\n        /* \"#utility.yul\":41917:41919   */\n      0x28\n        /* \"#utility.yul\":41912:41915   */\n      dup4\n        /* \"#utility.yul\":41853:41920   */\n      tag_537\n      jump\t// in\n    tag_967:\n        /* \"#utility.yul\":41846:41920   */\n      swap2\n      pop\n        /* \"#utility.yul\":41929:42022   */\n      tag_968\n        /* \"#utility.yul\":42018:42021   */\n      dup3\n        /* \"#utility.yul\":41929:42022   */\n      tag_624\n      jump\t// in\n    tag_968:\n        /* \"#utility.yul\":42047:42049   */\n      0x40\n        /* \"#utility.yul\":42042:42045   */\n      dup3\n        /* \"#utility.yul\":42038:42050   */\n      add\n        /* \"#utility.yul\":42031:42050   */\n      swap1\n      pop\n        /* \"#utility.yul\":41690:42056   */\n      swap2\n      swap1\n      pop\n      jump\t// out\n        /* \"#utility.yul\":42062:42481   */\n    tag_517:\n        /* \"#utility.yul\":42228:42232   */\n      0x00\n        /* \"#utility.yul\":42266:42268   */\n      0x20\n        /* \"#utility.yul\":42255:42264   */\n      dup3\n        /* \"#utility.yul\":42251:42269   */\n      add\n        /* \"#utility.yul\":42243:42269   */\n      swap1\n      pop\n        /* \"#utility.yul\":42315:42324   */\n      dup2\n        /* \"#utility.yul\":42309:42313   */\n      dup2\n        /* \"#utility.yul\":42305:42325   */\n      sub\n        /* \"#utility.yul\":42301:42302   */\n      0x00\n        /* \"#utility.yul\":42290:42299   */\n      dup4\n        /* \"#utility.yul\":42286:42303   */\n      add\n        /* \"#utility.yul\":42279:42326   */\n      mstore\n        /* \"#utility.yul\":42343:42474   */\n      tag_970\n        /* \"#utility.yul\":42469:42473   */\n      dup2\n        /* \"#utility.yul\":42343:42474   */\n      tag_625\n      jump\t// in\n    tag_970:\n        /* \"#utility.yul\":42335:42474   */\n      swap1\n      pop\n        /* \"#utility.yul\":42062:42481   */\n      swap2\n      swap1\n      pop\n      jump\t// out\n        /* \"#utility.yul\":42487:42715   */\n    tag_626:\n        /* \"#utility.yul\":42627:42661   */\n      0x5845766d6f732045524332303a206275726e20616d6f756e7420657863656564\n        /* \"#utility.yul\":42623:42624   */\n      0x00\n        /* \"#utility.yul\":42615:42621   */\n      dup3\n        /* \"#utility.yul\":42611:42625   */\n      add\n        /* \"#utility.yul\":42604:42662   */\n      mstore\n        /* \"#utility.yul\":42696:42707   */\n      0x732062616c616e63650000000000000000000000000000000000000000000000\n        /* \"#utility.yul\":42691:42693   */\n      0x20\n        /* \"#utility.yul\":42683:42689   */\n      dup3\n        /* \"#utility.yul\":42679:42694   */\n      add\n        /* \"#utility.yul\":42672:42708   */\n      mstore\n        /* \"#utility.yul\":42487:42715   */\n      pop\n      jump\t// out\n        /* \"#utility.yul\":42721:43087   */\n    tag_627:\n        /* \"#utility.yul\":42863:42866   */\n      0x00\n        /* \"#utility.yul\":42884:42951   */\n      tag_973\n        /* \"#utility.yul\":42948:42950   */\n      0x29\n        /* \"#utility.yul\":42943:42946   */\n      dup4\n        /* \"#utility.yul\":42884:42951   */\n      tag_537\n      jump\t// in\n    tag_973:\n        /* \"#utility.yul\":42877:42951   */\n      swap2\n      pop\n        /* \"#utility.yul\":42960:43053   */\n      tag_974\n        /* \"#utility.yul\":43049:43052   */\n      dup3\n        /* \"#utility.yul\":42960:43053   */\n      tag_626\n      jump\t// in\n    tag_974:\n        /* \"#utility.yul\":43078:43080   */\n      0x40\n        /* \"#utility.yul\":43073:43076   */\n      dup3\n        /* \"#utility.yul\":43069:43081   */\n      add\n        /* \"#utility.yul\":43062:43081   */\n      swap1\n      pop\n        /* \"#utility.yul\":42721:43087   */\n      swap2\n      swap1\n      pop\n      jump\t// out\n        /* \"#utility.yul\":43093:43512   */\n    tag_521:\n        /* \"#utility.yul\":43259:43263   */\n      0x00\n        /* \"#utility.yul\":43297:43299   */\n      0x20\n        /* \"#utility.yul\":43286:43295   */\n      dup3\n        /* \"#utility.yul\":43282:43300   */\n      add\n        /* \"#utility.yul\":43274:43300   */\n      swap1\n      pop\n        /* \"#utility.yul\":43346:43355   */\n      dup2\n        /* \"#utility.yul\":43340:43344   */\n      dup2\n        /* \"#utility.yul\":43336:43356   */\n      sub\n        /* \"#utility.yul\":43332:43333   */\n      0x00\n        /* \"#utility.yul\":43321:43330   */\n      dup4\n        /* \"#utility.yul\":43317:43334   */\n      add\n        /* \"#utility.yul\":43310:43357   */\n      mstore\n        /* \"#utility.yul\":43374:43505   */\n      tag_976\n        /* \"#utility.yul\":43500:43504   */\n      dup2\n        /* \"#utility.yul\":43374:43505   */\n      tag_627\n      jump\t// in\n    tag_976:\n        /* \"#utility.yul\":43366:43505   */\n      swap1\n      pop\n        /* \"#utility.yul\":43093:43512   */\n      swap2\n      swap1\n      pop\n      jump\t// out\n\n    auxdata: 0xa2646970667358221220ec01506ffdff4f0d22195b88ccdc474d9bfdc7cced0800d7b333c54ee904b09c64736f6c634300080c0033\n}\n",
				"bytecode": {
					"linkReferences": {},
					"object": "608060405234801561001057600080fd5b506001606581905550614309806100286000396000f3fe6080604052600436106101e75760003560e01c80638da5cb5b11610102578063c4b1076611610095578063e3a2950b11610064578063e3a2950b1461076f578063e9ed87f81461079a578063ec8797a1146107c5578063f2fde38b146107f0576101ee565b8063c4b10766146106a1578063ca613292146106cc578063dc7bd4f5146106f5578063dd62ed3e14610732576101ee565b8063a7feb356116100d1578063a7feb356146105c1578063a9059cbb146105fe578063aff6cbf11461063b578063b90c2b5214610664576101ee565b80638da5cb5b1461050557806395d89b4114610530578063a3908e1b1461055b578063a457c2d714610584576101ee565b8063313ce5671161017a57806370a082311161014957806370a082311461045f578063715018a61461049c5780637cbc2373146104b357806389083654146104dc576101ee565b8063313ce5671461038e57806339509351146103b95780634f62b7ec146103f6578063539ffb7714610436576101ee565b80631c352679116101b65780631c352679146102ac5780631eee7e60146102d75780631fdbca691461031457806323b872dd14610351576101ee565b806306fdde03146101f0578063095ea7b31461021b5780630ea3a6911461025857806318160ddd14610281576101ee565b366101ee57005b005b3480156101fc57600080fd5b50610205610819565b6040516102129190612be1565b60405180910390f35b34801561022757600080fd5b50610242600480360381019061023d9190612cab565b6108ab565b60405161024f9190612d06565b60405180910390f35b34801561026457600080fd5b5061027f600480360381019061027a9190612e56565b6108c9565b005b34801561028d57600080fd5b50610296610a13565b6040516102a39190612f2a565b60405180910390f35b3480156102b857600080fd5b506102c1610a1d565b6040516102ce9190612f2a565b60405180910390f35b3480156102e357600080fd5b506102fe60048036038101906102f99190612f45565b610a23565b60405161030b9190612d06565b60405180910390f35b34801561032057600080fd5b5061033b60048036038101906103369190612f45565b610a79565b6040516103489190612d06565b60405180910390f35b34801561035d57600080fd5b5061037860048036038101906103739190612f72565b610a99565b6040516103859190612d06565b60405180910390f35b34801561039a57600080fd5b506103a3610b91565b6040516103b09190612fe1565b60405180910390f35b3480156103c557600080fd5b506103e060048036038101906103db9190612cab565b610b9a565b6040516103ed9190612d06565b60405180910390f35b34801561040257600080fd5b5061041d60048036038101906104189190612cab565b610c46565b60405161042d9493929190612ffc565b60405180910390f35b34801561044257600080fd5b5061045d60048036038101906104589190613041565b610c93565b005b34801561046b57600080fd5b5061048660048036038101906104819190612f45565b610e56565b6040516104939190612f2a565b60405180910390f35b3480156104a857600080fd5b506104b1610e9f565b005b3480156104bf57600080fd5b506104da60048036038101906104d5919061306e565b610eb3565b005b3480156104e857600080fd5b5061050360048036038101906104fe91906130da565b611114565b005b34801561051157600080fd5b5061051a611284565b6040516105279190613129565b60405180910390f35b34801561053c57600080fd5b506105456112ae565b6040516105529190612be1565b60405180910390f35b34801561056757600080fd5b50610582600480360381019061057d9190613041565b611340565b005b34801561059057600080fd5b506105ab60048036038101906105a69190612cab565b61135d565b6040516105b89190612d06565b60405180910390f35b3480156105cd57600080fd5b506105e860048036038101906105e3919061306e565b611448565b6040516105f59190612f2a565b60405180910390f35b34801561060a57600080fd5b5061062560048036038101906106209190612cab565b6114d3565b6040516106329190612d06565b60405180910390f35b34801561064757600080fd5b50610662600480360381019061065d9190613041565b6114f1565b005b34801561067057600080fd5b5061068b60048036038101906106869190612f45565b6116b4565b6040516106989190612f2a565b60405180910390f35b3480156106ad57600080fd5b506106b6611700565b6040516106c39190612f2a565b60405180910390f35b3480156106d857600080fd5b506106f360048036038101906106ee9190613144565b611706565b005b34801561070157600080fd5b5061071c60048036038101906107179190612f45565b6117f3565b6040516107299190612f2a565b60405180910390f35b34801561073e57600080fd5b50610759600480360381019061075491906131ab565b61183c565b6040516107669190612f2a565b60405180910390f35b34801561077b57600080fd5b506107846118c3565b6040516107919190612f2a565b60405180910390f35b3480156107a657600080fd5b506107af6118c9565b6040516107bc9190612f2a565b60405180910390f35b3480156107d157600080fd5b506107da6118cf565b6040516107e79190612f2a565b60405180910390f35b3480156107fc57600080fd5b5061081760048036038101906108129190612f45565b6118d5565b005b6060606c80546108289061321a565b80601f01602080910402602001604051908101604052809291908181526020018280546108549061321a565b80156108a15780601f10610876576101008083540402835291602001916108a1565b820191906000526020600020905b81548152906001019060200180831161088457829003601f168201915b5050505050905090565b60006108bf6108b8611959565b8484611961565b6001905092915050565b60008060019054906101000a900460ff161590508080156108fa5750600160008054906101000a900460ff1660ff16105b80610927575061090930611b2c565b1580156109265750600160008054906101000a900460ff1660ff16145b5b610966576040517f08c379a000000000000000000000000000000000000000000000000000000000815260040161095d906132be565b60405180910390fd5b60016000806101000a81548160ff021916908360ff16021790555080156109a3576001600060016101000a81548160ff0219169083151502179055505b6109b1878787878787611b4f565b8015610a0a5760008060016101000a81548160ff0219169083151502179055507f7f26b83ff96e1f2b6a682f133852f6798a09c465da95921460cefb38474024986001604051610a019190613323565b60405180910390a15b50505050505050565b6000606b54905090565b60675481565b6000606e60008373ffffffffffffffffffffffffffffffffffffffff1673ffffffffffffffffffffffffffffffffffffffff16815260200190815260200160002060009054906101000a900460ff169050919050565b606e6020528060005260406000206000915054906101000a900460ff1681565b6000610aa6848484611ca9565b6000607260008673ffffffffffffffffffffffffffffffffffffffff1673ffffffffffffffffffffffffffffffffffffffff1681526020019081526020016000206000610af1611959565b73ffffffffffffffffffffffffffffffffffffffff1673ffffffffffffffffffffffffffffffffffffffff16815260200190815260200160002054905082811015610b71576040517f08c379a0000000000000000000000000000000000000000000000000000000008152600401610b68906133b0565b60405180910390fd5b610b8585610b7d611959565b858403611961565b60019150509392505050565b60006012905090565b6000610c3c610ba7611959565b848460726000610bb5611959565b73ffffffffffffffffffffffffffffffffffffffff1673ffffffffffffffffffffffffffffffffffffffff16815260200190815260200160002060008873ffffffffffffffffffffffffffffffffffffffff1673ffffffffffffffffffffffffffffffffffffffff16815260200190815260200160002054610c3791906133ff565b611961565b6001905092915050565b606f6020528160005260406000208181548110610c6257600080fd5b9060005260206000209060040201600091509150508060000154908060010154908060020154908060030154905084565b610c9b611f34565b3381606f60008373ffffffffffffffffffffffffffffffffffffffff1673ffffffffffffffffffffffffffffffffffffffff168152602001908152602001600020805490508110610d21576040517f08c379a0000000000000000000000000000000000000000000000000000000008152600401610d18906134c7565b60405180910390fd5b6000606f60003373ffffffffffffffffffffffffffffffffffffffff1673ffffffffffffffffffffffffffffffffffffffff1681526020019081526020016000208481548110610d7457610d736134e7565b5b906000526020600020906004020190508060010154607160003373ffffffffffffffffffffffffffffffffffffffff1673ffffffffffffffffffffffffffffffffffffffff1681526020019081526020016000206000828254610dd79190613516565b92505081905550610ded30338360010154611ca9565b3373ffffffffffffffffffffffffffffffffffffffff167f56d7520e387607a8daa892e3fed116badc2a636307bdc794b1c1aed97ae203f48260010154604051610e379190612f2a565b60405180910390a2610e4884611f84565b505050610e53612146565b50565b6000607060008373ffffffffffffffffffffffffffffffffffffffff1673ffffffffffffffffffffffffffffffffffffffff168152602001908152602001600020549050919050565b610ea7612150565b610eb160006121ce565b565b610ebb611f34565b60008211610efe576040517f08c379a0000000000000000000000000000000000000000000000000000000008152600401610ef5906135bc565b60405180910390fd5b60018114158015610f10575060028114155b15610f57576000610f56576040517f08c379a0000000000000000000000000000000000000000000000000000000008152600401610f4d90613628565b60405180910390fd5b5b610f62333084611ca9565b6000610f6e8383611448565b905060006002831415610f8557606a549050610f8b565b60695490505b3373ffffffffffffffffffffffffffffffffffffffff167fbd5034ffbd47e4e72a94baa2cdb74c6fad73cb3bcdc13036b72ec8306f5a7646858484604051610fd593929190613648565b60405180910390a2606f60003373ffffffffffffffffffffffffffffffffffffffff1673ffffffffffffffffffffffffffffffffffffffff168152602001908152602001600020604051806080016040528084815260200186815260200161103b612294565b815260200161105a8461104c612294565b61229c90919063ffffffff16565b815250908060018154018082558091505060019003906000526020600020906004020160009091909190915060008201518160000155602082015181600101556040820151816002015560608201518160030155505083607160003373ffffffffffffffffffffffffffffffffffffffff1673ffffffffffffffffffffffffffffffffffffffff16815260200190815260200160002060008282546110ff91906133ff565b925050819055505050611110612146565b5050565b61111c612150565b3073ffffffffffffffffffffffffffffffffffffffff168273ffffffffffffffffffffffffffffffffffffffff16141561118b576040517f08c379a0000000000000000000000000000000000000000000000000000000008152600401611182906136f1565b60405180910390fd5b80156111ee576001606e60008473ffffffffffffffffffffffffffffffffffffffff1673ffffffffffffffffffffffffffffffffffffffff16815260200190815260200160002060006101000a81548160ff021916908315150217905550611247565b6000606e60008473ffffffffffffffffffffffffffffffffffffffff1673ffffffffffffffffffffffffffffffffffffffff16815260200190815260200160002060006101000a81548160ff0219169083151502179055505b7f3a34209cb941a5d23a56dea730a13738454bc7daefd4bb32e8d7df58c1bd920d8282604051611278929190613711565b60405180910390a15050565b6000603360009054906101000a900473ffffffffffffffffffffffffffffffffffffffff16905090565b6060606d80546112bd9061321a565b80601f01602080910402602001604051908101604052809291908181526020018280546112e99061321a565b80156113365780601f1061130b57610100808354040283529160200191611336565b820191906000526020600020905b81548152906001019060200180831161131957829003601f168201915b5050505050905090565b611348611f34565b61135281336122b2565b61135a612146565b50565b6000806072600061136c611959565b73ffffffffffffffffffffffffffffffffffffffff1673ffffffffffffffffffffffffffffffffffffffff16815260200190815260200160002060008573ffffffffffffffffffffffffffffffffffffffff1673ffffffffffffffffffffffffffffffffffffffff16815260200190815260200160002054905082811015611429576040517f08c379a0000000000000000000000000000000000000000000000000000000008152600401611420906137ac565b60405180910390fd5b61143d611434611959565b85858403611961565b600191505092915050565b60006001821415801561145c575060028214155b1561146a57600090506114cd565b60018214156114a25761149b606461148d6067548661238c90919063ffffffff16565b6123a290919063ffffffff16565b90506114cd565b6114ca60646114bc6068548661238c90919063ffffffff16565b6123a290919063ffffffff16565b90505b92915050565b60006114e76114e0611959565b8484611ca9565b6001905092915050565b6114f9611f34565b3381606f60008373ffffffffffffffffffffffffffffffffffffffff1673ffffffffffffffffffffffffffffffffffffffff16815260200190815260200160002080549050811061157f576040517f08c379a0000000000000000000000000000000000000000000000000000000008152600401611576906134c7565b60405180910390fd5b6000606f60003373ffffffffffffffffffffffffffffffffffffffff1673ffffffffffffffffffffffffffffffffffffffff16815260200190815260200160002084815481106115d2576115d16134e7565b5b906000526020600020906004020190508060010154607160003373ffffffffffffffffffffffffffffffffffffffff1673ffffffffffffffffffffffffffffffffffffffff16815260200190815260200160002060008282546116359190613516565b925050819055508060030154611649612294565b101561168a576040517f08c379a00000000000000000000000000000000000000000000000000000000081526004016116819061383e565b60405180910390fd5b61169d33826001015483600001546123b8565b6116a684611f84565b5050506116b1612146565b50565b6000606f60008373ffffffffffffffffffffffffffffffffffffffff1673ffffffffffffffffffffffffffffffffffffffff168152602001908152602001600020805490509050919050565b60695481565b61170e612150565b82841115611751576040517f08c379a0000000000000000000000000000000000000000000000000000000008152600401611748906138d0565b60405180910390fd5b60008111611794576040517f08c379a000000000000000000000000000000000000000000000000000000000815260040161178b90613962565b60405180910390fd5b83606781905550826068819055508160698190555080606a819055507ff282865353a487a40c4983b3a1a4e8901e81cb5605f653e6352dc57cdb574488848484846040516117e59493929190612ffc565b60405180910390a150505050565b6000607160008373ffffffffffffffffffffffffffffffffffffffff1673ffffffffffffffffffffffffffffffffffffffff168152602001908152602001600020549050919050565b6000607260008473ffffffffffffffffffffffffffffffffffffffff1673ffffffffffffffffffffffffffffffffffffffff16815260200190815260200160002060008373ffffffffffffffffffffffffffffffffffffffff1673ffffffffffffffffffffffffffffffffffffffff16815260200190815260200160002054905092915050565b60685481565b606a5481565b60665481565b6118dd612150565b600073ffffffffffffffffffffffffffffffffffffffff168173ffffffffffffffffffffffffffffffffffffffff16141561194d576040517f08c379a0000000000000000000000000000000000000000000000000000000008152600401611944906139f4565b60405180910390fd5b611956816121ce565b50565b600033905090565b600073ffffffffffffffffffffffffffffffffffffffff168373ffffffffffffffffffffffffffffffffffffffff1614156119d1576040517f08c379a00000000000000000000000000000000000000000000000000000000081526004016119c890613a86565b60405180910390fd5b600073ffffffffffffffffffffffffffffffffffffffff168273ffffffffffffffffffffffffffffffffffffffff161415611a41576040517f08c379a0000000000000000000000000000000000000000000000000000000008152600401611a3890613b18565b60405180910390fd5b80607260008573ffffffffffffffffffffffffffffffffffffffff1673ffffffffffffffffffffffffffffffffffffffff16815260200190815260200160002060008473ffffffffffffffffffffffffffffffffffffffff1673ffffffffffffffffffffffffffffffffffffffff168152602001908152602001600020819055508173ffffffffffffffffffffffffffffffffffffffff168373ffffffffffffffffffffffffffffffffffffffff167f8c5be1e5ebec7d5bd14f71427d1e84f3dd0314c0f7b2291e5b200ac8c7c3b92583604051611b1f9190612f2a565b60405180910390a3505050565b6000808273ffffffffffffffffffffffffffffffffffffffff163b119050919050565b60008060019054906101000a900460ff16159050808015611b805750600160008054906101000a900460ff1660ff16105b80611bad5750611b8f30611b2c565b158015611bac5750600160008054906101000a900460ff1660ff16145b5b611bec576040517f08c379a0000000000000000000000000000000000000000000000000000000008152600401611be3906132be565b60405180910390fd5b60016000806101000a81548160ff021916908360ff1602179055508015611c29576001600060016101000a81548160ff0219169083151502179055505b611c316124c4565b611c39612515565b611c47878787878787612576565b8015611ca05760008060016101000a81548160ff0219169083151502179055507f7f26b83ff96e1f2b6a682f133852f6798a09c465da95921460cefb38474024986001604051611c979190613323565b60405180910390a15b50505050505050565b600073ffffffffffffffffffffffffffffffffffffffff168373ffffffffffffffffffffffffffffffffffffffff161415611d19576040517f08c379a0000000000000000000000000000000000000000000000000000000008152600401611d1090613baa565b60405180910390fd5b600073ffffffffffffffffffffffffffffffffffffffff168273ffffffffffffffffffffffffffffffffffffffff161415611d89576040517f08c379a0000000000000000000000000000000000000000000000000000000008152600401611d8090613c3c565b60405180910390fd5b611d94838383612754565b6000607060008573ffffffffffffffffffffffffffffffffffffffff1673ffffffffffffffffffffffffffffffffffffffff16815260200190815260200160002054905081811015611e1b576040517f08c379a0000000000000000000000000000000000000000000000000000000008152600401611e1290613cce565b60405180910390fd5b81607060008673ffffffffffffffffffffffffffffffffffffffff1673ffffffffffffffffffffffffffffffffffffffff1681526020019081526020016000206000828254039250508190555081607060008573ffffffffffffffffffffffffffffffffffffffff1673ffffffffffffffffffffffffffffffffffffffff1681526020019081526020016000206000828254611eb791906133ff565b925050819055508273ffffffffffffffffffffffffffffffffffffffff168473ffffffffffffffffffffffffffffffffffffffff167fddf252ad1be2c89b69c2b068fc378daa952ba7f163c4a11628f55a4df523b3ef84604051611f1b9190612f2a565b60405180910390a3611f2e8484846128a7565b50505050565b60026065541415611f7a576040517f08c379a0000000000000000000000000000000000000000000000000000000008152600401611f7190613d3a565b60405180910390fd5b6002606581905550565b606f60003373ffffffffffffffffffffffffffffffffffffffff1673ffffffffffffffffffffffffffffffffffffffff1681526020019081526020016000206001606f60003373ffffffffffffffffffffffffffffffffffffffff1673ffffffffffffffffffffffffffffffffffffffff168152602001908152602001600020805490506120129190613516565b81548110612023576120226134e7565b5b9060005260206000209060040201606f60003373ffffffffffffffffffffffffffffffffffffffff1673ffffffffffffffffffffffffffffffffffffffff1681526020019081526020016000208281548110612082576120816134e7565b5b906000526020600020906004020160008201548160000155600182015481600101556002820154816002015560038201548160030155905050606f60003373ffffffffffffffffffffffffffffffffffffffff1673ffffffffffffffffffffffffffffffffffffffff16815260200190815260200160002080548061210a57612109613d5a565b5b60019003818190600052602060002090600402016000808201600090556001820160009055600282016000905560038201600090555050905550565b6001606581905550565b612158611959565b73ffffffffffffffffffffffffffffffffffffffff16612176611284565b73ffffffffffffffffffffffffffffffffffffffff16146121cc576040517f08c379a00000000000000000000000000000000000000000000000000000000081526004016121c390613dd5565b60405180910390fd5b565b6000603360009054906101000a900473ffffffffffffffffffffffffffffffffffffffff16905081603360006101000a81548173ffffffffffffffffffffffffffffffffffffffff021916908373ffffffffffffffffffffffffffffffffffffffff1602179055508173ffffffffffffffffffffffffffffffffffffffff168173ffffffffffffffffffffffffffffffffffffffff167f8be0079c531659141344cd1fd0a4f28419497f9722a3daafe3b4186f6b6457e060405160405180910390a35050565b600042905090565b600081836122aa91906133ff565b905092915050565b60008214156122f6576040517f08c379a00000000000000000000000000000000000000000000000000000000081526004016122ed90613e41565b60405180910390fd5b813414612338576040517f08c379a000000000000000000000000000000000000000000000000000000000815260040161232f90613ed3565b60405180910390fd5b3373ffffffffffffffffffffffffffffffffffffffff167fccfaeb3043a96a967dc036ab72e078a9632af809671bc2a1ac30a8043645f89e8284604051612380929190613ef3565b60405180910390a25050565b6000818361239a9190613f1c565b905092915050565b600081836123b09190613fa5565b905092915050565b60008373ffffffffffffffffffffffffffffffffffffffff16826040516123de90614007565b60006040518083038185875af1925050503d806000811461241b576040519150601f19603f3d011682016040523d82523d6000602084013e612420565b606091505b5050905080612464576040517f08c379a000000000000000000000000000000000000000000000000000000000815260040161245b90614068565b60405180910390fd5b61246e30846128ac565b8373ffffffffffffffffffffffffffffffffffffffff167f0da072ebd7a5649099f43a3776eb0cda17aca79426ee9f28aae203f5dfa04eda84846040516124b6929190614088565b60405180910390a250505050565b600060019054906101000a900460ff16612513576040517f08c379a000000000000000000000000000000000000000000000000000000000815260040161250a90614123565b60405180910390fd5b565b600060019054906101000a900460ff16612564576040517f08c379a000000000000000000000000000000000000000000000000000000000815260040161255b90614123565b60405180910390fd5b61257461256f611959565b6121ce565b565b60008060019054906101000a900460ff161590508080156125a75750600160008054906101000a900460ff1660ff16105b806125d457506125b630611b2c565b1580156125d35750600160008054906101000a900460ff1660ff16145b5b612613576040517f08c379a000000000000000000000000000000000000000000000000000000000815260040161260a906132be565b60405180910390fd5b60016000806101000a81548160ff021916908360ff1602179055508015612650576001600060016101000a81548160ff0219169083151502179055505b86606c9080519060200190612666929190612aa5565b5085606d908051906020019061267d929190612aa5565b5084606781905550836068819055508260698190555081606a819055506001606e60003073ffffffffffffffffffffffffffffffffffffffff1673ffffffffffffffffffffffffffffffffffffffff16815260200190815260200160002060006101000a81548160ff021916908315150217905550801561274b5760008060016101000a81548160ff0219169083151502179055507f7f26b83ff96e1f2b6a682f133852f6798a09c465da95921460cefb384740249860016040516127429190613323565b60405180910390a15b50505050505050565b600073ffffffffffffffffffffffffffffffffffffffff168373ffffffffffffffffffffffffffffffffffffffff1614806127bb5750600073ffffffffffffffffffffffffffffffffffffffff168273ffffffffffffffffffffffffffffffffffffffff16145b8061280f5750606e60008473ffffffffffffffffffffffffffffffffffffffff1673ffffffffffffffffffffffffffffffffffffffff16815260200190815260200160002060009054906101000a900460ff165b806128635750606e60008373ffffffffffffffffffffffffffffffffffffffff1673ffffffffffffffffffffffffffffffffffffffff16815260200190815260200160002060009054906101000a900460ff165b6128a2576040517f08c379a00000000000000000000000000000000000000000000000000000000081526004016128999061418f565b60405180910390fd5b505050565b505050565b600073ffffffffffffffffffffffffffffffffffffffff168273ffffffffffffffffffffffffffffffffffffffff16141561291c576040517f08c379a000000000000000000000000000000000000000000000000000000000815260040161291390614221565b60405180910390fd5b61292882600083612754565b6000607060008473ffffffffffffffffffffffffffffffffffffffff1673ffffffffffffffffffffffffffffffffffffffff168152602001908152602001600020549050818110156129af576040517f08c379a00000000000000000000000000000000000000000000000000000000081526004016129a6906142b3565b60405180910390fd5b81607060008573ffffffffffffffffffffffffffffffffffffffff1673ffffffffffffffffffffffffffffffffffffffff1681526020019081526020016000206000828254039250508190555081606b6000828254612a0e9190613516565b925050819055508160666000828254612a2791906133ff565b92505081905550600073ffffffffffffffffffffffffffffffffffffffff168373ffffffffffffffffffffffffffffffffffffffff167fddf252ad1be2c89b69c2b068fc378daa952ba7f163c4a11628f55a4df523b3ef84604051612a8c9190612f2a565b60405180910390a3612aa0836000846128a7565b505050565b828054612ab19061321a565b90600052602060002090601f016020900481019282612ad35760008555612b1a565b82601f10612aec57805160ff1916838001178555612b1a565b82800160010185558215612b1a579182015b82811115612b19578251825591602001919060010190612afe565b5b509050612b279190612b2b565b5090565b5b80821115612b44576000816000905550600101612b2c565b5090565b600081519050919050565b600082825260208201905092915050565b60005b83811015612b82578082015181840152602081019050612b67565b83811115612b91576000848401525b50505050565b6000601f19601f8301169050919050565b6000612bb382612b48565b612bbd8185612b53565b9350612bcd818560208601612b64565b612bd681612b97565b840191505092915050565b60006020820190508181036000830152612bfb8184612ba8565b905092915050565b6000604051905090565b600080fd5b600080fd5b600073ffffffffffffffffffffffffffffffffffffffff82169050919050565b6000612c4282612c17565b9050919050565b612c5281612c37565b8114612c5d57600080fd5b50565b600081359050612c6f81612c49565b92915050565b6000819050919050565b612c8881612c75565b8114612c9357600080fd5b50565b600081359050612ca581612c7f565b92915050565b60008060408385031215612cc257612cc1612c0d565b5b6000612cd085828601612c60565b9250506020612ce185828601612c96565b9150509250929050565b60008115159050919050565b612d0081612ceb565b82525050565b6000602082019050612d1b6000830184612cf7565b92915050565b600080fd5b600080fd5b7f4e487b7100000000000000000000000000000000000000000000000000000000600052604160045260246000fd5b612d6382612b97565b810181811067ffffffffffffffff82111715612d8257612d81612d2b565b5b80604052505050565b6000612d95612c03565b9050612da18282612d5a565b919050565b600067ffffffffffffffff821115612dc157612dc0612d2b565b5b612dca82612b97565b9050602081019050919050565b82818337600083830152505050565b6000612df9612df484612da6565b612d8b565b905082815260208101848484011115612e1557612e14612d26565b5b612e20848285612dd7565b509392505050565b600082601f830112612e3d57612e3c612d21565b5b8135612e4d848260208601612de6565b91505092915050565b60008060008060008060c08789031215612e7357612e72612c0d565b5b600087013567ffffffffffffffff811115612e9157612e90612c12565b5b612e9d89828a01612e28565b965050602087013567ffffffffffffffff811115612ebe57612ebd612c12565b5b612eca89828a01612e28565b9550506040612edb89828a01612c96565b9450506060612eec89828a01612c96565b9350506080612efd89828a01612c96565b92505060a0612f0e89828a01612c96565b9150509295509295509295565b612f2481612c75565b82525050565b6000602082019050612f3f6000830184612f1b565b92915050565b600060208284031215612f5b57612f5a612c0d565b5b6000612f6984828501612c60565b91505092915050565b600080600060608486031215612f8b57612f8a612c0d565b5b6000612f9986828701612c60565b9350506020612faa86828701612c60565b9250506040612fbb86828701612c96565b9150509250925092565b600060ff82169050919050565b612fdb81612fc5565b82525050565b6000602082019050612ff66000830184612fd2565b92915050565b60006080820190506130116000830187612f1b565b61301e6020830186612f1b565b61302b6040830185612f1b565b6130386060830184612f1b565b95945050505050565b60006020828403121561305757613056612c0d565b5b600061306584828501612c96565b91505092915050565b6000806040838503121561308557613084612c0d565b5b600061309385828601612c96565b92505060206130a485828601612c96565b9150509250929050565b6130b781612ceb565b81146130c257600080fd5b50565b6000813590506130d4816130ae565b92915050565b600080604083850312156130f1576130f0612c0d565b5b60006130ff85828601612c60565b9250506020613110858286016130c5565b9150509250929050565b61312381612c37565b82525050565b600060208201905061313e600083018461311a565b92915050565b6000806000806080858703121561315e5761315d612c0d565b5b600061316c87828801612c96565b945050602061317d87828801612c96565b935050604061318e87828801612c96565b925050606061319f87828801612c96565b91505092959194509250565b600080604083850312156131c2576131c1612c0d565b5b60006131d085828601612c60565b92505060206131e185828601612c60565b9150509250929050565b7f4e487b7100000000000000000000000000000000000000000000000000000000600052602260045260246000fd5b6000600282049050600182168061323257607f821691505b60208210811415613246576132456131eb565b5b50919050565b7f496e697469616c697a61626c653a20636f6e747261637420697320616c72656160008201527f647920696e697469616c697a6564000000000000000000000000000000000000602082015250565b60006132a8602e83612b53565b91506132b38261324c565b604082019050919050565b600060208201905081810360008301526132d78161329b565b9050919050565b6000819050919050565b6000819050919050565b600061330d613308613303846132de565b6132e8565b612fc5565b9050919050565b61331d816132f2565b82525050565b60006020820190506133386000830184613314565b92915050565b7f5845766d6f732045524332303a207472616e7366657220616d6f756e7420657860008201527f636565647320616c6c6f77616e63650000000000000000000000000000000000602082015250565b600061339a602f83612b53565b91506133a58261333e565b604082019050919050565b600060208201905081810360008301526133c98161338d565b9050919050565b7f4e487b7100000000000000000000000000000000000000000000000000000000600052601160045260246000fd5b600061340a82612c75565b915061341583612c75565b9250827fffffffffffffffffffffffffffffffffffffffffffffffffffffffffffffffff0382111561344a576134496133d0565b5b828201905092915050565b7f76616c696461746552656465656d3a2072656465656d20656e74727920646f6560008201527f73206e6f74206578697374000000000000000000000000000000000000000000602082015250565b60006134b1602b83612b53565b91506134bc82613455565b604082019050919050565b600060208201905081810360008301526134e0816134a4565b9050919050565b7f4e487b7100000000000000000000000000000000000000000000000000000000600052603260045260246000fd5b600061352182612c75565b915061352c83612c75565b92508282101561353f5761353e6133d0565b5b828203905092915050565b7f72656465656d3a207845766d6f73416d6f756e742063616e6e6f74206265206e60008201527f756c6c0000000000000000000000000000000000000000000000000000000000602082015250565b60006135a6602383612b53565b91506135b18261354a565b604082019050919050565b600060208201905081810360008301526135d581613599565b9050919050565b7f72656465656d3a20436c617373206572726f7200000000000000000000000000600082015250565b6000613612601383612b53565b915061361d826135dc565b602082019050919050565b6000602082019050818103600083015261364181613605565b9050919050565b600060608201905061365d6000830186612f1b565b61366a6020830185612f1b565b6136776040830184612f1b565b949350505050565b7f7570646174655472616e7366657257686974656c6973743a2043616e6e6f742060008201527f72656d6f7665205845766d6f732066726f6d2077686974656c69737400000000602082015250565b60006136db603c83612b53565b91506136e68261367f565b604082019050919050565b6000602082019050818103600083015261370a816136ce565b9050919050565b6000604082019050613726600083018561311a565b6137336020830184612cf7565b9392505050565b7f5845766d6f732045524332303a2064656372656173656420616c6c6f77616e6360008201527f652062656c6f77207a65726f0000000000000000000000000000000000000000602082015250565b6000613796602c83612b53565b91506137a18261373a565b604082019050919050565b600060208201905081810360008301526137c581613789565b9050919050565b7f66696e616c697a6552656465656d3a2076657374696e67206475726174696f6e60008201527f20686173206e6f7420656e646564207965740000000000000000000000000000602082015250565b6000613828603283612b53565b9150613833826137cc565b604082019050919050565b600060208201905081810360008301526138578161381b565b9050919050565b7f75706461746552656465656d53657474696e67733a2077726f6e67207261746960008201527f6f2076616c756573000000000000000000000000000000000000000000000000602082015250565b60006138ba602883612b53565b91506138c58261385e565b604082019050919050565b600060208201905081810360008301526138e9816138ad565b9050919050565b7f75706461746552656465656d53657474696e67733a2077726f6e67206d61784460008201527f75726174696f6e2076616c756573000000000000000000000000000000000000602082015250565b600061394c602e83612b53565b9150613957826138f0565b604082019050919050565b6000602082019050818103600083015261397b8161393f565b9050919050565b7f4f776e61626c653a206e6577206f776e657220697320746865207a65726f206160008201527f6464726573730000000000000000000000000000000000000000000000000000602082015250565b60006139de602683612b53565b91506139e982613982565b604082019050919050565b60006020820190508181036000830152613a0d816139d1565b9050919050565b7f5845766d6f732045524332303a20617070726f76652066726f6d20746865207a60008201527f65726f2061646472657373000000000000000000000000000000000000000000602082015250565b6000613a70602b83612b53565b9150613a7b82613a14565b604082019050919050565b60006020820190508181036000830152613a9f81613a63565b9050919050565b7f5845766d6f732045524332303a20617070726f766520746f20746865207a657260008201527f6f20616464726573730000000000000000000000000000000000000000000000602082015250565b6000613b02602983612b53565b9150613b0d82613aa6565b604082019050919050565b60006020820190508181036000830152613b3181613af5565b9050919050565b7f5845766d6f732045524332303a207472616e736665722066726f6d207468652060008201527f7a65726f20616464726573730000000000000000000000000000000000000000602082015250565b6000613b94602c83612b53565b9150613b9f82613b38565b604082019050919050565b60006020820190508181036000830152613bc381613b87565b9050919050565b7f5845766d6f732045524332303a207472616e7366657220746f20746865207a6560008201527f726f206164647265737300000000000000000000000000000000000000000000602082015250565b6000613c26602a83612b53565b9150613c3182613bca565b604082019050919050565b60006020820190508181036000830152613c5581613c19565b9050919050565b7f5845766d6f732045524332303a207472616e7366657220616d6f756e7420657860008201527f63656564732062616c616e636500000000000000000000000000000000000000602082015250565b6000613cb8602d83612b53565b9150613cc382613c5c565b604082019050919050565b60006020820190508181036000830152613ce781613cab565b9050919050565b7f5265656e7472616e637947756172643a207265656e7472616e742063616c6c00600082015250565b6000613d24601f83612b53565b9150613d2f82613cee565b602082019050919050565b60006020820190508181036000830152613d5381613d17565b9050919050565b7f4e487b7100000000000000000000000000000000000000000000000000000000600052603160045260246000fd5b7f4f776e61626c653a2063616c6c6572206973206e6f7420746865206f776e6572600082015250565b6000613dbf602083612b53565b9150613dca82613d89565b602082019050919050565b60006020820190508181036000830152613dee81613db2565b9050919050565b7f636f6e766572743a20616d6f756e742063616e6e6f74206265206e756c6c0000600082015250565b6000613e2b601e83612b53565b9150613e3682613df5565b602082019050919050565b60006020820190508181036000830152613e5a81613e1e565b9050919050565b7f636f6e766572743a2054686520616d6f756e74206973206e6f7420636f72726560008201527f6374000000000000000000000000000000000000000000000000000000000000602082015250565b6000613ebd602283612b53565b9150613ec882613e61565b604082019050919050565b60006020820190508181036000830152613eec81613eb0565b9050919050565b6000604082019050613f08600083018561311a565b613f156020830184612f1b565b9392505050565b6000613f2782612c75565b9150613f3283612c75565b9250817fffffffffffffffffffffffffffffffffffffffffffffffffffffffffffffffff0483118215151615613f6b57613f6a6133d0565b5b828202905092915050565b7f4e487b7100000000000000000000000000000000000000000000000000000000600052601260045260246000fd5b6000613fb082612c75565b9150613fbb83612c75565b925082613fcb57613fca613f76565b5b828204905092915050565b600081905092915050565b50565b6000613ff1600083613fd6565b9150613ffc82613fe1565b600082019050919050565b600061401282613fe4565b9150819050919050565b7f66696e616c697a6552656465656d3a5472616e73666572206661696c65642e00600082015250565b6000614052601f83612b53565b915061405d8261401c565b602082019050919050565b6000602082019050818103600083015261408181614045565b9050919050565b600060408201905061409d6000830185612f1b565b6140aa6020830184612f1b565b9392505050565b7f496e697469616c697a61626c653a20636f6e7472616374206973206e6f74206960008201527f6e697469616c697a696e67000000000000000000000000000000000000000000602082015250565b600061410d602b83612b53565b9150614118826140b1565b604082019050919050565b6000602082019050818103600083015261413c81614100565b9050919050565b7f7472616e736665723a206e6f7420616c6c6f7765640000000000000000000000600082015250565b6000614179601583612b53565b915061418482614143565b602082019050919050565b600060208201905081810360008301526141a88161416c565b9050919050565b7f5845766d6f732045524332303a206275726e2066726f6d20746865207a65726f60008201527f2061646472657373000000000000000000000000000000000000000000000000602082015250565b600061420b602883612b53565b9150614216826141af565b604082019050919050565b6000602082019050818103600083015261423a816141fe565b9050919050565b7f5845766d6f732045524332303a206275726e20616d6f756e742065786365656460008201527f732062616c616e63650000000000000000000000000000000000000000000000602082015250565b600061429d602983612b53565b91506142a882614241565b604082019050919050565b600060208201905081810360008301526142cc81614290565b905091905056fea2646970667358221220ec01506ffdff4f0d22195b88ccdc474d9bfdc7cced0800d7b333c54ee904b09c64736f6c634300080c0033",
					"opcodes": "PUSH1 0x80 PUSH1 0x40 MSTORE CALLVALUE DUP1 ISZERO PUSH2 0x10 JUMPI PUSH1 0x0 DUP1 REVERT JUMPDEST POP PUSH1 0x1 PUSH1 0x65 DUP2 SWAP1 SSTORE POP PUSH2 0x4309 DUP1 PUSH2 0x28 PUSH1 0x0 CODECOPY PUSH1 0x0 RETURN INVALID PUSH1 0x80 PUSH1 0x40 MSTORE PUSH1 0x4 CALLDATASIZE LT PUSH2 0x1E7 JUMPI PUSH1 0x0 CALLDATALOAD PUSH1 0xE0 SHR DUP1 PUSH4 0x8DA5CB5B GT PUSH2 0x102 JUMPI DUP1 PUSH4 0xC4B10766 GT PUSH2 0x95 JUMPI DUP1 PUSH4 0xE3A2950B GT PUSH2 0x64 JUMPI DUP1 PUSH4 0xE3A2950B EQ PUSH2 0x76F JUMPI DUP1 PUSH4 0xE9ED87F8 EQ PUSH2 0x79A JUMPI DUP1 PUSH4 0xEC8797A1 EQ PUSH2 0x7C5 JUMPI DUP1 PUSH4 0xF2FDE38B EQ PUSH2 0x7F0 JUMPI PUSH2 0x1EE JUMP JUMPDEST DUP1 PUSH4 0xC4B10766 EQ PUSH2 0x6A1 JUMPI DUP1 PUSH4 0xCA613292 EQ PUSH2 0x6CC JUMPI DUP1 PUSH4 0xDC7BD4F5 EQ PUSH2 0x6F5 JUMPI DUP1 PUSH4 0xDD62ED3E EQ PUSH2 0x732 JUMPI PUSH2 0x1EE JUMP JUMPDEST DUP1 PUSH4 0xA7FEB356 GT PUSH2 0xD1 JUMPI DUP1 PUSH4 0xA7FEB356 EQ PUSH2 0x5C1 JUMPI DUP1 PUSH4 0xA9059CBB EQ PUSH2 0x5FE JUMPI DUP1 PUSH4 0xAFF6CBF1 EQ PUSH2 0x63B JUMPI DUP1 PUSH4 0xB90C2B52 EQ PUSH2 0x664 JUMPI PUSH2 0x1EE JUMP JUMPDEST DUP1 PUSH4 0x8DA5CB5B EQ PUSH2 0x505 JUMPI DUP1 PUSH4 0x95D89B41 EQ PUSH2 0x530 JUMPI DUP1 PUSH4 0xA3908E1B EQ PUSH2 0x55B JUMPI DUP1 PUSH4 0xA457C2D7 EQ PUSH2 0x584 JUMPI PUSH2 0x1EE JUMP JUMPDEST DUP1 PUSH4 0x313CE567 GT PUSH2 0x17A JUMPI DUP1 PUSH4 0x70A08231 GT PUSH2 0x149 JUMPI DUP1 PUSH4 0x70A08231 EQ PUSH2 0x45F JUMPI DUP1 PUSH4 0x715018A6 EQ PUSH2 0x49C JUMPI DUP1 PUSH4 0x7CBC2373 EQ PUSH2 0x4B3 JUMPI DUP1 PUSH4 0x89083654 EQ PUSH2 0x4DC JUMPI PUSH2 0x1EE JUMP JUMPDEST DUP1 PUSH4 0x313CE567 EQ PUSH2 0x38E JUMPI DUP1 PUSH4 0x39509351 EQ PUSH2 0x3B9 JUMPI DUP1 PUSH4 0x4F62B7EC EQ PUSH2 0x3F6 JUMPI DUP1 PUSH4 0x539FFB77 EQ PUSH2 0x436 JUMPI PUSH2 0x1EE JUMP JUMPDEST DUP1 PUSH4 0x1C352679 GT PUSH2 0x1B6 JUMPI DUP1 PUSH4 0x1C352679 EQ PUSH2 0x2AC JUMPI DUP1 PUSH4 0x1EEE7E60 EQ PUSH2 0x2D7 JUMPI DUP1 PUSH4 0x1FDBCA69 EQ PUSH2 0x314 JUMPI DUP1 PUSH4 0x23B872DD EQ PUSH2 0x351 JUMPI PUSH2 0x1EE JUMP JUMPDEST DUP1 PUSH4 0x6FDDE03 EQ PUSH2 0x1F0 JUMPI DUP1 PUSH4 0x95EA7B3 EQ PUSH2 0x21B JUMPI DUP1 PUSH4 0xEA3A691 EQ PUSH2 0x258 JUMPI DUP1 PUSH4 0x18160DDD EQ PUSH2 0x281 JUMPI PUSH2 0x1EE JUMP JUMPDEST CALLDATASIZE PUSH2 0x1EE JUMPI STOP JUMPDEST STOP JUMPDEST CALLVALUE DUP1 ISZERO PUSH2 0x1FC JUMPI PUSH1 0x0 DUP1 REVERT JUMPDEST POP PUSH2 0x205 PUSH2 0x819 JUMP JUMPDEST PUSH1 0x40 MLOAD PUSH2 0x212 SWAP2 SWAP1 PUSH2 0x2BE1 JUMP JUMPDEST PUSH1 0x40 MLOAD DUP1 SWAP2 SUB SWAP1 RETURN JUMPDEST CALLVALUE DUP1 ISZERO PUSH2 0x227 JUMPI PUSH1 0x0 DUP1 REVERT JUMPDEST POP PUSH2 0x242 PUSH1 0x4 DUP1 CALLDATASIZE SUB DUP2 ADD SWAP1 PUSH2 0x23D SWAP2 SWAP1 PUSH2 0x2CAB JUMP JUMPDEST PUSH2 0x8AB JUMP JUMPDEST PUSH1 0x40 MLOAD PUSH2 0x24F SWAP2 SWAP1 PUSH2 0x2D06 JUMP JUMPDEST PUSH1 0x40 MLOAD DUP1 SWAP2 SUB SWAP1 RETURN JUMPDEST CALLVALUE DUP1 ISZERO PUSH2 0x264 JUMPI PUSH1 0x0 DUP1 REVERT JUMPDEST POP PUSH2 0x27F PUSH1 0x4 DUP1 CALLDATASIZE SUB DUP2 ADD SWAP1 PUSH2 0x27A SWAP2 SWAP1 PUSH2 0x2E56 JUMP JUMPDEST PUSH2 0x8C9 JUMP JUMPDEST STOP JUMPDEST CALLVALUE DUP1 ISZERO PUSH2 0x28D JUMPI PUSH1 0x0 DUP1 REVERT JUMPDEST POP PUSH2 0x296 PUSH2 0xA13 JUMP JUMPDEST PUSH1 0x40 MLOAD PUSH2 0x2A3 SWAP2 SWAP1 PUSH2 0x2F2A JUMP JUMPDEST PUSH1 0x40 MLOAD DUP1 SWAP2 SUB SWAP1 RETURN JUMPDEST CALLVALUE DUP1 ISZERO PUSH2 0x2B8 JUMPI PUSH1 0x0 DUP1 REVERT JUMPDEST POP PUSH2 0x2C1 PUSH2 0xA1D JUMP JUMPDEST PUSH1 0x40 MLOAD PUSH2 0x2CE SWAP2 SWAP1 PUSH2 0x2F2A JUMP JUMPDEST PUSH1 0x40 MLOAD DUP1 SWAP2 SUB SWAP1 RETURN JUMPDEST CALLVALUE DUP1 ISZERO PUSH2 0x2E3 JUMPI PUSH1 0x0 DUP1 REVERT JUMPDEST POP PUSH2 0x2FE PUSH1 0x4 DUP1 CALLDATASIZE SUB DUP2 ADD SWAP1 PUSH2 0x2F9 SWAP2 SWAP1 PUSH2 0x2F45 JUMP JUMPDEST PUSH2 0xA23 JUMP JUMPDEST PUSH1 0x40 MLOAD PUSH2 0x30B SWAP2 SWAP1 PUSH2 0x2D06 JUMP JUMPDEST PUSH1 0x40 MLOAD DUP1 SWAP2 SUB SWAP1 RETURN JUMPDEST CALLVALUE DUP1 ISZERO PUSH2 0x320 JUMPI PUSH1 0x0 DUP1 REVERT JUMPDEST POP PUSH2 0x33B PUSH1 0x4 DUP1 CALLDATASIZE SUB DUP2 ADD SWAP1 PUSH2 0x336 SWAP2 SWAP1 PUSH2 0x2F45 JUMP JUMPDEST PUSH2 0xA79 JUMP JUMPDEST PUSH1 0x40 MLOAD PUSH2 0x348 SWAP2 SWAP1 PUSH2 0x2D06 JUMP JUMPDEST PUSH1 0x40 MLOAD DUP1 SWAP2 SUB SWAP1 RETURN JUMPDEST CALLVALUE DUP1 ISZERO PUSH2 0x35D JUMPI PUSH1 0x0 DUP1 REVERT JUMPDEST POP PUSH2 0x378 PUSH1 0x4 DUP1 CALLDATASIZE SUB DUP2 ADD SWAP1 PUSH2 0x373 SWAP2 SWAP1 PUSH2 0x2F72 JUMP JUMPDEST PUSH2 0xA99 JUMP JUMPDEST PUSH1 0x40 MLOAD PUSH2 0x385 SWAP2 SWAP1 PUSH2 0x2D06 JUMP JUMPDEST PUSH1 0x40 MLOAD DUP1 SWAP2 SUB SWAP1 RETURN JUMPDEST CALLVALUE DUP1 ISZERO PUSH2 0x39A JUMPI PUSH1 0x0 DUP1 REVERT JUMPDEST POP PUSH2 0x3A3 PUSH2 0xB91 JUMP JUMPDEST PUSH1 0x40 MLOAD PUSH2 0x3B0 SWAP2 SWAP1 PUSH2 0x2FE1 JUMP JUMPDEST PUSH1 0x40 MLOAD DUP1 SWAP2 SUB SWAP1 RETURN JUMPDEST CALLVALUE DUP1 ISZERO PUSH2 0x3C5 JUMPI PUSH1 0x0 DUP1 REVERT JUMPDEST POP PUSH2 0x3E0 PUSH1 0x4 DUP1 CALLDATASIZE SUB DUP2 ADD SWAP1 PUSH2 0x3DB SWAP2 SWAP1 PUSH2 0x2CAB JUMP JUMPDEST PUSH2 0xB9A JUMP JUMPDEST PUSH1 0x40 MLOAD PUSH2 0x3ED SWAP2 SWAP1 PUSH2 0x2D06 JUMP JUMPDEST PUSH1 0x40 MLOAD DUP1 SWAP2 SUB SWAP1 RETURN JUMPDEST CALLVALUE DUP1 ISZERO PUSH2 0x402 JUMPI PUSH1 0x0 DUP1 REVERT JUMPDEST POP PUSH2 0x41D PUSH1 0x4 DUP1 CALLDATASIZE SUB DUP2 ADD SWAP1 PUSH2 0x418 SWAP2 SWAP1 PUSH2 0x2CAB JUMP JUMPDEST PUSH2 0xC46 JUMP JUMPDEST PUSH1 0x40 MLOAD PUSH2 0x42D SWAP5 SWAP4 SWAP3 SWAP2 SWAP1 PUSH2 0x2FFC JUMP JUMPDEST PUSH1 0x40 MLOAD DUP1 SWAP2 SUB SWAP1 RETURN JUMPDEST CALLVALUE DUP1 ISZERO PUSH2 0x442 JUMPI PUSH1 0x0 DUP1 REVERT JUMPDEST POP PUSH2 0x45D PUSH1 0x4 DUP1 CALLDATASIZE SUB DUP2 ADD SWAP1 PUSH2 0x458 SWAP2 SWAP1 PUSH2 0x3041 JUMP JUMPDEST PUSH2 0xC93 JUMP JUMPDEST STOP JUMPDEST CALLVALUE DUP1 ISZERO PUSH2 0x46B JUMPI PUSH1 0x0 DUP1 REVERT JUMPDEST POP PUSH2 0x486 PUSH1 0x4 DUP1 CALLDATASIZE SUB DUP2 ADD SWAP1 PUSH2 0x481 SWAP2 SWAP1 PUSH2 0x2F45 JUMP JUMPDEST PUSH2 0xE56 JUMP JUMPDEST PUSH1 0x40 MLOAD PUSH2 0x493 SWAP2 SWAP1 PUSH2 0x2F2A JUMP JUMPDEST PUSH1 0x40 MLOAD DUP1 SWAP2 SUB SWAP1 RETURN JUMPDEST CALLVALUE DUP1 ISZERO PUSH2 0x4A8 JUMPI PUSH1 0x0 DUP1 REVERT JUMPDEST POP PUSH2 0x4B1 PUSH2 0xE9F JUMP JUMPDEST STOP JUMPDEST CALLVALUE DUP1 ISZERO PUSH2 0x4BF JUMPI PUSH1 0x0 DUP1 REVERT JUMPDEST POP PUSH2 0x4DA PUSH1 0x4 DUP1 CALLDATASIZE SUB DUP2 ADD SWAP1 PUSH2 0x4D5 SWAP2 SWAP1 PUSH2 0x306E JUMP JUMPDEST PUSH2 0xEB3 JUMP JUMPDEST STOP JUMPDEST CALLVALUE DUP1 ISZERO PUSH2 0x4E8 JUMPI PUSH1 0x0 DUP1 REVERT JUMPDEST POP PUSH2 0x503 PUSH1 0x4 DUP1 CALLDATASIZE SUB DUP2 ADD SWAP1 PUSH2 0x4FE SWAP2 SWAP1 PUSH2 0x30DA JUMP JUMPDEST PUSH2 0x1114 JUMP JUMPDEST STOP JUMPDEST CALLVALUE DUP1 ISZERO PUSH2 0x511 JUMPI PUSH1 0x0 DUP1 REVERT JUMPDEST POP PUSH2 0x51A PUSH2 0x1284 JUMP JUMPDEST PUSH1 0x40 MLOAD PUSH2 0x527 SWAP2 SWAP1 PUSH2 0x3129 JUMP JUMPDEST PUSH1 0x40 MLOAD DUP1 SWAP2 SUB SWAP1 RETURN JUMPDEST CALLVALUE DUP1 ISZERO PUSH2 0x53C JUMPI PUSH1 0x0 DUP1 REVERT JUMPDEST POP PUSH2 0x545 PUSH2 0x12AE JUMP JUMPDEST PUSH1 0x40 MLOAD PUSH2 0x552 SWAP2 SWAP1 PUSH2 0x2BE1 JUMP JUMPDEST PUSH1 0x40 MLOAD DUP1 SWAP2 SUB SWAP1 RETURN JUMPDEST CALLVALUE DUP1 ISZERO PUSH2 0x567 JUMPI PUSH1 0x0 DUP1 REVERT JUMPDEST POP PUSH2 0x582 PUSH1 0x4 DUP1 CALLDATASIZE SUB DUP2 ADD SWAP1 PUSH2 0x57D SWAP2 SWAP1 PUSH2 0x3041 JUMP JUMPDEST PUSH2 0x1340 JUMP JUMPDEST STOP JUMPDEST CALLVALUE DUP1 ISZERO PUSH2 0x590 JUMPI PUSH1 0x0 DUP1 REVERT JUMPDEST POP PUSH2 0x5AB PUSH1 0x4 DUP1 CALLDATASIZE SUB DUP2 ADD SWAP1 PUSH2 0x5A6 SWAP2 SWAP1 PUSH2 0x2CAB JUMP JUMPDEST PUSH2 0x135D JUMP JUMPDEST PUSH1 0x40 MLOAD PUSH2 0x5B8 SWAP2 SWAP1 PUSH2 0x2D06 JUMP JUMPDEST PUSH1 0x40 MLOAD DUP1 SWAP2 SUB SWAP1 RETURN JUMPDEST CALLVALUE DUP1 ISZERO PUSH2 0x5CD JUMPI PUSH1 0x0 DUP1 REVERT JUMPDEST POP PUSH2 0x5E8 PUSH1 0x4 DUP1 CALLDATASIZE SUB DUP2 ADD SWAP1 PUSH2 0x5E3 SWAP2 SWAP1 PUSH2 0x306E JUMP JUMPDEST PUSH2 0x1448 JUMP JUMPDEST PUSH1 0x40 MLOAD PUSH2 0x5F5 SWAP2 SWAP1 PUSH2 0x2F2A JUMP JUMPDEST PUSH1 0x40 MLOAD DUP1 SWAP2 SUB SWAP1 RETURN JUMPDEST CALLVALUE DUP1 ISZERO PUSH2 0x60A JUMPI PUSH1 0x0 DUP1 REVERT JUMPDEST POP PUSH2 0x625 PUSH1 0x4 DUP1 CALLDATASIZE SUB DUP2 ADD SWAP1 PUSH2 0x620 SWAP2 SWAP1 PUSH2 0x2CAB JUMP JUMPDEST PUSH2 0x14D3 JUMP JUMPDEST PUSH1 0x40 MLOAD PUSH2 0x632 SWAP2 SWAP1 PUSH2 0x2D06 JUMP JUMPDEST PUSH1 0x40 MLOAD DUP1 SWAP2 SUB SWAP1 RETURN JUMPDEST CALLVALUE DUP1 ISZERO PUSH2 0x647 JUMPI PUSH1 0x0 DUP1 REVERT JUMPDEST POP PUSH2 0x662 PUSH1 0x4 DUP1 CALLDATASIZE SUB DUP2 ADD SWAP1 PUSH2 0x65D SWAP2 SWAP1 PUSH2 0x3041 JUMP JUMPDEST PUSH2 0x14F1 JUMP JUMPDEST STOP JUMPDEST CALLVALUE DUP1 ISZERO PUSH2 0x670 JUMPI PUSH1 0x0 DUP1 REVERT JUMPDEST POP PUSH2 0x68B PUSH1 0x4 DUP1 CALLDATASIZE SUB DUP2 ADD SWAP1 PUSH2 0x686 SWAP2 SWAP1 PUSH2 0x2F45 JUMP JUMPDEST PUSH2 0x16B4 JUMP JUMPDEST PUSH1 0x40 MLOAD PUSH2 0x698 SWAP2 SWAP1 PUSH2 0x2F2A JUMP JUMPDEST PUSH1 0x40 MLOAD DUP1 SWAP2 SUB SWAP1 RETURN JUMPDEST CALLVALUE DUP1 ISZERO PUSH2 0x6AD JUMPI PUSH1 0x0 DUP1 REVERT JUMPDEST POP PUSH2 0x6B6 PUSH2 0x1700 JUMP JUMPDEST PUSH1 0x40 MLOAD PUSH2 0x6C3 SWAP2 SWAP1 PUSH2 0x2F2A JUMP JUMPDEST PUSH1 0x40 MLOAD DUP1 SWAP2 SUB SWAP1 RETURN JUMPDEST CALLVALUE DUP1 ISZERO PUSH2 0x6D8 JUMPI PUSH1 0x0 DUP1 REVERT JUMPDEST POP PUSH2 0x6F3 PUSH1 0x4 DUP1 CALLDATASIZE SUB DUP2 ADD SWAP1 PUSH2 0x6EE SWAP2 SWAP1 PUSH2 0x3144 JUMP JUMPDEST PUSH2 0x1706 JUMP JUMPDEST STOP JUMPDEST CALLVALUE DUP1 ISZERO PUSH2 0x701 JUMPI PUSH1 0x0 DUP1 REVERT JUMPDEST POP PUSH2 0x71C PUSH1 0x4 DUP1 CALLDATASIZE SUB DUP2 ADD SWAP1 PUSH2 0x717 SWAP2 SWAP1 PUSH2 0x2F45 JUMP JUMPDEST PUSH2 0x17F3 JUMP JUMPDEST PUSH1 0x40 MLOAD PUSH2 0x729 SWAP2 SWAP1 PUSH2 0x2F2A JUMP JUMPDEST PUSH1 0x40 MLOAD DUP1 SWAP2 SUB SWAP1 RETURN JUMPDEST CALLVALUE DUP1 ISZERO PUSH2 0x73E JUMPI PUSH1 0x0 DUP1 REVERT JUMPDEST POP PUSH2 0x759 PUSH1 0x4 DUP1 CALLDATASIZE SUB DUP2 ADD SWAP1 PUSH2 0x754 SWAP2 SWAP1 PUSH2 0x31AB JUMP JUMPDEST PUSH2 0x183C JUMP JUMPDEST PUSH1 0x40 MLOAD PUSH2 0x766 SWAP2 SWAP1 PUSH2 0x2F2A JUMP JUMPDEST PUSH1 0x40 MLOAD DUP1 SWAP2 SUB SWAP1 RETURN JUMPDEST CALLVALUE DUP1 ISZERO PUSH2 0x77B JUMPI PUSH1 0x0 DUP1 REVERT JUMPDEST POP PUSH2 0x784 PUSH2 0x18C3 JUMP JUMPDEST PUSH1 0x40 MLOAD PUSH2 0x791 SWAP2 SWAP1 PUSH2 0x2F2A JUMP JUMPDEST PUSH1 0x40 MLOAD DUP1 SWAP2 SUB SWAP1 RETURN JUMPDEST CALLVALUE DUP1 ISZERO PUSH2 0x7A6 JUMPI PUSH1 0x0 DUP1 REVERT JUMPDEST POP PUSH2 0x7AF PUSH2 0x18C9 JUMP JUMPDEST PUSH1 0x40 MLOAD PUSH2 0x7BC SWAP2 SWAP1 PUSH2 0x2F2A JUMP JUMPDEST PUSH1 0x40 MLOAD DUP1 SWAP2 SUB SWAP1 RETURN JUMPDEST CALLVALUE DUP1 ISZERO PUSH2 0x7D1 JUMPI PUSH1 0x0 DUP1 REVERT JUMPDEST POP PUSH2 0x7DA PUSH2 0x18CF JUMP JUMPDEST PUSH1 0x40 MLOAD PUSH2 0x7E7 SWAP2 SWAP1 PUSH2 0x2F2A JUMP JUMPDEST PUSH1 0x40 MLOAD DUP1 SWAP2 SUB SWAP1 RETURN JUMPDEST CALLVALUE DUP1 ISZERO PUSH2 0x7FC JUMPI PUSH1 0x0 DUP1 REVERT JUMPDEST POP PUSH2 0x817 PUSH1 0x4 DUP1 CALLDATASIZE SUB DUP2 ADD SWAP1 PUSH2 0x812 SWAP2 SWAP1 PUSH2 0x2F45 JUMP JUMPDEST PUSH2 0x18D5 JUMP JUMPDEST STOP JUMPDEST PUSH1 0x60 PUSH1 0x6C DUP1 SLOAD PUSH2 0x828 SWAP1 PUSH2 0x321A JUMP JUMPDEST DUP1 PUSH1 0x1F ADD PUSH1 0x20 DUP1 SWAP2 DIV MUL PUSH1 0x20 ADD PUSH1 0x40 MLOAD SWAP1 DUP2 ADD PUSH1 0x40 MSTORE DUP1 SWAP3 SWAP2 SWAP1 DUP2 DUP2 MSTORE PUSH1 0x20 ADD DUP3 DUP1 SLOAD PUSH2 0x854 SWAP1 PUSH2 0x321A JUMP JUMPDEST DUP1 ISZERO PUSH2 0x8A1 JUMPI DUP1 PUSH1 0x1F LT PUSH2 0x876 JUMPI PUSH2 0x100 DUP1 DUP4 SLOAD DIV MUL DUP4 MSTORE SWAP2 PUSH1 0x20 ADD SWAP2 PUSH2 0x8A1 JUMP JUMPDEST DUP3 ADD SWAP2 SWAP1 PUSH1 0x0 MSTORE PUSH1 0x20 PUSH1 0x0 KECCAK256 SWAP1 JUMPDEST DUP2 SLOAD DUP2 MSTORE SWAP1 PUSH1 0x1 ADD SWAP1 PUSH1 0x20 ADD DUP1 DUP4 GT PUSH2 0x884 JUMPI DUP3 SWAP1 SUB PUSH1 0x1F AND DUP3 ADD SWAP2 JUMPDEST POP POP POP POP POP SWAP1 POP SWAP1 JUMP JUMPDEST PUSH1 0x0 PUSH2 0x8BF PUSH2 0x8B8 PUSH2 0x1959 JUMP JUMPDEST DUP5 DUP5 PUSH2 0x1961 JUMP JUMPDEST PUSH1 0x1 SWAP1 POP SWAP3 SWAP2 POP POP JUMP JUMPDEST PUSH1 0x0 DUP1 PUSH1 0x1 SWAP1 SLOAD SWAP1 PUSH2 0x100 EXP SWAP1 DIV PUSH1 0xFF AND ISZERO SWAP1 POP DUP1 DUP1 ISZERO PUSH2 0x8FA JUMPI POP PUSH1 0x1 PUSH1 0x0 DUP1 SLOAD SWAP1 PUSH2 0x100 EXP SWAP1 DIV PUSH1 0xFF AND PUSH1 0xFF AND LT JUMPDEST DUP1 PUSH2 0x927 JUMPI POP PUSH2 0x909 ADDRESS PUSH2 0x1B2C JUMP JUMPDEST ISZERO DUP1 ISZERO PUSH2 0x926 JUMPI POP PUSH1 0x1 PUSH1 0x0 DUP1 SLOAD SWAP1 PUSH2 0x100 EXP SWAP1 DIV PUSH1 0xFF AND PUSH1 0xFF AND EQ JUMPDEST JUMPDEST PUSH2 0x966 JUMPI PUSH1 0x40 MLOAD PUSH32 0x8C379A000000000000000000000000000000000000000000000000000000000 DUP2 MSTORE PUSH1 0x4 ADD PUSH2 0x95D SWAP1 PUSH2 0x32BE JUMP JUMPDEST PUSH1 0x40 MLOAD DUP1 SWAP2 SUB SWAP1 REVERT JUMPDEST PUSH1 0x1 PUSH1 0x0 DUP1 PUSH2 0x100 EXP DUP2 SLOAD DUP2 PUSH1 0xFF MUL NOT AND SWAP1 DUP4 PUSH1 0xFF AND MUL OR SWAP1 SSTORE POP DUP1 ISZERO PUSH2 0x9A3 JUMPI PUSH1 0x1 PUSH1 0x0 PUSH1 0x1 PUSH2 0x100 EXP DUP2 SLOAD DUP2 PUSH1 0xFF MUL NOT AND SWAP1 DUP4 ISZERO ISZERO MUL OR SWAP1 SSTORE POP JUMPDEST PUSH2 0x9B1 DUP8 DUP8 DUP8 DUP8 DUP8 DUP8 PUSH2 0x1B4F JUMP JUMPDEST DUP1 ISZERO PUSH2 0xA0A JUMPI PUSH1 0x0 DUP1 PUSH1 0x1 PUSH2 0x100 EXP DUP2 SLOAD DUP2 PUSH1 0xFF MUL NOT AND SWAP1 DUP4 ISZERO ISZERO MUL OR SWAP1 SSTORE POP PUSH32 0x7F26B83FF96E1F2B6A682F133852F6798A09C465DA95921460CEFB3847402498 PUSH1 0x1 PUSH1 0x40 MLOAD PUSH2 0xA01 SWAP2 SWAP1 PUSH2 0x3323 JUMP JUMPDEST PUSH1 0x40 MLOAD DUP1 SWAP2 SUB SWAP1 LOG1 JUMPDEST POP POP POP POP POP POP POP JUMP JUMPDEST PUSH1 0x0 PUSH1 0x6B SLOAD SWAP1 POP SWAP1 JUMP JUMPDEST PUSH1 0x67 SLOAD DUP2 JUMP JUMPDEST PUSH1 0x0 PUSH1 0x6E PUSH1 0x0 DUP4 PUSH20 0xFFFFFFFFFFFFFFFFFFFFFFFFFFFFFFFFFFFFFFFF AND PUSH20 0xFFFFFFFFFFFFFFFFFFFFFFFFFFFFFFFFFFFFFFFF AND DUP2 MSTORE PUSH1 0x20 ADD SWAP1 DUP2 MSTORE PUSH1 0x20 ADD PUSH1 0x0 KECCAK256 PUSH1 0x0 SWAP1 SLOAD SWAP1 PUSH2 0x100 EXP SWAP1 DIV PUSH1 0xFF AND SWAP1 POP SWAP2 SWAP1 POP JUMP JUMPDEST PUSH1 0x6E PUSH1 0x20 MSTORE DUP1 PUSH1 0x0 MSTORE PUSH1 0x40 PUSH1 0x0 KECCAK256 PUSH1 0x0 SWAP2 POP SLOAD SWAP1 PUSH2 0x100 EXP SWAP1 DIV PUSH1 0xFF AND DUP2 JUMP JUMPDEST PUSH1 0x0 PUSH2 0xAA6 DUP5 DUP5 DUP5 PUSH2 0x1CA9 JUMP JUMPDEST PUSH1 0x0 PUSH1 0x72 PUSH1 0x0 DUP7 PUSH20 0xFFFFFFFFFFFFFFFFFFFFFFFFFFFFFFFFFFFFFFFF AND PUSH20 0xFFFFFFFFFFFFFFFFFFFFFFFFFFFFFFFFFFFFFFFF AND DUP2 MSTORE PUSH1 0x20 ADD SWAP1 DUP2 MSTORE PUSH1 0x20 ADD PUSH1 0x0 KECCAK256 PUSH1 0x0 PUSH2 0xAF1 PUSH2 0x1959 JUMP JUMPDEST PUSH20 0xFFFFFFFFFFFFFFFFFFFFFFFFFFFFFFFFFFFFFFFF AND PUSH20 0xFFFFFFFFFFFFFFFFFFFFFFFFFFFFFFFFFFFFFFFF AND DUP2 MSTORE PUSH1 0x20 ADD SWAP1 DUP2 MSTORE PUSH1 0x20 ADD PUSH1 0x0 KECCAK256 SLOAD SWAP1 POP DUP3 DUP2 LT ISZERO PUSH2 0xB71 JUMPI PUSH1 0x40 MLOAD PUSH32 0x8C379A000000000000000000000000000000000000000000000000000000000 DUP2 MSTORE PUSH1 0x4 ADD PUSH2 0xB68 SWAP1 PUSH2 0x33B0 JUMP JUMPDEST PUSH1 0x40 MLOAD DUP1 SWAP2 SUB SWAP1 REVERT JUMPDEST PUSH2 0xB85 DUP6 PUSH2 0xB7D PUSH2 0x1959 JUMP JUMPDEST DUP6 DUP5 SUB PUSH2 0x1961 JUMP JUMPDEST PUSH1 0x1 SWAP2 POP POP SWAP4 SWAP3 POP POP POP JUMP JUMPDEST PUSH1 0x0 PUSH1 0x12 SWAP1 POP SWAP1 JUMP JUMPDEST PUSH1 0x0 PUSH2 0xC3C PUSH2 0xBA7 PUSH2 0x1959 JUMP JUMPDEST DUP5 DUP5 PUSH1 0x72 PUSH1 0x0 PUSH2 0xBB5 PUSH2 0x1959 JUMP JUMPDEST PUSH20 0xFFFFFFFFFFFFFFFFFFFFFFFFFFFFFFFFFFFFFFFF AND PUSH20 0xFFFFFFFFFFFFFFFFFFFFFFFFFFFFFFFFFFFFFFFF AND DUP2 MSTORE PUSH1 0x20 ADD SWAP1 DUP2 MSTORE PUSH1 0x20 ADD PUSH1 0x0 KECCAK256 PUSH1 0x0 DUP9 PUSH20 0xFFFFFFFFFFFFFFFFFFFFFFFFFFFFFFFFFFFFFFFF AND PUSH20 0xFFFFFFFFFFFFFFFFFFFFFFFFFFFFFFFFFFFFFFFF AND DUP2 MSTORE PUSH1 0x20 ADD SWAP1 DUP2 MSTORE PUSH1 0x20 ADD PUSH1 0x0 KECCAK256 SLOAD PUSH2 0xC37 SWAP2 SWAP1 PUSH2 0x33FF JUMP JUMPDEST PUSH2 0x1961 JUMP JUMPDEST PUSH1 0x1 SWAP1 POP SWAP3 SWAP2 POP POP JUMP JUMPDEST PUSH1 0x6F PUSH1 0x20 MSTORE DUP2 PUSH1 0x0 MSTORE PUSH1 0x40 PUSH1 0x0 KECCAK256 DUP2 DUP2 SLOAD DUP2 LT PUSH2 0xC62 JUMPI PUSH1 0x0 DUP1 REVERT JUMPDEST SWAP1 PUSH1 0x0 MSTORE PUSH1 0x20 PUSH1 0x0 KECCAK256 SWAP1 PUSH1 0x4 MUL ADD PUSH1 0x0 SWAP2 POP SWAP2 POP POP DUP1 PUSH1 0x0 ADD SLOAD SWAP1 DUP1 PUSH1 0x1 ADD SLOAD SWAP1 DUP1 PUSH1 0x2 ADD SLOAD SWAP1 DUP1 PUSH1 0x3 ADD SLOAD SWAP1 POP DUP5 JUMP JUMPDEST PUSH2 0xC9B PUSH2 0x1F34 JUMP JUMPDEST CALLER DUP2 PUSH1 0x6F PUSH1 0x0 DUP4 PUSH20 0xFFFFFFFFFFFFFFFFFFFFFFFFFFFFFFFFFFFFFFFF AND PUSH20 0xFFFFFFFFFFFFFFFFFFFFFFFFFFFFFFFFFFFFFFFF AND DUP2 MSTORE PUSH1 0x20 ADD SWAP1 DUP2 MSTORE PUSH1 0x20 ADD PUSH1 0x0 KECCAK256 DUP1 SLOAD SWAP1 POP DUP2 LT PUSH2 0xD21 JUMPI PUSH1 0x40 MLOAD PUSH32 0x8C379A000000000000000000000000000000000000000000000000000000000 DUP2 MSTORE PUSH1 0x4 ADD PUSH2 0xD18 SWAP1 PUSH2 0x34C7 JUMP JUMPDEST PUSH1 0x40 MLOAD DUP1 SWAP2 SUB SWAP1 REVERT JUMPDEST PUSH1 0x0 PUSH1 0x6F PUSH1 0x0 CALLER PUSH20 0xFFFFFFFFFFFFFFFFFFFFFFFFFFFFFFFFFFFFFFFF AND PUSH20 0xFFFFFFFFFFFFFFFFFFFFFFFFFFFFFFFFFFFFFFFF AND DUP2 MSTORE PUSH1 0x20 ADD SWAP1 DUP2 MSTORE PUSH1 0x20 ADD PUSH1 0x0 KECCAK256 DUP5 DUP2 SLOAD DUP2 LT PUSH2 0xD74 JUMPI PUSH2 0xD73 PUSH2 0x34E7 JUMP JUMPDEST JUMPDEST SWAP1 PUSH1 0x0 MSTORE PUSH1 0x20 PUSH1 0x0 KECCAK256 SWAP1 PUSH1 0x4 MUL ADD SWAP1 POP DUP1 PUSH1 0x1 ADD SLOAD PUSH1 0x71 PUSH1 0x0 CALLER PUSH20 0xFFFFFFFFFFFFFFFFFFFFFFFFFFFFFFFFFFFFFFFF AND PUSH20 0xFFFFFFFFFFFFFFFFFFFFFFFFFFFFFFFFFFFFFFFF AND DUP2 MSTORE PUSH1 0x20 ADD SWAP1 DUP2 MSTORE PUSH1 0x20 ADD PUSH1 0x0 KECCAK256 PUSH1 0x0 DUP3 DUP3 SLOAD PUSH2 0xDD7 SWAP2 SWAP1 PUSH2 0x3516 JUMP JUMPDEST SWAP3 POP POP DUP2 SWAP1 SSTORE POP PUSH2 0xDED ADDRESS CALLER DUP4 PUSH1 0x1 ADD SLOAD PUSH2 0x1CA9 JUMP JUMPDEST CALLER PUSH20 0xFFFFFFFFFFFFFFFFFFFFFFFFFFFFFFFFFFFFFFFF AND PUSH32 0x56D7520E387607A8DAA892E3FED116BADC2A636307BDC794B1C1AED97AE203F4 DUP3 PUSH1 0x1 ADD SLOAD PUSH1 0x40 MLOAD PUSH2 0xE37 SWAP2 SWAP1 PUSH2 0x2F2A JUMP JUMPDEST PUSH1 0x40 MLOAD DUP1 SWAP2 SUB SWAP1 LOG2 PUSH2 0xE48 DUP5 PUSH2 0x1F84 JUMP JUMPDEST POP POP POP PUSH2 0xE53 PUSH2 0x2146 JUMP JUMPDEST POP JUMP JUMPDEST PUSH1 0x0 PUSH1 0x70 PUSH1 0x0 DUP4 PUSH20 0xFFFFFFFFFFFFFFFFFFFFFFFFFFFFFFFFFFFFFFFF AND PUSH20 0xFFFFFFFFFFFFFFFFFFFFFFFFFFFFFFFFFFFFFFFF AND DUP2 MSTORE PUSH1 0x20 ADD SWAP1 DUP2 MSTORE PUSH1 0x20 ADD PUSH1 0x0 KECCAK256 SLOAD SWAP1 POP SWAP2 SWAP1 POP JUMP JUMPDEST PUSH2 0xEA7 PUSH2 0x2150 JUMP JUMPDEST PUSH2 0xEB1 PUSH1 0x0 PUSH2 0x21CE JUMP JUMPDEST JUMP JUMPDEST PUSH2 0xEBB PUSH2 0x1F34 JUMP JUMPDEST PUSH1 0x0 DUP3 GT PUSH2 0xEFE JUMPI PUSH1 0x40 MLOAD PUSH32 0x8C379A000000000000000000000000000000000000000000000000000000000 DUP2 MSTORE PUSH1 0x4 ADD PUSH2 0xEF5 SWAP1 PUSH2 0x35BC JUMP JUMPDEST PUSH1 0x40 MLOAD DUP1 SWAP2 SUB SWAP1 REVERT JUMPDEST PUSH1 0x1 DUP2 EQ ISZERO DUP1 ISZERO PUSH2 0xF10 JUMPI POP PUSH1 0x2 DUP2 EQ ISZERO JUMPDEST ISZERO PUSH2 0xF57 JUMPI PUSH1 0x0 PUSH2 0xF56 JUMPI PUSH1 0x40 MLOAD PUSH32 0x8C379A000000000000000000000000000000000000000000000000000000000 DUP2 MSTORE PUSH1 0x4 ADD PUSH2 0xF4D SWAP1 PUSH2 0x3628 JUMP JUMPDEST PUSH1 0x40 MLOAD DUP1 SWAP2 SUB SWAP1 REVERT JUMPDEST JUMPDEST PUSH2 0xF62 CALLER ADDRESS DUP5 PUSH2 0x1CA9 JUMP JUMPDEST PUSH1 0x0 PUSH2 0xF6E DUP4 DUP4 PUSH2 0x1448 JUMP JUMPDEST SWAP1 POP PUSH1 0x0 PUSH1 0x2 DUP4 EQ ISZERO PUSH2 0xF85 JUMPI PUSH1 0x6A SLOAD SWAP1 POP PUSH2 0xF8B JUMP JUMPDEST PUSH1 0x69 SLOAD SWAP1 POP JUMPDEST CALLER PUSH20 0xFFFFFFFFFFFFFFFFFFFFFFFFFFFFFFFFFFFFFFFF AND PUSH32 0xBD5034FFBD47E4E72A94BAA2CDB74C6FAD73CB3BCDC13036B72EC8306F5A7646 DUP6 DUP5 DUP5 PUSH1 0x40 MLOAD PUSH2 0xFD5 SWAP4 SWAP3 SWAP2 SWAP1 PUSH2 0x3648 JUMP JUMPDEST PUSH1 0x40 MLOAD DUP1 SWAP2 SUB SWAP1 LOG2 PUSH1 0x6F PUSH1 0x0 CALLER PUSH20 0xFFFFFFFFFFFFFFFFFFFFFFFFFFFFFFFFFFFFFFFF AND PUSH20 0xFFFFFFFFFFFFFFFFFFFFFFFFFFFFFFFFFFFFFFFF AND DUP2 MSTORE PUSH1 0x20 ADD SWAP1 DUP2 MSTORE PUSH1 0x20 ADD PUSH1 0x0 KECCAK256 PUSH1 0x40 MLOAD DUP1 PUSH1 0x80 ADD PUSH1 0x40 MSTORE DUP1 DUP5 DUP2 MSTORE PUSH1 0x20 ADD DUP7 DUP2 MSTORE PUSH1 0x20 ADD PUSH2 0x103B PUSH2 0x2294 JUMP JUMPDEST DUP2 MSTORE PUSH1 0x20 ADD PUSH2 0x105A DUP5 PUSH2 0x104C PUSH2 0x2294 JUMP JUMPDEST PUSH2 0x229C SWAP1 SWAP2 SWAP1 PUSH4 0xFFFFFFFF AND JUMP JUMPDEST DUP2 MSTORE POP SWAP1 DUP1 PUSH1 0x1 DUP2 SLOAD ADD DUP1 DUP3 SSTORE DUP1 SWAP2 POP POP PUSH1 0x1 SWAP1 SUB SWAP1 PUSH1 0x0 MSTORE PUSH1 0x20 PUSH1 0x0 KECCAK256 SWAP1 PUSH1 0x4 MUL ADD PUSH1 0x0 SWAP1 SWAP2 SWAP1 SWAP2 SWAP1 SWAP2 POP PUSH1 0x0 DUP3 ADD MLOAD DUP2 PUSH1 0x0 ADD SSTORE PUSH1 0x20 DUP3 ADD MLOAD DUP2 PUSH1 0x1 ADD SSTORE PUSH1 0x40 DUP3 ADD MLOAD DUP2 PUSH1 0x2 ADD SSTORE PUSH1 0x60 DUP3 ADD MLOAD DUP2 PUSH1 0x3 ADD SSTORE POP POP DUP4 PUSH1 0x71 PUSH1 0x0 CALLER PUSH20 0xFFFFFFFFFFFFFFFFFFFFFFFFFFFFFFFFFFFFFFFF AND PUSH20 0xFFFFFFFFFFFFFFFFFFFFFFFFFFFFFFFFFFFFFFFF AND DUP2 MSTORE PUSH1 0x20 ADD SWAP1 DUP2 MSTORE PUSH1 0x20 ADD PUSH1 0x0 KECCAK256 PUSH1 0x0 DUP3 DUP3 SLOAD PUSH2 0x10FF SWAP2 SWAP1 PUSH2 0x33FF JUMP JUMPDEST SWAP3 POP POP DUP2 SWAP1 SSTORE POP POP POP PUSH2 0x1110 PUSH2 0x2146 JUMP JUMPDEST POP POP JUMP JUMPDEST PUSH2 0x111C PUSH2 0x2150 JUMP JUMPDEST ADDRESS PUSH20 0xFFFFFFFFFFFFFFFFFFFFFFFFFFFFFFFFFFFFFFFF AND DUP3 PUSH20 0xFFFFFFFFFFFFFFFFFFFFFFFFFFFFFFFFFFFFFFFF AND EQ ISZERO PUSH2 0x118B JUMPI PUSH1 0x40 MLOAD PUSH32 0x8C379A000000000000000000000000000000000000000000000000000000000 DUP2 MSTORE PUSH1 0x4 ADD PUSH2 0x1182 SWAP1 PUSH2 0x36F1 JUMP JUMPDEST PUSH1 0x40 MLOAD DUP1 SWAP2 SUB SWAP1 REVERT JUMPDEST DUP1 ISZERO PUSH2 0x11EE JUMPI PUSH1 0x1 PUSH1 0x6E PUSH1 0x0 DUP5 PUSH20 0xFFFFFFFFFFFFFFFFFFFFFFFFFFFFFFFFFFFFFFFF AND PUSH20 0xFFFFFFFFFFFFFFFFFFFFFFFFFFFFFFFFFFFFFFFF AND DUP2 MSTORE PUSH1 0x20 ADD SWAP1 DUP2 MSTORE PUSH1 0x20 ADD PUSH1 0x0 KECCAK256 PUSH1 0x0 PUSH2 0x100 EXP DUP2 SLOAD DUP2 PUSH1 0xFF MUL NOT AND SWAP1 DUP4 ISZERO ISZERO MUL OR SWAP1 SSTORE POP PUSH2 0x1247 JUMP JUMPDEST PUSH1 0x0 PUSH1 0x6E PUSH1 0x0 DUP5 PUSH20 0xFFFFFFFFFFFFFFFFFFFFFFFFFFFFFFFFFFFFFFFF AND PUSH20 0xFFFFFFFFFFFFFFFFFFFFFFFFFFFFFFFFFFFFFFFF AND DUP2 MSTORE PUSH1 0x20 ADD SWAP1 DUP2 MSTORE PUSH1 0x20 ADD PUSH1 0x0 KECCAK256 PUSH1 0x0 PUSH2 0x100 EXP DUP2 SLOAD DUP2 PUSH1 0xFF MUL NOT AND SWAP1 DUP4 ISZERO ISZERO MUL OR SWAP1 SSTORE POP JUMPDEST PUSH32 0x3A34209CB941A5D23A56DEA730A13738454BC7DAEFD4BB32E8D7DF58C1BD920D DUP3 DUP3 PUSH1 0x40 MLOAD PUSH2 0x1278 SWAP3 SWAP2 SWAP1 PUSH2 0x3711 JUMP JUMPDEST PUSH1 0x40 MLOAD DUP1 SWAP2 SUB SWAP1 LOG1 POP POP JUMP JUMPDEST PUSH1 0x0 PUSH1 0x33 PUSH1 0x0 SWAP1 SLOAD SWAP1 PUSH2 0x100 EXP SWAP1 DIV PUSH20 0xFFFFFFFFFFFFFFFFFFFFFFFFFFFFFFFFFFFFFFFF AND SWAP1 POP SWAP1 JUMP JUMPDEST PUSH1 0x60 PUSH1 0x6D DUP1 SLOAD PUSH2 0x12BD SWAP1 PUSH2 0x321A JUMP JUMPDEST DUP1 PUSH1 0x1F ADD PUSH1 0x20 DUP1 SWAP2 DIV MUL PUSH1 0x20 ADD PUSH1 0x40 MLOAD SWAP1 DUP2 ADD PUSH1 0x40 MSTORE DUP1 SWAP3 SWAP2 SWAP1 DUP2 DUP2 MSTORE PUSH1 0x20 ADD DUP3 DUP1 SLOAD PUSH2 0x12E9 SWAP1 PUSH2 0x321A JUMP JUMPDEST DUP1 ISZERO PUSH2 0x1336 JUMPI DUP1 PUSH1 0x1F LT PUSH2 0x130B JUMPI PUSH2 0x100 DUP1 DUP4 SLOAD DIV MUL DUP4 MSTORE SWAP2 PUSH1 0x20 ADD SWAP2 PUSH2 0x1336 JUMP JUMPDEST DUP3 ADD SWAP2 SWAP1 PUSH1 0x0 MSTORE PUSH1 0x20 PUSH1 0x0 KECCAK256 SWAP1 JUMPDEST DUP2 SLOAD DUP2 MSTORE SWAP1 PUSH1 0x1 ADD SWAP1 PUSH1 0x20 ADD DUP1 DUP4 GT PUSH2 0x1319 JUMPI DUP3 SWAP1 SUB PUSH1 0x1F AND DUP3 ADD SWAP2 JUMPDEST POP POP POP POP POP SWAP1 POP SWAP1 JUMP JUMPDEST PUSH2 0x1348 PUSH2 0x1F34 JUMP JUMPDEST PUSH2 0x1352 DUP2 CALLER PUSH2 0x22B2 JUMP JUMPDEST PUSH2 0x135A PUSH2 0x2146 JUMP JUMPDEST POP JUMP JUMPDEST PUSH1 0x0 DUP1 PUSH1 0x72 PUSH1 0x0 PUSH2 0x136C PUSH2 0x1959 JUMP JUMPDEST PUSH20 0xFFFFFFFFFFFFFFFFFFFFFFFFFFFFFFFFFFFFFFFF AND PUSH20 0xFFFFFFFFFFFFFFFFFFFFFFFFFFFFFFFFFFFFFFFF AND DUP2 MSTORE PUSH1 0x20 ADD SWAP1 DUP2 MSTORE PUSH1 0x20 ADD PUSH1 0x0 KECCAK256 PUSH1 0x0 DUP6 PUSH20 0xFFFFFFFFFFFFFFFFFFFFFFFFFFFFFFFFFFFFFFFF AND PUSH20 0xFFFFFFFFFFFFFFFFFFFFFFFFFFFFFFFFFFFFFFFF AND DUP2 MSTORE PUSH1 0x20 ADD SWAP1 DUP2 MSTORE PUSH1 0x20 ADD PUSH1 0x0 KECCAK256 SLOAD SWAP1 POP DUP3 DUP2 LT ISZERO PUSH2 0x1429 JUMPI PUSH1 0x40 MLOAD PUSH32 0x8C379A000000000000000000000000000000000000000000000000000000000 DUP2 MSTORE PUSH1 0x4 ADD PUSH2 0x1420 SWAP1 PUSH2 0x37AC JUMP JUMPDEST PUSH1 0x40 MLOAD DUP1 SWAP2 SUB SWAP1 REVERT JUMPDEST PUSH2 0x143D PUSH2 0x1434 PUSH2 0x1959 JUMP JUMPDEST DUP6 DUP6 DUP5 SUB PUSH2 0x1961 JUMP JUMPDEST PUSH1 0x1 SWAP2 POP POP SWAP3 SWAP2 POP POP JUMP JUMPDEST PUSH1 0x0 PUSH1 0x1 DUP3 EQ ISZERO DUP1 ISZERO PUSH2 0x145C JUMPI POP PUSH1 0x2 DUP3 EQ ISZERO JUMPDEST ISZERO PUSH2 0x146A JUMPI PUSH1 0x0 SWAP1 POP PUSH2 0x14CD JUMP JUMPDEST PUSH1 0x1 DUP3 EQ ISZERO PUSH2 0x14A2 JUMPI PUSH2 0x149B PUSH1 0x64 PUSH2 0x148D PUSH1 0x67 SLOAD DUP7 PUSH2 0x238C SWAP1 SWAP2 SWAP1 PUSH4 0xFFFFFFFF AND JUMP JUMPDEST PUSH2 0x23A2 SWAP1 SWAP2 SWAP1 PUSH4 0xFFFFFFFF AND JUMP JUMPDEST SWAP1 POP PUSH2 0x14CD JUMP JUMPDEST PUSH2 0x14CA PUSH1 0x64 PUSH2 0x14BC PUSH1 0x68 SLOAD DUP7 PUSH2 0x238C SWAP1 SWAP2 SWAP1 PUSH4 0xFFFFFFFF AND JUMP JUMPDEST PUSH2 0x23A2 SWAP1 SWAP2 SWAP1 PUSH4 0xFFFFFFFF AND JUMP JUMPDEST SWAP1 POP JUMPDEST SWAP3 SWAP2 POP POP JUMP JUMPDEST PUSH1 0x0 PUSH2 0x14E7 PUSH2 0x14E0 PUSH2 0x1959 JUMP JUMPDEST DUP5 DUP5 PUSH2 0x1CA9 JUMP JUMPDEST PUSH1 0x1 SWAP1 POP SWAP3 SWAP2 POP POP JUMP JUMPDEST PUSH2 0x14F9 PUSH2 0x1F34 JUMP JUMPDEST CALLER DUP2 PUSH1 0x6F PUSH1 0x0 DUP4 PUSH20 0xFFFFFFFFFFFFFFFFFFFFFFFFFFFFFFFFFFFFFFFF AND PUSH20 0xFFFFFFFFFFFFFFFFFFFFFFFFFFFFFFFFFFFFFFFF AND DUP2 MSTORE PUSH1 0x20 ADD SWAP1 DUP2 MSTORE PUSH1 0x20 ADD PUSH1 0x0 KECCAK256 DUP1 SLOAD SWAP1 POP DUP2 LT PUSH2 0x157F JUMPI PUSH1 0x40 MLOAD PUSH32 0x8C379A000000000000000000000000000000000000000000000000000000000 DUP2 MSTORE PUSH1 0x4 ADD PUSH2 0x1576 SWAP1 PUSH2 0x34C7 JUMP JUMPDEST PUSH1 0x40 MLOAD DUP1 SWAP2 SUB SWAP1 REVERT JUMPDEST PUSH1 0x0 PUSH1 0x6F PUSH1 0x0 CALLER PUSH20 0xFFFFFFFFFFFFFFFFFFFFFFFFFFFFFFFFFFFFFFFF AND PUSH20 0xFFFFFFFFFFFFFFFFFFFFFFFFFFFFFFFFFFFFFFFF AND DUP2 MSTORE PUSH1 0x20 ADD SWAP1 DUP2 MSTORE PUSH1 0x20 ADD PUSH1 0x0 KECCAK256 DUP5 DUP2 SLOAD DUP2 LT PUSH2 0x15D2 JUMPI PUSH2 0x15D1 PUSH2 0x34E7 JUMP JUMPDEST JUMPDEST SWAP1 PUSH1 0x0 MSTORE PUSH1 0x20 PUSH1 0x0 KECCAK256 SWAP1 PUSH1 0x4 MUL ADD SWAP1 POP DUP1 PUSH1 0x1 ADD SLOAD PUSH1 0x71 PUSH1 0x0 CALLER PUSH20 0xFFFFFFFFFFFFFFFFFFFFFFFFFFFFFFFFFFFFFFFF AND PUSH20 0xFFFFFFFFFFFFFFFFFFFFFFFFFFFFFFFFFFFFFFFF AND DUP2 MSTORE PUSH1 0x20 ADD SWAP1 DUP2 MSTORE PUSH1 0x20 ADD PUSH1 0x0 KECCAK256 PUSH1 0x0 DUP3 DUP3 SLOAD PUSH2 0x1635 SWAP2 SWAP1 PUSH2 0x3516 JUMP JUMPDEST SWAP3 POP POP DUP2 SWAP1 SSTORE POP DUP1 PUSH1 0x3 ADD SLOAD PUSH2 0x1649 PUSH2 0x2294 JUMP JUMPDEST LT ISZERO PUSH2 0x168A JUMPI PUSH1 0x40 MLOAD PUSH32 0x8C379A000000000000000000000000000000000000000000000000000000000 DUP2 MSTORE PUSH1 0x4 ADD PUSH2 0x1681 SWAP1 PUSH2 0x383E JUMP JUMPDEST PUSH1 0x40 MLOAD DUP1 SWAP2 SUB SWAP1 REVERT JUMPDEST PUSH2 0x169D CALLER DUP3 PUSH1 0x1 ADD SLOAD DUP4 PUSH1 0x0 ADD SLOAD PUSH2 0x23B8 JUMP JUMPDEST PUSH2 0x16A6 DUP5 PUSH2 0x1F84 JUMP JUMPDEST POP POP POP PUSH2 0x16B1 PUSH2 0x2146 JUMP JUMPDEST POP JUMP JUMPDEST PUSH1 0x0 PUSH1 0x6F PUSH1 0x0 DUP4 PUSH20 0xFFFFFFFFFFFFFFFFFFFFFFFFFFFFFFFFFFFFFFFF AND PUSH20 0xFFFFFFFFFFFFFFFFFFFFFFFFFFFFFFFFFFFFFFFF AND DUP2 MSTORE PUSH1 0x20 ADD SWAP1 DUP2 MSTORE PUSH1 0x20 ADD PUSH1 0x0 KECCAK256 DUP1 SLOAD SWAP1 POP SWAP1 POP SWAP2 SWAP1 POP JUMP JUMPDEST PUSH1 0x69 SLOAD DUP2 JUMP JUMPDEST PUSH2 0x170E PUSH2 0x2150 JUMP JUMPDEST DUP3 DUP5 GT ISZERO PUSH2 0x1751 JUMPI PUSH1 0x40 MLOAD PUSH32 0x8C379A000000000000000000000000000000000000000000000000000000000 DUP2 MSTORE PUSH1 0x4 ADD PUSH2 0x1748 SWAP1 PUSH2 0x38D0 JUMP JUMPDEST PUSH1 0x40 MLOAD DUP1 SWAP2 SUB SWAP1 REVERT JUMPDEST PUSH1 0x0 DUP2 GT PUSH2 0x1794 JUMPI PUSH1 0x40 MLOAD PUSH32 0x8C379A000000000000000000000000000000000000000000000000000000000 DUP2 MSTORE PUSH1 0x4 ADD PUSH2 0x178B SWAP1 PUSH2 0x3962 JUMP JUMPDEST PUSH1 0x40 MLOAD DUP1 SWAP2 SUB SWAP1 REVERT JUMPDEST DUP4 PUSH1 0x67 DUP2 SWAP1 SSTORE POP DUP3 PUSH1 0x68 DUP2 SWAP1 SSTORE POP DUP2 PUSH1 0x69 DUP2 SWAP1 SSTORE POP DUP1 PUSH1 0x6A DUP2 SWAP1 SSTORE POP PUSH32 0xF282865353A487A40C4983B3A1A4E8901E81CB5605F653E6352DC57CDB574488 DUP5 DUP5 DUP5 DUP5 PUSH1 0x40 MLOAD PUSH2 0x17E5 SWAP5 SWAP4 SWAP3 SWAP2 SWAP1 PUSH2 0x2FFC JUMP JUMPDEST PUSH1 0x40 MLOAD DUP1 SWAP2 SUB SWAP1 LOG1 POP POP POP POP JUMP JUMPDEST PUSH1 0x0 PUSH1 0x71 PUSH1 0x0 DUP4 PUSH20 0xFFFFFFFFFFFFFFFFFFFFFFFFFFFFFFFFFFFFFFFF AND PUSH20 0xFFFFFFFFFFFFFFFFFFFFFFFFFFFFFFFFFFFFFFFF AND DUP2 MSTORE PUSH1 0x20 ADD SWAP1 DUP2 MSTORE PUSH1 0x20 ADD PUSH1 0x0 KECCAK256 SLOAD SWAP1 POP SWAP2 SWAP1 POP JUMP JUMPDEST PUSH1 0x0 PUSH1 0x72 PUSH1 0x0 DUP5 PUSH20 0xFFFFFFFFFFFFFFFFFFFFFFFFFFFFFFFFFFFFFFFF AND PUSH20 0xFFFFFFFFFFFFFFFFFFFFFFFFFFFFFFFFFFFFFFFF AND DUP2 MSTORE PUSH1 0x20 ADD SWAP1 DUP2 MSTORE PUSH1 0x20 ADD PUSH1 0x0 KECCAK256 PUSH1 0x0 DUP4 PUSH20 0xFFFFFFFFFFFFFFFFFFFFFFFFFFFFFFFFFFFFFFFF AND PUSH20 0xFFFFFFFFFFFFFFFFFFFFFFFFFFFFFFFFFFFFFFFF AND DUP2 MSTORE PUSH1 0x20 ADD SWAP1 DUP2 MSTORE PUSH1 0x20 ADD PUSH1 0x0 KECCAK256 SLOAD SWAP1 POP SWAP3 SWAP2 POP POP JUMP JUMPDEST PUSH1 0x68 SLOAD DUP2 JUMP JUMPDEST PUSH1 0x6A SLOAD DUP2 JUMP JUMPDEST PUSH1 0x66 SLOAD DUP2 JUMP JUMPDEST PUSH2 0x18DD PUSH2 0x2150 JUMP JUMPDEST PUSH1 0x0 PUSH20 0xFFFFFFFFFFFFFFFFFFFFFFFFFFFFFFFFFFFFFFFF AND DUP2 PUSH20 0xFFFFFFFFFFFFFFFFFFFFFFFFFFFFFFFFFFFFFFFF AND EQ ISZERO PUSH2 0x194D JUMPI PUSH1 0x40 MLOAD PUSH32 0x8C379A000000000000000000000000000000000000000000000000000000000 DUP2 MSTORE PUSH1 0x4 ADD PUSH2 0x1944 SWAP1 PUSH2 0x39F4 JUMP JUMPDEST PUSH1 0x40 MLOAD DUP1 SWAP2 SUB SWAP1 REVERT JUMPDEST PUSH2 0x1956 DUP2 PUSH2 0x21CE JUMP JUMPDEST POP JUMP JUMPDEST PUSH1 0x0 CALLER SWAP1 POP SWAP1 JUMP JUMPDEST PUSH1 0x0 PUSH20 0xFFFFFFFFFFFFFFFFFFFFFFFFFFFFFFFFFFFFFFFF AND DUP4 PUSH20 0xFFFFFFFFFFFFFFFFFFFFFFFFFFFFFFFFFFFFFFFF AND EQ ISZERO PUSH2 0x19D1 JUMPI PUSH1 0x40 MLOAD PUSH32 0x8C379A000000000000000000000000000000000000000000000000000000000 DUP2 MSTORE PUSH1 0x4 ADD PUSH2 0x19C8 SWAP1 PUSH2 0x3A86 JUMP JUMPDEST PUSH1 0x40 MLOAD DUP1 SWAP2 SUB SWAP1 REVERT JUMPDEST PUSH1 0x0 PUSH20 0xFFFFFFFFFFFFFFFFFFFFFFFFFFFFFFFFFFFFFFFF AND DUP3 PUSH20 0xFFFFFFFFFFFFFFFFFFFFFFFFFFFFFFFFFFFFFFFF AND EQ ISZERO PUSH2 0x1A41 JUMPI PUSH1 0x40 MLOAD PUSH32 0x8C379A000000000000000000000000000000000000000000000000000000000 DUP2 MSTORE PUSH1 0x4 ADD PUSH2 0x1A38 SWAP1 PUSH2 0x3B18 JUMP JUMPDEST PUSH1 0x40 MLOAD DUP1 SWAP2 SUB SWAP1 REVERT JUMPDEST DUP1 PUSH1 0x72 PUSH1 0x0 DUP6 PUSH20 0xFFFFFFFFFFFFFFFFFFFFFFFFFFFFFFFFFFFFFFFF AND PUSH20 0xFFFFFFFFFFFFFFFFFFFFFFFFFFFFFFFFFFFFFFFF AND DUP2 MSTORE PUSH1 0x20 ADD SWAP1 DUP2 MSTORE PUSH1 0x20 ADD PUSH1 0x0 KECCAK256 PUSH1 0x0 DUP5 PUSH20 0xFFFFFFFFFFFFFFFFFFFFFFFFFFFFFFFFFFFFFFFF AND PUSH20 0xFFFFFFFFFFFFFFFFFFFFFFFFFFFFFFFFFFFFFFFF AND DUP2 MSTORE PUSH1 0x20 ADD SWAP1 DUP2 MSTORE PUSH1 0x20 ADD PUSH1 0x0 KECCAK256 DUP2 SWAP1 SSTORE POP DUP2 PUSH20 0xFFFFFFFFFFFFFFFFFFFFFFFFFFFFFFFFFFFFFFFF AND DUP4 PUSH20 0xFFFFFFFFFFFFFFFFFFFFFFFFFFFFFFFFFFFFFFFF AND PUSH32 0x8C5BE1E5EBEC7D5BD14F71427D1E84F3DD0314C0F7B2291E5B200AC8C7C3B925 DUP4 PUSH1 0x40 MLOAD PUSH2 0x1B1F SWAP2 SWAP1 PUSH2 0x2F2A JUMP JUMPDEST PUSH1 0x40 MLOAD DUP1 SWAP2 SUB SWAP1 LOG3 POP POP POP JUMP JUMPDEST PUSH1 0x0 DUP1 DUP3 PUSH20 0xFFFFFFFFFFFFFFFFFFFFFFFFFFFFFFFFFFFFFFFF AND EXTCODESIZE GT SWAP1 POP SWAP2 SWAP1 POP JUMP JUMPDEST PUSH1 0x0 DUP1 PUSH1 0x1 SWAP1 SLOAD SWAP1 PUSH2 0x100 EXP SWAP1 DIV PUSH1 0xFF AND ISZERO SWAP1 POP DUP1 DUP1 ISZERO PUSH2 0x1B80 JUMPI POP PUSH1 0x1 PUSH1 0x0 DUP1 SLOAD SWAP1 PUSH2 0x100 EXP SWAP1 DIV PUSH1 0xFF AND PUSH1 0xFF AND LT JUMPDEST DUP1 PUSH2 0x1BAD JUMPI POP PUSH2 0x1B8F ADDRESS PUSH2 0x1B2C JUMP JUMPDEST ISZERO DUP1 ISZERO PUSH2 0x1BAC JUMPI POP PUSH1 0x1 PUSH1 0x0 DUP1 SLOAD SWAP1 PUSH2 0x100 EXP SWAP1 DIV PUSH1 0xFF AND PUSH1 0xFF AND EQ JUMPDEST JUMPDEST PUSH2 0x1BEC JUMPI PUSH1 0x40 MLOAD PUSH32 0x8C379A000000000000000000000000000000000000000000000000000000000 DUP2 MSTORE PUSH1 0x4 ADD PUSH2 0x1BE3 SWAP1 PUSH2 0x32BE JUMP JUMPDEST PUSH1 0x40 MLOAD DUP1 SWAP2 SUB SWAP1 REVERT JUMPDEST PUSH1 0x1 PUSH1 0x0 DUP1 PUSH2 0x100 EXP DUP2 SLOAD DUP2 PUSH1 0xFF MUL NOT AND SWAP1 DUP4 PUSH1 0xFF AND MUL OR SWAP1 SSTORE POP DUP1 ISZERO PUSH2 0x1C29 JUMPI PUSH1 0x1 PUSH1 0x0 PUSH1 0x1 PUSH2 0x100 EXP DUP2 SLOAD DUP2 PUSH1 0xFF MUL NOT AND SWAP1 DUP4 ISZERO ISZERO MUL OR SWAP1 SSTORE POP JUMPDEST PUSH2 0x1C31 PUSH2 0x24C4 JUMP JUMPDEST PUSH2 0x1C39 PUSH2 0x2515 JUMP JUMPDEST PUSH2 0x1C47 DUP8 DUP8 DUP8 DUP8 DUP8 DUP8 PUSH2 0x2576 JUMP JUMPDEST DUP1 ISZERO PUSH2 0x1CA0 JUMPI PUSH1 0x0 DUP1 PUSH1 0x1 PUSH2 0x100 EXP DUP2 SLOAD DUP2 PUSH1 0xFF MUL NOT AND SWAP1 DUP4 ISZERO ISZERO MUL OR SWAP1 SSTORE POP PUSH32 0x7F26B83FF96E1F2B6A682F133852F6798A09C465DA95921460CEFB3847402498 PUSH1 0x1 PUSH1 0x40 MLOAD PUSH2 0x1C97 SWAP2 SWAP1 PUSH2 0x3323 JUMP JUMPDEST PUSH1 0x40 MLOAD DUP1 SWAP2 SUB SWAP1 LOG1 JUMPDEST POP POP POP POP POP POP POP JUMP JUMPDEST PUSH1 0x0 PUSH20 0xFFFFFFFFFFFFFFFFFFFFFFFFFFFFFFFFFFFFFFFF AND DUP4 PUSH20 0xFFFFFFFFFFFFFFFFFFFFFFFFFFFFFFFFFFFFFFFF AND EQ ISZERO PUSH2 0x1D19 JUMPI PUSH1 0x40 MLOAD PUSH32 0x8C379A000000000000000000000000000000000000000000000000000000000 DUP2 MSTORE PUSH1 0x4 ADD PUSH2 0x1D10 SWAP1 PUSH2 0x3BAA JUMP JUMPDEST PUSH1 0x40 MLOAD DUP1 SWAP2 SUB SWAP1 REVERT JUMPDEST PUSH1 0x0 PUSH20 0xFFFFFFFFFFFFFFFFFFFFFFFFFFFFFFFFFFFFFFFF AND DUP3 PUSH20 0xFFFFFFFFFFFFFFFFFFFFFFFFFFFFFFFFFFFFFFFF AND EQ ISZERO PUSH2 0x1D89 JUMPI PUSH1 0x40 MLOAD PUSH32 0x8C379A000000000000000000000000000000000000000000000000000000000 DUP2 MSTORE PUSH1 0x4 ADD PUSH2 0x1D80 SWAP1 PUSH2 0x3C3C JUMP JUMPDEST PUSH1 0x40 MLOAD DUP1 SWAP2 SUB SWAP1 REVERT JUMPDEST PUSH2 0x1D94 DUP4 DUP4 DUP4 PUSH2 0x2754 JUMP JUMPDEST PUSH1 0x0 PUSH1 0x70 PUSH1 0x0 DUP6 PUSH20 0xFFFFFFFFFFFFFFFFFFFFFFFFFFFFFFFFFFFFFFFF AND PUSH20 0xFFFFFFFFFFFFFFFFFFFFFFFFFFFFFFFFFFFFFFFF AND DUP2 MSTORE PUSH1 0x20 ADD SWAP1 DUP2 MSTORE PUSH1 0x20 ADD PUSH1 0x0 KECCAK256 SLOAD SWAP1 POP DUP2 DUP2 LT ISZERO PUSH2 0x1E1B JUMPI PUSH1 0x40 MLOAD PUSH32 0x8C379A000000000000000000000000000000000000000000000000000000000 DUP2 MSTORE PUSH1 0x4 ADD PUSH2 0x1E12 SWAP1 PUSH2 0x3CCE JUMP JUMPDEST PUSH1 0x40 MLOAD DUP1 SWAP2 SUB SWAP1 REVERT JUMPDEST DUP2 PUSH1 0x70 PUSH1 0x0 DUP7 PUSH20 0xFFFFFFFFFFFFFFFFFFFFFFFFFFFFFFFFFFFFFFFF AND PUSH20 0xFFFFFFFFFFFFFFFFFFFFFFFFFFFFFFFFFFFFFFFF AND DUP2 MSTORE PUSH1 0x20 ADD SWAP1 DUP2 MSTORE PUSH1 0x20 ADD PUSH1 0x0 KECCAK256 PUSH1 0x0 DUP3 DUP3 SLOAD SUB SWAP3 POP POP DUP2 SWAP1 SSTORE POP DUP2 PUSH1 0x70 PUSH1 0x0 DUP6 PUSH20 0xFFFFFFFFFFFFFFFFFFFFFFFFFFFFFFFFFFFFFFFF AND PUSH20 0xFFFFFFFFFFFFFFFFFFFFFFFFFFFFFFFFFFFFFFFF AND DUP2 MSTORE PUSH1 0x20 ADD SWAP1 DUP2 MSTORE PUSH1 0x20 ADD PUSH1 0x0 KECCAK256 PUSH1 0x0 DUP3 DUP3 SLOAD PUSH2 0x1EB7 SWAP2 SWAP1 PUSH2 0x33FF JUMP JUMPDEST SWAP3 POP POP DUP2 SWAP1 SSTORE POP DUP3 PUSH20 0xFFFFFFFFFFFFFFFFFFFFFFFFFFFFFFFFFFFFFFFF AND DUP5 PUSH20 0xFFFFFFFFFFFFFFFFFFFFFFFFFFFFFFFFFFFFFFFF AND PUSH32 0xDDF252AD1BE2C89B69C2B068FC378DAA952BA7F163C4A11628F55A4DF523B3EF DUP5 PUSH1 0x40 MLOAD PUSH2 0x1F1B SWAP2 SWAP1 PUSH2 0x2F2A JUMP JUMPDEST PUSH1 0x40 MLOAD DUP1 SWAP2 SUB SWAP1 LOG3 PUSH2 0x1F2E DUP5 DUP5 DUP5 PUSH2 0x28A7 JUMP JUMPDEST POP POP POP POP JUMP JUMPDEST PUSH1 0x2 PUSH1 0x65 SLOAD EQ ISZERO PUSH2 0x1F7A JUMPI PUSH1 0x40 MLOAD PUSH32 0x8C379A000000000000000000000000000000000000000000000000000000000 DUP2 MSTORE PUSH1 0x4 ADD PUSH2 0x1F71 SWAP1 PUSH2 0x3D3A JUMP JUMPDEST PUSH1 0x40 MLOAD DUP1 SWAP2 SUB SWAP1 REVERT JUMPDEST PUSH1 0x2 PUSH1 0x65 DUP2 SWAP1 SSTORE POP JUMP JUMPDEST PUSH1 0x6F PUSH1 0x0 CALLER PUSH20 0xFFFFFFFFFFFFFFFFFFFFFFFFFFFFFFFFFFFFFFFF AND PUSH20 0xFFFFFFFFFFFFFFFFFFFFFFFFFFFFFFFFFFFFFFFF AND DUP2 MSTORE PUSH1 0x20 ADD SWAP1 DUP2 MSTORE PUSH1 0x20 ADD PUSH1 0x0 KECCAK256 PUSH1 0x1 PUSH1 0x6F PUSH1 0x0 CALLER PUSH20 0xFFFFFFFFFFFFFFFFFFFFFFFFFFFFFFFFFFFFFFFF AND PUSH20 0xFFFFFFFFFFFFFFFFFFFFFFFFFFFFFFFFFFFFFFFF AND DUP2 MSTORE PUSH1 0x20 ADD SWAP1 DUP2 MSTORE PUSH1 0x20 ADD PUSH1 0x0 KECCAK256 DUP1 SLOAD SWAP1 POP PUSH2 0x2012 SWAP2 SWAP1 PUSH2 0x3516 JUMP JUMPDEST DUP2 SLOAD DUP2 LT PUSH2 0x2023 JUMPI PUSH2 0x2022 PUSH2 0x34E7 JUMP JUMPDEST JUMPDEST SWAP1 PUSH1 0x0 MSTORE PUSH1 0x20 PUSH1 0x0 KECCAK256 SWAP1 PUSH1 0x4 MUL ADD PUSH1 0x6F PUSH1 0x0 CALLER PUSH20 0xFFFFFFFFFFFFFFFFFFFFFFFFFFFFFFFFFFFFFFFF AND PUSH20 0xFFFFFFFFFFFFFFFFFFFFFFFFFFFFFFFFFFFFFFFF AND DUP2 MSTORE PUSH1 0x20 ADD SWAP1 DUP2 MSTORE PUSH1 0x20 ADD PUSH1 0x0 KECCAK256 DUP3 DUP2 SLOAD DUP2 LT PUSH2 0x2082 JUMPI PUSH2 0x2081 PUSH2 0x34E7 JUMP JUMPDEST JUMPDEST SWAP1 PUSH1 0x0 MSTORE PUSH1 0x20 PUSH1 0x0 KECCAK256 SWAP1 PUSH1 0x4 MUL ADD PUSH1 0x0 DUP3 ADD SLOAD DUP2 PUSH1 0x0 ADD SSTORE PUSH1 0x1 DUP3 ADD SLOAD DUP2 PUSH1 0x1 ADD SSTORE PUSH1 0x2 DUP3 ADD SLOAD DUP2 PUSH1 0x2 ADD SSTORE PUSH1 0x3 DUP3 ADD SLOAD DUP2 PUSH1 0x3 ADD SSTORE SWAP1 POP POP PUSH1 0x6F PUSH1 0x0 CALLER PUSH20 0xFFFFFFFFFFFFFFFFFFFFFFFFFFFFFFFFFFFFFFFF AND PUSH20 0xFFFFFFFFFFFFFFFFFFFFFFFFFFFFFFFFFFFFFFFF AND DUP2 MSTORE PUSH1 0x20 ADD SWAP1 DUP2 MSTORE PUSH1 0x20 ADD PUSH1 0x0 KECCAK256 DUP1 SLOAD DUP1 PUSH2 0x210A JUMPI PUSH2 0x2109 PUSH2 0x3D5A JUMP JUMPDEST JUMPDEST PUSH1 0x1 SWAP1 SUB DUP2 DUP2 SWAP1 PUSH1 0x0 MSTORE PUSH1 0x20 PUSH1 0x0 KECCAK256 SWAP1 PUSH1 0x4 MUL ADD PUSH1 0x0 DUP1 DUP3 ADD PUSH1 0x0 SWAP1 SSTORE PUSH1 0x1 DUP3 ADD PUSH1 0x0 SWAP1 SSTORE PUSH1 0x2 DUP3 ADD PUSH1 0x0 SWAP1 SSTORE PUSH1 0x3 DUP3 ADD PUSH1 0x0 SWAP1 SSTORE POP POP SWAP1 SSTORE POP JUMP JUMPDEST PUSH1 0x1 PUSH1 0x65 DUP2 SWAP1 SSTORE POP JUMP JUMPDEST PUSH2 0x2158 PUSH2 0x1959 JUMP JUMPDEST PUSH20 0xFFFFFFFFFFFFFFFFFFFFFFFFFFFFFFFFFFFFFFFF AND PUSH2 0x2176 PUSH2 0x1284 JUMP JUMPDEST PUSH20 0xFFFFFFFFFFFFFFFFFFFFFFFFFFFFFFFFFFFFFFFF AND EQ PUSH2 0x21CC JUMPI PUSH1 0x40 MLOAD PUSH32 0x8C379A000000000000000000000000000000000000000000000000000000000 DUP2 MSTORE PUSH1 0x4 ADD PUSH2 0x21C3 SWAP1 PUSH2 0x3DD5 JUMP JUMPDEST PUSH1 0x40 MLOAD DUP1 SWAP2 SUB SWAP1 REVERT JUMPDEST JUMP JUMPDEST PUSH1 0x0 PUSH1 0x33 PUSH1 0x0 SWAP1 SLOAD SWAP1 PUSH2 0x100 EXP SWAP1 DIV PUSH20 0xFFFFFFFFFFFFFFFFFFFFFFFFFFFFFFFFFFFFFFFF AND SWAP1 POP DUP2 PUSH1 0x33 PUSH1 0x0 PUSH2 0x100 EXP DUP2 SLOAD DUP2 PUSH20 0xFFFFFFFFFFFFFFFFFFFFFFFFFFFFFFFFFFFFFFFF MUL NOT AND SWAP1 DUP4 PUSH20 0xFFFFFFFFFFFFFFFFFFFFFFFFFFFFFFFFFFFFFFFF AND MUL OR SWAP1 SSTORE POP DUP2 PUSH20 0xFFFFFFFFFFFFFFFFFFFFFFFFFFFFFFFFFFFFFFFF AND DUP2 PUSH20 0xFFFFFFFFFFFFFFFFFFFFFFFFFFFFFFFFFFFFFFFF AND PUSH32 0x8BE0079C531659141344CD1FD0A4F28419497F9722A3DAAFE3B4186F6B6457E0 PUSH1 0x40 MLOAD PUSH1 0x40 MLOAD DUP1 SWAP2 SUB SWAP1 LOG3 POP POP JUMP JUMPDEST PUSH1 0x0 TIMESTAMP SWAP1 POP SWAP1 JUMP JUMPDEST PUSH1 0x0 DUP2 DUP4 PUSH2 0x22AA SWAP2 SWAP1 PUSH2 0x33FF JUMP JUMPDEST SWAP1 POP SWAP3 SWAP2 POP POP JUMP JUMPDEST PUSH1 0x0 DUP3 EQ ISZERO PUSH2 0x22F6 JUMPI PUSH1 0x40 MLOAD PUSH32 0x8C379A000000000000000000000000000000000000000000000000000000000 DUP2 MSTORE PUSH1 0x4 ADD PUSH2 0x22ED SWAP1 PUSH2 0x3E41 JUMP JUMPDEST PUSH1 0x40 MLOAD DUP1 SWAP2 SUB SWAP1 REVERT JUMPDEST DUP2 CALLVALUE EQ PUSH2 0x2338 JUMPI PUSH1 0x40 MLOAD PUSH32 0x8C379A000000000000000000000000000000000000000000000000000000000 DUP2 MSTORE PUSH1 0x4 ADD PUSH2 0x232F SWAP1 PUSH2 0x3ED3 JUMP JUMPDEST PUSH1 0x40 MLOAD DUP1 SWAP2 SUB SWAP1 REVERT JUMPDEST CALLER PUSH20 0xFFFFFFFFFFFFFFFFFFFFFFFFFFFFFFFFFFFFFFFF AND PUSH32 0xCCFAEB3043A96A967DC036AB72E078A9632AF809671BC2A1AC30A8043645F89E DUP3 DUP5 PUSH1 0x40 MLOAD PUSH2 0x2380 SWAP3 SWAP2 SWAP1 PUSH2 0x3EF3 JUMP JUMPDEST PUSH1 0x40 MLOAD DUP1 SWAP2 SUB SWAP1 LOG2 POP POP JUMP JUMPDEST PUSH1 0x0 DUP2 DUP4 PUSH2 0x239A SWAP2 SWAP1 PUSH2 0x3F1C JUMP JUMPDEST SWAP1 POP SWAP3 SWAP2 POP POP JUMP JUMPDEST PUSH1 0x0 DUP2 DUP4 PUSH2 0x23B0 SWAP2 SWAP1 PUSH2 0x3FA5 JUMP JUMPDEST SWAP1 POP SWAP3 SWAP2 POP POP JUMP JUMPDEST PUSH1 0x0 DUP4 PUSH20 0xFFFFFFFFFFFFFFFFFFFFFFFFFFFFFFFFFFFFFFFF AND DUP3 PUSH1 0x40 MLOAD PUSH2 0x23DE SWAP1 PUSH2 0x4007 JUMP JUMPDEST PUSH1 0x0 PUSH1 0x40 MLOAD DUP1 DUP4 SUB DUP2 DUP6 DUP8 GAS CALL SWAP3 POP POP POP RETURNDATASIZE DUP1 PUSH1 0x0 DUP2 EQ PUSH2 0x241B JUMPI PUSH1 0x40 MLOAD SWAP2 POP PUSH1 0x1F NOT PUSH1 0x3F RETURNDATASIZE ADD AND DUP3 ADD PUSH1 0x40 MSTORE RETURNDATASIZE DUP3 MSTORE RETURNDATASIZE PUSH1 0x0 PUSH1 0x20 DUP5 ADD RETURNDATACOPY PUSH2 0x2420 JUMP JUMPDEST PUSH1 0x60 SWAP2 POP JUMPDEST POP POP SWAP1 POP DUP1 PUSH2 0x2464 JUMPI PUSH1 0x40 MLOAD PUSH32 0x8C379A000000000000000000000000000000000000000000000000000000000 DUP2 MSTORE PUSH1 0x4 ADD PUSH2 0x245B SWAP1 PUSH2 0x4068 JUMP JUMPDEST PUSH1 0x40 MLOAD DUP1 SWAP2 SUB SWAP1 REVERT JUMPDEST PUSH2 0x246E ADDRESS DUP5 PUSH2 0x28AC JUMP JUMPDEST DUP4 PUSH20 0xFFFFFFFFFFFFFFFFFFFFFFFFFFFFFFFFFFFFFFFF AND PUSH32 0xDA072EBD7A5649099F43A3776EB0CDA17ACA79426EE9F28AAE203F5DFA04EDA DUP5 DUP5 PUSH1 0x40 MLOAD PUSH2 0x24B6 SWAP3 SWAP2 SWAP1 PUSH2 0x4088 JUMP JUMPDEST PUSH1 0x40 MLOAD DUP1 SWAP2 SUB SWAP1 LOG2 POP POP POP POP JUMP JUMPDEST PUSH1 0x0 PUSH1 0x1 SWAP1 SLOAD SWAP1 PUSH2 0x100 EXP SWAP1 DIV PUSH1 0xFF AND PUSH2 0x2513 JUMPI PUSH1 0x40 MLOAD PUSH32 0x8C379A000000000000000000000000000000000000000000000000000000000 DUP2 MSTORE PUSH1 0x4 ADD PUSH2 0x250A SWAP1 PUSH2 0x4123 JUMP JUMPDEST PUSH1 0x40 MLOAD DUP1 SWAP2 SUB SWAP1 REVERT JUMPDEST JUMP JUMPDEST PUSH1 0x0 PUSH1 0x1 SWAP1 SLOAD SWAP1 PUSH2 0x100 EXP SWAP1 DIV PUSH1 0xFF AND PUSH2 0x2564 JUMPI PUSH1 0x40 MLOAD PUSH32 0x8C379A000000000000000000000000000000000000000000000000000000000 DUP2 MSTORE PUSH1 0x4 ADD PUSH2 0x255B SWAP1 PUSH2 0x4123 JUMP JUMPDEST PUSH1 0x40 MLOAD DUP1 SWAP2 SUB SWAP1 REVERT JUMPDEST PUSH2 0x2574 PUSH2 0x256F PUSH2 0x1959 JUMP JUMPDEST PUSH2 0x21CE JUMP JUMPDEST JUMP JUMPDEST PUSH1 0x0 DUP1 PUSH1 0x1 SWAP1 SLOAD SWAP1 PUSH2 0x100 EXP SWAP1 DIV PUSH1 0xFF AND ISZERO SWAP1 POP DUP1 DUP1 ISZERO PUSH2 0x25A7 JUMPI POP PUSH1 0x1 PUSH1 0x0 DUP1 SLOAD SWAP1 PUSH2 0x100 EXP SWAP1 DIV PUSH1 0xFF AND PUSH1 0xFF AND LT JUMPDEST DUP1 PUSH2 0x25D4 JUMPI POP PUSH2 0x25B6 ADDRESS PUSH2 0x1B2C JUMP JUMPDEST ISZERO DUP1 ISZERO PUSH2 0x25D3 JUMPI POP PUSH1 0x1 PUSH1 0x0 DUP1 SLOAD SWAP1 PUSH2 0x100 EXP SWAP1 DIV PUSH1 0xFF AND PUSH1 0xFF AND EQ JUMPDEST JUMPDEST PUSH2 0x2613 JUMPI PUSH1 0x40 MLOAD PUSH32 0x8C379A000000000000000000000000000000000000000000000000000000000 DUP2 MSTORE PUSH1 0x4 ADD PUSH2 0x260A SWAP1 PUSH2 0x32BE JUMP JUMPDEST PUSH1 0x40 MLOAD DUP1 SWAP2 SUB SWAP1 REVERT JUMPDEST PUSH1 0x1 PUSH1 0x0 DUP1 PUSH2 0x100 EXP DUP2 SLOAD DUP2 PUSH1 0xFF MUL NOT AND SWAP1 DUP4 PUSH1 0xFF AND MUL OR SWAP1 SSTORE POP DUP1 ISZERO PUSH2 0x2650 JUMPI PUSH1 0x1 PUSH1 0x0 PUSH1 0x1 PUSH2 0x100 EXP DUP2 SLOAD DUP2 PUSH1 0xFF MUL NOT AND SWAP1 DUP4 ISZERO ISZERO MUL OR SWAP1 SSTORE POP JUMPDEST DUP7 PUSH1 0x6C SWAP1 DUP1 MLOAD SWAP1 PUSH1 0x20 ADD SWAP1 PUSH2 0x2666 SWAP3 SWAP2 SWAP1 PUSH2 0x2AA5 JUMP JUMPDEST POP DUP6 PUSH1 0x6D SWAP1 DUP1 MLOAD SWAP1 PUSH1 0x20 ADD SWAP1 PUSH2 0x267D SWAP3 SWAP2 SWAP1 PUSH2 0x2AA5 JUMP JUMPDEST POP DUP5 PUSH1 0x67 DUP2 SWAP1 SSTORE POP DUP4 PUSH1 0x68 DUP2 SWAP1 SSTORE POP DUP3 PUSH1 0x69 DUP2 SWAP1 SSTORE POP DUP2 PUSH1 0x6A DUP2 SWAP1 SSTORE POP PUSH1 0x1 PUSH1 0x6E PUSH1 0x0 ADDRESS PUSH20 0xFFFFFFFFFFFFFFFFFFFFFFFFFFFFFFFFFFFFFFFF AND PUSH20 0xFFFFFFFFFFFFFFFFFFFFFFFFFFFFFFFFFFFFFFFF AND DUP2 MSTORE PUSH1 0x20 ADD SWAP1 DUP2 MSTORE PUSH1 0x20 ADD PUSH1 0x0 KECCAK256 PUSH1 0x0 PUSH2 0x100 EXP DUP2 SLOAD DUP2 PUSH1 0xFF MUL NOT AND SWAP1 DUP4 ISZERO ISZERO MUL OR SWAP1 SSTORE POP DUP1 ISZERO PUSH2 0x274B JUMPI PUSH1 0x0 DUP1 PUSH1 0x1 PUSH2 0x100 EXP DUP2 SLOAD DUP2 PUSH1 0xFF MUL NOT AND SWAP1 DUP4 ISZERO ISZERO MUL OR SWAP1 SSTORE POP PUSH32 0x7F26B83FF96E1F2B6A682F133852F6798A09C465DA95921460CEFB3847402498 PUSH1 0x1 PUSH1 0x40 MLOAD PUSH2 0x2742 SWAP2 SWAP1 PUSH2 0x3323 JUMP JUMPDEST PUSH1 0x40 MLOAD DUP1 SWAP2 SUB SWAP1 LOG1 JUMPDEST POP POP POP POP POP POP POP JUMP JUMPDEST PUSH1 0x0 PUSH20 0xFFFFFFFFFFFFFFFFFFFFFFFFFFFFFFFFFFFFFFFF AND DUP4 PUSH20 0xFFFFFFFFFFFFFFFFFFFFFFFFFFFFFFFFFFFFFFFF AND EQ DUP1 PUSH2 0x27BB JUMPI POP PUSH1 0x0 PUSH20 0xFFFFFFFFFFFFFFFFFFFFFFFFFFFFFFFFFFFFFFFF AND DUP3 PUSH20 0xFFFFFFFFFFFFFFFFFFFFFFFFFFFFFFFFFFFFFFFF AND EQ JUMPDEST DUP1 PUSH2 0x280F JUMPI POP PUSH1 0x6E PUSH1 0x0 DUP5 PUSH20 0xFFFFFFFFFFFFFFFFFFFFFFFFFFFFFFFFFFFFFFFF AND PUSH20 0xFFFFFFFFFFFFFFFFFFFFFFFFFFFFFFFFFFFFFFFF AND DUP2 MSTORE PUSH1 0x20 ADD SWAP1 DUP2 MSTORE PUSH1 0x20 ADD PUSH1 0x0 KECCAK256 PUSH1 0x0 SWAP1 SLOAD SWAP1 PUSH2 0x100 EXP SWAP1 DIV PUSH1 0xFF AND JUMPDEST DUP1 PUSH2 0x2863 JUMPI POP PUSH1 0x6E PUSH1 0x0 DUP4 PUSH20 0xFFFFFFFFFFFFFFFFFFFFFFFFFFFFFFFFFFFFFFFF AND PUSH20 0xFFFFFFFFFFFFFFFFFFFFFFFFFFFFFFFFFFFFFFFF AND DUP2 MSTORE PUSH1 0x20 ADD SWAP1 DUP2 MSTORE PUSH1 0x20 ADD PUSH1 0x0 KECCAK256 PUSH1 0x0 SWAP1 SLOAD SWAP1 PUSH2 0x100 EXP SWAP1 DIV PUSH1 0xFF AND JUMPDEST PUSH2 0x28A2 JUMPI PUSH1 0x40 MLOAD PUSH32 0x8C379A000000000000000000000000000000000000000000000000000000000 DUP2 MSTORE PUSH1 0x4 ADD PUSH2 0x2899 SWAP1 PUSH2 0x418F JUMP JUMPDEST PUSH1 0x40 MLOAD DUP1 SWAP2 SUB SWAP1 REVERT JUMPDEST POP POP POP JUMP JUMPDEST POP POP POP JUMP JUMPDEST PUSH1 0x0 PUSH20 0xFFFFFFFFFFFFFFFFFFFFFFFFFFFFFFFFFFFFFFFF AND DUP3 PUSH20 0xFFFFFFFFFFFFFFFFFFFFFFFFFFFFFFFFFFFFFFFF AND EQ ISZERO PUSH2 0x291C JUMPI PUSH1 0x40 MLOAD PUSH32 0x8C379A000000000000000000000000000000000000000000000000000000000 DUP2 MSTORE PUSH1 0x4 ADD PUSH2 0x2913 SWAP1 PUSH2 0x4221 JUMP JUMPDEST PUSH1 0x40 MLOAD DUP1 SWAP2 SUB SWAP1 REVERT JUMPDEST PUSH2 0x2928 DUP3 PUSH1 0x0 DUP4 PUSH2 0x2754 JUMP JUMPDEST PUSH1 0x0 PUSH1 0x70 PUSH1 0x0 DUP5 PUSH20 0xFFFFFFFFFFFFFFFFFFFFFFFFFFFFFFFFFFFFFFFF AND PUSH20 0xFFFFFFFFFFFFFFFFFFFFFFFFFFFFFFFFFFFFFFFF AND DUP2 MSTORE PUSH1 0x20 ADD SWAP1 DUP2 MSTORE PUSH1 0x20 ADD PUSH1 0x0 KECCAK256 SLOAD SWAP1 POP DUP2 DUP2 LT ISZERO PUSH2 0x29AF JUMPI PUSH1 0x40 MLOAD PUSH32 0x8C379A000000000000000000000000000000000000000000000000000000000 DUP2 MSTORE PUSH1 0x4 ADD PUSH2 0x29A6 SWAP1 PUSH2 0x42B3 JUMP JUMPDEST PUSH1 0x40 MLOAD DUP1 SWAP2 SUB SWAP1 REVERT JUMPDEST DUP2 PUSH1 0x70 PUSH1 0x0 DUP6 PUSH20 0xFFFFFFFFFFFFFFFFFFFFFFFFFFFFFFFFFFFFFFFF AND PUSH20 0xFFFFFFFFFFFFFFFFFFFFFFFFFFFFFFFFFFFFFFFF AND DUP2 MSTORE PUSH1 0x20 ADD SWAP1 DUP2 MSTORE PUSH1 0x20 ADD PUSH1 0x0 KECCAK256 PUSH1 0x0 DUP3 DUP3 SLOAD SUB SWAP3 POP POP DUP2 SWAP1 SSTORE POP DUP2 PUSH1 0x6B PUSH1 0x0 DUP3 DUP3 SLOAD PUSH2 0x2A0E SWAP2 SWAP1 PUSH2 0x3516 JUMP JUMPDEST SWAP3 POP POP DUP2 SWAP1 SSTORE POP DUP2 PUSH1 0x66 PUSH1 0x0 DUP3 DUP3 SLOAD PUSH2 0x2A27 SWAP2 SWAP1 PUSH2 0x33FF JUMP JUMPDEST SWAP3 POP POP DUP2 SWAP1 SSTORE POP PUSH1 0x0 PUSH20 0xFFFFFFFFFFFFFFFFFFFFFFFFFFFFFFFFFFFFFFFF AND DUP4 PUSH20 0xFFFFFFFFFFFFFFFFFFFFFFFFFFFFFFFFFFFFFFFF AND PUSH32 0xDDF252AD1BE2C89B69C2B068FC378DAA952BA7F163C4A11628F55A4DF523B3EF DUP5 PUSH1 0x40 MLOAD PUSH2 0x2A8C SWAP2 SWAP1 PUSH2 0x2F2A JUMP JUMPDEST PUSH1 0x40 MLOAD DUP1 SWAP2 SUB SWAP1 LOG3 PUSH2 0x2AA0 DUP4 PUSH1 0x0 DUP5 PUSH2 0x28A7 JUMP JUMPDEST POP POP POP JUMP JUMPDEST DUP3 DUP1 SLOAD PUSH2 0x2AB1 SWAP1 PUSH2 0x321A JUMP JUMPDEST SWAP1 PUSH1 0x0 MSTORE PUSH1 0x20 PUSH1 0x0 KECCAK256 SWAP1 PUSH1 0x1F ADD PUSH1 0x20 SWAP1 DIV DUP2 ADD SWAP3 DUP3 PUSH2 0x2AD3 JUMPI PUSH1 0x0 DUP6 SSTORE PUSH2 0x2B1A JUMP JUMPDEST DUP3 PUSH1 0x1F LT PUSH2 0x2AEC JUMPI DUP1 MLOAD PUSH1 0xFF NOT AND DUP4 DUP1 ADD OR DUP6 SSTORE PUSH2 0x2B1A JUMP JUMPDEST DUP3 DUP1 ADD PUSH1 0x1 ADD DUP6 SSTORE DUP3 ISZERO PUSH2 0x2B1A JUMPI SWAP2 DUP3 ADD JUMPDEST DUP3 DUP2 GT ISZERO PUSH2 0x2B19 JUMPI DUP3 MLOAD DUP3 SSTORE SWAP2 PUSH1 0x20 ADD SWAP2 SWAP1 PUSH1 0x1 ADD SWAP1 PUSH2 0x2AFE JUMP JUMPDEST JUMPDEST POP SWAP1 POP PUSH2 0x2B27 SWAP2 SWAP1 PUSH2 0x2B2B JUMP JUMPDEST POP SWAP1 JUMP JUMPDEST JUMPDEST DUP1 DUP3 GT ISZERO PUSH2 0x2B44 JUMPI PUSH1 0x0 DUP2 PUSH1 0x0 SWAP1 SSTORE POP PUSH1 0x1 ADD PUSH2 0x2B2C JUMP JUMPDEST POP SWAP1 JUMP JUMPDEST PUSH1 0x0 DUP2 MLOAD SWAP1 POP SWAP2 SWAP1 POP JUMP JUMPDEST PUSH1 0x0 DUP3 DUP3 MSTORE PUSH1 0x20 DUP3 ADD SWAP1 POP SWAP3 SWAP2 POP POP JUMP JUMPDEST PUSH1 0x0 JUMPDEST DUP4 DUP2 LT ISZERO PUSH2 0x2B82 JUMPI DUP1 DUP3 ADD MLOAD DUP2 DUP5 ADD MSTORE PUSH1 0x20 DUP2 ADD SWAP1 POP PUSH2 0x2B67 JUMP JUMPDEST DUP4 DUP2 GT ISZERO PUSH2 0x2B91 JUMPI PUSH1 0x0 DUP5 DUP5 ADD MSTORE JUMPDEST POP POP POP POP JUMP JUMPDEST PUSH1 0x0 PUSH1 0x1F NOT PUSH1 0x1F DUP4 ADD AND SWAP1 POP SWAP2 SWAP1 POP JUMP JUMPDEST PUSH1 0x0 PUSH2 0x2BB3 DUP3 PUSH2 0x2B48 JUMP JUMPDEST PUSH2 0x2BBD DUP2 DUP6 PUSH2 0x2B53 JUMP JUMPDEST SWAP4 POP PUSH2 0x2BCD DUP2 DUP6 PUSH1 0x20 DUP7 ADD PUSH2 0x2B64 JUMP JUMPDEST PUSH2 0x2BD6 DUP2 PUSH2 0x2B97 JUMP JUMPDEST DUP5 ADD SWAP2 POP POP SWAP3 SWAP2 POP POP JUMP JUMPDEST PUSH1 0x0 PUSH1 0x20 DUP3 ADD SWAP1 POP DUP2 DUP2 SUB PUSH1 0x0 DUP4 ADD MSTORE PUSH2 0x2BFB DUP2 DUP5 PUSH2 0x2BA8 JUMP JUMPDEST SWAP1 POP SWAP3 SWAP2 POP POP JUMP JUMPDEST PUSH1 0x0 PUSH1 0x40 MLOAD SWAP1 POP SWAP1 JUMP JUMPDEST PUSH1 0x0 DUP1 REVERT JUMPDEST PUSH1 0x0 DUP1 REVERT JUMPDEST PUSH1 0x0 PUSH20 0xFFFFFFFFFFFFFFFFFFFFFFFFFFFFFFFFFFFFFFFF DUP3 AND SWAP1 POP SWAP2 SWAP1 POP JUMP JUMPDEST PUSH1 0x0 PUSH2 0x2C42 DUP3 PUSH2 0x2C17 JUMP JUMPDEST SWAP1 POP SWAP2 SWAP1 POP JUMP JUMPDEST PUSH2 0x2C52 DUP2 PUSH2 0x2C37 JUMP JUMPDEST DUP2 EQ PUSH2 0x2C5D JUMPI PUSH1 0x0 DUP1 REVERT JUMPDEST POP JUMP JUMPDEST PUSH1 0x0 DUP2 CALLDATALOAD SWAP1 POP PUSH2 0x2C6F DUP2 PUSH2 0x2C49 JUMP JUMPDEST SWAP3 SWAP2 POP POP JUMP JUMPDEST PUSH1 0x0 DUP2 SWAP1 POP SWAP2 SWAP1 POP JUMP JUMPDEST PUSH2 0x2C88 DUP2 PUSH2 0x2C75 JUMP JUMPDEST DUP2 EQ PUSH2 0x2C93 JUMPI PUSH1 0x0 DUP1 REVERT JUMPDEST POP JUMP JUMPDEST PUSH1 0x0 DUP2 CALLDATALOAD SWAP1 POP PUSH2 0x2CA5 DUP2 PUSH2 0x2C7F JUMP JUMPDEST SWAP3 SWAP2 POP POP JUMP JUMPDEST PUSH1 0x0 DUP1 PUSH1 0x40 DUP4 DUP6 SUB SLT ISZERO PUSH2 0x2CC2 JUMPI PUSH2 0x2CC1 PUSH2 0x2C0D JUMP JUMPDEST JUMPDEST PUSH1 0x0 PUSH2 0x2CD0 DUP6 DUP3 DUP7 ADD PUSH2 0x2C60 JUMP JUMPDEST SWAP3 POP POP PUSH1 0x20 PUSH2 0x2CE1 DUP6 DUP3 DUP7 ADD PUSH2 0x2C96 JUMP JUMPDEST SWAP2 POP POP SWAP3 POP SWAP3 SWAP1 POP JUMP JUMPDEST PUSH1 0x0 DUP2 ISZERO ISZERO SWAP1 POP SWAP2 SWAP1 POP JUMP JUMPDEST PUSH2 0x2D00 DUP2 PUSH2 0x2CEB JUMP JUMPDEST DUP3 MSTORE POP POP JUMP JUMPDEST PUSH1 0x0 PUSH1 0x20 DUP3 ADD SWAP1 POP PUSH2 0x2D1B PUSH1 0x0 DUP4 ADD DUP5 PUSH2 0x2CF7 JUMP JUMPDEST SWAP3 SWAP2 POP POP JUMP JUMPDEST PUSH1 0x0 DUP1 REVERT JUMPDEST PUSH1 0x0 DUP1 REVERT JUMPDEST PUSH32 0x4E487B7100000000000000000000000000000000000000000000000000000000 PUSH1 0x0 MSTORE PUSH1 0x41 PUSH1 0x4 MSTORE PUSH1 0x24 PUSH1 0x0 REVERT JUMPDEST PUSH2 0x2D63 DUP3 PUSH2 0x2B97 JUMP JUMPDEST DUP2 ADD DUP2 DUP2 LT PUSH8 0xFFFFFFFFFFFFFFFF DUP3 GT OR ISZERO PUSH2 0x2D82 JUMPI PUSH2 0x2D81 PUSH2 0x2D2B JUMP JUMPDEST JUMPDEST DUP1 PUSH1 0x40 MSTORE POP POP POP JUMP JUMPDEST PUSH1 0x0 PUSH2 0x2D95 PUSH2 0x2C03 JUMP JUMPDEST SWAP1 POP PUSH2 0x2DA1 DUP3 DUP3 PUSH2 0x2D5A JUMP JUMPDEST SWAP2 SWAP1 POP JUMP JUMPDEST PUSH1 0x0 PUSH8 0xFFFFFFFFFFFFFFFF DUP3 GT ISZERO PUSH2 0x2DC1 JUMPI PUSH2 0x2DC0 PUSH2 0x2D2B JUMP JUMPDEST JUMPDEST PUSH2 0x2DCA DUP3 PUSH2 0x2B97 JUMP JUMPDEST SWAP1 POP PUSH1 0x20 DUP2 ADD SWAP1 POP SWAP2 SWAP1 POP JUMP JUMPDEST DUP3 DUP2 DUP4 CALLDATACOPY PUSH1 0x0 DUP4 DUP4 ADD MSTORE POP POP POP JUMP JUMPDEST PUSH1 0x0 PUSH2 0x2DF9 PUSH2 0x2DF4 DUP5 PUSH2 0x2DA6 JUMP JUMPDEST PUSH2 0x2D8B JUMP JUMPDEST SWAP1 POP DUP3 DUP2 MSTORE PUSH1 0x20 DUP2 ADD DUP5 DUP5 DUP5 ADD GT ISZERO PUSH2 0x2E15 JUMPI PUSH2 0x2E14 PUSH2 0x2D26 JUMP JUMPDEST JUMPDEST PUSH2 0x2E20 DUP5 DUP3 DUP6 PUSH2 0x2DD7 JUMP JUMPDEST POP SWAP4 SWAP3 POP POP POP JUMP JUMPDEST PUSH1 0x0 DUP3 PUSH1 0x1F DUP4 ADD SLT PUSH2 0x2E3D JUMPI PUSH2 0x2E3C PUSH2 0x2D21 JUMP JUMPDEST JUMPDEST DUP2 CALLDATALOAD PUSH2 0x2E4D DUP5 DUP3 PUSH1 0x20 DUP7 ADD PUSH2 0x2DE6 JUMP JUMPDEST SWAP2 POP POP SWAP3 SWAP2 POP POP JUMP JUMPDEST PUSH1 0x0 DUP1 PUSH1 0x0 DUP1 PUSH1 0x0 DUP1 PUSH1 0xC0 DUP8 DUP10 SUB SLT ISZERO PUSH2 0x2E73 JUMPI PUSH2 0x2E72 PUSH2 0x2C0D JUMP JUMPDEST JUMPDEST PUSH1 0x0 DUP8 ADD CALLDATALOAD PUSH8 0xFFFFFFFFFFFFFFFF DUP2 GT ISZERO PUSH2 0x2E91 JUMPI PUSH2 0x2E90 PUSH2 0x2C12 JUMP JUMPDEST JUMPDEST PUSH2 0x2E9D DUP10 DUP3 DUP11 ADD PUSH2 0x2E28 JUMP JUMPDEST SWAP7 POP POP PUSH1 0x20 DUP8 ADD CALLDATALOAD PUSH8 0xFFFFFFFFFFFFFFFF DUP2 GT ISZERO PUSH2 0x2EBE JUMPI PUSH2 0x2EBD PUSH2 0x2C12 JUMP JUMPDEST JUMPDEST PUSH2 0x2ECA DUP10 DUP3 DUP11 ADD PUSH2 0x2E28 JUMP JUMPDEST SWAP6 POP POP PUSH1 0x40 PUSH2 0x2EDB DUP10 DUP3 DUP11 ADD PUSH2 0x2C96 JUMP JUMPDEST SWAP5 POP POP PUSH1 0x60 PUSH2 0x2EEC DUP10 DUP3 DUP11 ADD PUSH2 0x2C96 JUMP JUMPDEST SWAP4 POP POP PUSH1 0x80 PUSH2 0x2EFD DUP10 DUP3 DUP11 ADD PUSH2 0x2C96 JUMP JUMPDEST SWAP3 POP POP PUSH1 0xA0 PUSH2 0x2F0E DUP10 DUP3 DUP11 ADD PUSH2 0x2C96 JUMP JUMPDEST SWAP2 POP POP SWAP3 SWAP6 POP SWAP3 SWAP6 POP SWAP3 SWAP6 JUMP JUMPDEST PUSH2 0x2F24 DUP2 PUSH2 0x2C75 JUMP JUMPDEST DUP3 MSTORE POP POP JUMP JUMPDEST PUSH1 0x0 PUSH1 0x20 DUP3 ADD SWAP1 POP PUSH2 0x2F3F PUSH1 0x0 DUP4 ADD DUP5 PUSH2 0x2F1B JUMP JUMPDEST SWAP3 SWAP2 POP POP JUMP JUMPDEST PUSH1 0x0 PUSH1 0x20 DUP3 DUP5 SUB SLT ISZERO PUSH2 0x2F5B JUMPI PUSH2 0x2F5A PUSH2 0x2C0D JUMP JUMPDEST JUMPDEST PUSH1 0x0 PUSH2 0x2F69 DUP5 DUP3 DUP6 ADD PUSH2 0x2C60 JUMP JUMPDEST SWAP2 POP POP SWAP3 SWAP2 POP POP JUMP JUMPDEST PUSH1 0x0 DUP1 PUSH1 0x0 PUSH1 0x60 DUP5 DUP7 SUB SLT ISZERO PUSH2 0x2F8B JUMPI PUSH2 0x2F8A PUSH2 0x2C0D JUMP JUMPDEST JUMPDEST PUSH1 0x0 PUSH2 0x2F99 DUP7 DUP3 DUP8 ADD PUSH2 0x2C60 JUMP JUMPDEST SWAP4 POP POP PUSH1 0x20 PUSH2 0x2FAA DUP7 DUP3 DUP8 ADD PUSH2 0x2C60 JUMP JUMPDEST SWAP3 POP POP PUSH1 0x40 PUSH2 0x2FBB DUP7 DUP3 DUP8 ADD PUSH2 0x2C96 JUMP JUMPDEST SWAP2 POP POP SWAP3 POP SWAP3 POP SWAP3 JUMP JUMPDEST PUSH1 0x0 PUSH1 0xFF DUP3 AND SWAP1 POP SWAP2 SWAP1 POP JUMP JUMPDEST PUSH2 0x2FDB DUP2 PUSH2 0x2FC5 JUMP JUMPDEST DUP3 MSTORE POP POP JUMP JUMPDEST PUSH1 0x0 PUSH1 0x20 DUP3 ADD SWAP1 POP PUSH2 0x2FF6 PUSH1 0x0 DUP4 ADD DUP5 PUSH2 0x2FD2 JUMP JUMPDEST SWAP3 SWAP2 POP POP JUMP JUMPDEST PUSH1 0x0 PUSH1 0x80 DUP3 ADD SWAP1 POP PUSH2 0x3011 PUSH1 0x0 DUP4 ADD DUP8 PUSH2 0x2F1B JUMP JUMPDEST PUSH2 0x301E PUSH1 0x20 DUP4 ADD DUP7 PUSH2 0x2F1B JUMP JUMPDEST PUSH2 0x302B PUSH1 0x40 DUP4 ADD DUP6 PUSH2 0x2F1B JUMP JUMPDEST PUSH2 0x3038 PUSH1 0x60 DUP4 ADD DUP5 PUSH2 0x2F1B JUMP JUMPDEST SWAP6 SWAP5 POP POP POP POP POP JUMP JUMPDEST PUSH1 0x0 PUSH1 0x20 DUP3 DUP5 SUB SLT ISZERO PUSH2 0x3057 JUMPI PUSH2 0x3056 PUSH2 0x2C0D JUMP JUMPDEST JUMPDEST PUSH1 0x0 PUSH2 0x3065 DUP5 DUP3 DUP6 ADD PUSH2 0x2C96 JUMP JUMPDEST SWAP2 POP POP SWAP3 SWAP2 POP POP JUMP JUMPDEST PUSH1 0x0 DUP1 PUSH1 0x40 DUP4 DUP6 SUB SLT ISZERO PUSH2 0x3085 JUMPI PUSH2 0x3084 PUSH2 0x2C0D JUMP JUMPDEST JUMPDEST PUSH1 0x0 PUSH2 0x3093 DUP6 DUP3 DUP7 ADD PUSH2 0x2C96 JUMP JUMPDEST SWAP3 POP POP PUSH1 0x20 PUSH2 0x30A4 DUP6 DUP3 DUP7 ADD PUSH2 0x2C96 JUMP JUMPDEST SWAP2 POP POP SWAP3 POP SWAP3 SWAP1 POP JUMP JUMPDEST PUSH2 0x30B7 DUP2 PUSH2 0x2CEB JUMP JUMPDEST DUP2 EQ PUSH2 0x30C2 JUMPI PUSH1 0x0 DUP1 REVERT JUMPDEST POP JUMP JUMPDEST PUSH1 0x0 DUP2 CALLDATALOAD SWAP1 POP PUSH2 0x30D4 DUP2 PUSH2 0x30AE JUMP JUMPDEST SWAP3 SWAP2 POP POP JUMP JUMPDEST PUSH1 0x0 DUP1 PUSH1 0x40 DUP4 DUP6 SUB SLT ISZERO PUSH2 0x30F1 JUMPI PUSH2 0x30F0 PUSH2 0x2C0D JUMP JUMPDEST JUMPDEST PUSH1 0x0 PUSH2 0x30FF DUP6 DUP3 DUP7 ADD PUSH2 0x2C60 JUMP JUMPDEST SWAP3 POP POP PUSH1 0x20 PUSH2 0x3110 DUP6 DUP3 DUP7 ADD PUSH2 0x30C5 JUMP JUMPDEST SWAP2 POP POP SWAP3 POP SWAP3 SWAP1 POP JUMP JUMPDEST PUSH2 0x3123 DUP2 PUSH2 0x2C37 JUMP JUMPDEST DUP3 MSTORE POP POP JUMP JUMPDEST PUSH1 0x0 PUSH1 0x20 DUP3 ADD SWAP1 POP PUSH2 0x313E PUSH1 0x0 DUP4 ADD DUP5 PUSH2 0x311A JUMP JUMPDEST SWAP3 SWAP2 POP POP JUMP JUMPDEST PUSH1 0x0 DUP1 PUSH1 0x0 DUP1 PUSH1 0x80 DUP6 DUP8 SUB SLT ISZERO PUSH2 0x315E JUMPI PUSH2 0x315D PUSH2 0x2C0D JUMP JUMPDEST JUMPDEST PUSH1 0x0 PUSH2 0x316C DUP8 DUP3 DUP9 ADD PUSH2 0x2C96 JUMP JUMPDEST SWAP5 POP POP PUSH1 0x20 PUSH2 0x317D DUP8 DUP3 DUP9 ADD PUSH2 0x2C96 JUMP JUMPDEST SWAP4 POP POP PUSH1 0x40 PUSH2 0x318E DUP8 DUP3 DUP9 ADD PUSH2 0x2C96 JUMP JUMPDEST SWAP3 POP POP PUSH1 0x60 PUSH2 0x319F DUP8 DUP3 DUP9 ADD PUSH2 0x2C96 JUMP JUMPDEST SWAP2 POP POP SWAP3 SWAP6 SWAP2 SWAP5 POP SWAP3 POP JUMP JUMPDEST PUSH1 0x0 DUP1 PUSH1 0x40 DUP4 DUP6 SUB SLT ISZERO PUSH2 0x31C2 JUMPI PUSH2 0x31C1 PUSH2 0x2C0D JUMP JUMPDEST JUMPDEST PUSH1 0x0 PUSH2 0x31D0 DUP6 DUP3 DUP7 ADD PUSH2 0x2C60 JUMP JUMPDEST SWAP3 POP POP PUSH1 0x20 PUSH2 0x31E1 DUP6 DUP3 DUP7 ADD PUSH2 0x2C60 JUMP JUMPDEST SWAP2 POP POP SWAP3 POP SWAP3 SWAP1 POP JUMP JUMPDEST PUSH32 0x4E487B7100000000000000000000000000000000000000000000000000000000 PUSH1 0x0 MSTORE PUSH1 0x22 PUSH1 0x4 MSTORE PUSH1 0x24 PUSH1 0x0 REVERT JUMPDEST PUSH1 0x0 PUSH1 0x2 DUP3 DIV SWAP1 POP PUSH1 0x1 DUP3 AND DUP1 PUSH2 0x3232 JUMPI PUSH1 0x7F DUP3 AND SWAP2 POP JUMPDEST PUSH1 0x20 DUP3 LT DUP2 EQ ISZERO PUSH2 0x3246 JUMPI PUSH2 0x3245 PUSH2 0x31EB JUMP JUMPDEST JUMPDEST POP SWAP2 SWAP1 POP JUMP JUMPDEST PUSH32 0x496E697469616C697A61626C653A20636F6E747261637420697320616C726561 PUSH1 0x0 DUP3 ADD MSTORE PUSH32 0x647920696E697469616C697A6564000000000000000000000000000000000000 PUSH1 0x20 DUP3 ADD MSTORE POP JUMP JUMPDEST PUSH1 0x0 PUSH2 0x32A8 PUSH1 0x2E DUP4 PUSH2 0x2B53 JUMP JUMPDEST SWAP2 POP PUSH2 0x32B3 DUP3 PUSH2 0x324C JUMP JUMPDEST PUSH1 0x40 DUP3 ADD SWAP1 POP SWAP2 SWAP1 POP JUMP JUMPDEST PUSH1 0x0 PUSH1 0x20 DUP3 ADD SWAP1 POP DUP2 DUP2 SUB PUSH1 0x0 DUP4 ADD MSTORE PUSH2 0x32D7 DUP2 PUSH2 0x329B JUMP JUMPDEST SWAP1 POP SWAP2 SWAP1 POP JUMP JUMPDEST PUSH1 0x0 DUP2 SWAP1 POP SWAP2 SWAP1 POP JUMP JUMPDEST PUSH1 0x0 DUP2 SWAP1 POP SWAP2 SWAP1 POP JUMP JUMPDEST PUSH1 0x0 PUSH2 0x330D PUSH2 0x3308 PUSH2 0x3303 DUP5 PUSH2 0x32DE JUMP JUMPDEST PUSH2 0x32E8 JUMP JUMPDEST PUSH2 0x2FC5 JUMP JUMPDEST SWAP1 POP SWAP2 SWAP1 POP JUMP JUMPDEST PUSH2 0x331D DUP2 PUSH2 0x32F2 JUMP JUMPDEST DUP3 MSTORE POP POP JUMP JUMPDEST PUSH1 0x0 PUSH1 0x20 DUP3 ADD SWAP1 POP PUSH2 0x3338 PUSH1 0x0 DUP4 ADD DUP5 PUSH2 0x3314 JUMP JUMPDEST SWAP3 SWAP2 POP POP JUMP JUMPDEST PUSH32 0x5845766D6F732045524332303A207472616E7366657220616D6F756E74206578 PUSH1 0x0 DUP3 ADD MSTORE PUSH32 0x636565647320616C6C6F77616E63650000000000000000000000000000000000 PUSH1 0x20 DUP3 ADD MSTORE POP JUMP JUMPDEST PUSH1 0x0 PUSH2 0x339A PUSH1 0x2F DUP4 PUSH2 0x2B53 JUMP JUMPDEST SWAP2 POP PUSH2 0x33A5 DUP3 PUSH2 0x333E JUMP JUMPDEST PUSH1 0x40 DUP3 ADD SWAP1 POP SWAP2 SWAP1 POP JUMP JUMPDEST PUSH1 0x0 PUSH1 0x20 DUP3 ADD SWAP1 POP DUP2 DUP2 SUB PUSH1 0x0 DUP4 ADD MSTORE PUSH2 0x33C9 DUP2 PUSH2 0x338D JUMP JUMPDEST SWAP1 POP SWAP2 SWAP1 POP JUMP JUMPDEST PUSH32 0x4E487B7100000000000000000000000000000000000000000000000000000000 PUSH1 0x0 MSTORE PUSH1 0x11 PUSH1 0x4 MSTORE PUSH1 0x24 PUSH1 0x0 REVERT JUMPDEST PUSH1 0x0 PUSH2 0x340A DUP3 PUSH2 0x2C75 JUMP JUMPDEST SWAP2 POP PUSH2 0x3415 DUP4 PUSH2 0x2C75 JUMP JUMPDEST SWAP3 POP DUP3 PUSH32 0xFFFFFFFFFFFFFFFFFFFFFFFFFFFFFFFFFFFFFFFFFFFFFFFFFFFFFFFFFFFFFFFF SUB DUP3 GT ISZERO PUSH2 0x344A JUMPI PUSH2 0x3449 PUSH2 0x33D0 JUMP JUMPDEST JUMPDEST DUP3 DUP3 ADD SWAP1 POP SWAP3 SWAP2 POP POP JUMP JUMPDEST PUSH32 0x76616C696461746552656465656D3A2072656465656D20656E74727920646F65 PUSH1 0x0 DUP3 ADD MSTORE PUSH32 0x73206E6F74206578697374000000000000000000000000000000000000000000 PUSH1 0x20 DUP3 ADD MSTORE POP JUMP JUMPDEST PUSH1 0x0 PUSH2 0x34B1 PUSH1 0x2B DUP4 PUSH2 0x2B53 JUMP JUMPDEST SWAP2 POP PUSH2 0x34BC DUP3 PUSH2 0x3455 JUMP JUMPDEST PUSH1 0x40 DUP3 ADD SWAP1 POP SWAP2 SWAP1 POP JUMP JUMPDEST PUSH1 0x0 PUSH1 0x20 DUP3 ADD SWAP1 POP DUP2 DUP2 SUB PUSH1 0x0 DUP4 ADD MSTORE PUSH2 0x34E0 DUP2 PUSH2 0x34A4 JUMP JUMPDEST SWAP1 POP SWAP2 SWAP1 POP JUMP JUMPDEST PUSH32 0x4E487B7100000000000000000000000000000000000000000000000000000000 PUSH1 0x0 MSTORE PUSH1 0x32 PUSH1 0x4 MSTORE PUSH1 0x24 PUSH1 0x0 REVERT JUMPDEST PUSH1 0x0 PUSH2 0x3521 DUP3 PUSH2 0x2C75 JUMP JUMPDEST SWAP2 POP PUSH2 0x352C DUP4 PUSH2 0x2C75 JUMP JUMPDEST SWAP3 POP DUP3 DUP3 LT ISZERO PUSH2 0x353F JUMPI PUSH2 0x353E PUSH2 0x33D0 JUMP JUMPDEST JUMPDEST DUP3 DUP3 SUB SWAP1 POP SWAP3 SWAP2 POP POP JUMP JUMPDEST PUSH32 0x72656465656D3A207845766D6F73416D6F756E742063616E6E6F74206265206E PUSH1 0x0 DUP3 ADD MSTORE PUSH32 0x756C6C0000000000000000000000000000000000000000000000000000000000 PUSH1 0x20 DUP3 ADD MSTORE POP JUMP JUMPDEST PUSH1 0x0 PUSH2 0x35A6 PUSH1 0x23 DUP4 PUSH2 0x2B53 JUMP JUMPDEST SWAP2 POP PUSH2 0x35B1 DUP3 PUSH2 0x354A JUMP JUMPDEST PUSH1 0x40 DUP3 ADD SWAP1 POP SWAP2 SWAP1 POP JUMP JUMPDEST PUSH1 0x0 PUSH1 0x20 DUP3 ADD SWAP1 POP DUP2 DUP2 SUB PUSH1 0x0 DUP4 ADD MSTORE PUSH2 0x35D5 DUP2 PUSH2 0x3599 JUMP JUMPDEST SWAP1 POP SWAP2 SWAP1 POP JUMP JUMPDEST PUSH32 0x72656465656D3A20436C617373206572726F7200000000000000000000000000 PUSH1 0x0 DUP3 ADD MSTORE POP JUMP JUMPDEST PUSH1 0x0 PUSH2 0x3612 PUSH1 0x13 DUP4 PUSH2 0x2B53 JUMP JUMPDEST SWAP2 POP PUSH2 0x361D DUP3 PUSH2 0x35DC JUMP JUMPDEST PUSH1 0x20 DUP3 ADD SWAP1 POP SWAP2 SWAP1 POP JUMP JUMPDEST PUSH1 0x0 PUSH1 0x20 DUP3 ADD SWAP1 POP DUP2 DUP2 SUB PUSH1 0x0 DUP4 ADD MSTORE PUSH2 0x3641 DUP2 PUSH2 0x3605 JUMP JUMPDEST SWAP1 POP SWAP2 SWAP1 POP JUMP JUMPDEST PUSH1 0x0 PUSH1 0x60 DUP3 ADD SWAP1 POP PUSH2 0x365D PUSH1 0x0 DUP4 ADD DUP7 PUSH2 0x2F1B JUMP JUMPDEST PUSH2 0x366A PUSH1 0x20 DUP4 ADD DUP6 PUSH2 0x2F1B JUMP JUMPDEST PUSH2 0x3677 PUSH1 0x40 DUP4 ADD DUP5 PUSH2 0x2F1B JUMP JUMPDEST SWAP5 SWAP4 POP POP POP POP JUMP JUMPDEST PUSH32 0x7570646174655472616E7366657257686974656C6973743A2043616E6E6F7420 PUSH1 0x0 DUP3 ADD MSTORE PUSH32 0x72656D6F7665205845766D6F732066726F6D2077686974656C69737400000000 PUSH1 0x20 DUP3 ADD MSTORE POP JUMP JUMPDEST PUSH1 0x0 PUSH2 0x36DB PUSH1 0x3C DUP4 PUSH2 0x2B53 JUMP JUMPDEST SWAP2 POP PUSH2 0x36E6 DUP3 PUSH2 0x367F JUMP JUMPDEST PUSH1 0x40 DUP3 ADD SWAP1 POP SWAP2 SWAP1 POP JUMP JUMPDEST PUSH1 0x0 PUSH1 0x20 DUP3 ADD SWAP1 POP DUP2 DUP2 SUB PUSH1 0x0 DUP4 ADD MSTORE PUSH2 0x370A DUP2 PUSH2 0x36CE JUMP JUMPDEST SWAP1 POP SWAP2 SWAP1 POP JUMP JUMPDEST PUSH1 0x0 PUSH1 0x40 DUP3 ADD SWAP1 POP PUSH2 0x3726 PUSH1 0x0 DUP4 ADD DUP6 PUSH2 0x311A JUMP JUMPDEST PUSH2 0x3733 PUSH1 0x20 DUP4 ADD DUP5 PUSH2 0x2CF7 JUMP JUMPDEST SWAP4 SWAP3 POP POP POP JUMP JUMPDEST PUSH32 0x5845766D6F732045524332303A2064656372656173656420616C6C6F77616E63 PUSH1 0x0 DUP3 ADD MSTORE PUSH32 0x652062656C6F77207A65726F0000000000000000000000000000000000000000 PUSH1 0x20 DUP3 ADD MSTORE POP JUMP JUMPDEST PUSH1 0x0 PUSH2 0x3796 PUSH1 0x2C DUP4 PUSH2 0x2B53 JUMP JUMPDEST SWAP2 POP PUSH2 0x37A1 DUP3 PUSH2 0x373A JUMP JUMPDEST PUSH1 0x40 DUP3 ADD SWAP1 POP SWAP2 SWAP1 POP JUMP JUMPDEST PUSH1 0x0 PUSH1 0x20 DUP3 ADD SWAP1 POP DUP2 DUP2 SUB PUSH1 0x0 DUP4 ADD MSTORE PUSH2 0x37C5 DUP2 PUSH2 0x3789 JUMP JUMPDEST SWAP1 POP SWAP2 SWAP1 POP JUMP JUMPDEST PUSH32 0x66696E616C697A6552656465656D3A2076657374696E67206475726174696F6E PUSH1 0x0 DUP3 ADD MSTORE PUSH32 0x20686173206E6F7420656E646564207965740000000000000000000000000000 PUSH1 0x20 DUP3 ADD MSTORE POP JUMP JUMPDEST PUSH1 0x0 PUSH2 0x3828 PUSH1 0x32 DUP4 PUSH2 0x2B53 JUMP JUMPDEST SWAP2 POP PUSH2 0x3833 DUP3 PUSH2 0x37CC JUMP JUMPDEST PUSH1 0x40 DUP3 ADD SWAP1 POP SWAP2 SWAP1 POP JUMP JUMPDEST PUSH1 0x0 PUSH1 0x20 DUP3 ADD SWAP1 POP DUP2 DUP2 SUB PUSH1 0x0 DUP4 ADD MSTORE PUSH2 0x3857 DUP2 PUSH2 0x381B JUMP JUMPDEST SWAP1 POP SWAP2 SWAP1 POP JUMP JUMPDEST PUSH32 0x75706461746552656465656D53657474696E67733A2077726F6E672072617469 PUSH1 0x0 DUP3 ADD MSTORE PUSH32 0x6F2076616C756573000000000000000000000000000000000000000000000000 PUSH1 0x20 DUP3 ADD MSTORE POP JUMP JUMPDEST PUSH1 0x0 PUSH2 0x38BA PUSH1 0x28 DUP4 PUSH2 0x2B53 JUMP JUMPDEST SWAP2 POP PUSH2 0x38C5 DUP3 PUSH2 0x385E JUMP JUMPDEST PUSH1 0x40 DUP3 ADD SWAP1 POP SWAP2 SWAP1 POP JUMP JUMPDEST PUSH1 0x0 PUSH1 0x20 DUP3 ADD SWAP1 POP DUP2 DUP2 SUB PUSH1 0x0 DUP4 ADD MSTORE PUSH2 0x38E9 DUP2 PUSH2 0x38AD JUMP JUMPDEST SWAP1 POP SWAP2 SWAP1 POP JUMP JUMPDEST PUSH32 0x75706461746552656465656D53657474696E67733A2077726F6E67206D617844 PUSH1 0x0 DUP3 ADD MSTORE PUSH32 0x75726174696F6E2076616C756573000000000000000000000000000000000000 PUSH1 0x20 DUP3 ADD MSTORE POP JUMP JUMPDEST PUSH1 0x0 PUSH2 0x394C PUSH1 0x2E DUP4 PUSH2 0x2B53 JUMP JUMPDEST SWAP2 POP PUSH2 0x3957 DUP3 PUSH2 0x38F0 JUMP JUMPDEST PUSH1 0x40 DUP3 ADD SWAP1 POP SWAP2 SWAP1 POP JUMP JUMPDEST PUSH1 0x0 PUSH1 0x20 DUP3 ADD SWAP1 POP DUP2 DUP2 SUB PUSH1 0x0 DUP4 ADD MSTORE PUSH2 0x397B DUP2 PUSH2 0x393F JUMP JUMPDEST SWAP1 POP SWAP2 SWAP1 POP JUMP JUMPDEST PUSH32 0x4F776E61626C653A206E6577206F776E657220697320746865207A65726F2061 PUSH1 0x0 DUP3 ADD MSTORE PUSH32 0x6464726573730000000000000000000000000000000000000000000000000000 PUSH1 0x20 DUP3 ADD MSTORE POP JUMP JUMPDEST PUSH1 0x0 PUSH2 0x39DE PUSH1 0x26 DUP4 PUSH2 0x2B53 JUMP JUMPDEST SWAP2 POP PUSH2 0x39E9 DUP3 PUSH2 0x3982 JUMP JUMPDEST PUSH1 0x40 DUP3 ADD SWAP1 POP SWAP2 SWAP1 POP JUMP JUMPDEST PUSH1 0x0 PUSH1 0x20 DUP3 ADD SWAP1 POP DUP2 DUP2 SUB PUSH1 0x0 DUP4 ADD MSTORE PUSH2 0x3A0D DUP2 PUSH2 0x39D1 JUMP JUMPDEST SWAP1 POP SWAP2 SWAP1 POP JUMP JUMPDEST PUSH32 0x5845766D6F732045524332303A20617070726F76652066726F6D20746865207A PUSH1 0x0 DUP3 ADD MSTORE PUSH32 0x65726F2061646472657373000000000000000000000000000000000000000000 PUSH1 0x20 DUP3 ADD MSTORE POP JUMP JUMPDEST PUSH1 0x0 PUSH2 0x3A70 PUSH1 0x2B DUP4 PUSH2 0x2B53 JUMP JUMPDEST SWAP2 POP PUSH2 0x3A7B DUP3 PUSH2 0x3A14 JUMP JUMPDEST PUSH1 0x40 DUP3 ADD SWAP1 POP SWAP2 SWAP1 POP JUMP JUMPDEST PUSH1 0x0 PUSH1 0x20 DUP3 ADD SWAP1 POP DUP2 DUP2 SUB PUSH1 0x0 DUP4 ADD MSTORE PUSH2 0x3A9F DUP2 PUSH2 0x3A63 JUMP JUMPDEST SWAP1 POP SWAP2 SWAP1 POP JUMP JUMPDEST PUSH32 0x5845766D6F732045524332303A20617070726F766520746F20746865207A6572 PUSH1 0x0 DUP3 ADD MSTORE PUSH32 0x6F20616464726573730000000000000000000000000000000000000000000000 PUSH1 0x20 DUP3 ADD MSTORE POP JUMP JUMPDEST PUSH1 0x0 PUSH2 0x3B02 PUSH1 0x29 DUP4 PUSH2 0x2B53 JUMP JUMPDEST SWAP2 POP PUSH2 0x3B0D DUP3 PUSH2 0x3AA6 JUMP JUMPDEST PUSH1 0x40 DUP3 ADD SWAP1 POP SWAP2 SWAP1 POP JUMP JUMPDEST PUSH1 0x0 PUSH1 0x20 DUP3 ADD SWAP1 POP DUP2 DUP2 SUB PUSH1 0x0 DUP4 ADD MSTORE PUSH2 0x3B31 DUP2 PUSH2 0x3AF5 JUMP JUMPDEST SWAP1 POP SWAP2 SWAP1 POP JUMP JUMPDEST PUSH32 0x5845766D6F732045524332303A207472616E736665722066726F6D2074686520 PUSH1 0x0 DUP3 ADD MSTORE PUSH32 0x7A65726F20616464726573730000000000000000000000000000000000000000 PUSH1 0x20 DUP3 ADD MSTORE POP JUMP JUMPDEST PUSH1 0x0 PUSH2 0x3B94 PUSH1 0x2C DUP4 PUSH2 0x2B53 JUMP JUMPDEST SWAP2 POP PUSH2 0x3B9F DUP3 PUSH2 0x3B38 JUMP JUMPDEST PUSH1 0x40 DUP3 ADD SWAP1 POP SWAP2 SWAP1 POP JUMP JUMPDEST PUSH1 0x0 PUSH1 0x20 DUP3 ADD SWAP1 POP DUP2 DUP2 SUB PUSH1 0x0 DUP4 ADD MSTORE PUSH2 0x3BC3 DUP2 PUSH2 0x3B87 JUMP JUMPDEST SWAP1 POP SWAP2 SWAP1 POP JUMP JUMPDEST PUSH32 0x5845766D6F732045524332303A207472616E7366657220746F20746865207A65 PUSH1 0x0 DUP3 ADD MSTORE PUSH32 0x726F206164647265737300000000000000000000000000000000000000000000 PUSH1 0x20 DUP3 ADD MSTORE POP JUMP JUMPDEST PUSH1 0x0 PUSH2 0x3C26 PUSH1 0x2A DUP4 PUSH2 0x2B53 JUMP JUMPDEST SWAP2 POP PUSH2 0x3C31 DUP3 PUSH2 0x3BCA JUMP JUMPDEST PUSH1 0x40 DUP3 ADD SWAP1 POP SWAP2 SWAP1 POP JUMP JUMPDEST PUSH1 0x0 PUSH1 0x20 DUP3 ADD SWAP1 POP DUP2 DUP2 SUB PUSH1 0x0 DUP4 ADD MSTORE PUSH2 0x3C55 DUP2 PUSH2 0x3C19 JUMP JUMPDEST SWAP1 POP SWAP2 SWAP1 POP JUMP JUMPDEST PUSH32 0x5845766D6F732045524332303A207472616E7366657220616D6F756E74206578 PUSH1 0x0 DUP3 ADD MSTORE PUSH32 0x63656564732062616C616E636500000000000000000000000000000000000000 PUSH1 0x20 DUP3 ADD MSTORE POP JUMP JUMPDEST PUSH1 0x0 PUSH2 0x3CB8 PUSH1 0x2D DUP4 PUSH2 0x2B53 JUMP JUMPDEST SWAP2 POP PUSH2 0x3CC3 DUP3 PUSH2 0x3C5C JUMP JUMPDEST PUSH1 0x40 DUP3 ADD SWAP1 POP SWAP2 SWAP1 POP JUMP JUMPDEST PUSH1 0x0 PUSH1 0x20 DUP3 ADD SWAP1 POP DUP2 DUP2 SUB PUSH1 0x0 DUP4 ADD MSTORE PUSH2 0x3CE7 DUP2 PUSH2 0x3CAB JUMP JUMPDEST SWAP1 POP SWAP2 SWAP1 POP JUMP JUMPDEST PUSH32 0x5265656E7472616E637947756172643A207265656E7472616E742063616C6C00 PUSH1 0x0 DUP3 ADD MSTORE POP JUMP JUMPDEST PUSH1 0x0 PUSH2 0x3D24 PUSH1 0x1F DUP4 PUSH2 0x2B53 JUMP JUMPDEST SWAP2 POP PUSH2 0x3D2F DUP3 PUSH2 0x3CEE JUMP JUMPDEST PUSH1 0x20 DUP3 ADD SWAP1 POP SWAP2 SWAP1 POP JUMP JUMPDEST PUSH1 0x0 PUSH1 0x20 DUP3 ADD SWAP1 POP DUP2 DUP2 SUB PUSH1 0x0 DUP4 ADD MSTORE PUSH2 0x3D53 DUP2 PUSH2 0x3D17 JUMP JUMPDEST SWAP1 POP SWAP2 SWAP1 POP JUMP JUMPDEST PUSH32 0x4E487B7100000000000000000000000000000000000000000000000000000000 PUSH1 0x0 MSTORE PUSH1 0x31 PUSH1 0x4 MSTORE PUSH1 0x24 PUSH1 0x0 REVERT JUMPDEST PUSH32 0x4F776E61626C653A2063616C6C6572206973206E6F7420746865206F776E6572 PUSH1 0x0 DUP3 ADD MSTORE POP JUMP JUMPDEST PUSH1 0x0 PUSH2 0x3DBF PUSH1 0x20 DUP4 PUSH2 0x2B53 JUMP JUMPDEST SWAP2 POP PUSH2 0x3DCA DUP3 PUSH2 0x3D89 JUMP JUMPDEST PUSH1 0x20 DUP3 ADD SWAP1 POP SWAP2 SWAP1 POP JUMP JUMPDEST PUSH1 0x0 PUSH1 0x20 DUP3 ADD SWAP1 POP DUP2 DUP2 SUB PUSH1 0x0 DUP4 ADD MSTORE PUSH2 0x3DEE DUP2 PUSH2 0x3DB2 JUMP JUMPDEST SWAP1 POP SWAP2 SWAP1 POP JUMP JUMPDEST PUSH32 0x636F6E766572743A20616D6F756E742063616E6E6F74206265206E756C6C0000 PUSH1 0x0 DUP3 ADD MSTORE POP JUMP JUMPDEST PUSH1 0x0 PUSH2 0x3E2B PUSH1 0x1E DUP4 PUSH2 0x2B53 JUMP JUMPDEST SWAP2 POP PUSH2 0x3E36 DUP3 PUSH2 0x3DF5 JUMP JUMPDEST PUSH1 0x20 DUP3 ADD SWAP1 POP SWAP2 SWAP1 POP JUMP JUMPDEST PUSH1 0x0 PUSH1 0x20 DUP3 ADD SWAP1 POP DUP2 DUP2 SUB PUSH1 0x0 DUP4 ADD MSTORE PUSH2 0x3E5A DUP2 PUSH2 0x3E1E JUMP JUMPDEST SWAP1 POP SWAP2 SWAP1 POP JUMP JUMPDEST PUSH32 0x636F6E766572743A2054686520616D6F756E74206973206E6F7420636F727265 PUSH1 0x0 DUP3 ADD MSTORE PUSH32 0x6374000000000000000000000000000000000000000000000000000000000000 PUSH1 0x20 DUP3 ADD MSTORE POP JUMP JUMPDEST PUSH1 0x0 PUSH2 0x3EBD PUSH1 0x22 DUP4 PUSH2 0x2B53 JUMP JUMPDEST SWAP2 POP PUSH2 0x3EC8 DUP3 PUSH2 0x3E61 JUMP JUMPDEST PUSH1 0x40 DUP3 ADD SWAP1 POP SWAP2 SWAP1 POP JUMP JUMPDEST PUSH1 0x0 PUSH1 0x20 DUP3 ADD SWAP1 POP DUP2 DUP2 SUB PUSH1 0x0 DUP4 ADD MSTORE PUSH2 0x3EEC DUP2 PUSH2 0x3EB0 JUMP JUMPDEST SWAP1 POP SWAP2 SWAP1 POP JUMP JUMPDEST PUSH1 0x0 PUSH1 0x40 DUP3 ADD SWAP1 POP PUSH2 0x3F08 PUSH1 0x0 DUP4 ADD DUP6 PUSH2 0x311A JUMP JUMPDEST PUSH2 0x3F15 PUSH1 0x20 DUP4 ADD DUP5 PUSH2 0x2F1B JUMP JUMPDEST SWAP4 SWAP3 POP POP POP JUMP JUMPDEST PUSH1 0x0 PUSH2 0x3F27 DUP3 PUSH2 0x2C75 JUMP JUMPDEST SWAP2 POP PUSH2 0x3F32 DUP4 PUSH2 0x2C75 JUMP JUMPDEST SWAP3 POP DUP2 PUSH32 0xFFFFFFFFFFFFFFFFFFFFFFFFFFFFFFFFFFFFFFFFFFFFFFFFFFFFFFFFFFFFFFFF DIV DUP4 GT DUP3 ISZERO ISZERO AND ISZERO PUSH2 0x3F6B JUMPI PUSH2 0x3F6A PUSH2 0x33D0 JUMP JUMPDEST JUMPDEST DUP3 DUP3 MUL SWAP1 POP SWAP3 SWAP2 POP POP JUMP JUMPDEST PUSH32 0x4E487B7100000000000000000000000000000000000000000000000000000000 PUSH1 0x0 MSTORE PUSH1 0x12 PUSH1 0x4 MSTORE PUSH1 0x24 PUSH1 0x0 REVERT JUMPDEST PUSH1 0x0 PUSH2 0x3FB0 DUP3 PUSH2 0x2C75 JUMP JUMPDEST SWAP2 POP PUSH2 0x3FBB DUP4 PUSH2 0x2C75 JUMP JUMPDEST SWAP3 POP DUP3 PUSH2 0x3FCB JUMPI PUSH2 0x3FCA PUSH2 0x3F76 JUMP JUMPDEST JUMPDEST DUP3 DUP3 DIV SWAP1 POP SWAP3 SWAP2 POP POP JUMP JUMPDEST PUSH1 0x0 DUP2 SWAP1 POP SWAP3 SWAP2 POP POP JUMP JUMPDEST POP JUMP JUMPDEST PUSH1 0x0 PUSH2 0x3FF1 PUSH1 0x0 DUP4 PUSH2 0x3FD6 JUMP JUMPDEST SWAP2 POP PUSH2 0x3FFC DUP3 PUSH2 0x3FE1 JUMP JUMPDEST PUSH1 0x0 DUP3 ADD SWAP1 POP SWAP2 SWAP1 POP JUMP JUMPDEST PUSH1 0x0 PUSH2 0x4012 DUP3 PUSH2 0x3FE4 JUMP JUMPDEST SWAP2 POP DUP2 SWAP1 POP SWAP2 SWAP1 POP JUMP JUMPDEST PUSH32 0x66696E616C697A6552656465656D3A5472616E73666572206661696C65642E00 PUSH1 0x0 DUP3 ADD MSTORE POP JUMP JUMPDEST PUSH1 0x0 PUSH2 0x4052 PUSH1 0x1F DUP4 PUSH2 0x2B53 JUMP JUMPDEST SWAP2 POP PUSH2 0x405D DUP3 PUSH2 0x401C JUMP JUMPDEST PUSH1 0x20 DUP3 ADD SWAP1 POP SWAP2 SWAP1 POP JUMP JUMPDEST PUSH1 0x0 PUSH1 0x20 DUP3 ADD SWAP1 POP DUP2 DUP2 SUB PUSH1 0x0 DUP4 ADD MSTORE PUSH2 0x4081 DUP2 PUSH2 0x4045 JUMP JUMPDEST SWAP1 POP SWAP2 SWAP1 POP JUMP JUMPDEST PUSH1 0x0 PUSH1 0x40 DUP3 ADD SWAP1 POP PUSH2 0x409D PUSH1 0x0 DUP4 ADD DUP6 PUSH2 0x2F1B JUMP JUMPDEST PUSH2 0x40AA PUSH1 0x20 DUP4 ADD DUP5 PUSH2 0x2F1B JUMP JUMPDEST SWAP4 SWAP3 POP POP POP JUMP JUMPDEST PUSH32 0x496E697469616C697A61626C653A20636F6E7472616374206973206E6F742069 PUSH1 0x0 DUP3 ADD MSTORE PUSH32 0x6E697469616C697A696E67000000000000000000000000000000000000000000 PUSH1 0x20 DUP3 ADD MSTORE POP JUMP JUMPDEST PUSH1 0x0 PUSH2 0x410D PUSH1 0x2B DUP4 PUSH2 0x2B53 JUMP JUMPDEST SWAP2 POP PUSH2 0x4118 DUP3 PUSH2 0x40B1 JUMP JUMPDEST PUSH1 0x40 DUP3 ADD SWAP1 POP SWAP2 SWAP1 POP JUMP JUMPDEST PUSH1 0x0 PUSH1 0x20 DUP3 ADD SWAP1 POP DUP2 DUP2 SUB PUSH1 0x0 DUP4 ADD MSTORE PUSH2 0x413C DUP2 PUSH2 0x4100 JUMP JUMPDEST SWAP1 POP SWAP2 SWAP1 POP JUMP JUMPDEST PUSH32 0x7472616E736665723A206E6F7420616C6C6F7765640000000000000000000000 PUSH1 0x0 DUP3 ADD MSTORE POP JUMP JUMPDEST PUSH1 0x0 PUSH2 0x4179 PUSH1 0x15 DUP4 PUSH2 0x2B53 JUMP JUMPDEST SWAP2 POP PUSH2 0x4184 DUP3 PUSH2 0x4143 JUMP JUMPDEST PUSH1 0x20 DUP3 ADD SWAP1 POP SWAP2 SWAP1 POP JUMP JUMPDEST PUSH1 0x0 PUSH1 0x20 DUP3 ADD SWAP1 POP DUP2 DUP2 SUB PUSH1 0x0 DUP4 ADD MSTORE PUSH2 0x41A8 DUP2 PUSH2 0x416C JUMP JUMPDEST SWAP1 POP SWAP2 SWAP1 POP JUMP JUMPDEST PUSH32 0x5845766D6F732045524332303A206275726E2066726F6D20746865207A65726F PUSH1 0x0 DUP3 ADD MSTORE PUSH32 0x2061646472657373000000000000000000000000000000000000000000000000 PUSH1 0x20 DUP3 ADD MSTORE POP JUMP JUMPDEST PUSH1 0x0 PUSH2 0x420B PUSH1 0x28 DUP4 PUSH2 0x2B53 JUMP JUMPDEST SWAP2 POP PUSH2 0x4216 DUP3 PUSH2 0x41AF JUMP JUMPDEST PUSH1 0x40 DUP3 ADD SWAP1 POP SWAP2 SWAP1 POP JUMP JUMPDEST PUSH1 0x0 PUSH1 0x20 DUP3 ADD SWAP1 POP DUP2 DUP2 SUB PUSH1 0x0 DUP4 ADD MSTORE PUSH2 0x423A DUP2 PUSH2 0x41FE JUMP JUMPDEST SWAP1 POP SWAP2 SWAP1 POP JUMP JUMPDEST PUSH32 0x5845766D6F732045524332303A206275726E20616D6F756E7420657863656564 PUSH1 0x0 DUP3 ADD MSTORE PUSH32 0x732062616C616E63650000000000000000000000000000000000000000000000 PUSH1 0x20 DUP3 ADD MSTORE POP JUMP JUMPDEST PUSH1 0x0 PUSH2 0x429D PUSH1 0x29 DUP4 PUSH2 0x2B53 JUMP JUMPDEST SWAP2 POP PUSH2 0x42A8 DUP3 PUSH2 0x4241 JUMP JUMPDEST PUSH1 0x40 DUP3 ADD SWAP1 POP SWAP2 SWAP1 POP JUMP JUMPDEST PUSH1 0x0 PUSH1 0x20 DUP3 ADD SWAP1 POP DUP2 DUP2 SUB PUSH1 0x0 DUP4 ADD MSTORE PUSH2 0x42CC DUP2 PUSH2 0x4290 JUMP JUMPDEST SWAP1 POP SWAP2 SWAP1 POP JUMP INVALID LOG2 PUSH5 0x6970667358 0x22 SLT KECCAK256 0xEC ADD POP PUSH16 0xFDFF4F0D22195B88CCDC474D9BFDC7CC 0xED ADDMOD STOP 0xD7 0xB3 CALLER 0xC5 0x4E 0xE9 DIV 0xB0 SWAP13 PUSH5 0x736F6C6343 STOP ADDMOD 0xC STOP CALLER "
				},
				"gasEstimates": {
					"creation": {
						"codeDepositCost": "3432200",
						"executionCost": "25950",
						"totalCost": "3458150"
					},
					"external": {
						"": "220",
						"_transferWhitelist(address)": "2935",
						"allowance(address,address)": "infinite",
						"approve(address,uint256)": "infinite",
						"balanceOf(address)": "2886",
						"burnNumber()": "2517",
						"cancelRedeem(uint256)": "infinite",
						"convert(uint256)": "infinite",
						"decimals()": "389",
						"decreaseAllowance(address,uint256)": "infinite",
						"finalizeRedeem(uint256)": "infinite",
						"getEvmosByVestingDuration(uint256,uint256)": "infinite",
						"getUserRedeemsLength(address)": "2960",
						"increaseAllowance(address,uint256)": "infinite",
						"initialize(string,string,uint256,uint256,uint256,uint256)": "infinite",
						"isTransferWhitelisted(address)": "2951",
						"maxRedeemDuration()": "2495",
						"maxRedeemRatio()": "2473",
						"minRedeemDuration()": "2474",
						"minRedeemRatio()": "2475",
						"name()": "infinite",
						"owner()": "2568",
						"redeem(uint256,uint256)": "infinite",
						"renounceOwnership()": "30465",
						"symbol()": "infinite",
						"totalSupply()": "2550",
						"transfer(address,uint256)": "infinite",
						"transferFrom(address,address,uint256)": "infinite",
						"transferOwnership(address)": "30857",
						"unbondingBalancOf(address)": "2930",
						"updateRedeemSettings(uint256,uint256,uint256,uint256)": "infinite",
						"updateTransferWhitelist(address,bool)": "infinite",
						"userRedeems(address,uint256)": "infinite"
					},
					"internal": {
						"__ERC20_init(string memory,string memory,uint256,uint256,uint256,uint256)": "infinite",
						"__ERC20_init_unchained(string memory,string memory,uint256,uint256,uint256,uint256)": "infinite",
						"_afterTokenTransfer(address,address,uint256)": "15",
						"_approve(address,address,uint256)": "infinite",
						"_beforeTokenTransfer(address,address,uint256)": "infinite",
						"_burn(address,uint256)": "infinite",
						"_convert(uint256,address)": "infinite",
						"_currentBlockTimestamp()": "22",
						"_deleteRedeemEntry(uint256)": "infinite",
						"_finalizeRedeem(address,uint256,uint256)": "infinite",
						"_mint(address,uint256)": "infinite",
						"_transfer(address,address,uint256)": "infinite"
					}
				},
				"methodIdentifiers": {
					"_transferWhitelist(address)": "1fdbca69",
					"allowance(address,address)": "dd62ed3e",
					"approve(address,uint256)": "095ea7b3",
					"balanceOf(address)": "70a08231",
					"burnNumber()": "ec8797a1",
					"cancelRedeem(uint256)": "539ffb77",
					"convert(uint256)": "a3908e1b",
					"decimals()": "313ce567",
					"decreaseAllowance(address,uint256)": "a457c2d7",
					"finalizeRedeem(uint256)": "aff6cbf1",
					"getEvmosByVestingDuration(uint256,uint256)": "a7feb356",
					"getUserRedeemsLength(address)": "b90c2b52",
					"increaseAllowance(address,uint256)": "39509351",
					"initialize(string,string,uint256,uint256,uint256,uint256)": "0ea3a691",
					"isTransferWhitelisted(address)": "1eee7e60",
					"maxRedeemDuration()": "e9ed87f8",
					"maxRedeemRatio()": "e3a2950b",
					"minRedeemDuration()": "c4b10766",
					"minRedeemRatio()": "1c352679",
					"name()": "06fdde03",
					"owner()": "8da5cb5b",
					"redeem(uint256,uint256)": "7cbc2373",
					"renounceOwnership()": "715018a6",
					"symbol()": "95d89b41",
					"totalSupply()": "18160ddd",
					"transfer(address,uint256)": "a9059cbb",
					"transferFrom(address,address,uint256)": "23b872dd",
					"transferOwnership(address)": "f2fde38b",
					"unbondingBalancOf(address)": "dc7bd4f5",
					"updateRedeemSettings(uint256,uint256,uint256,uint256)": "ca613292",
					"updateTransferWhitelist(address,bool)": "89083654",
					"userRedeems(address,uint256)": "4f62b7ec"
				}
			},
			"storageLayout": {
				"storage": [
					{
						"astId": 138,
						"contract": "contracts/space.sol:XEvmosToken",
						"label": "_initialized",
						"offset": 0,
						"slot": "0",
						"type": "t_uint8"
					},
					{
						"astId": 141,
						"contract": "contracts/space.sol:XEvmosToken",
						"label": "_initializing",
						"offset": 1,
						"slot": "0",
						"type": "t_bool"
					},
					{
						"astId": 625,
						"contract": "contracts/space.sol:XEvmosToken",
						"label": "__gap",
						"offset": 0,
						"slot": "1",
						"type": "t_array(t_uint256)50_storage"
					},
					{
						"astId": 10,
						"contract": "contracts/space.sol:XEvmosToken",
						"label": "_owner",
						"offset": 0,
						"slot": "51",
						"type": "t_address"
					},
					{
						"astId": 130,
						"contract": "contracts/space.sol:XEvmosToken",
						"label": "__gap",
						"offset": 0,
						"slot": "52",
						"type": "t_array(t_uint256)49_storage"
					},
					{
						"astId": 949,
						"contract": "contracts/space.sol:XEvmosToken",
						"label": "_status",
						"offset": 0,
						"slot": "101",
						"type": "t_uint256"
					},
					{
						"astId": 1021,
						"contract": "contracts/space.sol:XEvmosToken",
						"label": "burnNumber",
						"offset": 0,
						"slot": "102",
						"type": "t_uint256"
					},
					{
						"astId": 1023,
						"contract": "contracts/space.sol:XEvmosToken",
						"label": "minRedeemRatio",
						"offset": 0,
						"slot": "103",
						"type": "t_uint256"
					},
					{
						"astId": 1025,
						"contract": "contracts/space.sol:XEvmosToken",
						"label": "maxRedeemRatio",
						"offset": 0,
						"slot": "104",
						"type": "t_uint256"
					},
					{
						"astId": 1027,
						"contract": "contracts/space.sol:XEvmosToken",
						"label": "minRedeemDuration",
						"offset": 0,
						"slot": "105",
						"type": "t_uint256"
					},
					{
						"astId": 1029,
						"contract": "contracts/space.sol:XEvmosToken",
						"label": "maxRedeemDuration",
						"offset": 0,
						"slot": "106",
						"type": "t_uint256"
					},
					{
						"astId": 1031,
						"contract": "contracts/space.sol:XEvmosToken",
						"label": "_totalSupply",
						"offset": 0,
						"slot": "107",
						"type": "t_uint256"
					},
					{
						"astId": 1033,
						"contract": "contracts/space.sol:XEvmosToken",
						"label": "tokenName",
						"offset": 0,
						"slot": "108",
						"type": "t_string_storage"
					},
					{
						"astId": 1035,
						"contract": "contracts/space.sol:XEvmosToken",
						"label": "tokenSymbol",
						"offset": 0,
						"slot": "109",
						"type": "t_string_storage"
					},
					{
						"astId": 1039,
						"contract": "contracts/space.sol:XEvmosToken",
						"label": "_transferWhitelist",
						"offset": 0,
						"slot": "110",
						"type": "t_mapping(t_address,t_bool)"
					},
					{
						"astId": 1045,
						"contract": "contracts/space.sol:XEvmosToken",
						"label": "userRedeems",
						"offset": 0,
						"slot": "111",
						"type": "t_mapping(t_address,t_array(t_struct(RedeemInfo)1019_storage)dyn_storage)"
					},
					{
						"astId": 1049,
						"contract": "contracts/space.sol:XEvmosToken",
						"label": "_balances",
						"offset": 0,
						"slot": "112",
						"type": "t_mapping(t_address,t_uint256)"
					},
					{
						"astId": 1053,
						"contract": "contracts/space.sol:XEvmosToken",
						"label": "_unbondingBalances",
						"offset": 0,
						"slot": "113",
						"type": "t_mapping(t_address,t_uint256)"
					},
					{
						"astId": 1059,
						"contract": "contracts/space.sol:XEvmosToken",
						"label": "_allowances",
						"offset": 0,
						"slot": "114",
						"type": "t_mapping(t_address,t_mapping(t_address,t_uint256))"
					},
					{
						"astId": 2284,
						"contract": "contracts/space.sol:XEvmosToken",
						"label": "__gap",
						"offset": 0,
						"slot": "115",
						"type": "t_array(t_uint256)45_storage"
					}
				],
				"types": {
					"t_address": {
						"encoding": "inplace",
						"label": "address",
						"numberOfBytes": "20"
					},
					"t_array(t_struct(RedeemInfo)1019_storage)dyn_storage": {
						"base": "t_struct(RedeemInfo)1019_storage",
						"encoding": "dynamic_array",
						"label": "struct XEvmosToken.RedeemInfo[]",
						"numberOfBytes": "32"
					},
					"t_array(t_uint256)45_storage": {
						"base": "t_uint256",
						"encoding": "inplace",
						"label": "uint256[45]",
						"numberOfBytes": "1440"
					},
					"t_array(t_uint256)49_storage": {
						"base": "t_uint256",
						"encoding": "inplace",
						"label": "uint256[49]",
						"numberOfBytes": "1568"
					},
					"t_array(t_uint256)50_storage": {
						"base": "t_uint256",
						"encoding": "inplace",
						"label": "uint256[50]",
						"numberOfBytes": "1600"
					},
					"t_bool": {
						"encoding": "inplace",
						"label": "bool",
						"numberOfBytes": "1"
					},
					"t_mapping(t_address,t_array(t_struct(RedeemInfo)1019_storage)dyn_storage)": {
						"encoding": "mapping",
						"key": "t_address",
						"label": "mapping(address => struct XEvmosToken.RedeemInfo[])",
						"numberOfBytes": "32",
						"value": "t_array(t_struct(RedeemInfo)1019_storage)dyn_storage"
					},
					"t_mapping(t_address,t_bool)": {
						"encoding": "mapping",
						"key": "t_address",
						"label": "mapping(address => bool)",
						"numberOfBytes": "32",
						"value": "t_bool"
					},
					"t_mapping(t_address,t_mapping(t_address,t_uint256))": {
						"encoding": "mapping",
						"key": "t_address",
						"label": "mapping(address => mapping(address => uint256))",
						"numberOfBytes": "32",
						"value": "t_mapping(t_address,t_uint256)"
					},
					"t_mapping(t_address,t_uint256)": {
						"encoding": "mapping",
						"key": "t_address",
						"label": "mapping(address => uint256)",
						"numberOfBytes": "32",
						"value": "t_uint256"
					},
					"t_string_storage": {
						"encoding": "bytes",
						"label": "string",
						"numberOfBytes": "32"
					},
					"t_struct(RedeemInfo)1019_storage": {
						"encoding": "inplace",
						"label": "struct XEvmosToken.RedeemInfo",
						"members": [
							{
								"astId": 1012,
								"contract": "contracts/space.sol:XEvmosToken",
								"label": "EvmosAmount",
								"offset": 0,
								"slot": "0",
								"type": "t_uint256"
							},
							{
								"astId": 1014,
								"contract": "contracts/space.sol:XEvmosToken",
								"label": "xEvmosAmount",
								"offset": 0,
								"slot": "1",
								"type": "t_uint256"
							},
							{
								"astId": 1016,
								"contract": "contracts/space.sol:XEvmosToken",
								"label": "beginTime",
								"offset": 0,
								"slot": "2",
								"type": "t_uint256"
							},
							{
								"astId": 1018,
								"contract": "contracts/space.sol:XEvmosToken",
								"label": "endTime",
								"offset": 0,
								"slot": "3",
								"type": "t_uint256"
							}
						],
						"numberOfBytes": "128"
					},
					"t_uint256": {
						"encoding": "inplace",
						"label": "uint256",
						"numberOfBytes": "32"
					},
					"t_uint8": {
						"encoding": "inplace",
						"label": "uint8",
						"numberOfBytes": "1"
					}
				}
			},
			"userdoc": {
				"kind": "user",
				"methods": {
					"allowance(address,address)": {
						"notice": "See {IERC20-allowance}."
					},
					"approve(address,uint256)": {
						"notice": "See {IERC20-approve}."
					},
					"balanceOf(address)": {
						"notice": "See {IERC20-balanceOf}."
					},
					"cancelRedeem(uint256)": {
						"notice": "Cancels an ongoing redeem entry"
					},
					"convert(uint256)": {
						"notice": "Convert caller's \"amount\" of Evmos to XEvmos."
					},
					"decimals()": {
						"notice": "Returns the number of decimals used to get its user representation."
					},
					"decreaseAllowance(address,uint256)": {
						"notice": "Atomically decreases the allowance granted to `spender` by the caller."
					},
					"finalizeRedeem(uint256)": {
						"notice": "Finalizes redeem process when vesting duration has been reached"
					},
					"getUserRedeemsLength(address)": {
						"notice": "returns quantity of \"userAddress\" pending redeems"
					},
					"increaseAllowance(address,uint256)": {
						"notice": "Atomically increases the allowance granted to `spender` by the caller."
					},
					"initialize(string,string,uint256,uint256,uint256,uint256)": {
						"notice": "Contract parameter initialization."
					},
					"isTransferWhitelisted(address)": {
						"notice": "returns if \"account\" is allowed to send/receive XEvmos"
					},
					"name()": {
						"notice": "Returns the name of the token."
					},
					"redeem(uint256,uint256)": {
						"notice": "Initiates redeem process (XEvmos to Evmos)"
					},
					"symbol()": {
						"notice": "Returns the symbol of the token, usually a shorter version of the name."
					},
					"totalSupply()": {
						"notice": "See {IERC20-totalSupply}."
					},
					"transfer(address,uint256)": {
						"notice": "See {IERC20-transfer}."
					},
					"transferFrom(address,address,uint256)": {
						"notice": "See {IERC20-transferFrom}."
					},
					"unbondingBalancOf(address)": {
						"notice": "See {IERC20-balanceOf}."
					},
					"updateRedeemSettings(uint256,uint256,uint256,uint256)": {
						"notice": "Updates all redeem ratios and durations."
					},
					"updateTransferWhitelist(address,bool)": {
						"notice": "Adds or removes addresses from the transferWhitelist."
					}
				},
				"version": 1
			}
		}
	}
}